:020000040800F2
:10000000C8C20120453000084130000841300008D6
:100010004130000841300008413000080000000075
:100020000000000000000000000000004130000857
:10003000413000080000000041300008456A000817
:10004000413000084130000841300008B1B00008DC
:10005000413000084130000875B100084130000807
:1000600041300008DD6900084130000841300008D7
:10007000413000084130000841300008413000089C
:10008000413000084130000841300008413000088C
:10009000413000084130000841300008413000087C
:1000A000413000084130000841300008413000086C
:1000B000413000084130000841300008413000085C
:1000C000413000084130000841300008413000084C
:1000D00041300008F155000815560008395600084F
:1000E00041300008D9B00008413000084130000814
:1000F000413000084130000841300008413000081C
:1001000041300008E5930008413000084130000804
:100110005D56000881560008413000084130000853
:1001200041300008413000084130000819940008AF
:1001300041300008413000084130000841300008DB
:1001400041300008413000084130000841300008CB
:10015000413000084130000841300008A556000831
:1001600041300008413000084130000841300008AB
:10017000413000084130000841300008413000089B
:10018000413000084130000841300008413000088B
:10019000413000084130000841300008413000087B
:1001A000413000084130000841300008012070470C
:1001B00010B401F003039B0001F0FC0101F1804148
:1001C00001F59C318C680F229A4024EA02028A6071
:1001D0008A689840104388605DF8044B704700BF00
:1001E000014B1860704700BFDC00274210B40A4B77
:1001F00023F0030309490B604FF4205018800022BC
:100200005A801A711A184A600124147110805080A3
:100210008B605DF8044B7047D33A0020F00A002051
:1002200000283FD00346204A126890423AD31E4924
:100230004868834236D270B4A3F10801002403F861
:10024000044C194CA468A1423CBF174CA16033F880
:10025000085C5419A14210D0267976B9A0420CD07E
:1002600011488068844204BF0F488160505B23F8C6
:10027000080C505B10448C1A448033F8060C141898
:10028000A1420ED0257965B9074DAD68A94204BFDA
:1002900005498C6033F8081C115233F8083C1A44A5
:1002A000508070BC704700BFF00A002003314FF649
:1002B000FC730B400B2B03D9B3F5205F01D951E040
:1002C0000C232B4A1268824250D829494968884237
:1002D0004CD2F0B4A0F10804A41AA4B230F8085C1F
:1002E000A5F10801091B89B299423DD33DD05619A9
:1002F0003779CFB9555B04F108010B449BB21C4917
:1003000089688E4202D1D118194EB160D1180026E9
:100310000E71D5524C8020F8083CD15AB1F5205FBF
:1003200023D00A44538020E003F114058D421CD8E9
:1003300004F108010B449BB2D1180D4DAD68A942E0
:100340003CBF0B4DA96000250D7130F8085CD552FB
:100350004C8020F8083CD15AB1F5205F05D00A4402
:10036000538002E0002070470020F0BC704700BFBF
:10037000F00A0020002857D0F0B4034603334FF6AC
:10038000FC741C400B2C03D9B4F5205F01D94DE05F
:100390000C24294B19689B685B1A9BB2C4F5205545
:1003A000AB4245DA2646C8180279002A37D1CA5A24
:1003B000083AD21A3746A24231D31437BA4213D37D
:1003C00004F108021A4492B28C18002525710588A0
:1003D0008D5263800280012303718B5AB3F5205F35
:1003E00004D00B445A8001E001230371124B9B6837
:1003F000984212D11A795AB10F4A51688B420AD0E9
:1004000014681B8823441A7922B18B42F9D102E087
:10041000194600E01946084B9960083009E0038846
:10042000AB42C0DB002004E000207047002000E069
:100430000020F0BC704700BFF00A002070B50646EF
:10044000114B1B79DBB2082B08BFC6B20F4D02243B
:10045000214628460DF018FB0028F9D031460B48FC
:100460000DF010FB094D0124214628460DF00CFB30
:100470000028F9D005480DF001FB034B1B79DBB2D6
:10048000082B08BFC0B270BD00000020003800403B
:100490002DE9F04389B001214FF4804004F01CFDA8
:1004A0000024ADF80C404FF48273ADF80E30ADF877
:1004B0001040ADF81240ADF814404FF40073ADF8A1
:1004C00016300823ADF81830ADF81A40DFF8C490A4
:1004D00003A948460DF0A2FA0121062004F0EEFC23
:1004E0000C23019302268DF808608DF809608DF8C1
:1004F0000A408DF80B40264F01A9384609F0B0FF9D
:100500004FF4806301938DF808608DF809608DF8D1
:100510000A408DF80B40DFF8808001A9404609F0C1
:100520009FFF012501958DF808508DF809608DF821
:100530000B508DF80A4001A9384609F091FF20239D
:1005400001938DF808508DF809608DF80B508DF8E7
:100550000A4001A9404609F083FF05220A214046CE
:1005600009F0D0FF05223146384609F0CBFF0522BD
:100570000321384609F0C6FF2946384609F0BEFF78
:10058000294648460DF06CFA09B0BDE8F08300BF7B
:100590000008024000380040000402400A4B1B687B
:1005A0000A4AA2FB03239B0C013BB3F1807FFCD2E0
:1005B000074A5360F021074B83F823100023936010
:1005C00007231360704700BFC401002083DE1B4374
:1005D00010E000E000ED00E0034B1B681BB1024A95
:1005E0001368013B13607047000B00204FF47A72D0
:1005F000034B1A601A461368002BFCD1704700BFEA
:10060000000B002010B5044618B1FFF7EFFF013CC6
:10061000FBD110BD082300BF013B13F0FF03FAD14B
:10062000704700BF08B501214FF4006004F08CFC56
:1006300000214FF4006004F087FC08BD10B40B4C9F
:100640006268816843681943C368194303681943A2
:100650000369194322F4FD4323F07F030B43027D1A
:10066000134363605DF8044B704700BF002C0140EA
:10067000014B1860704700BFA0802542014B1860F5
:10068000704700BF002C0140024B186800F00300C7
:10069000704700BF002C014010B40368094A936002
:1006A000D36823F4FF6323F00703446881680C4395
:1006B000C1680C43016921430B43D3605DF8044BCF
:1006C000704700BF002C0140014B1869C0B2704751
:1006D000002C014082B000230193034B034401939B
:1006E000019B186802B07047142C014010B40368D5
:1006F00009494B6243688B62CB6A23F0F702846836
:10070000C3681C4303692343406903431343CB621B
:100710005DF8044B704700BF002C0140014BD3F83B
:1007200080007047002C0140014B1860704700BFEB
:100730008C852542034B5B6B034214BF01200020D4
:10074000704700BF002C0140034B5B6B034214BF9A
:1007500001200020704700BF002C0140014B98632E
:10076000704700BF002C014010B5044607F080FA26
:10077000CC21204607F0AAFB4421204607F0A6FB27
:1007800010BD00BF0B78282B7AD1F0B585B0174685
:100790000C46054607F042FB0346002874D0284665
:1007A00007F066FA2146284607F038FCBE212846A5
:1007B00007F08CFB0DF1030403AE284607F096FB0F
:1007C00004F8010FB442F8D1082101A807F042FC57
:1007D0009DF80C30834256D19DF805609DF8043099
:1007E00043EA0626B4B2284607F042FA16F4004F50
:1007F0001DBF6442A4B201210021C4F307132209E2
:1008000002F0700213439DF80820C2F34112032A3C
:1008100023D8DFE802F0020D141BC4F3C00207EE78
:10082000902AF8EEE77AB6EE007A67EE877A17E05C
:10083000C4F3810207EE902AFAEECF7A10E0C4F3F7
:10084000420207EE902AFAEEEE7A09E004F00F0277
:1008500007EE902AFAEECE7A02E0DFED0D7A002361
:100860005BB207EE103AB8EEC77A77EE277A19B185
:100870009FED087A77EE677AC7ED007A012303E0EF
:100880000023184670470023184605B0F0BD00BF8E
:1008900000007F43000000002DE9F8430B78282B6F
:1008A0005BD115460E46044607F0E2F93146204674
:1008B00007F0B4FBBE21204607F008FB204607F0F6
:1008C00015FB204607F012FB204607F00FFB814680
:1008D000204607F00BFB8046204607F007FB074643
:1008E000092D02D100F09F0712E00A2D04D100F07B
:1008F000BF0747F020070BE00B2D04D100F0DF0706
:1009000047F0400704E00C2D04BF40F06007FFB241
:10091000204607F0ADF93146204607F07FFB4E2117
:10092000204607F0D3FA4946204607F0CFFA414661
:10093000204607F0CBFA3946204607F0C7FA204692
:1009400007F096F93146204607F068FB482120461B
:1009500007F0BCFA0120BDE8F8830020BDE8F88369
:1009600008B507F05BFA08BD6FF00900704700BFDB
:10097000F0B4164B18884FF480444FF6FF764FF4CE
:100980004047B0421ABF013080B23846104901F1E9
:10099000100551F8043B1B688BB15A8B82420BD176
:1009A00002E05A8B824207D1013CA4B2002CE8D16C
:1009B000064B1880204606E0DB68002BF1D18D4203
:1009C000E7D1024B1880F0BC704700BF0C0000203C
:1009D0007CC70108F8B5037E53BB06460C461AB91E
:1009E000FFF7C6FF024628B3194D05F1100755F869
:1009F000043B1B686BB1598B914207D1E3B1196875
:100A0000E1B1ECB12068E8B181421DD0DB68002B78
:100A1000F1D1BD42EBD114B1236803B133607283CD
:100A20000C4B1A68F2601E6004F050FB00200CE0D2
:100A3000FA200AE0FE2008E0F82006E0F82004E0B2
:100A4000F82002E0F82000E0F82040B2F8BD00BF36
:100A50007CC70108F862002038B5037E002B48D11E
:100A60000446032001F056FE0546002843D02369C2
:100A70000361638B438301230376637E4376237A8A
:100A800043F002030372A37A8372637A437223688A
:100A90000360638BFBB1194B1A68944202D1E26880
:100AA0001A6016E0164B1A609AB1D3689C420BD1BB
:100AB00005E0DA68944206D1114A136000E013465B
:100AC000E268DA6005E01346002BF2D100220C4BFD
:100AD0001A600023E3602146022001F031FE094B39
:100AE0006B61094B1A68EA601D6004F0EFFA284652
:100AF00038BD002038BD002038BD00BFF86200209E
:100B0000F462002069090008F0620020F0B4014698
:100B1000866A858DAA19046BC38E40F2B450834255
:100B200088BF0346101BC31A002B01DBCD8509E0EB
:100B3000331B002B03DD0023CB85184602E0A41BEA
:100B4000CC850020F0BC704710B50446838D194455
:100B500089B240F66833994292BF818540F6683386
:100B60008385FFF7D3FF40F2D923984206DDA37FA8
:100B700043F00203A37720460EF084FC10BD00BFB3
:100B800050B110B50446406808B107F0F5FA2146A7
:100B9000042001F0D5FD10BD704700BF034640B1F1
:100BA00010B51C681846FFF7EBFF2346002CF8D160
:100BB00010BD70474176704701617047C16770474B
:100BC00081677047C0F88810704700BF4161704767
:100BD000C0F8841080F82020704700BF037E012BEE
:100BE00018D90A2B16D010B50446406F18B107F07B
:100BF000C3FA002363674FF6FF73A386E06EFFF727
:100C0000CDFF206FFFF7CAFF0023E3662367A4F838
:100C10006A3010BD704700BF2DE9F04F83B0B44A71
:100C2000136801331360B34A137801331370154608
:100C3000B14FDFF8D8B2B14B1C68002C00F04481F2
:100C400000262B7894F821209A4201D1E46838E1FB
:100C500084F82130227E022A05D194F84630062BF2
:100C600040F06681A9E094F846300C2B53D094F8FC
:100C70009110C1B194F890300133DBB284F8903018
:100C80009F4A0A44D27B9A4248D8002384F8903085
:100C900006299CBF013184F8911020460EF0F4FD26
:100CA0004FF0000842E0A18E11F4004F04BF013163
:100CB000A186216FA9B3B4F93400B4F94410884275
:100CC00032DB022A0CD0B4F94010B4F9422002EB16
:100CD000E1028B490B441B7E02FA03F3A4F8443073
:100CE0000023A386B4F86020B4F84C30934228BFA8
:100CF00013465B08A4F84E30E28EB3EB420FBCBF44
:100D00005300A4F84E30A4F84C2020460EF030FDDD
:100D10004FF000080AE04FF0010807E04FF000082C
:100D200004E04FF0000801E04FF00008237E062B9E
:100D300010D1A37F13F0100F00F0FE806C4B1B68E6
:100D4000626A9B1A282B40F2F78008F101085FFACB
:100D500088F8F1E0227A12F0080F33D0042B01D08A
:100D6000072B32D1624B1A68636AD21AD4F88C000E
:100D700000F5242303F6B843ABFB0313B2EB531F78
:100D800006D908F101085FFA88F84FF0010926E05A
:100D900094F892105B4B03FB0103ABFB0313B2EB24
:100DA000531F15D920460EF051FD94F892300133AF
:100DB00084F892304FF0000911E04FF000094FF035
:100DC00001080CE04FF0000909E04FF0000906E0CF
:100DD0004FF0000903E04FF000094FF00108237EB7
:100DE000032B0AD1424B1B68626A9B1A282B10D92D
:100DF00008F101085FFA88F80BE0092B09D13C4B98
:100E00001B68626A9B1AF02B84BF08F101085FFA25
:100E100088F8B8F1000F2FD02046FFF7DFFE16B19B
:100E2000E368F36002E0E368344A1360B9F1000F4D
:100E300009D0A16A206DA38B0193638B0093231DBE
:100E400022460EF057FCD4F88880D4F810A0D4F8CD
:100E50000C902146022001F073FC00233B70B8F196
:100E6000000F27D06FF009015046C0473B78002B98
:100E70007FF4E1AE4C4624E0D4F80C80E37F0133EC
:100E8000DBB2E37794F820209A4215D80023E37769
:100E90003B70D4F884303BB12146206998473B78B9
:100EA000002B7FF4C8AE50B920460EF0EBFA264670
:100EB000444606E04C4604E02646444601E0264609
:100EC0004446002C7FF4BDAE0F4B1C68002C36D07E
:100ED0000025074E02279846626A33689B1AF02B5A
:100EE00021D92046FFF77AFE95B1E368EB6012E066
:100EF000EC620020040B0020E4620020E862002085
:100F00007CC70108F8240100FC620020D34D621068
:100F1000E368C8F80030D4F80C902146384601F058
:100F20000FFC4C4601E02546E468002CD4D106E0D5
:100F30000C2B7FF49CAE4EE74FF0000969E703B03D
:100F4000BDE8F08F10B50C4602688A4202D1D36822
:100F5000036016E0164B1A609AB1D36899420BD120
:100F600005E0DA68944206D1114A136000E01346A6
:100F7000E268DA6005E01346002BF2D100220C4B48
:100F80001A600023E3602046FFF728FE237E0A2B29
:100F90000BD0012B09D0A37F13F0010F05D043F034
:100FA0000203A37720460EF06DFA0023237610BDCE
:100FB000F462002010B582B00446002900F0AC8035
:100FC000037E042B02D0072B40F0A680636F2BB961
:100FD000A28D40F668339A4200F09E80A38B019365
:100FE000638B0093231D2246A16A206D0EF082FBC5
:100FF0002046FFF7F3FD584B1A68944202D1E2688D
:101000001A6016E0554B1A609AB1D3689C420BD116
:1010100005E0DA68944206D1504A136000E01346B6
:10102000E268DA6005E01346002BF2D100224B4B58
:101030001A600023E3600122494B1A70237E042BBF
:1010400009D10A232376474B1A68E2601C6004F03A
:101050003DF800207DE02146022001F071FB0020D8
:1010600077E0638BFBB1404B1A68944202D1E2688F
:101070001A6016E0394B1A609AB1D3689C420BD1C2
:1010800005E0DA68944206D1344A136000E0134662
:10109000E268DA6005E01346002BF2D100222F4B04
:1010A0001A600023E3602146022001F049FB49E079
:1010B00021462E48FFF746FF2146032001F040FB62
:1010C00040E021462448FFF73DFF0122244B1A70DF
:1010D0002146022001F034FB34E020460EF08AF96C
:1010E0000346A8BB052323762EE020460EF082F9A6
:1010F000034668BB0523237626E020460EF07AF9E6
:10110000034628BB092323761EE020460EF0BAF9D9
:1011100000201EE000201CE0237E072BFAD801A24D
:1011200052F823F063100008B1100008C310000843
:10113000DB100008EB10000815110008151100085D
:10114000FB100008002004E0002CDED1002000E0AD
:10115000184640B202B010BDE8620020F4620020E0
:10116000E4620020FC620020F8620020F0620020AF
:1011700008B5037E012B03D0837F43F010038377F0
:101180000121FFF717FF08BD10B5084642B114460C
:101190001189FFF7D9FC204606F0EEFF002004E09D
:1011A00013B9FFF7E5FF00E0002040B210BD00BF1B
:1011B000F8B50446456F6F7B00234367C66F26B1C1
:1011C0002A4601460069B04705E000232A46014649
:1011D0001846FFF7D9FFB0B917F0200F1AD0A38D2A
:1011E00040F6683293421CBF0133A385E56F9DB181
:1011F00000231A4621462069A84710F10A0F0CBFA8
:10120000F62000200BE040B210F10A0F06D065670F
:10121000002004E0002002E0002000E0F62040B2C0
:10122000F8BD00BF2DE9F843184A13780133137055
:10123000174F1546174E4FF000083C681DE0FEE7BB
:1012400084F82130A37F13F0010F09D043F002038B
:10125000A37720460EF016F9A37F23F00303A377AC
:10126000D4F80C90636F3BB186F800802046FFF7FE
:101270009FFF3378002BE0D14C462CB12B7894F8AB
:1012800021209A42DCD1DAE7BDE8F883040B002084
:10129000E8620020E462002008B5FFF7C3FF054ABA
:1012A00053780133DBB2537013F0010F01D0FFF715
:1012B000B3FC08BD040B00202DE9F04383B00446C5
:1012C000037E0A2B08D101461A48FFF73BFE214650
:1012D000022001F035FA2AE00E46D0F85080D0F80E
:1012E0002890D0F88850076901461348FFF72AFE76
:1012F0000122124B1A70206F08B1FFF74FFCE06E0D
:1013000008B1FFF74BFC4EB1A38B0193638B0093A5
:10131000231D2246494640460EF0ECF921460220A4
:1013200001F00EFA1DB16FF009013846A84703B06D
:10133000BDE8F083FC620020E8620020E462002047
:1013400008B50121FFF7B8FF08BD00BF034A506888
:10135000034B1B6818445060704700BF0C0000200E
:10136000EC620020F8B50546022001F0D3F90446EE
:10137000002835D1384B1B6873B1384A14680146D0
:101380005A6AA21A8A4224BF11461846DB68002B0B
:10139000F6D108B1FFF7D4FF022001F0BBF90446F3
:1013A000F0B92F4B1B68ABB12C4A176806467F2457
:1013B0005A7E954208D3A24206D8596A791AB14298
:1013C00002D314460E461846DB68002BF0D108B154
:1013D000FFF7B6FF022001F09DF90446002838D03F
:1013E0009422002120460FF0C1FB657641F2D063C4
:1013F000A4F866300025A4F8685040F66833A38549
:10140000E3856572FF23A3724FF40673E386062318
:10141000A4F84430A4F84050A4F842304FF6FF73CB
:10142000A3860123A4F84C30FFF790FFA065206548
:10143000A064E065094B1B6863620A4B1B7884F863
:101440002130E577084BE367084BC4F88C3084F80B
:1014500092502046F8BD00BFFC620020EC620020E4
:10146000E8620020040B00208911000800DD6D00F7
:1014700008B54020FFF776FF08BD00BF10B5044651
:1014800008460CF059F930B1838D23B1283B9BB24B
:101490009C4228BF1C46204610BD00BFF8B5047E04
:1014A000002C6DD100296DD01E460D4604460B68F8
:1014B0004360828308B1036833B9201D0CF03CF906
:1014C000002861D043682360678B27B9FFF750FA83
:1014D000608300285AD0FFF739FF0022A2622065FE
:1014E0000138A064E06540F66833A385E385226394
:1014F000A4F860304FF40670E0862946FFF7BEFF7F
:10150000E0860123A4F84C3000EB80009840A4F85A
:101510004E00C4F88060022120460DF007FF00282D
:1015200036D102232376EFB11A4B1A68944202D1C6
:10153000E2681A6016E0184B1A609AB1D3689C42B0
:101540000BD105E0DA68944206D1134A136000E03B
:101550001346E268DA6005E01346002BF2D1002260
:101560000D4B1A600D4B1A68E2601C6003F0AEFD73
:1015700001220B4B1A7020460DF084FF002007E07B
:10158000F72005E0FA2003E0FC2001E0FE20FFE761
:1015900040B2F8BDF8620020F4620020E86200204A
:1015A000E4620020F8B50546214B1C68A08904F0D0
:1015B0002BFAC0F30F30052838D91D4B1B689889CA
:1015C00004F022FA000B0538800080B270B304F1F9
:1015D0001402002340F2B35740F2B4561C46D15CCB
:1015E000012903D011B3022903D018E001339BB2C3
:1015F0001AE0D1184978042918D1191D814215DC47
:10160000144494F802E0E17841EA0E214C1EA4B2A1
:10161000BC4288BF3146E98604339BB204E01444DF
:10162000617819B10B449BB28342D7D3F8BD00BF98
:10163000080B00202DE9F84304469B4B1B7913F05F
:10164000100F00F07C81B0F86050806D626D964B99
:101650009B68D11A00290FDB9A4204D1924AD268C2
:10166000821A002A08DB904AD268904226D18E4A1C
:101670001268D289AA4221D98B4A1268D1898EB2C6
:10168000A4F86010D28991B2B4F862708F4238BF6A
:10169000A4F862206365844BDB68A36546B994F8BF
:1016A00091305BB984F89030012384F8913005E0E3
:1016B00094F8913013B1002384F891307A4BDA68B2
:1016C000A36CD11A002937DC0021A4F864107649F4
:1016D000098A002940F00D822844B4F86050A16DB9
:1016E0002944884240F00582B4F934100029C0F240
:1016F00000829A4240F0FD8194F84720531CDBB2EF
:101700009A4238BF84F8473094F84730032B09D900
:10171000B4F84C20E38E13449BB29A4207D2A4F84B
:101720004C3004E0032B02D120460EF063F8E36E48
:10173000002B40F0BB80D7E0012900F18A80216DA9
:10174000511A002900F38580A17F11F0040F06D003
:1017500021F00401A177B4F84E10A4F84C10002039
:1017600084F84600B4F94050B4F8421001EBE501AA
:10177000A4F84410D31A9BB2A4F86430B4F86610ED
:101780000B44A4F8663084F84700A264237E032B40
:1017900018D9B4F84C20B4F84E30934207D9E38EF0
:1017A00013449BB29A420DD2A4F84C300AE0E38E67
:1017B00003FB03F393FBF2F313449BB29A4238BF4B
:1017C000A4F84C30236F1BBB3AE0256F2B682367CE
:1017D000686806F0CDFDB4F864305BB1EB689889B9
:1017E00004F012F910F0010F04D0B4F86430013B9A
:1017F000A4F86430686806F0BBFDB4F86830181AC5
:10180000A4F868002846FFF7BBF9236F0BB917E06F
:10181000254FDB68586804F009F90546236F1E89D7
:10182000DB68988904F0F0F810F0030018BF01207D
:101830000644FB68ED1A3544002DC6DD236F1BB945
:101840004FF6FF73A38601E00023A3860023E3770E
:101850006DE70023A4F8643069E7E56E2B68E36662
:101860000BB9A4F86A80686806F082FDB4F86430A9
:101870005BB1EB68988904F0C7F810F0010F04D051
:10188000B4F86430013BA4F86430686806F070FD79
:10189000B4F86830181AA4F868002846FFF770F901
:1018A000E36E33B920E000BF080B0020944F4FF0E7
:1018B0000008FD68DB68586804F0B8F88146E36EFC
:1018C0001E89DB68988904F09FF8C9EB050510F0C4
:1018D000030018BF01200644AD1B002D04DBFB688C
:1018E000226D9B1A002BB8DDA36B43B3E26B8449D6
:1018F000C968521A002A22DAB4F8402081490968DE
:10190000CB1A42F3CC01591A89B288B28B189BB218
:10191000A4F8403010F4004F1CBF494288B2B4F81C
:10192000422042F38D01521A024492B2A4F842209E
:1019300043F3CC031344A4F844300023A363704B57
:101940001B8A002B00F0C380227E062A00F2BF8093
:10195000A16A6B4A92688D1A012D2DD4481C801AF9
:10196000C31A002B28DC2B46654A906942899542B0
:101970000FDD0189491B89B200259B1A0181458130
:10198000006842899A42F8DB594209B206F0B6FB78
:1019900003E0694209B206F0B1FBA26A584B9868AD
:1019A000998B0144891A9983196A9A604A60A16ADD
:1019B000531A002B08DA85E0531A002B04DAA37FB0
:1019C00043F00203A3777DE0A38DC3F10103134429
:1019D0005B1A002B76DC8A426FD1494DAE8B2B6AA5
:1019E000988904F011F810F0030018BF0120331893
:1019F0009BB22B82A28D9A4232D22B6A988904F034
:101A000003F810F0010F0CD02E6AB589284603F0B8
:101A1000FBFF00F03E0003F0F1FF25F47C55284366
:101A2000B081374BA28D9A831B6A988903F0ECFF33
:101A300000F0020083B21BB1314A938B013B9383C8
:101A40002F4DA98BA86906F067FCAE8B2B6A98898D
:101A500003F0DAFF10F0030018BF012030442882A1
:101A6000274D298AAA680A44A262A38D5B1AA3851E
:101A70002046FFF74BF8AB691A8912B16B6200235D
:101A8000AB611F4B1B6A988903F0BEFF10F0010F7A
:101A900006D01B4A92F8283043F0200382F8283001
:101AA000A37F13F0010F1ABF23F0010343F00203D9
:101AB00043F00103A377BDE8F88320460DF0BEFC98
:101AC000BDE8F88320460DF0B9FCBDE8F8830C4B67
:101AD0009B68A26A991A002905DB01339B1AA28D23
:101AE0009B1A002B09DDA37F43F00203A377BDE817
:101AF000F883002384F8473019E6BDE8F88300BF77
:101B0000080B0020EC6200202DE9F04383B004466E
:101B10000D464368197801F00F0103EB8103834AF6
:101B200013608900494206F0E9FA002840F0428437
:101B30002389132B40F23E8429467D4B186801F01F
:101B400099FF002840F03684794B1B6803F0F003BE
:101B5000E02B00F02F84754B1B68988903F054FF2D
:101B6000000BC0EB8030810009B2204606F0C6FAB7
:101B7000002840F01F846D4D2E68308803F044FF2C
:101B800030802E68708803F03FFF70802E68706888
:101B900003F04CFF7060A8602E68B06803F046FF49
:101BA000B060E8602E68F08903F02EFFF0812B68AA
:101BB000988903F029FF5FFA80FE0EF03F032B7136
:101BC0001EF0030118BF01212389194489B229821B
:101BD000584B186840B32F683E88574BD3F800C065
:101BE000534BD3F800800546002200E01D46AB8B26
:101BF000B34211D1B5F81A907B8899450CD16B6826
:101C0000634509D12B68434506D152B1EB68D360D7
:101C1000E860484B1D6004E0EB682A46002BE5D1E4
:101C200002E0002D40F0DF80444B1868002841D0CE
:101C30003E4B1E683288404B1F683D4BD3F800C0B6
:101C4000838B934233D1438B75889D422FD1456856
:101C5000BD422CD10568654529D11EF0040F22D163
:101C60001EF0020F12D0314DAE68856A751B13D479
:101C7000878DED1B002D0FDC019200932E4B2C4A1B
:101C800031442A48C0680DF035FD0CE01EF0010F0C
:101C900002D02B4B1B68436229B1837F43F00203C0
:101CA00083770DF0EFFB204606F066FAA4E3C068E8
:101CB0000028C5D1234B1F68002F00F060831B4B09
:101CC000D3F800C0BCF80200194B1E683D46002244
:101CD00000E01D466B8B834204D12B68B34206D0D3
:101CE0002DB123B1EB682A46002BF2D147E3002D3A
:101CF00000F0458322B1EB68D360EF60114B1D60AB
:101D00001EF0040F6BD11EF0100F1DD00748856820
:101D1000BCF800300193BCF802300093064B044A33
:101D20002944C0680DF0E6FC59E000BF080B002014
:101D3000B8020120E8620020B0020120FC6200200D
:101D4000EC620020F06200201EF0020F47D0687E97
:101D5000FFF708FB0646002841D09D4B1B68036037
:101D60006B8B43839B4B1B6843609B4B1A681188AA
:101D70008183032101769B68591C81620163D189AB
:101D8000A0F86010D289A0F86220A0F84E10013BA4
:101D900043652B6903616B6943612B7A23F07303FD
:101DA00003728E4B1A68C260186003F08FF901222B
:101DB0008B4B1A703046FFF7F5FB311DF08EFFF7A5
:101DC0005DFBF086122130460DF0B0FA20B1002103
:101DD0003046FFF771FA02E030460DF053FB204623
:101DE00006F0CAF908E37C4B00225A6121899983E5
:101DF0009C611F625A6283F828201EF0080F03D0EE
:101E0000637B43F0010363736B6F6BB12846FFF78D
:101E1000CFF910F10A0F00F0A4826B6F23B16E4B63
:101E20001B8A002B40F09D826E4B1D606A4B1B7914
:101E300013F0040F25D02B7E022B07D12B6D664AA1
:101E4000D268934214BF002301230BE0624B9B68CE
:101E5000AA6A9B1A00F1F981AA8D9B1A002BCCBFAC
:101E600000230123002B00F0F0815B4A92F8283018
:101E700043F0080382F82830AB7F23F00103AB77EF
:101E8000E3E113F0020F09D02B7E023BDBB2012B02
:101E900004D9AB7F43F00203AB77D6E1AB7F13F0FD
:101EA000100F40F08B82504B1B686B6286E24A4BEE
:101EB0001B7903F01203122B55D12B6FDB68586886
:101EC00003F0B4FD0130444BDB6898424BD1B5F8C8
:101ED00066300133A5F866303F4A9368591CA96201
:101EE0002963A8641268D189A5F86010D289A5F881
:101EF0006220013B6B6504232B76E918E88EFFF71F
:101F0000BDFAE88600EB80035B00A5F84E30B5F81B
:101F10004C30012B04BF400080B2A5F84C00B5F84E
:101F20006830013BA5F86830286F03682B67FEF71F
:101F300027FE2B6F1BB94FF6FF73AB8603E0002320
:101F4000AB8685F84630D5F880303BB10022294673
:101F50002869984710F10A0F00F00382AB7F43F025
:101F60000203AB7771E11C4B1B7913F0100F00F0EB
:101F70006C8119480368048A81681A8801925B8819
:101F80000093144B124A2144C0680DF0B3FB5CE18E
:101F9000114B1B7913F0100F56D00F4BD868AB6C58
:101FA000DB43C34242D42B6DC31A002B3EDC042317
:101FB0002B766B6943B10022294628699847A8B15E
:101FC00010F10A0F00F0CD812846FFF7B9F9C8E1FA
:101FD000B8020120B0020120080B0020E8620020B6
:101FE000E462002000630020EC620020B5F84C4061
:101FF0002846FFF71FFBB5F8643013B1013BA5F885
:102000006430012CEB8E04BF5B009BB2A5F84C3012
:10201000A44B93F8283013F0200F00F01681AB7F0B
:1020200043F00203AB7707232B760EE19D4B1A6832
:102030001C8A996813880193538800939A4B9B4A92
:1020400021440DF057FB00E113F0020F00F0FD807A
:10205000AB6A013B934A9268934240F0F68028466F
:102060000DF09EFBF1E02846FFF7E4FA8D4B93F864
:10207000283013F0200F00F0E880AB7F43F002031C
:10208000AB7707232B76E0E02846FFF7D3FA854BA2
:1020900093F8283013F0200F41D0824B1B7913F0B6
:1020A000100F35D02A6D7F4BDB689A4230D1AB7F61
:1020B00043F00203AB772846FEF790FD7C4B1B688C
:1020C0009D4203D1EA687A4B1A6015E0794A1360A1
:1020D000002201200AE0D9688D4205D10AB1754A73
:1020E0001360EA68DA6007E002460B46002BF2D183
:1020F00012B100226F4B1A6001226F4B1A700A2333
:102100002B766E4B1A68EA601D6002F0DFFF9CE0E0
:10211000AB7F43F00203AB7708232B7695E0614B4E
:102120001B7913F0100F00F090802A6D5D4BDB6877
:102130009A4240F08A8006232B7686E02846FFF7F5
:1021400079FA584B93F8283013F0200F7DD0AB7FED
:1021500043F00203AB772846FEF740FD544B1B6863
:102160009D4203D1EA68524B1A6014E0514A136051
:102170008BB1DA68AA420AD105E0D3689D4205D145
:102180004C4B1A601346EA68DA6004E01A46002AEB
:10219000F3D1484B1A600122474B1A700A232B7661
:1021A000464B1A68EA601D6002F090FF4DE0284639
:1021B000FFF740FA3B4B1B7913F0100F45D02A6D07
:1021C000384BDB689A4240D12846FEF707FD384B72
:1021D0001B689D4203D1EA68354B1A6015E0354A09
:1021E0001360002201200AE0D9688D4205D10AB1AE
:1021F000304A1360EA68DA6007E002460B46002BBB
:10220000F2D112B100222B4B1A6001222A4B1A7014
:102210000A232B76294B1A68EA601D6002F056FFEC
:1022200013E02846FFF706FA1E4B1B7913F0100F38
:102230000BD02A6D1B4BDB689A4206D1194A92F8E3
:10224000283043F0100382F82830164B93F82830DA
:1022500013F0080F0FD0D5F888301BB16FF00A01CA
:102260002869984729461248FEF76CFE2946022045
:1022700000F066FA75E013F0100F21D0AB7F13F079
:10228000100F06D1D5F888301BB16FF00B0128690B
:10229000984729460648FEF755FE2946022000F0D9
:1022A0004FFA5EE0080B0020B0020120B8020120C6
:1022B000E8620020F4620020E4620020FC6200205A
:1022C000B5F864203AB1AB6F2BB12946286998471D
:1022D00010F10A0F45D04A4B5A6AF2B1AB7F13F0A6
:1022E000100F06D0104605F047FF2846FFF728F8E4
:1022F00037E0EC6F24B1002329462869A04704E0A9
:10230000002329461846FEF73FFF43B213F10A0F98
:1023100027D010B13A4B5B6A6B67394B93F8283082
:1023200013F0200F17D06B6F23B15A7B42F02002BD
:102330005A7310E0AB8D40F6683293421CBF0133F4
:10234000AB85EC6F3CB100231A4629462869A047AB
:1023500010F10A0F05D000222A4B1A6028460DF012
:1023600091F80022274B1A60254B5A629869002881
:1023700042D005F001FF0022214B9A613CE0204B46
:102380001B68988903F040FB00F0040083B26BB92E
:102390001B480368058A81681A8801925B8800934C
:1023A000194B1A4A2944C0680DF0A4F9204605F0DB
:1023B000E3FE21E0204605F0DFFE1DE0002385F866
:1023C00092302846FFF7EEF82B7E023B072B3FF6B4
:1023D0003CAF01A252F823F0AF1E0008911F000885
:1023E00067200008892000083D21000867200008B8
:1023F000AF2100082322000803B0BDE8F08300BF2E
:10240000080B002000630020B0020120B802012068
:1024100008B5364B984208D10121102002F094FDF6
:102420000021102002F090FD08BD314B98420AD1E6
:1024300001214FF4003002F079FD00214FF400300B
:1024400002F074FD08BD2B4B98420AD101214FF4D4
:10245000802002F06BFD00214FF4802002F066FD29
:1024600008BD254B98420AD101214FF4002002F00B
:102470005DFD00214FF4002002F058FD08BD1F4B08
:1024800098420AD101214FF4801002F04FFD002143
:102490004FF4801002F04AFD08BD194B984208D154
:1024A0000121202002F050FD0021202002F04CFDEF
:1024B00008BD144B98420AD101214FF0804002F030
:1024C00035FD00214FF0804002F030FD08BD0E4B7D
:1024D000984209D101214FF0004002F027FD002170
:1024E0004FF0004002F022FD08BD00BF0010014087
:1024F0000044004000480040004C004000500040B4
:102500000014014000780040007C004030B585B0E8
:1025100004460D46038A9BB223F44053CA881343F2
:10252000038283899BB223F4B05323F00C02898881
:102530002B890B4369890B439BB213438381838AA5
:102540009BB223F44073AA8913438382684602F046
:1025500045FC1C4B9C4203D003F580639C4201D197
:10256000039B00E0029BA28912F4004F03EB83035C
:1025700003EB8303296814BF49008900B3FBF1F121
:10258000114BA3FB012358090501642300FB13131E
:10259000A28912F4004F09D0D90032310A4AA2FBB5
:1025A0000131C1F3421242EA050307E01B01323355
:1025B000054AA2FB0323C3F343132B439BB223819E
:1025C00005B030BD001001401F85EB51014B186074
:1025D000704700BF20000E4203462F4A526F12F090
:1025E000005F06D02C494A6F42F080724A67012092
:1025F00000E0002045F25551284A11600A2B8EBF99
:1026000007210321254A5160EBB1012B1DD0022B7C
:102610001DD0032B1DD0042B1DD0052B1DD0062B48
:102620001DD0072B1DD0082B1ED0092B1FD00A2B25
:1026300020D00B2B21D00C2B22D00D2B40F6FF727B
:1026400018BF00221EE005221CE00A221AE00F2219
:1026500018E01F2216E03D2214E07B2212E0FF2248
:1026600010E040F2FF120DE040F2FF320AE040F2CB
:10267000FF7207E040F6FF7204E040F2FF3201E033
:1026800040F2FF72054B9A604AF6AA221A604CF695
:10269000CC421A60704700BF003802400030004052
:1026A0002DE9F047184D25F00305184BA3F1400420
:1026B000174EB71E1436A3F11C0C4FF0000804345B
:1026C000A646C4F8008037F8020FB8B1B6F80090FB
:1026D0002B460022114600E05346196003EB090A1D
:1026E0000132194693B29842F6D8013880B200FB05
:1026F000099309FB0050CEF800001D4402366445E2
:10270000DDD1BDE8F08700BF370B0020242D00206D
:1027100048C8010808280DD8084B03EB800353F87C
:102720003C3C4BB11968054A02EB800040F83C1C68
:10273000184670470020704718467047242D002027
:1027400039B1044B03EB800050F83C3C0B6040F87F
:102750003C1C7047242D00202DE9F0410746884697
:1027600045686B689A88D2B91B6843606A680346FB
:1027700053F8081F5E689C68D868116056609460C2
:10278000D06019691161012128460BF0BFFA284673
:1027900005F0EEFD84B2284605F0EEFC00E00024D2
:1027A0007D6865B16B681E68284605F0E1FD204430
:1027B00084B2284605F0E0FC3546002EF2D10B4BE2
:1027C0001B689F4203D13A68084B1A6002E03B68DD
:1027D000C8F8003039460520FFF7B2FF034A938856
:1027E0001B1B93802046BDE8F08100BF0C2D00200C
:1027F0002DE9F041054688460026184F3B684BB34B
:10280000D5F80CC000242146204601E019461346A5
:102810005A69624509D1D5F810E09A69724504D128
:10282000B3F80CE0AA88964509D0013430B193F88A
:102830001FE0C27F964598BF184600E018461A6808
:10284000002AE3D110B1FFF787FF0644464501DABD
:10285000012CD3DC3046BDE8F08100BF0C2D0020F8
:1028600010B50446406908B105F086FC21460620F3
:10287000FFF766FF10BD00BF2DE9F04F83B007469C
:102880004668337803F00F03052B40F04F81F08842
:1028900003F0BAF88346708803F0B6F8019096F812
:1028A00000A0384605F064FD8046BE4B9B8803447B
:1028B0000A2B0CDD01463046FFF79AFF002800F096
:1028C0003581B84B9B8843440A2B00F32F81B54BCD
:1028D0001C68ACB1F268002500E01C4663699342B5
:1028E00007D13369A169994203D1A189B38899427B
:1028F00004D023682546002BEFD101E0BCBB2C4659
:102900000520FFF707FF814668B941463046FFF7CB
:102910006FFF804500F30A810520FFF7FBFE81462B
:10292000002800F003812022002148460EF01EF905
:10293000032389F81F309B4B1A68C9F80020C3F89D
:10294000009032687568B068F168C9F80820C9F865
:102950000C50C9F81000C9F814103269C9F81820D1
:10296000B9F1000F00F0E28025464C4617E0F088F0
:1029700003F04AF8C0F30C0088B9E08903F044F88A
:10298000C0F30C0058B13268D6F804E0B068F168C2
:10299000A260C4F80CE0206161613269A261814AE1
:1029A00093889844A2F80480F38803F020039BB234
:1029B00063B9A37F43F00103A3770AF00F0A019BD9
:1029C000A3EB8A0909EBCB0BA4F81CB0D7F8048061
:1029D000B8F8020003F018F898F8006006F00F0647
:1029E000A0EB860086B2B8F8060003F00DF8C0F33D
:1029F0000C00C000D7F80480002388F8003088F865
:102A0000013088F8023088F80330A8F8040006EB9B
:102A1000000C1FFA8CFCA8F806C06268A2B35368C9
:102A200099888842C0F0878052D0DA8882424FD895
:102A30004FF0010E1CE07268918888420CD2C8F8F1
:102A40000060002B00F0A980D988814240D892888C
:102A500062453DD31F601AE0884239D0D68886424D
:102A600036D823B1DB888B4218BF4FF0000E1346D7
:102A70001E68002EDFD163E01F60DA88B8F80430EA
:102A80009A4240F0888002E04FF0010E6760A37F19
:102A900013F0010F7FD0BEF1000F7CD06068436857
:102AA0009B88002B77D1D8F80030002B4BD05B6887
:102AB000B8F806109A88914206D06CE05268D9881E
:102AC0009388994267D113461A68002AF6D13AE0F2
:102AD000384605F04DFC334A9388181A90803846E2
:102AE00005F04AFB57E077684946304605F006FB9B
:102AF0003146404605F04EFC3E68002EF3D1294B8E
:102B00001B689C4203D12268264B1A6001E02368AF
:102B10002B6021460520FFF713FE404605F028FCF8
:102B2000204A9388181A9080404638E0384605F0CD
:102B300023FB002033E0C8F800204FF0010E2CE00A
:102B4000002B99D1A2E7A38B1433A38347683E6877
:102B5000234653F8082FD3F804E09868D9683A6000
:102B6000C7F804E0B860F9601A693A61A08B02F016
:102B700045FF78800023BB71FB71BB72FB7214218F
:102B8000384601F043FB7881D4F804806FF01309D4
:102B9000002EA8D1B3E7002001E0676077E703B01B
:102BA000BDE8F08F0C2D00202DE9F04F8DB00446CC
:102BB00009910A928D8DD0F80480B8F8060002F0D1
:102BC00023FFC0F30C03039300F4005083B2079378
:102BD000B4F80890A9F114091FFA89F9A5F11403B2
:102BE0000693002BB8BF0733C3F3CF030893B9F1A3
:102BF000000F00F0A380DB009BB2002614250B938E
:102C000000E03546039BC3F30C03079A1343059377
:102C1000069A4A4505DA43F4005305930B9B049347
:102C200001E0CDF8109000221421022005F0D6FA20
:102C30008246002800F084804368D8F80020D8F845
:102C40000470D8F80800D8F80C101A605F6098601B
:102C5000D960D8F810201A61DAF804B063682B4400
:102C6000636063895D1B6581049B002B37D01D4623
:102C70006689AE4228BF2E46B6B21EB92468002D22
:102C8000F6D12CE00620FFF745FD074620B9504657
:102C900005F072FAFF2054E0019663680093034642
:102CA00002223146032005F0F9F9029040B9394675
:102CB0000620FFF745FD504605F05EFAFF2040E094
:102CC000204605F061FB7C61204B3B610299504638
:102CD00005F060FBAD1BADB20DB12468C8E70598E7
:102CE00002F08CFEABF80600049D05F1140080B2E2
:102CF00002F084FEABF8020000238BF80A308BF858
:102D00000B301421584601F081FAABF80A000998FB
:102D100043690A9A51469847504605F02DFAC5EB8B
:102D200009031FFA83F9039B089A13449BB2039388
:102D3000B9F1000F7FF465AF002002E0002000E051
:102D4000FF2040B20DB0BDE8F08F00BF6128000841
:102D500010B582B0074C0323019300230093012296
:102D60004FF4704120460BF023FE4FF47043638311
:102D700002B010BD000C024000B583B000220192E9
:102D8000022300931346012102480BF011FE03B009
:102D90005DF804FB000002402DE9F041404B93F840
:102DA0004C302BB13E4B012593F89C209AB900E0A2
:102DB0000025064605EB8507394B03EB0717012372
:102DC00087F84C303D74374B7B61B8460EF0F8FA0B
:102DD000312821D806E0013550330A2DE4D14FF0D7
:102DE00000085AE03146384601F0FAFEA0B12C4AFC
:102DF000A9004B1902EB0313012058760020187626
:102E00009860D860184631461A300EF077FA254A95
:102E100013880133138040E005EB8503204A02EB61
:102E2000031300225A76204C616830460EF0FCF8FD
:102E3000B0B9A0681A4BAE007219120199189850D7
:102E4000E2684A60E2688A600022CA60227C3544F7
:102E500003EB05152A76134A1388013313801CE00F
:102E60002468002CE0D10E4B9F4205D003F15002A4
:102E7000012390450BD100E0002303EB8303084AB4
:102E800002EB03134FF0000883F84C8005E0013398
:102E900050320A2BEDD14FF000084046BDE8F081DA
:102EA00004630020122D002084C8010810B50446D8
:102EB0000F4A1388013B1380437E0BB101F01CFFC6
:102EC0000C4B9C4205D003F15002012394420AD1DD
:102ED00000E0002303EB8303064A02EB0313002206
:102EE00083F84C2010BD013350320A2BEED110BDB7
:102EF000122D00200463002038B5054608466B7E7D
:102F000033B1284601F0CAFEAB680344AB6038BD5C
:102F1000A9686B6899420DD05B1A9A42A8BF1A46FD
:102F200014462B6819440DF087FDAB682344AB6051
:102F3000204638BD4FF0FF3038BD00BF4268806882
:102F4000101A704701207047012070470120704718
:102F50000120704701207047012070470120704711
:102F60000120704701207047012070470120704701
:102F700001207047012070470120704701207047F1
:102F800008B500EB8000044B53F820300BB1984794
:102F900008BD042008BD00BF1400002008B500EBE8
:102FA0008000044B03EB800043680BB1984708BDD9
:102FB000042008BD140000207BB138B51C4600EB8E
:102FC0008000084B03EB8000056945B12346144699
:102FD00008461A462146A84738BD042070470420F9
:102FE00038BD00BF140000207BB138B51C4600EB93
:102FF0008000084B03EB8000C56845B123461446AA
:1030000008461A462146A84738BD042070470420C8
:1030100038BD00BF1400002008B500EB8000054B50
:1030200003EB80039B681BB108461146984708BD17
:10303000042008BD14000020004870470000FC4236
:10304000FEE700BF08B5114B114A9A420CD2581E38
:10305000801A20F0030004300E4B184453F8041B70
:1030600042F8041B8342F9D10B480C494FF000028F
:103070008842B8BF40F8042BFADBDFF8240001686F
:1030800041F47001016001F0F7F908BDEC0A00207D
:10309000000000209CFA0108F00A0020C402012070
:1030A00088ED00E008B501214FF0007001F030FF1D
:1030B00000214FF0007001F02BFF08BD01230360D9
:1030C000002343608360C36003614FF48042426128
:1030D0008361C3614FF40062026243628362C36230
:1030E000036343638363C363402202642022426418
:1030F0008364C364036543658365C3650366802297
:1031000042668366C366036743678367C3674FF09E
:103110008062C0F880204FF00072C0F88420C0F8B0
:1031200088304FF40011C0F88C10C0F89030C0F80F
:103130009430C0F89830C0F89C30C0F8A030C0F887
:10314000A4204FF48032C0F8A8204FF48002C0F8C9
:10315000AC204FF40052C0F8B020C0F8B430C0F832
:10316000B830704782B00023019328B1114A136828
:1031700043F00803136004E00E4A136823F00803C9
:1031800013600C4B1B6801930B4B1B680B4A1268B6
:103190000B498A4202D00B498A4202D1064A126880
:1031A0009B1A013BB3F1FF3FFBD1019A014B1A601F
:1031B00002B070470080024098FB0020C40100204C
:1031C0000095BA0A00E1F50582B00023019328B109
:1031D000114A136843F00403136004E00E4A1368B5
:1031E00023F0040313600C4B1B6801930B4B1B680B
:1031F0000B4A12680B498A4202D00B498A4202D11B
:10320000064A12689B1A013BB3F1FF3FFBD1019ABA
:10321000014B1A6002B070470080024098FB00200A
:10322000C40100200095BA0A00E1F5054A790B793E
:1032300043EA0223074A8350CA788B781B0443EA87
:1032400002630A7813434A7843EA0223024A83500E
:10325000704700BF408002404480024070B409497A
:103260000C682368084D2D682E682D68AD68E468E9
:103270000C60C3F30D43043B03604560866070BC83
:10328000704700BF306600208C7E0020374B1B68E3
:103290001A68002A5DDB70B440F2F45290420FD9F4
:1032A000334AA2FB0012920A94B240F2F45101FB9D
:1032B000120292B202B10134012C01D06CB934E097
:1032C0001A6842F040521A60C0F30C0058601A6845
:1032D00042F000421A60DB6827E000F2F450254E0D
:1032E00006FB0400C0F30C06002240F2F455601EF9
:1032F000196821F0405119603AB9196841F08051BC
:1033000019605D60824228D102E05D60904204D184
:10331000196841F0005119605E60196841F0004180
:103320001960DB6801329442E2D1104A136041F225
:103330001403114AD35813F0040F0CD01346042180
:1033400041F214029950002141F2040299500120E7
:103350000AE000207047012006E0196841F00041B2
:103360001960DB680132C3E770BC70473466002027
:103370000BB002AC0CFAFFFF00800240F0B58446AF
:10338000124B1860C2B114468646034600224FF025
:10339000004744F2F456651E1F605E6099609542D6
:1033A00086BF03F12000D860C3F80CE0013220335F
:1033B00001F2F4519442EFD141F20C03044A42F875
:1033C00003C0044A044B1A60F0BD00BF3066002001
:1033D00000800240246600208C7E0020244B1B6865
:1033E0001A68002A13DB1A6812F4807F0FD0214A72
:1033F00012689168013191609168012908BF1360DA
:103400001C4B1B681A4A12685A60012070471A68E0
:10341000002A14DB1A6812F4007F10D0186810F428
:1034200080700CD1134A11680B60136800225A6037
:1034300001229A600E4B1A68D2681A6070471A68A7
:10344000002A11DB186810F400700FD11A6812F40A
:1034500080720CD107490868816801318160D968A0
:10346000034B1960104670470020704700207047DA
:10347000306600208C7E0020F0B586460E4B18602A
:103480009AB11446034600224FF48016651E1E6052
:103490009960954286BF03F12007DF60D860013252
:1034A000203301F2F4519442F1D141F21003034A66
:1034B00042F803E0F0BD00BF346600200080024007
:1034C0000368194301607047024A136843F001031F
:1034D0001360704700900240024B186800F0010032
:1034E000704700BF0090024082B000230193104A51
:1034F00041F21803D15841F48011D150D3580193AF
:103500000C4B1B680C4A12680C498A4202D00C49C9
:103510008A4202D1074A12689B1A013BB3F1FF3F6E
:10352000FBD1019941F21803014AD15002B0704712
:103530000080024098FB0020C40100200095BA0AD8
:1035400000E1F50538B1084941F218028B5843F4FF
:1035500000538B507047044941F218028B5823F4F2
:1035600000538B50704700BF0080024038B10849BB
:1035700041F218028B5843F002038B507047044904
:1035800041F218028B5823F002038B50704700BFA2
:103590000080024008B50120FFF7E4FD0120FFF79D
:1035A00013FEFFF7A1FF0120FFF7CCFF0120FFF77B
:1035B000DDFF08BD08B50020FFF7C4FF0020FFF7BE
:1035C000D5FF0020FFF700FEFFF78EFF0020FFF77A
:1035D000C9FD08BD82B000230193114A1369890116
:1035E00001F4F86103F01C030B43C00280B20343F3
:1035F00043F0010313610B49019B013301931369EC
:1036000013F0010F02D0019B8B42F5D9019A064BB2
:103610009A421DBF024B586980B2002002B0704729
:1036200000800240FEFF0300FFFF030010B483B0E0
:1036300000230193114C236903F01C0343F003039F
:10364000890101F4F8611943C00280B2014362614B
:10365000216122460A49019B01330193136913F04A
:10366000010F02D0019B8B42F5D90198054BC01A7E
:1036700018BF012003B05DF8044B70470080024082
:10368000FEFF0300FFFF0300F0B589B004460D46BE
:1036900000230793029301230193434B1E6926F0F5
:1036A0001C0603A801F09AFB049A404B13444049BE
:1036B0008B4202D846F0080615E03E4B13443E49C3
:1036C0008B4202D846F00C060DE03C4B13443C49BB
:1036D0008B4208D93B4B13443B4A934294BF46F07C
:1036E000040646F01006304B1E614FF400420021E4
:1036F0002846FFF79BFF10B90023019392E0334B5C
:103700001B68C3EB0323324A126832498A4202D053
:1037100031498A4202D12D4A12689B1A013BB3F10A
:10372000FF3FFBD12368002B5CD001262B4F029B6F
:103730000133029331462846FFF74CFF00F00400A6
:1037400080B210B9029BBB42F1D9029A244B9A4233
:1037500002D10023019365E0002102914FF48052D1
:103760002846FFF763FF08B90023019301261B4F8A
:10377000029B0133029331462846FFF72BFF00F0EE
:10378000200080B210B9029BBB42F1D9029A144BBF
:103790009A4202D10023019344E000230293214680
:1037A000284602F05FF83DE00080024000D3CEFEE4
:1037B000BFE1E40040F1E9FD3F787D0100796CFC58
:1037C000FF596202001F0AFA7FF0FA0298FB0020FC
:1037D000C40100200095BA0A00E1F505FEFF0300D0
:1037E000FFFF0300226A63695B0843EAD20292B2D8
:1037F00000212846FFF71AFF08B900230193954BD3
:103800001B68C3EB0333944A126894498A4202D07E
:1038100093498A4202D18F4A12689B1A013BB3F145
:10382000FF3FFBD1019B2BB94FF4006323624FF4A0
:10383000804363618B4A11688B4B0B406068A168C1
:103840000843E16808432169084361690843A169A5
:103850000843E1690843216A0843616A0843A16A91
:103860000843E16A0843216B0843616B01430B4342
:1038700013601168774B1B68774A12687748824259
:1038800002D07748824202D1724A12689B1A013BE9
:10389000B3F1FF3FFBD1734B1960A16BE26B114396
:1038A000226C1143626C1143A26C1143E26C114310
:1038B000226D1143626D0A435A605968654B1B685B
:1038C000654A12686548824202D06548824202D148
:1038D000604800681B1A013BB3F1FF3FFBD1614810
:1038E0004160A36D8360E36DC3608169656EA36E03
:1038F0001D43E36E1D43236F1D43636F1D434FF64E
:1039000041730B402B43216E43EA0143836181697C
:10391000504B1B685148824202D05148824202D12A
:103920004C4800681B1A013BB3F1FF3FFBD14D4BE4
:103930009961A06FE16F0143D961D869454B1B685C
:1039400046498A4202D046498A4202D14149096821
:103950005B1A013BB3F1FF3FFBD14249C86141F221
:1039600018000D58414B2B40D4F88060D4F8845097
:103970002E43D4F888502E43D4F88C502E43D4F8DC
:1039800090502E43D4F894502E43D4F898502E43A0
:10399000D4F89C502E43D4F8A05035432B430B5001
:1039A00008582C4B1B682D498A4202D02C498A4268
:1039B00002D1284909685B1A013BB3F1FF3FFBD1F3
:1039C000284B41F218015850D4F8A400D4F8A8109C
:1039D000014341F40001D4F8AC000143D4F8B00035
:1039E0000843D4F8B8100143D4F8B40041EA800188
:1039F00003F5805319601968164B1B6817488242FB
:103A000002D01748824202D1124800681B1A013BBB
:103A1000B3F1FF3FFBD1164B1960196841F08001EB
:103A2000196019680B4B1B680C48824202D00C4885
:103A3000824202D1074A12689B1A013BB3F1FF3F51
:103A4000FBD10B4B19600198012814BF0020012005
:103A500009B0F0BD98FB0020C40100200095BA0A0F
:103A600000E1F505008002400F8120FF233FDEF8D2
:103A7000009002400246431E13F1030F14D891F840
:103A8000353003F0020303F0FF0093B14B689A4214
:103A90000CD0896853400B420AD1C94331EA020372
:103AA0000CBF0120002070470120704700207047A4
:103AB000002070470378A3F13002D2B2092A00F245
:103AC00087802DE9F04784B00D466F464FF00A0C11
:103AD0004FF010094FF008080DF10C0E302B0BD1F0
:103AE000437803F0DF02582A02D00130464604E052
:103AF000837802304E4600E06646411C002400E018
:103B0000013101F1FF3AA3F13002D2B2092A04D8FF
:103B100004FB0634303C0B78F2E7102E12D123F070
:103B20002002413AD2B2052A0CD803F10A02613BC5
:103B3000DBB21A2B34BF61234123D31A43EA0414A6
:103B40000B78DDE72E2B0DD1774543D047F8044B9A
:103B50000AF101009AF80130A3F13002D2B2092A29
:103B6000BCD939E013F0DF0F04D0A3F10902D2B2BF
:103B7000042A33D86846381A80100130042820D827
:103B8000DFE800F0351F030A1400B4F1807F27D26C
:103B9000009B44EA036414E0B4F5803F22D2019B09
:103BA0001B04009A43EA02631C430AE0FF2C1BD863
:103BB000019B1B04009A43EA0263029A43EA022330
:103BC0001C439DB1204601F025FF286001200EE036
:103BD0000020704700200AE0002008E0002006E0F6
:103BE000002004E0002002E0002000E0012004B0FA
:103BF000BDE8F08700B583B001A9FFF75BFF08B10E
:103C0000019801E04FF0FF3003B05DF804FB00BF06
:103C1000F8B507460E4615461C4602F047FF4FB161
:103C20007B1E3A4A781D13F8011F02F8011F8342D8
:103C3000F9D10CE0364B06221A7105225A71042282
:103C40009A710322DA7102221A7201225A724EB15B
:103C5000731E2F4A033613F8011F02F8011BB342EB
:103C6000F9D108E02A4BC0221A70A8225A70022209
:103C70009A707822DA704DB16B1E264A033513F81C
:103C8000011F02F8011FAB42F9D108E0204BC0220E
:103C90009A73A822DA7302221A7401225A744CB160
:103CA000621E1D4B033412F8011F03F8011FA242CC
:103CB000F9D106E0164BFF229A72DA721A730022CB
:103CC0005A73134B0022DA7401241C7583F84820C0
:103CD00083F84C2083F84D2000200021C3E90A011D
:103CE000C3E90801C3E91001C3E90E011A63A3F88F
:103CF0004A2083F84E2001F0E7FC054601F046F922
:103D0000064B1C70B5FA85F04009F8BDE39600201B
:103D1000E0960020ED960020E9960020142D00206A
:103D200008B5114B1B7813F0FF0F18D00F4B93F809
:103D30004830B3B90D4BB3F84A3043B918B10B4B07
:103D4000A3F84A0003E05022084BA3F84A2003F0EE
:103D500083F90122054B83F84820002008BD01208B
:103D600008BD002008BD00BF142D0020E0960020F3
:103D700008B501F075F908B101F076F9024B586801
:103D800001F07AF9002008BD142D0020024A536882
:103D90001844506000207047142D0020054BDB7C38
:103DA0002BB1044B187DB0FA80F040097047012018
:103DB000704700BFE096002008B5074B1B7A4BB94F
:103DC0000A460146054803F077F90122024B1A72B0
:103DD000002008BD012008BD142D00201D4800084A
:103DE00008B5064B5B7A33B903F06EF90122034B39
:103DF0005A72002008BD012008BD00BF142D00200C
:103E0000704700BF10B584B0164C247814F0FF0F33
:103E10001ED0154C94F84E40E4B9134C247DDCB10F
:103E2000114CE47CD4B1089C0294BDF81C40019470
:103E30009DF81840009406F0AFFE10F10B0F03D16F
:103E4000FFF7DEFF04200AE0003018BF012006E083
:103E5000052004E0012002E0032000E0022004B07D
:103E600010BD00BF142D0020E0960020F8B50546D7
:103E70000C46436F23BB2C4E0FCE20606160A260C6
:103E8000E360337823742B462246284920460CF001
:103E90009DFF20460DF094FA07462618244D0FCDBD
:103EA000E0517160B260F3602868306120460DF027
:103EB00087FA22181F4B19889B78215293702EE0A5
:103EC0001D4B186808609B888B80696F20460DF039
:103ED00013F820460DF074FA07462618174B07CB47
:103EE000E0517160B2602B462246104920460CF02A
:103EF0006DFF20460DF064FA074626180C4D0FCDD5
:103F0000E0517160B260F3602868306120460DF0C6
:103F100057FA2218074B19889B7821529370204634
:103F20000DF04EFA80B2F8BDA8DD0108BCDD010835
:103F3000CCDD0108A0EA0108E0DD0108E8DD0108A8
:103F4000704700BF704700BF704700BF704700BF99
:103F500030B58FB00C46384B196038490DF064F815
:103F6000002863D13649204606F06CFA00285DD15E
:103F700034480CF04DFE324C20460CF049FE002235
:103F80003149204606F03CFA0446002842D12F4829
:103F90000CF08EFE2E4C21682E480CF039FE236862
:103FA0000EA840F8043D0CF019F904AC05460FCDFD
:103FB0000FC40FCD0FC42B682360049B8DF8003015
:103FC000059B8DF80430069B8DF80530079B8DF816
:103FD0000730089B01338DF80830099B643B8DF84E
:103FE00009300A9B8DF806300D9C04A80CF0C0F82F
:103FF0000246214618480CF00BFE0021684606F0E8
:10400000A5FE18B915480CF053FE12E014480CF048
:104010004FFE0EE0014613480CF0FAFD204606F074
:10402000F9F9014610480CF0F3FD02E00F480CF0DE
:104030003FFE0FB030BD00BFB4A70020F4DD010883
:104040003097002008DE0108B0DB01081CDE010803
:10405000489F002038DE010848DE010854DE0108D0
:104060006CDE010884DE0108A0DE0108BCDE010868
:104070000020704700207047704700BF704700BFA6
:10408000704700BF30B585B00546FFF787FE20BBFF
:104090000446154B9B7A13F0FF0F20D10023134ADF
:1040A00003A928460AF084F810F1050F0CD078B95E
:1040B00003990B0E0093C1F30743C1F30722C9B262
:1040C0002846FFF7DBFF0BE00122074B9A7207E05F
:1040D0002846FFF7D5FF012402E0012400E0012477
:1040E000204605B030BD00BF142D0020F14000086F
:1040F00000B583B000220A4B9A7259B1096849B1E0
:104100000B0E0093C1F30743C1F30722C9B2FFF7B7
:10411000B5FF01E0FFF7B4FF03B05DF804FB00BF9B
:10412000142D0020704700BF0020704708B5FFF72E
:10413000F9FF08BD70B582B09DF8185015B1002682
:10414000074CA674064C20706170A270E3700126C3
:10415000E6742675009500F0E5FC02B070BD00BF66
:10416000E096002008B5054B01221A750022DA748A
:1041700006F006FD00F02CFD08BD00BFE096002013
:1041800008B50022034B1A7506F0FCFC00F018FD80
:1041900008BD00BFE096002010B483B00023ADF846
:1041A000063010F0010406D0994224DD03788DF822
:1041B000073001390130012907DD002330F8022BD7
:1041C000134402390129F9DC00E000230029C4BFAF
:1041D00002788DF80620BDF80620134498B200EB53
:1041E00013439AB202EB134354B11A0292B2C3F3CF
:1041F0000723134304E00129DFDCBDF80630F4E7B0
:1042000098B203B05DF8044B704700BF08B5FFF7E4
:10421000C3FFC04380B208BD70B500B30546002699
:10422000344669896868FFF7B7FF204484B204EB1D
:1042300010446B8913F0010F07D0C6F10106F6B2E6
:1042400023029BB2C4F307241C432D68002DE8D140
:1042500036B123029BB2C4F307241C4300E00024C0
:10426000E04380B270BD00BF002875D1002973DD26
:104270002DE9F84F994690460F460024DFF8ECB040
:10428000364E4FEA840A58F82450594628460DF015
:10429000E5FAE8B159F824301B78313B032B54D8A8
:1042A000DFE803F002070C11736983F48053736134
:1042B0004BE0736983F40053736146E0736983F4E0
:1042C0008043736141E0736983F4004373613CE0B0
:1042D000234928460DF0C2FAC8B159F80A301B78B4
:1042E000313B032B31D8DFE803F002060A0E4FF40E
:1042F0008053338329E04FF40053338325E04FF498
:104300008043338321E048F2000333831DE01549E5
:1043100028460DF0A3FAC0B159F80A301B78313B9A
:10432000032B12D8DFE803F002060A0E4FF4805385
:1043300073830AE04FF40053738306E04FF4804325
:10434000738302E048F2000373830134E4B2BC4299
:1043500097DB0548BDE8F88F03487047000C024022
:1043600030DF010838DF01087CDB010824DF0108A9
:10437000002875D1002973DD2DE9F84F9946904644
:104380000F460024DFF8ECB0364E4FEA840A58F8A6
:104390002450594628460DF061FAE8B159F8243006
:1043A0001B78313B032B54D8DFE803F002070C11D4
:1043B000736983F4805373614BE0736983F4005332
:1043C000736146E0736983F48043736141E073690C
:1043D00083F4004373613CE0234928460DF03EFA24
:1043E000C8B159F80A301B78313B032B31D8DFE8CC
:1043F00003F002060A0E4FF48053338329E04FF492
:104400000053338325E04FF48043338321E048F2A7
:10441000000333831DE0154928460DF01FFAC0B193
:1044200059F80A301B78313B032B12D8DFE803F030
:1044300002060A0E4FF4805373830AE04FF40053D0
:10444000738306E04FF48043738302E048F2000375
:1044500073830134E4B2BC4297DB0548BDE8F88FB2
:1044600003487047000C024030DF010838DF0108C4
:1044700070DB010824DF01082DE9F047ADF5176D69
:10448000FCF78CF806F052F84FF4E1320021BE48F8
:1044900001F044F8BD480CF00BFCFBF7F9FF0A20D3
:1044A000FEF79AF810B1BA480CF002FC02F0FEFADE
:1044B0000122B8490DF61C1003F0C6FBB6480CF0FB
:1044C000A7FBB6480CF0A4FB01F07CFFB4480CF04D
:1044D0009FFB6421562002F073F9B2480CF098FB60
:1044E0001021B14802F008F902F084F80A2002F025
:1044F000A9F8012001F060FF02F07CF80DF61C1015
:1045000003F07CFD70B3002600E02E46751CEDB272
:10451000691E0DF6141303EBC1010DF61C1003F018
:104520008DFD0DF61C1003F073FD0028EDD1D5B103
:1045300029469E480CF06CFB0DF613140DF61B1863
:104540009B4F14F8011F38460CF062FB4445F8D12C
:104550000A200CF071FB0DF61417741C07EBC40451
:104560000C2604E0002593480CF0A2FB08E032463C
:1045700039460DF61C10FCF78FF90837BC42F6D10E
:104580000DF61C10FCF7F0F80DF61C10FCF7E8F91E
:104590000028F9D06DB30DF614170DF5116400263F
:1045A000DFF860A2DFF86092DFF8608222463946C9
:1045B0000DF61C10FCF7E6F890B120680BF052FBEA
:1045C00002460B46314648460CF022FB20680BF0B1
:1045D00049FB02460B46414677480CF0F7FB02E0E8
:1045E00050460CF065FB013608370434F3B29D42A7
:1045F000DCD8FEF7ADFBFEF7BFFB70480CF058FBB4
:10460000012006F0D3FC6E4B399303F10943389334
:104610006FF07F43379337AB38AA39A90020FFF7F3
:10462000F7FA20B94FF480525A4B1A8303E04FF443
:104630008042584B1A83634D4AF6AA262E605020BA
:10464000FFF76EFB604C19212046FFF7B5FB0221F6
:1046500004F16400FFF7C4FB002006F0A7FC5B4CEC
:104660000021204606F066FC2378227961795848BB
:104670000CF0CEFA2E6005AC564D0FCD0FC40FCD09
:104680000FC40FCD0FC42B6823705348FFF7FAFCFB
:10469000044652480CF00CFB0022514B1A605CB9E6
:1046A00005AB029350230193D52300935823EB22AB
:1046B000A8214948FFF7A6FB01224A494A4808F0C9
:1046C00019F9132249493AA808F052F93F490B7ADF
:1046D000CA79087803900879029048790190497A5C
:1046E00001F5FA61009142493AA808F08DFC3AA818
:1046F00008F076FC01223F49002008F0FBF84AF65A
:10470000AA22304B1A6001F0BFFE402200210DF5B5
:1047100013600CF02BFA384E384C394DFFF728FB5C
:1047200011210DF5136001F06BFF112827D19DF8C1
:104730003239022B0FD128460CF06AFA0DF63410EC
:104740000CF066FA20460CF063FA402200210DF5C9
:1047500013600CF00BFA9DF83239032B0FD1304661
:104760000CF056FA0DF634100CF052FA20460CF00C
:104770004FFA402200210DF513600CF0F7F94AF6CC
:10478000AA22104B1A60C9E70014014040DF01085B
:1047900048DF0108000C024070DF010878DF0108E3
:1047A00080DF010888DF010890DF0108A4DF01082D
:1047B000C4DF0108CCDF0108D8A7002010E0010801
:1047C000C0A8027800300040C8000020B8A7002030
:1047D00024E0010844E00108F4DD010878E0010864
:1047E000B4A7002090E001084C9F002094E001084D
:1047F000A4E00108A4E90108E8E00108E0E00108FC
:10480000D4E0010800E00108E4DF0108F8DF010856
:1048100008B50120FFF7BAFA08BD00BF30B585B072
:104820000C46032834DC032800F24881DFE800F05E
:1048300002070C11A44B5B69C3F300330DE0A24BDC
:104840005B69C3F3403308E09F4B5B69C3F380337C
:1048500003E09D4B5B69C3F3C03363B19B4D0FCD48
:1048600020606160A260E36007CD20616161A261A8
:104870002B88A3831DE1964D0FCD20606160A2605F
:10488000E36007CD20616161A2612B78237710E19D
:1048900004280BD18F494B780A78C8780190897821
:1048A00000918D4920460CF091FA02E1052806D1CD
:1048B000884BDA69894920460CF088FAF9E0062825
:1048C00006D1844B9A69854920460CF07FFAF0E0C6
:1048D000072820D17F4BDB691BB9814B1868086022
:1048E000E7E07C4A92ED067AB8EE477A07EE903A16
:1048F000F8EE677AC7EE276ADFED7A7A66EEA77A76
:1049000017EE900A0BF0AEF902460B4676492046A8
:104910000CF05CFACDE0082807D16E4BD3E90823F0
:10492000724920460CF052FAC3E0092807D1694BBE
:10493000D3E90A236D4920460CF048FAB9E00A2869
:1049400006D1644B1A6B654920460CF03FFAB0E083
:104950000B2807D15F4BD3E90E23644920460CF0A6
:1049600035FAA6E00C2807D15A4BD3E910235F494A
:1049700020460CF02BFA9CE00D280FD155494B79BD
:104980000A79487A0390087A0290C8790190897967
:104990000091574920460CF019FA8AE00E280BD1F5
:1049A0004C49CB7B8A7B487C0190097C00914A4929
:1049B00020460CF00BFA7CE00F280BD14549CB7A4E
:1049C0008A7A487B0190097B0091434920460CF08C
:1049D000FDF96EE0102810D13E4B93F84C3023B116
:1049E000444B03CB2060616063E0434B1868086070
:1049F0009A889B798A808B715BE011280FD1354BA7
:104A000093F84D302BB13D4B186808601B790B7142
:104A10004FE03B4B186808601B790B7149E0122886
:104A200008D1384D0FCD20606160A260E3602B8813
:104A300023823EE0132815D1334D0021284606F08D
:104A400079FA2B7A6A7A297803912979029169791E
:104A50000191E979009102F5FA622C4920460CF0A7
:104A6000B5F926E0142809D1294D0FCD20606160E9
:104A7000A260E36003CD206161611AE0152804D1D2
:104A8000244920460CF03AFC13E0162804D12249B0
:104A900020460CF033FC0CE0172804D11F492046B7
:104AA0000CF02CFC05E018280AD11D4920460CF01A
:104AB00025FC20460CF084FC80B202E0002000E0DF
:104AC000002005B030BD00BF000C0240F4E001083A
:104AD00014E10108E096002034E1010840E10108FA
:104AE00044E101080000C84248E1010850E1010822
:104AF00058E1010878E1010880E1010888E1010836
:104B000090E1010898E10108B8A70020ACE1010894
:104B1000CCE1010890A70020A8A70020349F002026
:104B2000D8A7002010B584B09DF818403CB1009380
:104B300013460A4601461A480CF06AF806E000934C
:104B400013460A46014617480CF062F8164CA37942
:104B500062792179607A0290207A0190E079009060
:104B600012480CF055F8237CE27BA17B607C00901E
:104B70000F480CF04DF8237BE27AA17A607B00901D
:104B80000C480CF045F894F84C100B480CF040F829
:104B900094F84D1009480CF03BF804B010BD00BF6C
:104BA000E4E1010810E20108E096002034E2010887
:104BB00058E2010870E2010888E2010898E2010861
:104BC00008B502480CF024F808BD00BFD0E2010887
:104BD00008B502480CF06CF808BD00BF0CE30108F2
:104BE00030B59BB004460D4622480CF011F8012266
:104BF0002149224807F07EFE20B1014620480CF0F2
:104C000007F802E01F480CF003F82A461E4901A8E5
:104C10000CF0DCF8207C032201A91C4B40F628058F
:104C200005FB003007F0A4FE054688B101A918482D
:104C30000BF0EEFF294617480BF0EAFF63691B886B
:104C4000A3B901220C49002007F054FE00200EE019
:104C500001A911480BF0DCFF227C40F628010B4B28
:104C600001FB0233DB686360012000E000201BB021
:104C700030BD00BF1CE30108A4E901084C9F0020DF
:104C800034E3010848E3010858E30108E4A70020E1
:104C900060E3010874E3010884E3010870B582B0A1
:104CA00004460E46154600F11A02294610480BF03C
:104CB000AFFF247C40F628030E4A03FB04239A68C6
:104CC000DB689A420FD001AB4FF6FF72AA42A8BF31
:104CD0002A463146074840F6280505FB040007F040
:104CE00059FF019801E04FF0FF3002B070BD00BFE6
:104CF00098E30108E4A7002010B50446027C0A4BA3
:104D000040F6280000FB023008F06AF904F11A01AD
:104D100006480BF07DFF63691B8823B90122044913
:104D2000002007F0E7FD10BDE4A70020C0E3010864
:104D3000A4E9010808B54268064B9A4204D1064826
:104D40000BF0B6FF002008BD04480BF0B1FF0120B6
:104D500008BD00BF540C102ED4E3010808E401087C
:104D600008B502480BF0A4FF08BD00BF1CE4010811
:104D7000C1B20C4B9B8903F400539BB283B1094A27
:104D8000138803F080039BB2002BF9D089B2054B46
:104D900099801A46138803F080039BB2002BF9D048
:104DA000704700BF00140140084B00221A701A70AF
:104DB000012802D0042804D070470122034B1A7046
:104DC00070470522014B1A70704700BF70380240CF
:104DD000014B1860704700BF800E474210B4244B4F
:104DE0009B6803F00C03042B05D0082B06D00BBBEB
:104DF000204B036020E0204B03601DE01C4B5A68F1
:104E00005B6803F03F0312F4800F194A5268C2F343
:104E1000881214BF18491749B1FBF3F303FB02F2E0
:104E2000134B5B68C3F3014301335B00B2FBF3F345
:104E3000036001E00F4B03600D4CA368C3F3031341
:104E40000E49CB5CDAB20368D3404360A268C2F378
:104E500082228A5CD2B223FA02F28260A268C2F392
:104E600042328A5CD2B2D340C3605DF8044B7047D3
:104E7000003802400024F40000127A003C010020B7
:104E800000F44073B3F5407F09D108498B6823F4DF
:104E9000F81320F0704222F4407213438B60034AEF
:104EA000136FC0F30B0018431067704700380240BF
:104EB000014B1860704700BF3C0E474221B1054BC3
:104EC0001A6B104318637047024A136B23EA000001
:104ED000106370470038024021B1054B1A6C104333
:104EE00018647047024A136C23EA0000106470478C
:104EF0000038024021B1054B5A6C1043586470478A
:104F0000024A536C23EA00005064704700380240A4
:104F100021B1054B1A69104318617047024A1369A1
:104F200023EA0000106170470038024021B1054BB0
:104F30001A6A104318627047024A136A23EA000093
:104F4000106270470038024021B1054B5A6A104385
:104F500058627047024A536A23EA00005062704761
:104F6000003802404309012B02D1074B1B6804E0C3
:104F7000022B054B0CBF1B6F5B6F00F01F0023FA69
:104F800000F000F0010070470038024010B588B012
:104F9000FBF72CF9FDF784FB09F0DEF82A4BD978F2
:104FA0009A78120442EA016219780A43597842EA6F
:104FB00001220792597B1A7B120442EA0162997A14
:104FC0000A43D97A42EA01220692597C1A7C1204D9
:104FD00042EA0162997B0A43DB7B42EA032208AB87
:104FE00043F80C2D194C1A4A02921A4A01920022D7
:104FF000009206AA07A9204604F0F8FC204604F017
:105000001BFD154B1B68112B12D1204694F835302F
:1050100043F0100384F8353004F014FD0A48C378D7
:1050200082784178007800240094FFF783F804E048
:10503000064804F019FDFFF7A3F80849034804F0F7
:1050400051FD08B010BD00BFE096002078F90020A7
:10505000AD610008115C00088C2D0020CD580008BF
:1050600008B5FEF7BBF908BD08B5024800F056FDCB
:1050700008BD00BF78F9002000B583B00190019B06
:10508000114A12689B1AF92B04D9019A0E4B1A6027
:10509000FCF702F9019B0C4A52689B1A41F28732D5
:1050A000934204D9019A084B5A6000F0B5FE019B67
:1050B000054A92689B1AB3F57A7F02D3012000F06B
:1050C000ABFB03B05DF804FB7C2D0020704700BFF4
:1050D0008388C2889A420DD202899A4204BF002373
:1050E000038103890268D154038901330381C38892
:1050F0000133C380704700BF704700BF03460E4AAC
:10510000904209D002F5806290420AD002F5806296
:1051100090420DD0094800E009480A4A934201D163
:1051200008E00948094A9342094B08BF18467047EE
:105130000848704708487047004400404C01002070
:105140005C010020005000406C0100200014014070
:105150007C0100209C0100208C0100200D4B984216
:105160000DD003F5806398420FD0A3F500639842F9
:1051700014BF00230123084A904201D107E0022313
:10518000064A904208BF062302E0042300E00523FC
:10519000184670470048004000500040001401408D
:1051A00000B583B058B9072301930323009301236B
:1051B00000224FF4C0610D4809F012FC12E00128F2
:1051C0000AD1072301930323009301230022C02166
:1051D000074809F005FC05E0032803D1072105482D
:1051E000FFF78AFF03B05DF804FB00BF0000024038
:1051F000000402400010014000B583B050B90723FD
:10520000019303230093012300220C210C4809F091
:10521000E7FB12E001280AD107230193032300933F
:10522000012300226021074809F0DAFB05E003288A
:1052300003D107210448FFF75FFF03B05DF804FBCB
:1052400000000240000C02400044004010B582B053
:10525000044670B90723019303230093012300221E
:105260004FF4406100F1804000F5013009F0B8FBD7
:105270001BE001280BD10723019303230093012393
:1052800000224FF440610D4809F0AAFB13E0022808
:105290000BD10723019303230093012300224FF432
:1052A0004071074809F09CFB05E0032C03D107215E
:1052B0000448FFF721FF02B010BD00BF0008024004
:1052C000000C02400048004000B583B048B90823F4
:1052D000019303210091012300220D4809F080FB76
:1052E00013E001280BD1082301930323009301232A
:1052F00000224FF44061074809F072FB05E00328E3
:1053000003D108210448FFF7F7FE03B05DF804FB62
:105310000000024000080240004C004030B583B05D
:10532000B0B90825019503240094012300224FF40D
:10533000805100F1804000F5023009F051FB0195E9
:105340000094012300220421054809F049FB05E0EF
:10535000032803D108210348FFF7CEFE03B030BD78
:10536000000C02400050004000B583B068B908232B
:1053700001930323009301230022C02100F1804008
:1053800000F5023009F02CFB13E001280BD10823B3
:10539000019303230093012300224FF48441064824
:1053A00009F01EFB05E0032803D108210348FFF79D
:1053B000A3FE03B05DF804FB001802400014014096
:1053C0002DE9F04186B00446884617461E46FFF791
:1053D00095FE054602974A4B9C420BD1494A536CB5
:1053E00043F0100353644046FFF7DAFE25238DF89F
:1053F00004301DE0444B9C420BD1424A136C43F4F1
:10540000003313644046FFF7F7FE26238DF804307F
:105410001DE03E4B9C420BD13A4A136C43F480236F
:1054200013644046FFF712FF27238DF804301DE078
:10543000374B9C420BD1334A136C43F40023136463
:105440004046FFF741FF34238DF804301CE0314B18
:105450009C420BD12B4A136C43F4801313644046D7
:10546000FFF75CFF35238DF804300DE02A4B9C429A
:105470000AD1244A536C43F0200353644046FFF79B
:1054800073FF47238DF804302046FCF7C1FF01234A
:105490008DF8073006238DF805302046FFF75EFEB5
:1054A0008DF8060001A808F039FFADF814600C9BD8
:1054B000ADF812300D9BADF810300E9BADF80E30EC
:1054C0000F9BADF80C3000232B7340F6FF73009355
:1054D000009B5A1E0092002BFAD102A92046FDF72C
:1054E00015F8A3899BB243F02003A38101232B73FA
:1054F000A3899BB243F40053A38106B0BDE8F081B9
:1055000000100140003802400044004000480040C4
:10551000004C0040005000400014014070B584B0C1
:1055200004460D4616462C4B98420AD1002303939D
:10553000029301930C22009232462748FFF740FF66
:105540001BE0264B98420AD1002303930293019358
:105550000C22009232462148FFF732FF1CE0204B1C
:1055600098420AD100230393029301930C220092E4
:1055700032461B48FFF724FF1DE01A4B9C420BD11B
:1055800000230393029301930C2200923246294692
:105590001448FFF715FF1CE0134B9C420BD100236E
:1055A0000393029301930C220092324629460E483F
:1055B000FFF706FF0DE00D4B9C420AD10023039339
:1055C000029301930C220092324629460748FFF7C6
:1055D000F7FE04B070BD00BF001001400044004061
:1055E00000480040004C00400050004000140140C2
:1055F00008B5064B1B8803F020039BB22BB1034B6D
:105600009988C9B20248FFF763FD08BD0010014048
:105610004C01002008B5064B1B8803F020039BB209
:105620002BB1034B9988C9B20248FFF751FD08BD61
:10563000004400405C01002008B5064B1B8803F0C5
:1056400020039BB22BB1034B9988C9B20248FFF7E4
:105650003FFD08BD004800406C01002008B5064B26
:105660001B8803F020039BB22BB1034B9988C9B26E
:105670000248FFF72DFD08BD004C00409C010020B2
:1056800008B5064B1B8803F020039BB22BB1034BDC
:105690009988C9B20248FFF71BFD08BD00500040C1
:1056A0008C01002008B5064B1B8803F020039BB239
:1056B0002BB1034B9988C9B20248FFF709FD08BD19
:1056C000001401407C01002030B583B001F0EEF9F8
:1056D0004B4A536C43F480435364032301930023E8
:1056E000009302224FF48071464809F061F90120CD
:1056F000FAF776FDFEF718FDD0B90B2501950324C6
:10570000009400231A4686213E4809F069F9019564
:10571000009400231A4632213B4809F061F90195B3
:10572000009400231A464FF46051384809F058F9A4
:10573000334B1A6B42F000721A631A6B42F000622C
:105740001A631A6B42F080621A63FDF7ABFCFDF737
:10575000BBFEFDF7C1FE0128FBD02D4C2046FDF716
:10576000ADFC012525600023E3614FF40072A262C5
:10577000E362A3636364E364236563654FF480625B
:105780006262C4F880304FF00072C4F884204FF495
:105790000011C4F88C10C4F89430C4F89830042375
:1057A000C4F8A030C4F8A4204FF48033C4F8A83063
:1057B0004FF48003C4F8AC304FF40053C4F8B03059
:1057C0004FF48043C4F8B83029462046FDF75CFF0B
:1057D000104B186029462846FDF7FCFE00F0040037
:1057E00080B220B10B4A136843F01003136001200C
:1057F000FEF79CFC074B1868C0B203B030BD00BF79
:10580000003802400000024000080240000402404C
:1058100074FA00208C2D002010B501210846FDF7F8
:10582000D9FE00F0040080B290B10C4B1B799BB9FB
:105830000B4804F029F90122084B1A7110BD074CDE
:1058400001236371064804F03FF90023237110BD62
:10585000024B1B79002BF2D110BD00BF8C2D002014
:1058600078F9002010B50C4610210120FDF7B2FE9A
:1058700000F004039BB21BB14FF40063236201E00C
:105880000023236200F0020080B210B100236361A4
:1058900002E04FF4804363610B4B002283F84C20FD
:1058A00083F84D206369B3F5804F03D10122064B85
:1058B00083F84C20236AB3F5006F03D10122024B19
:1058C00083F84D2010BD00BFE096002030B585B0B4
:1058D0000023039390F8353013F0100F71D03D4B37
:1058E0001B68002B38D0002103914FF48052012017
:1058F000FDF79CFE0124384D039B013303932146A1
:105900002046FDF767FE00F0200080B210B9039B2F
:10591000AB42F1D9002303932E4C21460120FFF71F
:10592000A1FF2E490A6863691A43236A13430B6077
:105930002B4B1B682B4A12682B498A4202D02B49F9
:105940008A4202D1264A12689B1A013BB3F1FF3FFB
:10595000FBD1224B1A681A60FDF71CFE244BD87845
:1059600099780A0442EA00611A780A43597842EAAF
:1059700001220292587B197B0A0442EA00619A7A5A
:105980000A43D97A42EA01220192587C197C0A041E
:1059900042EA00619A7B0A43DB7B42EA032204ABC2
:1059A00043F8102D134C01AA02A9204604F00CF86C
:1059B000204604F047F8FEF7D5FB00220E4B5A7143
:1059C00006E0FDF7F7FD0B4804F04EF8FEF7D8FBB4
:1059D00005B030BD74FA0020FEFF030000800240D5
:1059E00098FB0020C40100200095BA0A00E1F505EB
:1059F000E096002078F900208C2D0020030A43EA6D
:105A0000002080B2704700BF030A43EA002080B242
:105A1000704700BF030E43EA0062030203F47F03F2
:105A20001343000A00F47F401843704708B5FFF79E
:105A3000F1FF08BD2DE9F04F83B0364B1D68AB6810
:105A40000193002946D08B462B68002B49DB0024AC
:105A5000A24640F2F45702E02B68002B43DBBBF870
:105A60000A301E19BE421FD94FF00008C4EB0709C7
:105A7000DBF804104A464144019B234418460AF0CF
:105A8000DBFFED682B68002B2FDBAB680193A6F2E0
:105A9000F456C8444C4654441FFA84FA0024BE42CB
:105AA000E4D83446002004E0204634461E464FF039
:105AB0000008DBF8041032464144019B18440AF008
:105AC000BBFF56441FFA86FADBF800B0BBF1000FAB
:105AD000C2D101E04FF0000A5046FDF7D7FB00208D
