:020000040800F2
:10000000388A0120B5350008B1350008B13500083F
:10001000B1350008B1350008B13500080000000016
:10002000000000000000000000000000B1350008E2
:10003000B135000800000000B1350008798D0008D6
:10004000B1350008B1350008B1350008B9E3000842
:10005000B1350008B135000821E40008B1350008C9
:10006000B13500080D8C0008B1350008B135000825
:10007000B1350008B1350008B1350008B1350008C8
:10008000B1350008B1350008B1350008B1350008B8
:10009000B1350008B1350008B1350008B1350008A8
:1000A000B1350008B1350008B1350008B135000898
:1000B000B1350008B1350008B1350008B135000888
:1000C000B1350008B1350008B1350008B135000878
:1000D000B135000865630008A1630008ED630008FE
:1000E000B1350008E1E30008B1350008B13500087A
:1000F000B1350008B1350008B1350008B135000848
:10010000B135000855AD0008B1350008B13500081B
:100110003964000875640008B1350008B13500087D
:10012000B1350008B1350008B135000805AE00084A
:10013000B1350008B1350008B1350008B135000807
:10014000B1350008B1350008B1350008B1350008F7
:10015000B1350008B1350008B1350008B1640008B8
:10016000B1350008B1350008B1350008B1350008D7
:10017000B1350008B1350008B1350008B1350008C7
:10018000B1350008B1350008B1350008B1350008B7
:10019000B1350008B1350008B1350008B1350008A7
:1001A000B1350008B1350008B135000801207047AD
:1001B00001F0FC0303F1804303F59C3301F00301DC
:1001C00010B489009C680F228A4024EA02029A60D7
:1001D0009A685DF8044B884010439860704700BFF0
:1001E000014B1860704700BFDC0027420A4B0B49E7
:1001F00030B423F0030303F520524FF420500024C1
:1002000001255C801C71188015714A601080508037
:100210000B608B6030BC7047473B0020500B0020C8
:1002200000283AD01D4A1368984236D3F0B5556875
:10023000A84231D2976830F8086CA0F10801002478
:10024000B94200F8044C03EB06043CBF91600F4632
:10025000A14210D094F804E0BEF1000F0BD1A542EA
:1002600009D0268820F8086CBC42248808BF916019
:100270001C44CD1A658030F8064C1D19A9420BD0DC
:100280002F794FB992681E53914230F8082C034FD2
:10029000134408BFBD605C80F0BD7047500B002068
:1002A00003314FF6FC730B400B2BF0B537D9B3F588
:1002B000205F32D8264D2C6884422FD86A6890423D
:1002C0002CD2A0F1080230F8087C121B92B2A7F1E0
:1002D0000801891A89B299421FD31FD004EB070E77
:1002E0009EF80460EEB103F114068E4216D802F1B6
:1002F00008010B449BB2AE68E118B14238BFA96057
:1003000000250D71E7524A8020F8083CE25AB2F508
:10031000205F03D014446380F0BD0020F0BD0C23A7
:10032000C8E702F10806A968E75B33449BB28E4533
:1003300004EB030108BFA96000250F804A800D71FE
:1003400020F8083C0A88B2F5205FE3D1E6E700BF59
:10035000500B0020002847D0F0B503304FF6FC7456
:1003600004400B2C1DD9B4F5205F18D8C4F52051DA
:10037000DFF89CE0DEF80870DEF800507B1B9BB2D3
:100380008B420CDAE81806797EB935F803C0ACF177
:100390000802D21AA2420AD263468B42F2DB002044
:1003A000F0BD42F2F4710C24E2E7EB5AE8E704F105
:1003B00014018A4205D201230371874215D0083007
:1003C000F0BD04F108021A4492B2A91801240E717A
:1003D00025F802C04B8002800471AB5AB3F5205F50
:1003E000EBD02B445A80E8E770473B796BB1DEF8DD
:1003F000042003E03F882F443B7923B19742F9D191
:10040000CEF80820DBE73A46FAE70246F8E700BFF5
:10041000500B002038B50F4C2379082B054608BF38
:10042000C5B202210C4812F0B5FD0028F9D02946CA
:10043000094812F0ADFD0121074812F0ABFD00287C
:10044000F9D0054812F0A0FD2379082B08BFC0B2EF
:1004500038BD00BF00000020003800402DE9F04307
:10046000DFF8E080364FDFF8E09089B001214FF4EB
:10047000804005F011FC00244FF400720823404630
:1004800003A94FF48275ADF81620ADF81830ADF819
:100490000E50ADF80C40ADF81040ADF81240ADF87C
:1004A0001440ADF81A4012F041FD0121062005F07C
:1004B000E5FB0225384601A90C2301938DF80A407B
:1004C0008DF80B408DF808508DF809500CF008FDA0
:1004D0004FF4806301A94846019301268DF8085026
:1004E0008DF809508DF80A408DF80B400CF0F8FC9F
:1004F00001A938468DF80A408DF8095001968DF80B
:1005000008608DF80B600CF0EBFC484605220A21D0
:100510000CF042FD2946384605220CF03DFD05222F
:10052000384603210CF038FD314638460CF030FDDA
:100530003146404612F01AFD09B0BDE8F08300BF15
:100540000008024000380040000402400C4B0D4AF5
:100550001B68A2FB0323DB0A013BB3F1807F0DD2B2
:10056000094A0A4810B4F0245360002180F823405F
:10057000072391605DF8044B13607047FEE700BFEE
:1005800034020020C5B3A29110E000E000ED00E0CD
:10059000034B1A6812B11A68013A1A60704700BF1B
:1005A000600B002082B000230193019B80009842E1
:1005B00005D9019B01330193019B8342F9D302B01A
:1005C000704700BF10F1FF30054A4FF0010106D31C
:1005D00011601368002BFCD110F1FF30F8D2704786
:1005E000600B002000BF00BF00BF00BF00BF00BF06
:1005F00000BF00BF704700BF10B5114C82B0E522AC
:10060000204680210AF0EEF81420FFF7DBFF204699
:10061000032301AA80210AF06FF8BDF804309FED92
:10062000097A5BBA23F003031B041B0C07EE903A14
:10063000FAEEC87AB9EE080AA7EE870A02B010BD32
:10064000005400400000FA4210B51B4C82B0E32277
:10065000204680210AF0C6F81420FFF7B3FF01AA54
:100660002046032380210AF047F8BDF8040040BA71
:1006700020F003000004000C07EE900AFAEEC87A9E
:1006800017EE900A15F010FE07A3D3E9002315F02A
:100690005FFE07A3D3E9002315F0A6FC16F08AF845
:1006A00000EE100A02B010BDD7A3703D0AF76540F6
:1006B000CDCCCCCCCC6C47400054004008B50121D7
:1006C0004FF4006005F020FB00214FF40060BDE80E
:1006D000084005F019BB00BFF0B583680B4F4668B2
:1006E000C56804687A68016990F814E043EA060076
:1006F000284322F4FD43204340EA010223F07F0314
:1007000013434EEA03037B60F0BD00BF002C0140A1
:10071000014B1860704700BFA0802542014B186054
:10072000704700BF002C0140024B186800F0030026
:10073000704700BF002C01400A49036830B48B6049
:1007400083684468C568CA6800691C432C4322F466
:10075000FF6323F0070344EA00021343CB6030BC7D
:10076000704700BF002C0140014B1869C0B27047B0
:10077000002C0140044B82B00344002201920193FB
:10078000019B186802B07047142C0140094A0368A5
:1007900030B45362436893628568C1680469D36A60
:1007A000406929432143014323F0F7030B43D362FC
:1007B00030BC7047002C0140014BD3F880007047DB
:1007C000002C0140014B1860704700BF8C8525420A
:1007D000034B5B6B184214BF01200020704700BF21
:1007E000002C0140034B5B6B034214BF012000202F
:1007F000704700BF002C0140014B9863704700BF59
:10080000002C01406FF00900704700BFF8B5037E6F
:10081000002B58D1002A2DD02C4E06F1100756F887
:10082000043B1B687BB111B920E0DB685BB15C8BDA
:100830009442FAD11C681CB10D680DB1AC42F4D1E0
:10084000F82040B2F8BDBE42E9D111B10B6803B146
:1008500003601F4B42831A68C260186005F0FEFAFD
:10086000002040B2F8BDDB68002BECD05C8B9442DA
:10087000F9D1E5E7DFF85CE0BEF800304FF48046E0
:100880004FF6FF77BB42114D1ABF5A1C92B24FF47C
:10089000404205F1100C55F8043B1B6813B90DE0FC
:1008A000DB685BB15C8B9442FAD1013EB6B2134671
:1008B000002EE7D1AEF80020FE20C2E76545EAD160
:1008C000AEF80020A8E7FA20BBE700BF042E02081C
:1008D0006C6300200C00002038B5037E002B3CD157
:1008E0000446032002F0D6F80546002835D02369D7
:1008F000628B0361012342830376637E4376237A0E
:1009000043F002030372A37A8372637A4372638BA8
:10091000226802609BB1174B1A68944227D016498F
:100920000A6052B1D3689C421FD02BB1DA6894425E
:1009300015D01346002BF9D10B600023E36021464C
:10094000022002F0B7F80D4B0D4A1968E9606A61A0
:100950001D6005F083FA284638BD002038BD0B60C5
:10096000E268DA600023E360E9E71346F8E7E2684B
:100970001A60E2E76C630020686300206463002073
:1009800005080008F0B4858D046BC18E866A2B1BA8
:1009900040F2B457B942024603EB060094BF431A33
:1009A000C31B002B02DBD585F0BC7047331B002B2B
:1009B00004DD00231846D385F0BC7047A41BD48502
:1009C0000020F0BC704700BF838D194440F66832A8
:1009D00089B29142F0B420D881850B46866A046BB7
:1009E000C28E40F2B457351BBA422B4494BF9A1AB8
:1009F000DA1B002A0BDB40F2D9229342C1850ADDC3
:100A0000837F43F002038377F0BC14F0D7BF002D3F
:100A100007DD0024C485F0BC70471346828511466B
:100A2000DCE7A41BA4B2F5E72DE9F843047E002C13
:100A300040F0A580002900F0A480994603680F4685
:100A400009684160054682833BB9043012F0F6F82C
:100A5000002800F0988043682B60B5F81A804B4955
:100A6000B8F1000F23D108884FF480434FF6FF7C84
:100A70006045474E1ABF013080B24FF4404006F146
:100A8000100E56F8042B126812B90CE0D26852B15D
:100A9000548B8442FAD1013B9BB2002BE8D10880F1
:100AA0006B83FE2053E07645EBD108806883394B99
:100AB0004A681B6813445A1E0024AA64EA65AC62A3
:100AC00040F668322C634FF4067438462B65AA85CD
:100AD000EA85A5F86020EC864B6012F0AFF810B103
:100AE000838D002B36D1234641F2F0420121A5F837
:100AF0004C10EB86A5F84E20C5F8809002212846C0
:100B000014F06AFE18BB02232B76B8F1000F11D047
:100B1000214B1A6895422FD020490A6052B1D36800
:100B20009D4227D02BB1DA6895421FD01346002B87
:100B3000F9D10B601A4B1A68EA601D6005F08EF956
:100B4000184B012228461A7014F038FF002040B2DA
:100B5000BDE8F883283B9BB2B3F5067F28BF4FF46E
:100B6000067303EB8302520092B2BFE70B60EA68A0
:100B7000DA60DFE71346FAE7EA681A60DAE7F72097
:100B8000E5E7FA20E3E7FC20E1E700BF0C000020E6
:100B9000042E0208606300206C630020686300205C
:100BA0005C630020586300202DE9F04FA04FA14E58
:100BB0003A683378DFF894920132013385B03A60B5
:100BC00033709D4B1C68002C79D04FF000083278B0
:100BD00094F82130934200F06781237E84F821202D
:100BE000022B94F8461000F09F810C2900F0B78189
:100BF00094F89100002800F05C81904994F89020CE
:100C000001440132C97BD2B2914284F8902000F2B3
:100C1000888106284FF0000398BF013084F8903097
:100C200098BF84F89100204615F028F9237E00250E
:100C30000122062B00F00C81227A120740F1A580D8
:100C4000042B02D0072B40F0A080D4F88CE03A6847
:100C500003920EF524207A4A616A00F6B840A2FB9E
:100C60000020039A521AB2EB501F7AD9012B4FF091
:100C7000010A00F26381E368B8F1000F00F0C78059
:100C8000C8F80C30BAF1000F40F0C780D4F8885093
:100C9000D4F810B0D4F80CA02146022001F00AFFCD
:100CA000002389F800303DB158466FF00901A8478C
:100CB00099F80030002B84D15446002C87D1614E26
:100CC0003468002C4AD000254FF6FF78A9463B68CF
:100CD000626A9B1AF02B40F23C81237E012B2ED9B5
:100CE0000A2B2CD0606F18B109F0D8FB0023636782
:100CF000E56EA4F834806DB16B68D5F800A0184695
:100D00000BB109F0CBFB29460420554601F0D2FE79
:100D1000002DF1D1256F6DB16B68D5F800A0184694
:100D20000BB109F0BBFB29460420554601F0C2FE79
:100D3000002DF1D10023E3662367A4F86A30B9F1EE
:100D4000000F00F02081E368C9F80C30E568214607
:100D500002202C4601F0AEFE002CB8D105B0BDE853
:100D6000F08F394894F8921000FB01E13448A0FB61
:100D70000101B2EB511F08D9204615F03FF894F855
:100D80009220237E013284F89220032B00F0DA8037
:100D9000092B40F0E7803B68626A9B1AF02B60D910
:100DA0004FF0000A606F18B109F078FB0023636709
:100DB000E56E4FF6FF73A386A3466DB16B682C6892
:100DC00018460BB109F06AFB2946042001F072FEB7
:100DD0002546002CF2D15C46256FA3466DB16B68A9
:100DE0002C6818460BB109F059FB2946042001F084
:100DF00061FE2546002CF2D15C460023E3662367A2
:100E0000A4F86A30E368B8F1000F7FF439AF0A4AFA
:100E10001360BAF1000F3FF439AFA38BA16A206DC4
:100E20000193638B00932246231D14F015FF2DE7D9
:100E300060630020680B00205C630020042E020821
:100E4000D34D621070630020F82401005863002025
:100E5000A37FD90605D53B68616A5B1A282B88BF3A
:100E60001546002D9CD1E37F94F82020E5680133DE
:100E7000DBB29A42E37711D8D4F884200023E377D9
:100E800089F80030002A73D021462069904799F8EC
:100E90000030002B7FF495AE002869D0A0462C4688
:100EA000002C7FF494AE0AE7E468002C7FF48FAE48
:100EB00005E7A28E100402D4013292B2A286256FF9
:100EC000002D5ED0B4F9440012B2904229DC022B0E
:100ED0000BD02E4BB4F942201944B4F94030097EAE
:100EE00002EBE3038B40A4F84430B4F84C30B4F880
:100EF0006010E28EA4F84C208B4228BF0B465B08A2
:100F000051008B424FF00000A4F84E30A086B8BFCD
:100F1000A4F84E10204614F0E5FE0025237E0122A1
:100F200087E60122002584E6062902D00C297FF4F9
:100F30005FAE4FF0000A012B7FF69DAE0A2B7FF4C7
:100F400031AF98E63B68626A9B1A282B3FF628AFC0
:100F500087E7A146E468002C7FF4B9AEFEE60222E2
:100F6000012566E6002D3FF47EAF4FF0000AE2E770
:100F70002046A0462C4614F021FD002C7FF427AE1D
:100F80009DE6012255E6E5683560E0E6042E02089C
:100F900078B138B504466368256818460BB109F086
:100FA0007DFA2146042001F085FD2C46002DF2D16A
:100FB00038BD704758B110B50446406808B109F013
:100FC0006DFA21460420BDE8104001F073BD704762
:100FD0004176704701617047C1677047816770470C
:100FE000C0F88810704700BF41617047C0F8841096
:100FF00080F82020704700BF037E012B30D90A2BD8
:101000002ED070B50646406F18B109F047FA00239C
:101010007367F46E4FF6FF73B38664B16368256837
:1010200018460BB109F03AFA2146042001F042FDBE
:101030002C46002DF2D1346F64B1636825681846E0
:101040000BB109F02BFA2146042001F033FD2C46A8
:10105000002DF2D10023F3663367A6F86A3070BD25
:10106000704700BF02688A4270B50C4659D02F49BC
:101070000A6052B1D3689C4256D02BB1DA689442D0
:101080004BD01346002BF9D10B60237E0025E56081
:10109000002B33D00A2B34D0012B32D0606F10B12B
:1010A00009F0FCF96567E56E4FF6FF73A38665B13D
:1010B0006B682E6818460BB109F0F0F92946042038
:1010C00001F0F8FC3546002EF2D1256F65B16B6852
:1010D0002E6818460BB109F0E1F92946042001F009
:1010E000E9FC3546002EF2D1227E00230A2AE3666F
:1010F0002367A4F86A3004D0012A02D0A37FDA075C
:1011000002D40023237670BD43F00203A377204668
:1011100014F054FC0023237670BD0B60E268DA60A3
:10112000B3E7CB680360B0E71346F7E768630020D6
:1011300070B5037E82B0044619B1042B1ED0072B74
:101140001CD0072B0ED8DFE803F0768A6A11110D48
:101150000D04204614F060F828B9092323762046B0
:1011600014F02CFC002040B202B070BD204614F0F8
:1011700053F80028F7D105232376F0E7626F002AA1
:1011800076D0A28B638BA16A206D019200932246D8
:10119000231D14F061FD217E01292ED90A292CD0AE
:1011A000606F18B109F07AF900236367E56E4FF6B6
:1011B000FF73A38665B16B682E6818460BB109F002
:1011C0006DF92946042001F075FC3546002EF2D158
:1011D000256F65B16B682E6818460BB109F05EF992
:1011E0002946042001F066FC3546002EF2D100238A
:1011F000217EE3662367A4F86A303A4B1A6894426A
:1012000063D039480260002A3BD0D3689C425FD04B
:10121000002B4ED0DA68944230D01346F8E72146CE
:101220003048FFF71FFF314B0122214602201A7080
:1012300001F040FC96E7638B002B35D02C4B1A68ED
:1012400094422DD02848026062B3D3689C4241D0BA
:10125000002B43D0DA68944242D01346F8E7214687
:101260002448FFF7FFFE2146032001F023FC79E725
:10127000A18D40F66832914283D162E70360E26853
:10128000DA601A4B0122002504291A70E56012D099
:101290002146022001F00EFC284640B202B070BD8B
:1012A000E2681A600023E3602146022001F002FC9C
:1012B00058E70360E5E7104B0A221968E1602276DF
:1012C0001C6004F0CBFD28464DE7E2681A60D8E7C1
:1012D0001346D4E71346E268DA60E3E70360E1E728
:1012E0000360F8E75C630020686300205863002017
:1012F0006C6300206463002070630020F8B572B353
:1013000010898B8D03449BB240F66830834222D80B
:101310008B851C46D1F828E0CD8E16460A6BC2EBB1
:101320000E070846E11940F2B454A54294BF4C1B85
:101330000C1B002C22DB40F2D9229142C38505DD33
:10134000837F43F00203837714F038FB304609F0C3
:10135000A5F80020F8BD044688850346DAE7002B8F
:10136000F7D10B7E012B03D08B7F43F010038B77DB
:101370000846BDE8F8400121FFF7DABE002F02DD84
:101380000022C285E2E7CEEB020292B2F9E700BF8B
:101390002DE9F041466FC76F96F80D800025044691
:1013A00045675FB101462B4632460069B84760B3D6
:1013B0000A3045D0666768B2BDE8F081828D338916
:1013C00013449BB240F668318B4235D883851A4668
:1013D000A76A206BE18E40F2B45E3D1A71452A4443
:1013E00094BF511ACEEB020100292BDB40F2D92128
:1013F0008A42E38506DDA37F43F00203A3772046FC
:1014000014F0DCFA304609F049F818F0200F0FD03C
:10141000A38DE56F40F6683293421CBF0133A3856C
:1014200035B100231A4621462069A8470A3007D063
:10143000002568B2BDE8F0810A4681850B46C7E702
:10144000F625B8E7002D02DD0023E385DAE7C31BAC
:101450009BB2FAE72DE9F0411C4DDFF878802B783C
:101460001B4E01332B700027D8F800402CB12B788D
:1014700094F821209A4208D1FEE76B780133DBB261
:101480006B70DB0712D4BDE8F081A27F84F82130B5
:10149000D1070FD4636F2046E468002BE6D0377085
:1014A000FFF776FF3378002BE0D0DDE7BDE8F041B1
:1014B000FFF77ABB42F00202A277204614F07EFAD0
:1014C000A37F23F00303A377E4E700BF680B0020AA
:1014D000586300205C6300202DE9F04F037E0A2B47
:1014E00083B0054650D00F4601462D48D5F85090A0
:1014F000D5F828A0D5F88860D5F81080FFF7B2FDA0
:10150000284B2C6F01221A706CB16368D4F800B0BC
:1015100018460BB108F0C2FF214604205C4601F0DA
:10152000C9FA002CF1D1EC6E6CB16368D4F800B04C
:1015300018460BB108F0B2FF214604205C4601F0CA
:10154000B9FA002CF1D167B92946022001F0B2FAAC
:10155000BEB140466FF00901334603B0BDE8F04F1D
:101560001847AA8B6B8B00930192514648462B1D5E
:101570002A4614F071FB2946022001F09BFA002E46
:10158000E7D103B0BDE8F08F01460748FFF76AFDD9
:101590002946022003B0BDE8F04F01F08BBA00BF2E
:1015A0005C63002058630020706300200121FFF776
:1015B00093BF00BFF8B50546022001F06BFA044660
:1015C00000283ED094220021204615F041FE3A49E1
:1015D0003A4B3B481A684B6807786576134441F2EA
:1015E000D065626200224B60364E3748A36540F6F4
:1015F00068312365A364E3654FF0FF0E062384F88A
:101600002170A4F866504FF40677A4F8682062723F
:10161000A4F84020E27784F892204FF6FF7501226B
:10162000A185E18584F80AE0E786A4F84430A4F8AF
:101630004230A586A4F84C20E667C4F88C0020460A
:10164000F8BD224B186888B11C4B416A1C680346E0
:10165000611A05E05A6AA21A8A4224BF1146184646
:10166000DB68002BF6D10121FFF736FF022001F0E5
:1016700011FA04460028A5D1154B1B68ABB10F4ADF
:1016800017687F265A7E954208D3B24206D8596A17
:10169000791AA14202D316460C461846DB68002B85
:1016A000F0D110B10121FFF717FF022001F0F2F98C
:1016B00004460028C3D085E70C00002060630020AA
:1016C000680B0020FD12000800DD6D007063002033
:1016D0005C630020F8B5022001F0DCF90446002824
:1016E00040D094220021204615F0B2FD3B4A3C4BED
:1016F0003C481968536890F800E03B4D3B486162F4
:101700000B44402741F2D0665360002240F6683116
:10171000A3652365A364E36584F821E006234FF005
:10172000FF0E6776A4F866604FF40677A4F8682089
:101730006272A4F84020E27784F892204FF6FF7698
:101740000122A185E18584F80AE0E786A4F8443007
:10175000A4F84230A686A4F84C20E567C4F88C00B3
:101760002046F8BD224B186888B11D4B416A1C68A1
:101770000346611A05E05A6AA21A8A4224BF11463A
:101780001846DB68002BF6D10121FFF7A5FE0220E9
:1017900001F080F904460028A3D1164B1B68ABB1B9
:1017A0000F4A16687F255A7E402A08D8AA4206D8D2
:1017B000596A711AA14202D315460C461846DB68D5
:1017C000002BF0D110B10121FFF786FE022001F0BD
:1017D00061F904460028C3D083E700BF0C00002055
:1017E00060630020680B0020FD12000800DD6D0022
:1017F000706300205C63002070B5037E012B82B013
:10180000044600F0AF80827F042B42F01002827702
:1018100009D0072B07D0072B6FD8DFE803F0866EBF
:101820007265656E6E7E626F002A00F0A880A28BE2
:10183000638BA16A206D019200932246231D14F050
:101840000BFA217E01292ED90A292CD0606F18B1FC
:1018500008F024FE00236367E56E4FF6FF73A3864E
:1018600065B16B682E6818460BB108F017FE294663
:10187000042001F01FF93546002EF2D1256F65B125
:101880006B682E6818460BB108F008FE2946042044
:1018900001F010F93546002EF2D10023217EE366D7
:1018A0002367A4F86A30454B1A6894427AD04448BA
:1018B000026052B1D3689C4277D02BB1DA6894426F
:1018C00059D01346002BF9D103603E4B012200256D
:1018D00004291A70E56059D02146022001F0EAF887
:1018E000284640B202B070BD204613F095FC28B9DE
:1018F00005232376204614F061F8002040B202B0A0
:1019000070BD21462D48FFF7ADFB2E4B012221462D
:1019100002201A7001F0CEF8EFE7204613F07CFCAD
:101920000028EBD109232376E4E7638BABB1264B88
:101930001A6894423FD02248026062B1D3689C4248
:1019400006D0002B33D0DA68944232D01346F8E741
:101950001346E268DA600023E3602146022001F0CA
:10196000A9F8CAE701461948FFF77CFB2146032086
:1019700001F0A0F8C1E70360E268DA60A5E7A18D95
:1019800040F6683291427FF452AF44E7104B0A228E
:101990001968E16022761C6004F060FA284640B2C3
:1019A00002B070BDE2681A608FE71346E4E7036097
:1019B000D1E70360CDE7E2681A60CCE75C63002002
:1019C00068630020586300206C630020646300207B
:1019D0007063002010B50446084611F02FF930B1AD
:1019E000838D23B1283B9BB29C4228BF1C462046D6
:1019F00010BD00BF2DE9F843BC4F3B78DD0604461F
:101A000040F19080436D7A68B0F86050806D991A0B
:101A10000029C0F2BE809342BB6800F0608198420A
:101A200000F0688129468646A66C9A1B002A40F37E
:101A30003E81216D591A002940F3C7800023A4F884
:101A40006430E36E002B44D0DFF8A0820DE06868BC
:101A500008F052FDB4F86830181AA4F86800284657
:101A6000FFF7A8FAE36E002B33D0DB68BD68586837
:101A700004F052FFE36EDA681E898146908904F013
:101A800045FF10F0030018BF0120C9EB050506440F
:101A9000AD1B002D1DDBD8F80830226D9B1A002BE2
:101AA00017DCE56E2B68E366002B6FD0686808F0E2
:101AB00023FDB4F86430002BC9D0EB68988904F09A
:101AC00025FFC307C3D5B4F86430013BA4F86430E4
:101AD000BDE7A36B33B3E26BB968521A002A21DA6F
:101AE0008349B4F84020086842F3CC01C31A591A5C
:101AF00089B28B188AB2160444BF49428AB2B4F83C
:101B0000421041F38D00091A9BB20A4492B2A4F824
:101B1000403043F3CC0313440021A4F84430A4F82C
:101B20004220A1633B8A714A13B1217E062912D952
:101B30007B68A16A5A1A002A05DB5A1CA08D531A29
:101B40001B1A002B05DDA37F43F00203A377BDE83A
:101B5000F883BDE8F883A16A50680E1A012E05D4F7
:101B60004D1C2D1AEB1A002B40F3D780431A002B83
:101B70005FDBA38DC3F1010303445B1A002B40F329
:101B8000C8802046BDE8F84313F0D0BEA4F86A3000
:101B90008CE7F968BB68C989B4F8626062658E42F7
:101BA000A4F8601038BFA4F86210A36594F89120DF
:101BB000002940F08D80002A40F08880012284F8BE
:101BC000901084F891209E462EE7A17F480706D505
:101BD00021F00401B4F84E00A177A4F84C00B4F849
:101BE0006600B4F84210B4F94060257EA36492B256
:101BF00001EBE60310440021032DA4F86420A4F8AF
:101C00006600A4F8443084F8461084F847102BD9B5
:101C1000B4F84C20B4F84E309342E38E9CBF5B4343
:101C200093FBF2F313449BB29A421DD2A4F84C30BA
:101C30001AE0A37F43F00203A377A2E7EB68988939
:101C400004F064FEC20704D5B4F86430013BA4F884
:101C50006430686808F050FCB4F86830181AA4F8CA
:101C600068002846FFF7A6F9236F002B49D0DB68F0
:101C7000586804F051FE236FDA681E890546908982
:101C800004F044FEBB6810F0030018BF01200644B6
:101C9000ED1A3544002D33DC256F2B682367686807
:101CA00008F02AFCB4F86430002BD2D0C6E73A8A98
:101CB0004FF0000CA4F864C022B928447144884253
:101CC00000F08A80002384F84730BAE69E46ABE6EF
:101CD000002AFBD0002284F891209E46A4E6C11A77
:101CE0000029BFF69CAEF968C98955E76C0B002046
:101CF00060630020FB68D9898D4269D203464BE7B7
:101D0000236FB3FA83F35B095B420022A386E27779
:101D100097E681427FF435AF22E09069428996428E
:101D2000334677DD0189891B89B200254581018110
:101D300000689B1A42899A42F8DB594209B208F0BE
:101D400077FB7D68BB8BA28DA06A396A78602B44D3
:101D5000C2F101021B1A002ABB8348603FF711AF92
:101D60003B6ABD8B98894A4E04F0D0FD10F0030009
:101D700018BF01202B18A28D9BB293423B824ED8F4
:101D80007968434DD21A0B44A285A3622046FEF720
:101D9000F9FDBB691A8912B100226B62AA613B6A24
:101DA0003B4D988904F0B2FDC10705D595F8283060
:101DB00043F0200385F82830A37FDA0746BF23F0DD
:101DC000010343F0020343F00103A377BDE8F88366
:101DD00029468646034627E6B4F934206245FFF6D5
:101DE00071AF9E427FF46EAF94F84720531CDBB274
:101DF0009A423CBF1A4684F84730032A41D9B4F8C6
:101E00004C20E38E13449BB29A42BFF41AAEA4F85E
:101E10004C3016E6714209B208F00AFB91E7336ACA
:101E2000988904F073FDC5071DD4A28D3B6ABA835F
:101E30009889174D04F06AFD8007A98B02D50139F6
:101E400089B2A983B86908F0A9FA3B6ABD8B988961
:101E500004F05CFD10F0030018BF01202B189BB2AA
:101E6000A28D3B828CE7366AB589284604F04EFD88
:101E700000F03E0004F046FD25F47C552843B08177
:101E8000D3E77FF4DEAD204613F06EFFD9E500BF47
:101E90006C0B0020F8B5224CE5680646A88904F0D2
:101EA00035FDC0F30F30052800D8F8BDE3689889E8
:101EB00004F02CFD000B0538800080B20028F4D01F
:101EC00005F11402002340F2B357D15C012940F21E
:101ED000B4551BD0E9D302291BD1D4186178042949
:101EE000E3D1D91C8142E0DA94F802E0E17841EADA
:101EF0000E214C1EA4B20433BC4288BF29469BB2BB
:101F000031809842D1D9D15C0129E3D101339BB210
:101F1000F7E7D11849780029C7D00B449BB2F0E706
:101F20006C0B00202DE9F04F4368A24D1A7802F0A7
:101F30000F02960087B0884603EB82037142044685
:101F4000EB6008F075FA10B92389132B05D82046E9
:101F500007B0BDE8F04F08F0A1BA974F4146386886
:101F600002F062F80028F2D13B6803F0F003E02BA6
:101F7000EDD0EB68988904F0C9FC000BC0EB803011
:101F8000810009B2204608F053FA06460028DED147
:101F9000D5F80C80B8F8000004F0B8FCD5F80C9027
:101FA000A8F80000B9F8020004F0B0FCD5F80C80E5
:101FB000A9F80200D8F8040004F0AEFCD5F80C90A3
:101FC000C8F804006860D9F8080004F0A5FCD5F84A
:101FD0000C80C9F80800A860B8F80E0004F096FC60
:101FE000EB68A8F80E00988904F090FC5FFA80FE78
:101FF0001EF00303714AB4F80890D2F800C0EA68F2
:1020000018BF01234B449BB20EF03F0805932B826F
:1020100085F80080BCF1000F76D069491388D1F8AB
:1020200000A03968049130460394664604E0F168E4
:102030003046002967D00E46B18B9942F7D1B6F8E9
:102040001AB051888B45F2D171685145EFD134688F
:1020500004998C42EBD1039C28B15849F368C360C2
:102060000E60C6F80CC000231EF0080FA5F81C90E7
:10207000AC612A626B616B6285F8283003D0637BA8
:1020800043F001036373736F5BB13046FFF780F970
:102090000A3071D0736F13B12B8A002B6CD195F875
:1020A0000080484F18F0040F3E6067D0337E022B4B
:1020B00000F058826B68B26A9B1A04D4B28D9B1AE6
:1020C000002B40F3548295F828301C0740F107811B
:1020D000D6F888301BB16FF00A0130699847314655
:1020E0003648FEF7BFFF3146022000F0E3FCA86946
:1020F000304E00243C606C6210B108F0CFF9B4613E
:1021000007B0BDE8F08F039C2F4B1868002843D020
:102110002B4B16881968D7F800C002E0C068002869
:102120003AD0838BB342F9D1438BB2F80280984501
:10213000F4D143688B42F1D103686345EED11EF0C0
:10214000040F7FF404AF1EF0020F00F06A8269688A
:10215000836A184ACB1A04D4858D5B1B002B40F38D
:102160006B82059B002B3FF4F2AE837F43F00203AA
:10217000837713F023FCEAE6124FB8E718F0020F5A
:1021800000F0BE80337E023B012B40F2B980B37F6A
:1021900043F00203B37796E7DFF830C0DCF8006065
:1021A000002E00F0CB815088D7F80090B046002177
:1021B00015E000BF6C0B0020680401205C63002068
:1021C00060040120746300207063002064630020B9
:1021D000D8F80C304146002B00F0B0819846B8F892
:1021E0001A308342F4D1D8F800304B4501D0002B8F
:1021F000EED131B1D8F80C30CB60CCF80080C8F803
:102200000C601EF0040F7FF4A2AE0EF0100303F07A
:10221000FF06002B40F0B6811EF0020F3FF497AE90
:1022200098F81900FFF7C6F9814600283FF48FAEF1
:10223000E8686B6890F801E005789F4A3968126891
:10224000C9F8001045EA0E21B8F81A50A9F81A503A
:10225000A9F81C105D1C0321C9F8042089F8181086
:10226000C9F82850C9F83050C089D8F81010D8F8EB
:102270001420C9F81420013BC9F81010A9F8600017
:10228000A9F86200A9F84E00C9F8543098F808304F
:102290008A4A23F07303126889F80830874BC9F81B
:1022A0000C20C3F8009003F0D9FD854B012209F101
:1022B00036001A70FFF7EEFD09F10401B9F8360097
:1022C000FFF788FB1221A9F83600484613F084FA7C
:1022D000002840F07181484613F070FB37E6D806BD
:1022E00040F1FA80B37FD9063FF5F9AED6F88830D1
:1022F000002B3FF4F4AE6FF00B0130699847EEE627
:10230000B37FDC0602D46F4B1B687362002386F830
:10231000923006F13600FFF7BDFD337E023B072BFE
:102320003FF6D1AEDFE803F0AD9182693A8218043E
:102330003046FFF75FFB2A78634BD2067FF5C3AECA
:10234000316D9A6891427FF4BEAE93F8282042F036
:10235000100283F82820B6E63046FFF74BFB2A78B8
:10236000594BD1067FF5AFAE9B68326D9A427FF430
:10237000AAAE3046FEF740FE504B1A68B24200F05B
:102380005881524B00211A60002A00F0DA81D0688F
:10239000B04200F0408102460121F5E73046FFF7E8
:1023A00029FB95F8283098067FF58DAEB37F43F072
:1023B0000203B3773046FEF71FFE404B1A68B24265
:1023C00000F03781414B1A605AB1D168B14204D153
:1023D00022E1D168B14200F022810A460029F8D1F9
:1023E0001A603B4B364A1968F1600A2001213076A9
:1023F0001E60117003F032FD65E63046FFF7FAFA11
:1024000095F82820304B12F0200F1A7800F0F88051
:10241000D20604D59B68326D9A4200F07981B37F71
:10242000082243F00203B37732764CE63046FFF7DA
:10243000E1FA95F8283099067FF545AEB37F07227B
:1024400043F00203B37732763DE62B781E4AD90675
:1024500040F1C980B36C9068DB43C34204D4336D50
:10246000C31A002B40F34581EB68298A1A88019230
:102470006A685B88009311440F4B164A13F0ECFB1B
:1024800021E62B78104C03F01203122B00F0E080B1
:102490002A780D4BD0067FF516AEDA68188A1188B7
:1024A000019159685288009201440A4A9868024B87
:1024B00013F0D2FB07E600BF600401205C6300203C
:1024C00058630020606300206C0B002068630020CC
:1024D0007063002068040120B6F864203AB1B36F3D
:1024E0002BB13146306998470A303FF400AE6A6A32
:1024F0009AB1B17F01F0100101F0FF0300294ED124
:10250000F46F002C52D031463069A04743B20A33F1
:102510003FF4EDAD08B16B6A736795F828309A0601
:1025200006D5736F002B4CD05A7B42F020025A73B1
:10253000002330463B6013F041FAD8E5908904F05F
:10254000E5F943073FF503ADEB68298A1A88019244
:102550006A685B8800931144A868884B884A13F026
:102560007BFBF4E4326DAB689A427FF4ACAD95F836
:102570002820B37F42F0080223F0010385F82820C9
:10258000B377A0E5138869687D4A8DE80900059B4B
:10259000A8680B441946794B13F05EFBD7E410464C
:1025A00007F07CFF3046FFF701F8A0E52346204600
:1025B0003146FEF7A3FEA9E731464846FEF78CFFF9
:1025C000C5E4B38DF46F40F6683293421CBF01330B
:1025D000B385002CACD000231A4631463069A047A1
:1025E0000A30A5D183E598077FF56DADB36A5268CF
:1025F000013B93427FF467AD304613F08BFB62E5FD
:10260000D4067FF560AD9B68326D9A427FF45BAD76
:102610000623337657E511B9F368D360E1E61A6013
:10262000FAE71EF0010F3FF49CAD564B1B68436266
:1026300097E5F2681A60D4E6059B0196CDF8008014
:102640000B44194690684D4B4D4A13F005FB7EE450
:10265000336FDB68586804F05FF9A3680130984273
:102660007FF416AF6368B6F86620E468B064591C5E
:102670000132B1623163A6F86620E289A6F86020D3
:10268000013B0421A6F8622073653176F08E711843
:10269000FFF7A0F9B6F84C10F08600EB8002012994
:1026A0004FEA42020346A6F84E2008BF4300B6F8A0
:1026B0006820306F08BF9BB2A6F84C30531E0268EA
:1026C0003267A6F86830FEF775FC336F002B35D003
:1026D000002386F84630D6F88040B386002C3FF4BD
:1026E00056AD002231463069A0470A307FF44FAD25
:1026F000FDE4736904223276002B3FF453AF0022CD
:1027000031463069984700B30A307FF44BAFEEE4AE
:10271000B37F43F00203B3773046FEF76DFC1A4BEC
:102720001A68B24285D0194B00211A604AB1D068AC
:10273000B0423FF470AF02460121F7E74FF6FF7356
:10274000C9E700293FF44DAE4AE63046B6F84C40A2
:10275000FFF750F9B6F8643013B1013BA6F86430C6
:10276000F38E95F82820012C04BF5B009BB29406E1
:10277000A6F84C307FF5A7AC60E600BF60040120EE
:1027800068040120606300205C630020686300200F
:1027900008B53A4B984221D0394B984228D0394B52
:1027A000984231D0384B98423AD0384B984243D077
:1027B000374B98424CD0374B984253D0364B9842C7
:1027C00000D008BD01214FF0004003F08FFA002136
:1027D0004FF00040BDE8084003F088BA0121102006
:1027E00003F092FA00211020BDE8084003F08CBAF3
:1027F00001214FF4003003F079FA00214FF400304A
:10280000BDE8084003F072BA01214FF4802003F0C4
:102810006DFA00214FF48020BDE8084003F066BA4D
:1028200001214FF4002003F061FA00214FF4002051
:10283000BDE8084003F05ABA01214FF4801003F0BC
:1028400055FA00214FF48010BDE8084003F04EBA5D
:102850000121202003F058FA00212020BDE8084083
:1028600003F052BA01214FF0804003F03FFA0021FB
:102870004FF08040BDE8084003F038BA0010014036
:102880000044004000480040004C00400050004020
:102890000014014000780040007C0040028A0B894F
:1028A000F0B592B2CF888E88044622F440523A4363
:1028B00048890D4689892282A289334392B2034313
:1028C00022F4B05222F00C029BB21343A381A38ADC
:1028D0009BB223F440730B4385B0A382684603F098
:1028E00063F91D4B9C4228D003F580639C4224D0A1
:1028F000029AA389A18913F4004F2B6802EB82028C
:1029000014BF5B009B0002EB8202B2FBF3F0134AA0
:10291000A2FB00356D096423090405FB13034FEA8C
:1029200005150CD41B013233A2FB0323C3F343135D
:102930002B439BB2238105B0F0BD039AD9E7D900A0
:102940003231A2FB0131C1F3421242EA05039BB2CC
:10295000238105B0F0BD00BF001001401F85EB5181
:10296000014B1860704700BF20000E422C4A536F85
:1029700013F0005330B404D0536F43F080735367A7
:102980000123284A45F255510A2811601DD9072113
:10299000516002282DD003282DD004282DD00528E1
:1029A0002DD006282DD0072833D008282ED009286E
:1029B00029D00A2830D00B2828D00C2823D00D2865
:1029C00040F6FF7118BF002103E00321516058B9A0
:1029D0000521144A4AF6AA254CF6CC4491601846C3
:1029E0001560146030BC7047012808BF0A21F0D080
:1029F000CFE70F21EDE71F21EBE73D21E9E77B2141
:102A0000E7E7FF21E5E740F2FF71E2E740F2FF313F
:102A1000DFE740F2FF11DCE740F6FF71D9E700BFC6
:102A200000380240003000402DE9F047164E174DA7
:102A3000DFF85CE026F0030605F124080EF1160726
:102A40004FF0000C3EF8024F45F804CFB4B100221D
:102A50001146B7F80090334600E05346013290B279
:102A60008442196003EB090A1946F6D8631E9CB22A
:102A700004FB099309FB04642C601E44454507F1DF
:102A80000207DFD1BDE8F0879B0B0020482D002016
:102A9000CE2E0208082809D8054B03EB800353F813
:102AA0003C0C20B1026843F83C2C70470020704772
:102AB000882D002039B1044B03EB800050F83C3CDA
:102AC0000B6040F83C1C7047882D002010B5204A50
:102AD0008AB000230121904204468DF815300893F6
:102AE000079306938DF814308DF8241022D0194ADC
:102AF000904226D0184A904215D000234FF44072DD
:102B00004FF480316846029300930191039203F0E1
:102B10009BFE04A9204603F06FFEA36843F0010367
:102B2000A3600AB010BD0D494A6C42F480624A6449
:102B30000493E2E709494A6C42F480724A640493C0
:102B4000DBE706494A6C42F400724A640493D4E716
:102B500000200140002101400022014000380240D5
:102B6000024A536843F480035360704700230140D6
:102B700010B5044605230122122103F079FEA36853
:102B800043F08043A36023689B07FCD5E06C064BB1
:102B900041F6C81202FB00F0A3FB0023C01A03EBAE
:102BA0005000C0F3CF2010BD0101100010B5044645
:102BB000406908B107F072FC21460620BDE81040CC
:102BC000FFF778BF2DE9F04F83B00023DFF804A1B1
:102BD000019181460093DAF80030002B55D0002790
:102BE000B8463D46D9F80C000AE00137C5B1D97F97
:102BF000EA7F914298BF1D461C68ACB198462346B7
:102C00005A698242F1D1D9F8102099699142ECD1E8
:102C10009989B9F804209142EED00137002DE6D110
:102C20001C681D46002CE9D14DB36E6873689A8804
:102C30007AB373683046D3F800B007F05DFC044403
:102C400030465E46A4B207F029FC002EF1D1DAF836
:102C500000309D4208BF1F4A2B6818BFC8F80030DB
:102C600029464FF0050008BF1360FFF723FFBAF8AD
:102C70000430009A1B1B22440092AAF80430009BE7
:102C8000019A934201DA012FA5DC009803B0BDE858
:102C9000F08F1A686A602A46012152F8080F94687A
:102CA000D2F804E0D2F80CC0C3F80CC09C601860E5
:102CB000C3F804E010691861304610F011FB30468B
:102CC00007F01AFC84B2304607F0E8FB6E68002E6D
:102CD000AFD1BCE7702D00202DE9F04F4668337866
:102CE00003F00F03052B83B0804640F04F81F0883E
:102CF000C34F03F00BFE8246708803F007FE337863
:102D000000938346404607F0F7FBBB8803440A2B39
:102D1000814600F331813C68002C00F0EB80F268C2
:102D2000002505E023682546002B00F0E3801C46C3
:102D300063699342F6D13369A1699942F2D1A189BD
:102D4000B3889942EED1F08803F0E0FDC0F30C00A7
:102D5000002800F02281BB889944A7F80490F388EA
:102D6000990640F1E880D8F80460708803F0CEFD41
:102D700096F800A00AF00F0AA0EB8A0AF08803F088
:102D8000C5FDD8F804900023C0F30C00C0001FFA62
:102D90008AFA89F8003089F8013089F8023089F818
:102DA00003306368A9F8040082441FFA8AFAA9F87C
:102DB00006A0002B00F01D815E68B2889042C0F032
:102DC000048100F0CC80B6F806E07045C0F0C78002
:102DD0004FF0010C10E0536899888842C0F0B98028
:102DE00000F0BD80DA889042C0F0B980714518BF0C
:102DF0004FF0000C1E4696463268002AEBD1704513
:102E0000C6F8008040F0B480A37FDB0740F1B080BB
:102E1000BCF1000F00F0AC806368D3F80480B8F810
:102E20000430002B40F0A480D9F8003073B15B6807
:102E30009A88524507D09BE05268D9889388994276
:102E400040F0968013461A68002AF5D1A28BD8F874
:102E5000006023461432A28353F8082F58689968FB
:102E6000D3F80CE0C8F80CE0C8F80810C8F8040063
:102E7000C8F800201A69C8F81020A08B03F042FDA2
:102E80000023A8F8020088F8063088F8073088F890
:102E90000A3088F80B301421404601F0C7FBD4F803
:102EA0000490A8F80A0076B1D6F804806FF01301F8
:102EB000304607F0BDFA3146484607F02DFBD8F8FA
:102EC0000060002EF0D13B684D4A9C42236818BF39
:102ED0002B6021464FF0050008BF1360FFF7EAFDA5
:102EE000484607F009FBBB881B1A4846BB8003B065
:102EF000BDE8F08F0520FFF7CDFD034600286BD01D
:102F0000202200211846019314F0A2F9019B3A688F
:102F10001A600321D9773168B568D6F804E0F06803
:102F200058611D619960C3F80CE031693B6025462A
:102F300099611C460FE7009BA27F03F00F03ABEBE8
:102F4000830B0BEBCA0A42F00103A4F81CA0A37781
:102F500009E77045C9F8002001D38A4532D94046B7
:102F600007F0CAFABB881B1A4046BB8007F096FAE6
:102F7000002003B0BDE8F08F01463046FFF722FE87
:102F800020B1BB884B440A2B7FF7C5AE404607F003
:102F900085FA002003B0BDE8F08FE08903F0B6FCAD
:102FA000C0F30C0000283FF4D6AE3268D6F804E037
:102FB000B068F1686161A260C4F80CE02061326918
:102FC000A261C8E6C6F800801EE7C9F800304FF0DD
:102FD000010CC4F8048017E749463046FFF7F2FDBC
:102FE0008145D3DC0520FFF755FD0346002887D136
:102FF000CCE7A37FC4F80480DA073FF50DAFB7E74D
:10300000702D00202DE9F04F8FB0D0F804A00B9167
:103010000546BAF806008C8D0C9203F077FC00F49C
:1030200000539BB2B5F808900993C0F30C03A9F1C3
:1030300014090493B4F114031FFA89F248BFA4F1F0
:103040000D03C3F3CF0303920893039B002B00F0FF
:10305000A780089BDFF84CB1DB00A4F113029BB200
:103060000A920D93002414261146049B099AC3F377
:103070000C031343039A06938A42AABF43F40053F6
:10308000134606934FF00002A8BF0D9B0593142131
:10309000022007F0ABF8804600287FD04368DAF8BA
:1030A0000020DAF80810DAF80400DAF80C70DF60B3
:1030B0001A6058609960DAF810201A616A686B89A2
:1030C000D8F8041007919B1B1644059A6E609BB2BA
:1030D0006B8152B316461C4601E02D686C89B442E0
:1030E00028BF3446A4B2002CF7D00620FFF7D2FC4C
:1030F0000222074603462146002847D0019468680B
:103100000090032007F020F9814600283AD0284695
:10311000361B07F0FBF9B6B27D61C7F810B049461F
:10312000404607F0F9F9002ED7D1069803F0EAFBE4
:10313000059F079E3B461433F08098B203F0E2FBF4
:1031400000237080B372F3723046142101F06EFADE
:10315000B1460B9E0C9A7369A9F80A0041463046A5
:103160009847404607F09AF9039A0899D31B9BB2F7
:103170001A460393049B0B449BB2049382B12646E8
:103180000A9972E739460620FFF794FC404607F09B
:1031900085F9FF2040B20FB0BDE8F08FFF20F9E7BE
:1031A0000020F7E7AD2B000810B5084C82B00023D3
:1031B000032201920093204601224FF4704111F046
:1031C0005FF94FF47043638302B010BD000C0240FE
:1031D00000B583B000230221009101931A4601211A
:1031E000024811F04DF903B05DF804FB0000024005
:1031F0002DE9F84F724D95F84C607EB395F89C30F0
:10320000002B00F0B68095F8EC30002B00F0B38076
:1032100095F83C31002B00F0B08095F88C31002BF4
:1032200000F0AD8095F8DC31002B00F0AA8095F815
:103230002C32002B00F0A78095F87C32002B00F098
:10324000A48095F8CC3243B195F81C3309262BB1F4
:103250004FF000084046BDE8F88F08264FEA860A7E
:103260000AEB06094FEA091905EB09074FF00103BC
:10327000DFF854B13E7487F84C30C7F814B00446F8
:1032800014F05EFC3128B84659D90AEB060305EB69
:1032900003130022DFF834915A76D9F8041020463F
:1032A00014F072FAA8B3D9F80090B9F1000FF4D174
:1032B000AF4223D0434B9F4269D003F15002974263
:1032C00068D003F1A002974267D003F1F002974261
:1032D00066D003F5A072974265D003F5C872974295
:1032E00064D003F5F0739F4263D050339F4263D0A4
:1032F00050339F4208BF4FF00909A9D109EB890952
:1033000005EB09194FF0000889F84C804046BDE8EC
:10331000F88F56443601D9F80830AB513544D9F806
:103320000C20BBF80030E8606A60AA6099F81020B1
:103330002A760133ABF800304046BDE8F88F2146CD
:10334000384602F055FA00289FD01D4B4FF001027D
:1033500003EB090000233B76BB60FB601A307A76F2
:10336000214614F07BFBBBF800300133ABF8003092
:1033700070E7012672E7022670E703266EE704264F
:103380006CE705266AE7062668E7072666E74FF03A
:103390000109B3E74FF00209B0E74FF00309ADE7C9
:1033A0004FF00409AAE74FF00509A7E74FF0060917
:1033B000A4E74FF00709A1E74FF008099EE700BF17
:1033C00078630020C8630020762D00200C2F0208AF
:1033D000264A417E1388013B10B50446138091BBF9
:1033E000234B9C4232D003F15002944230D003F17F
:1033F000A00294422ED003F1F00294422CD003F5A7
:10340000A07294422AD003F5C872944228D003F5E2
:10341000F072944226D003F50C72944224D003F546
:103420002072944206D003F53472944208BF0922F8
:1034300001D010BD082202EB820203EB021300222E
:1034400083F84C2010BD02F049FBC9E70022F2E7E7
:103450000122F0E70222EEE70322ECE70422EAE78A
:103460000522E8E70622E6E70722E4E7762D0020BA
:103470007863002070B5437E0546A3B98368406831
:10348000834216D0C01A82420E4629681446A8BF4D
:10349000044619443046224613F040FEAB682344EC
:1034A000AB60204670BD02F0F1FAAB680344AB603C
:1034B00070BD4FF0FF3070BD42688068101A7047D1
:1034C000012070470120704701207047012070479C
:1034D000012070470120704701207047012070478C
:1034E000012070470120704701207047012070477C
:1034F00001207047012070470120704700EB8000D9
:10350000034B53F8203003B118470420704700BF25
:1035100014000020044B00EB800003EB80035B6889
:1035200003B1184704207047140000200BB9042091
:10353000704730B40D461146074A00EB800402EB99
:103540008404246924B11A462846234630BC18470F
:10355000042030BC704700BF140000200BB90420C9
:10356000704730B40D461146074A00EB800402EB69
:103570008404E46824B11A462846234630BC184720
:10358000042030BC704700BF14000020054B00EB46
:10359000800003EB800308469B680BB11146184777
:1035A0000420704714000020004870470000FC42CF
:1035B000FEE700BF08B50F480F4B984207D2C24341
:1035C0001A4422F0030204320C4913F0A7FD0C4800
:1035D0000C494FF000028842B8BF40F8042BFADBD8
:1035E000DFF82400016841F470010160BDE8084083
:1035F00001F0DAB9000000204C0B0020346402080E
:10360000500B00207404012088ED00E008B5012172
:103610004FF0007002F05CFB00214FF00070BDE83D
:10362000084002F055BB00BFF0B4202101274FF441
:1036300080464FF4006540248022002307604661E5
:103640004FF080674FF40016056204644FF4803534
:103650004FF48004416442664FF400514FF0007211
:1036600043608360C36003618361C36143628362BB
:10367000C362036343638363C3638364C364036597
:1036800043658365C36503668366C36603674367F3
:103690008367C367C0F88070C0F88C60C0F8A8501A
:1036A000C0F8AC40C0F88830C0F89030C0F8943012
:1036B000C0F89830C0F89C30C0F8A030C0F8B430E2
:1036C000C0F8B830C0F8B010C0F88420C0F8A4200A
:1036D000F0BC70472DE9F0418CB00023634A0093A1
:1036E000012401930294044608A816690F4602F0CB
:1036F0005BFA099A5E4B5F4913448B4226F01C0625
:1037000000F2A58146F00806584D5B492E61002362
:1037100003932B69F80203F01C0343F0030380B208
:103720004FF4004203436A612A462B6102E0039B87
:103730008B4205D8039B013303931369DD07F6D44D
:10374000039A4E4B9A4200F0A3804D4E4D4BD6F853
:1037500000E04D4D9E452A6800F091814B4B9E45FF
:1037600000F08D812368002B00F0B2813F4A42496E
:10377000DFF808814FF0000C019B01330193CDF875
:1037800010C0136903F01C03034343F041031361AA
:1037900002E0049B8B4205D8049B01330493136918
:1037A000DB07F6D4049B434502D053695B0702D480
:1037B000019B8B42E0D9314B019A9A424FF00003B2
:1037C00049D02A4A0193059313692B4903F01C033E
:1037D00043F0030303434FF4805CC2F814C0136149
:1037E00002E0059B8B4205D8059B013305931369C5
:1037F000DB07F6D4059A214B9A4201D100230293AC
:103800001A4A1D49DFF874804FF0000C019B013308
:103810000193CDF818C0136903F01C03034343F070
:103820004103136102E0069B8B4205D8069B0133DE
:1038300006931369DB07F6D4069B434502D0536910
:103840009B0602D4019B8B42E0D9019A0B4B9A4212
:1038500040F06A8100230293029B13BB4FF4804324
:103860004FF40067276263619C461DE000800240C0
:1038700000D3CEFEBFE1E400FEFF0300FFFF030024
:10388000340200200095BA0A48FD002000E1F50549
:10389000AA4BAB4DD3F800E000230293029B002B10
:1038A000DCD0D4F814C0276A6668A36904F1080064
:1038B00007C83043014311431943E369666AA06AAC
:1038C000226B19433143E36A9E4E0843D6F80080C9
:1038D000616B18439C4B0243114308EA03030B43FB
:1038E00043EA0C031F43994B37609E4532682968B1
:1038F00000F0CD80964B9E4500F0C980914B934ED1
:103900001A60E26BA06B216C1043626C0843A16CDF
:103910001043E26C0843216D1043626D01430A437A
:103920005A60B6455A682B6800F0AF80884B9E45B8
:1039300000F0AB80834B854E5A60A26D9A60E26DB9
:10394000DA6004F1640007C80843216F9F691043DF
:10395000626F014311434FF64172206E3A400A43B1
:1039600042EA00429A61B6459A697549286800F0B2
:103970009C807748864500F0A2809A61E06FA26F34
:103980000243DA61DA690B686E4F724BFA6104F137
:10399000840007C8D4F8806006430E431643D4F869
:1039A0009020D4F89800D4F89C101643D4F89420B2
:1039B000164341F21802304357F802C0D4F8A06011
:1039C00001430E430CEA03033343BB505F4BB8582B
:1039D0002A689E4567D05E4B9E4564D059495E4B30
:1039E0005A4F41F21802BE458850D4F8A410D4F8BA
:1039F000A820D4F8AC00D4F8B06042EA010242F446
:103A0000000141EA0002D4F8B810D4F8B40042EA48
:103A1000060242EA010242EA80021A601A68484934
:103A2000286836D04A48864533D01A601A6842F072
:103A300080021A601B680A68474A13600298A0F166
:103A40000100B0FA80F040090CB0BDE8F081434BB2
:103A5000434913448B4202D846F00C0654E6414BCE
:103A6000414913448B427FF64FAE404B40491344CB
:103A70008B4294BF46F0040646F0100644E62B68DD
:103A80002368002B7FF472AE22E02B6852E72B688C
:103A900034E708681A601A6842F080021A601B68EE
:103AA0000A682A68C8E72B6898E708689A61A06FD7
:103AB000E26F0243DA61DA690B682B6864E7086831
:103AC0009A61E06FA26F0243DA61DA690B68F4E78A
:103AD0001C4E079333696169226A490803F01C038D
:103AE00041EAD20243F00303184393B273612149C0
:103AF0003061324602E0079B8B4205D8079B0133B9
:103B000007931369DB07F6D4079A1B4B9A4201D13E
:103B1000002302930D4B2A689E4503D00C4B9E4513
:103B20007FF4BCAE2B68B9E60023384621460193EA
:103B300002F038FED6F800E0B0E600BF3402002004
:103B400048FD0020008002400F8120FF0095BA0A46
:103B500000E1F505233FDEF80090024040F1E9FD69
:103B60003F787D0100796CFCFF596202001F0AFA60
:103B70007FF0FA02FEFF0300FFFF030070B485B080
:103B8000294B2A4E2A4C2B4A00200390196841F0F9
:103B90000801196031681D680395A142156828D095
:103BA000254CA14225D0039919600290196841F073
:103BB000040119601968029111680299196041F2B3
:103BC00018010190585840F4801058505B580193E8
:103BD0001368154A019941F21803D150D15841F4A4
:103BE0000051D150D15841F00201D15005B070BC04
:103BF00070471168039919600290196841F0040137
:103C0000196019680291116811680299196041F2EE
:103C100018010190585840F4801058505B58019397
:103C200013681368D5E700BF00800240340200200B
:103C30000095BA0A48FD002000E1F505284B294906
:103C400041F21802F0B49858274F284D20F4005044
:103C50009850985884B020F00200985000240394A3
:103C6000186820F00400186038681E680396A8429F
:103C70000E681CD01E4DA84219D0039818600294FB
:103C8000985840F48010985098580290086802980C
:103C9000985001941A6822F008021A601B68019378
:103CA0000B680F4B019A1A6004B0F0BC70470868AB
:103CB000039818600294985840F4801098509858CF
:103CC0000290086808680298985001941A6822F0D7
:103CD00008021A601B6801930B680B68E1E700BFDC
:103CE0000080024048FD0020340200200095BA0AFE
:103CF00000E1F505034B8A88C25004330A68C250BC
:103D0000704700BF4080024009490A4B70B41A68EE
:103D10000C682368156816688560B668E4680C60EE
:103D2000C3F30D43043B80E8480070BC704700BFFC
:103D3000A4660020007F0020F0B4304E33681A687B
:103D4000002A51DB40F2F45290422ED92C4CA4FBB5
:103D50000014A40A02FB140292B2A4B21AB30134F2
:103D6000284F00F2F45007FB0400C0F30C070022B8
:103D700040F2F450651E07E01968013241F000413D
:103D80001960A242DB681CD0196821F0405119600B
:103D9000002A2CD095425860EED1196841F00051AC
:103DA00019605F60E8E7012CDAD11A68C0F30C00F3
:103DB00042F040521A6058601A6842F000421A609D
:103DC000DB68114A336041F21403D158490708D522
:103DD00041F2040104200024D05001205450F0BCD2
:103DE00070470120F0BC70470020F0BC7047196894
:103DF00041F0805119605860BEE700BFA8660020FE
:103E00000BB002AC0CFAFFFF00800240124BF0B581
:103E10001860C2B102F1FF3C034600244FF0004E8F
:103E200044F2F45703F12005644534BF2E4606469C
:103E30000134A2429960C3F800E05F60DE6001F2E5
:103E4000F4512B46EED1054C054B064A41F20C01CC
:103E500060501A60F0BD00BFA466002000800240E0
:103E6000007F002098660020204A13681968002906
:103E700010B410DB1968CC050DD51D4A1268916885
:103E8000013191609168012908BF136001205360DE
:103E90005DF8044B70471968002906DB196888052E
:103EA00003D5186810F4807017D01968002910DB4A
:103EB000186810F400700CD11968C905E8D40C49D1
:103EC0000C68A1680131A160DB6813605DF8044BE8
:103ED000704700205DF8044B7047054909680124CC
:103EE0000B6048608C60DB681360D1E7A46600203B
:103EF000007F0020114B1860D2B1F0B5034602F1EB
:103F0000FF3E00244FF4801703F12005744534BFB1
:103F10002E4606460134A24299601F60DE6001F21F
:103F2000F4512B46F0D1064A41F21003D050F0BDB7
:103F3000034A41F21003D050704700BFA86600202A
:103F4000008002400368194301607047024A136809
:103F500043F001031360704700900240024B186861
:103F600000F00100704700BF0090024030B482B002
:103F70000023134A01931369124C890101F4F8617B
:103F8000C00203F01C0580B241EA0503034343F07D
:103F90000103136102E0019BA34205D8019B013399
:103FA00001931369DB07F6D4074B019A9A421BBFB2
:103FB000034B5869002080B202B030BC704700BF8C
:103FC00000800240FEFF0300FFFF030030B482B018
:103FD000124D134C002301932B696A61890103F090
:103FE0001C0301F4F861C00243F0030380B21943DB
:103FF00001432A46296102E0019BA34205D8019BA7
:10400000013301931369DB07F6D40198054BC01AFD
:1040100018BF012002B030BC704700BF00800240D2
:10402000FEFF0300FFFF0300431E0333024616D8C2
:1040300091F8353003F0020303F0FF0073B14B68D1
:104040009A420AD0896853400B4206D1C94331EAEB
:1040500002030CBF012000207047002070470120A0
:10406000704700BF2DE9F0430378A3F13002D4B2CA
:10407000092C87B01BD80DF10808C4460DF11409AE
:10408000302B20D00A250027D2B2092A07FB05349D
:1040900012D92E2B46D1CC4509D043784CF8047B5D
:1040A000A3F13002D4B2092C00F10100E8D90023B9
:1040B000184607B0BDE8F08310F8013FA4F13007BF
:1040C000A3F13002E0E7437803F0DF02582A04D07E
:1040D00001300825A3F13002D5E78378C61C0027FC
:1040E0000BE0052CD5D81A2A34BF61234123C3EB3A
:1040F0000E0E33784EEA07170136A3F1300523F090
:104100002004413CA3F16102092DE4B203F10A0E3F
:1041100006F1FF3003EB0715D2B2E2D8A5F1300764
:104120003378E9E713F0DF0F02D0093B042BBED848
:10413000C8EB0C039B100133042B18D801A252F8D2
:1041400023F000BFB14000086F410008954100080E
:104150008141000859410008FF2FA8D8039B02980D
:10416000049A1B0443EA006343EA02231F430191BC
:10417000B9B1384602F0CEFB01990123086097E7F8
:10418000B7F5803F93D2039B029A1B0443EA026374
:104190001F43ECE7B7F1807F89D2029B47EA0367B0
:1041A000E5E7012384E700BF00B583B001A9FFF76D
:1041B00059FF20B94FF0FF3003B05DF804FB0198C0
:1041C00003B05DF804FB00BF2DE9F04105460E4643
:1041D00090461F4604F002FE002D00F08C804D4AF0
:1041E000A2F10804A5428CBF00230123954228BFF9
:1041F00043F00103002B52D0AA0750D12B68636013
:104200002B7923726B796372002E56D0424A331D8C
:10421000111DB14288BFA34264D8B30762D133688D
:104220001360B8F1000F4DD098F80030A37398F8E0
:104230000130E37398F80230237498F80330637404
:10424000002F49D03B78A3727B78E372BB7823734D
:10425000FB7863730023002100200125E37484F8B8
:10426000483084F84C3084F84D302363A4F84A3049
:1042700084F84E30C4E90A01C4E90801C4E9100118
:10428000C4E90E01257502F031F9044601F064FD20
:10429000224BB4FA84F01D704009BDE8F0812B7800
:1042A00023716B786371AB78A371EB78E3712B7931
:1042B00023726B796372002EA8D1194B2360B8F179
:1042C000000FB1D1C021A822012384F81080A1736E
:1042D000E2736374002FB5D1FF236773A372E37297
:1042E0002373B7E73378237073786370B378A37060
:1042F000F378E37095E7084C062205230420032198
:104300002271637102220123A071E1712272637232
:104310007AE700BF6097002058970020782D002092
:10432000C0A802780E4B1B789BB110B50D4C94F8C9
:10433000483063B9B4F84A3013B960B1A4F84A0000
:1043400005F01EFD012384F84830002010BD002038
:1043500010BD012070475023A4F84A30F0E700BF99
:10436000782D00205897002008B501F043FD08B1D2
:1043700001F042FD024B586801F044FD002008BDE9
:10438000782D0020024A536818445060002070477E
:10439000782D002038B5074D2C7A0CB1012038BD9E
:1043A0000A460146044805F01BFD01232B722046F6
:1043B00038BD00BF782D00209552000838B5054D56
:1043C0006C7A0CB1012038BD05F012FD01236B722F
:1043D000204638BD782D0020704700BFF0B5164C40
:1043E00085B024789DF82850BDF82C6014B90520BC
:1043F00005B0F0BD114C94F84E7047B9277D17B940
:10440000032005B0F0BDE47C24B90220F0E70120D0
:1044100005B0F0BD0C9C02948DE8600009F000FB33
:1044200010F10B0F03D0003018BF0120E0E7FFF7B9
:10443000D3FF0420DCE700BF782D00205897002030
:10444000F8B5436F05460C4683B31E4B18689B882E
:1044500008608B80696F601D13F0D6F81A4B064612
:1044600007CB71601949B2602B4630602246204666
:1044700013F034F8204613F063FB154DDFF858E0D5
:1044800006460FCDA719A051286838611336A01928
:104490007960BEF800509EF80210BA60FB60A55328
:1044A0008170204613F04CFB80B2F8BD094E0FCE50
:1044B00036786160A260E3602674206022462B4655
:1044C0000249D4E76C4202087442020848420208DA
:1044D000584202083442020830540208704700BFB4
:1044E000704700BF704700BF704700BF0020704793
:1044F00000207047704700BF184BDA7C5AB11B7D13
:104500004BB1F0B5164EB37A85B003F0FF0423B17A
:10451000012005B0F0BD012070472346114A03A9D0
:1045200005460FF0D9F8431D07460DD080B9039911
:104530000B0E28460093C1F30722C1F30743C9B20B
:1045400000F076FE3846E4E701232046B372E0E748
:10455000284600F097FE0120DBE700BF58970020B7
:10456000782D00206945000800B50D4B00229A7295
:1045700083B0034609B1096829B9184600F082FEE4
:1045800003B05DF804FB0B0E0093C1F30722C1F3E7
:104590000743C9B200F04CFE03B05DF804FB00BF56
:1045A000782D0020704700BF0020704708B5FFF746
:1045B000F9FF08BDF0B583B086469DF820C00D4CCC
:1045C0000D4617461E46BCF1000F01D00023A37410
:1045D00029466570CDF800C0012570463A4633463D
:1045E00084F800E0A770E670E574257501F088F89E
:1045F00003B0F0BD5897002008B5054B01210022FB
:104600001975DA7409F002FA01F0ECF808BD00BF80
:104610005897002008B5044B00221A7509F0F8F9E4
:1046200001F0DAF808BD00BF5897002070B483B0DD
:10463000002310F00106ADF8063005D029B3037849
:104640008DF8073001390130012928DD0B46044679
:10465000002234F8025B023B012B2A44F9DC0239C8
:104660004B085C1CA1EB430100EB4400012904BF93
:1046700003788DF80630BDF806301A4491B201EB8C
:10468000124293B203EB124126B10A0292B2C1F375
:1046900007211143C84380B203B070BC70470022A9
:1046A000E4E700BF002871D02DE9F043002683B075
:1046B000B6463746D0F804904589ADF8067019F033
:1046C000010CA84609D0002D56D099F800308DF87D
:1046D000073009F1010905F1FF38B8F1010F4DDD8F
:1046E00043464946002231F8024B023B012B22444B
:1046F000F9DCA8F102084FEA5803591CA8EB43085B
:1047000009EB4109B8F1010F04BF99F800308DF8A9
:104710000630BDF806301A4493B203EB124293B24E
:1047200003EB1243BCF1000F05D01A46130299B2F5
:10473000C2F307230B431EFA83F21FFA82FEEB0734
:104740000EEB124E09D54FEA0E23C6F101069BB2BD
:10475000CEF30722F6B243EA020E00680028A9D180
:1047600076B14FEA0E20CEF3072280B21043C04349
:1047700080B203B0BDE8F0832A46D7E70022C1E744
:104780006FEA0E0290B203B0BDE8F0834FF6FF70FF
:10479000704700BF002866DD2DE9F84F3A4D074607
:1047A00090460E464FF000094FF4004B0FFA89F483
:1047B000364956F824A0504613F010FC28B358F898
:1047C00024301B78313B032B07D8DFE803F0190FA7
:1047D00014026B6983F400436B6109F101095FFA0C
:1047E00089F9B945E2DB0020BDE8F88F6B6983F4F5
:1047F00000536B61F1E76B6983F480436B61ECE715
:104800006B6983F480536B61E7E72149504613F0ED
:10481000E5FBC0B158F824301B78313B032BDCD8C2
:10482000DFE803F00D090502A5F818B0D5E74FF44D
:1048300080432B83D1E74FF400532B83CDE74FF414
:1048400080532B83C9E75046124913F0C7FB002859
:10485000C3D058F824301B78313B032BBDD8DFE898
:1048600003F00F0B070400207047A5F81AB0B4E757
:104870004FF480436B83B0E74FF400536B83ACE796
:104880004FF480536B83A8E7000C02407844020881
:10489000844402088C44020840B910B51446084606
:1048A0001A462146FFF776FF014810BD00487047C1
:1048B0000442020840B910B5144608461A4621467B
:1048C000FFF768FF014810BD00487047F841020833
:1048D00030B5002383B01A461846012507246946DF
:1048E0008DF803308DF801308DF800308DF80250CE
:1048F0008DF8044009F0BAFC03B030BD10B509488A
:10490000094C84B012F03CFD084883784278017865
:10491000C07800905020019002940548FFF75EFD9A
:1049200004B010BD9C440208C444020854A90020ED
:10493000B0440208164A174B116801311160116822
:10494000A3FB01039B0803EB4303B1EB430F04BF3D
:10495000012313711168104B0D4AA3FB01035B087F
:1049600003EBC303C91A00D0704710B50B4C0123E9
:104970002046537109F0A8F9237822796179084813
:1049800012F0B8FC0748BDE8104012F0B3BC00BFFD
:10499000842D0020ABAAAAAA398EE3381CA90020D6
:1049A000F8440208184502082DE9F04F2DED028B5E
:1049B000ADF6241DFBF7CAFD08F004FB664A674804
:1049C000002105F061FFFBF717FE03F0A1F903F0EA
:1049D00087FB4FF4E1320021614801F029FC614876
:1049E00012F0CEFC0C20FDF7C1FF002840F0D88368
:1049F00004F0F4F95C485D4C5D4EFEF767F8FEF795
:104A0000AFF85948FEF7B4F807EE100ADFED597A0F
:104A1000B8EE477AC7EE276A16EE900A11F044FC0A
:104A200002460B465448554912F058FD6421562061
:104A300003F0AEF91021524803F070FB04F0C4F803
:104A40000A2003F0FDFB012003F044FB03F0DAFB36
:104A5000FEF7AAFBFEF7BCFB4A4812F091FC0120CE
:104A600009F064FA042009F07FFBFFF731FF464BA1
:104A700046491D782570013B4548464A1B78007819
:104A8000367812780F78444D63700023A070E6707A
:104A90002271424967711A46204606262E70FFF79A
:104AA00093FB3F4B002840F077834FF480521A83EA
:104AB0003C4D3D4E3D4C9FED2F8A4AF6AA272F6074
:104AC0005020FFF72FFC2D213948FFF763FC02210E
:104AD0003848FFF773FC002009F028FA3648002117
:104AE00009F0F2F8344B344A33491B78127949798A
:104AF000324812F0FFFB324B2F6000211960402238
:104B00002F6015A812F0A4FB2E482F4B00681860E8
:104B10002E4B2F4918602F4B2F4A18602F4B3060B7
:104B200018602F4B086018602E4B106018602E4BD9
:104B300018602E4B18602E4B18602E4B18602E4BB1
:104B400018602E4B18602E4B186025AB2F602E4638
:104B5000A3460D9362E000BFA08601000054004010
:104B600000140140444502080020014064A00020D8
:104B7000187AFF1F00007A4490A000209444020895
:104B800074450208884502081B7AFF1F167AFF1F2A
:104B9000197AFF1F177AFF1FCDA80020C800002038
:104BA000000C02400030004020FB0020842D00203B
:104BB000CC000020800100201CA90020F84402083D
:104BC00018A900209C450208D8A80020ECA80020C5
:104BD000C0A800206CA00020C8A80020E0A80020E9
:104BE000AC970020A0A8002098A00020FCA80020DE
:104BF0000C9800200498002074A9002084A90020AB
:104C0000D0A800206379002B48D1192115A803F002
:104C1000F9FB10285FDC4AF6AA233360FFF7A4FBF8
:104C20002379002BEED0FBF7E7FC8DED0C0AFBF7A8
:104C30000BFD0C988DED0B0A11F036FB02460B466E
:104C40008648874912F04AFC9DED0B0A10EE100AC7
:104C500011F02AFB02460B468248814912F03EFCC5
:104C60008148FDF785FF07EE900AF8EE677A87EE38
:104C7000887A17EE100A11F017FB0B4602467B49A3
:104C80007B4812F02BFC754A76497A4812F032FBC9
:104C900000238BF804306379002BB6D00D9D764944
:104CA0004AF6AA2333605A22284612F037FA5022D5
:104CB000842301920093A6221023BC2102956F4801
:104CC000FFF78CFB0023192115A88BF8053003F0A2
:104CD00099FB10289FDDDFF8B8810021404608F0DD
:104CE000F3FF9DF85650012D74D0022D7DD0032D79
:104CF00000F0A880042D8ED1614812F0FBFA9DF8D7
:104D00005830542B87D1202116A812F0C3FC0DF186
:104D10005A03C31A80461A460DF15A0159480B939B
:104D200012F0CCFF0B9B574A4FF0000908F1010A23
:104D300002F803905046202112F0ACFC08F1030168
:104D4000421A0B90504812F0B9FF0B9B4F48CAEB28
:104D5000030AD91C4C4B2A4603F80A9012F0AEFF06
:104D60004B484B4B4A4A597A057990F800E01B7A38
:104D7000D27940790295454DCDF80CE001F5FA6104
:104D800000910190434985F80490434812F0A6FB36
:104D90000D9D3D4B3B4A4149284612F09FFB41F691
:104DA000907123224B4601910092C021A8220295C6
:104DB0003B48FFF713FB3B4812F09CFA16A812F091
:104DC00099FA394812F096FA4946402215A812F08D
:104DD0003FFA20E7354812F08DFA9DF85830542BF1
:104DE00074D09DF85650022D81D1314812F082FACC
:104DF0009DF85830542B00F081811D4B0093194AC7
:104E0000164B2C492C4812F069FB052214212A4824
:104E100003F074FB0D9D294B294A2A49284612F0BC
:104E20005DFB41F690722323029501920093A82224
:104E30000023C0211A48FFF7D1FA9DF85650032DE0
:104E40007FF458AF204812F055FA9DF85830542B93
:104E500000F0F0809DF856504CE700BF20FB00208A
:104E6000A0450208C0A80020002001409444020888
:104E700090A00020A8450208C04502081C46020870
:104E8000B447020884A9002074A90020D0A80020FB
:104E90001CA900203C4602084CA00020BC47020888
:104EA000B046020800480208AC470208344602082F
:104EB000FC4602085C460208EC970020AC970020F4
:104EC000A0A800201047020854470208202116A875
:104ED00012F0E0FB0DF15A038246C31A1A460B93F7
:104EE0000DF15A010AF10103AF481F4612F0E6FE28
:104EF0000B9BAD4A4FF0000902F803903846202181
:104F000012F0C8FB0AF10301421A0B90A74812F0F5
:104F1000D5FE0B9BA648C7EB030AD91CA34BA44F95
:104F200003F80A90042212F0C9FE98F8091098F8C4
:104F300000C098F804E098F8050098F8083098F850
:104F40000720CDF80CC001F5FA61CDF808E000911A
:104F50000190984987F80490974812F0BFFA00979B
:104F6000924B914A95490FA812F0B8FA07221421E2
:104F70000FA803F0C3FA0D9F8C4B8B4A904938461B
:104F800012F0ACFA4AF6AA2341F69071232233605C
:104F90008C4801914B46C02100920297A822FFF74E
:104FA0001DFA894812F0A6F916A812F0A3F987484D
:104FB00012F0A0F92A46864986480CF0F3F913222C
:104FC00085493EA80CF058FA41993EA80CF064FEC1
:104FD000824B0893824B0793824B0693824B059337
:104FE000824B0493824B0393714B0293814B019349
:104FF0006E4B0093704A6C4B7F493EA80CF014FF37
:105000003EA80CF083FD2A4648467C490CF0CAF9BC
:1050100069497B4812F0F8FA7A4B1B880380062214
:105020001421774803F06AFA4946402215A812F085
:105030000FF9F0E5202116A812F02CFB0DF15A0310
:10504000C3EB000A054652461946654812F036FE83
:10505000634B4FF0000805F1010903F80A80484648
:10506000202112F017FBE91C8246421A5B4812F01D
:1050700025FEC9EB0A09594B634803F809800AF178
:105080000301042212F01AFE6048604B5F4A597A0D
:10509000057990F800E01B7AD279407902955A4D53
:1050A000CDF80CE001F5FA6100910190414985F8D5
:1050B00004804C4812F012FA0D9D484B484A54495E
:1050C000284612F00BFA41F69071232243460191D3
:1050D0000092C021A82202953A48FFF77FF94D4877
:1050E00012F008F916A812F005F94B4812F002F96F
:1050F0004146402215A812F0ABF88CE5202116A8F5
:1051000012F0C8FA0DF15A03C3EB000A05465246E5
:105110001946364812F0D2FD344B4FF0000805F125
:10512000010903F80A804846202112F0B3FAE91C6D
:105130008246421A2C4812F0C1FDC9EB0A092A4BDB
:10514000364803F809800AF10301042212F0B6FD83
:105150002E482E4B2D4A597A057990F800E01B7A9B
:10516000D279407902952D4DCDF80CE001F5FA6128
:10517000009101900F4985F804801D4812F0AEF9A6
:10518000274812F0B7F816A812F0B4F841464022AA
:1051900015A812F05DF830E64FF480421A8387E4D8
:1051A000204812F0EDF823E46CA00020ECA80020C9
:1051B000E0A800203C460208B49700205C460208A4
:1051C0006C460208B0460208BC460208104B0208B2
:1051D000C446020818980020C8460208FCA800200F
:1051E0000C98002004A90020AC970020A0A8002063
:1051F000A8A8002068A90020D84602083453020855
:10520000CC970020C0510208049800201CA900205F
:105210005C470208A0470208AC47020898A000209B
:10522000044702084C4502080120FFF7ABB800BF55
:10523000F0B585B00E4C9DF828700E4D00970126F4
:10524000E77021706270A3700B48AE71EE7112F0BE
:1052500051F8E078A378627821780090074C0294A6
:10526000502001900648FFF7B9F805B0F0BD00BF27
:1052700054A90020842D00200C480208C4440208D0
:10528000B0440208024B012100229971DA71704783
:10529000842D0020F0B5032885B00C4605DC0328DA
:1052A00072D8DFE800F0738A9DA2042800F0A28083
:1052B000052800F0B280062800F0B680072800F02C
:1052C000A580082800F0D080092800F0E0800A2896
:1052D00000F0E5800B2800F0E9800C2800F0F88051
:1052E0000D2800F0FD800E2800F008810F2800F046
:1052F0001181102800F0E280112800F0BD801228F2
:1053000000F02281132800F02881142800F03B814E
:10531000152800F04281162800F04481172800F07B
:105320004681182800F04881192800F04A811A287F
:1053300000F04C811B2800F04E811C2800F05081A9
:105340001D2800F052811E2800F054811F2800F013
:105350005681202800F05881212800F05A81222807
:1053600000F05C81232800F0A781242800F05B81F5
:10537000252800F0B0812A2800F0A8812B2800F011
:10538000AF812C2800F09D81002014E0A84B5B69C0
:10539000C3F30033BBB1A74D0FCD20606160A260A5
:1053A00007CD2D88E360A58320616161A26120465D
:1053B00012F0C6FB80B205B0F0BD9D4B5B69C3F334
:1053C0004033002BE7D19C4D0FCD20606160A2607F
:1053D00007CD2D78E360257720616161A261E6E762
:1053E000934B5B69C3F38033D4E7914B5B69C3F3A1
:1053F000C033CFE79148924943780278C5788078E6
:105400008DE82100204612F069F8D0E78B4AD36975
:105410008BB98C4B18680860C9E7884B8A49DA69F0
:10542000204612F05BF8C2E7844B87499A69204610
:1054300012F054F8BBE792ED067ADFED846A07EECE
:10544000903AB8EE477AF8EE677A87EE276A66EE0A
:10545000267A17EE900A10F027FF02460B462046E8
:105460007B4912F03BF8A2E7744B7A49D3E9082351
:10547000204612F033F89AE7704B93F84D30002B2A
:105480005CD0754B18681B7908600B718FE76B4B0C
:105490007049D3E90A23204612F020F887E7674BCA
:1054A00069491A6B204612F019F880E7634B694985
:1054B000D3E90E23204612F011F878E75F4B93F8FA
:1054C0004C30002B32D0654B03CB206061606EE71F
:1054D0005A4B6049D3E91023204611F0FFFF66E7DD
:1054E00056485F4943790279477A067AC5798079C7
:1054F0008DE8E100204611F0F1FF58E74F48504990
:10550000C37B827B457C007C8DE82100204611F026
:10551000E5FF4CE749484A49C37A827A457B007BDC
:105520008DE82100204611F0D9FF40E74D4B186867
:105530009A889B7908608A808B7138E74A4B186893
:105540001B7908600B7132E7484D0FCD2D882582FD
:1055500020606160A260E36029E7454D0021284694
:1055600008F0B2FB697A68792F782E792B7AEA797C
:10557000019001F5FA610091039702963D4920469A
:1055800011F0ACFF13E73C4D0FCD2060616003CDFF
:10559000A260E3602061616109E73849204612F0AA
:1055A0005DFA04E73649204612F058FAFFE635491D
:1055B000204612F053FAFAE63349204612F04EFA2A
:1055C000F5E63249204612F049FAF0E63049204625
:1055D00012F044FAEBE62F49204612F03FFAE6E6D5
:1055E0002D49204612F03AFAE1E62C49204612F005
:1055F00035FADCE62A49204612F030FAD7E6294986
:10560000204612F02BFAD2E62749204612F026FA5D
:10561000CDE62649204612F021FAC8E62449204664
:1056200012F01CFAC3E62349204612F017FABEE630
:10563000000C0240384802085848020858970020D9
:105640007848020888480208844802080000C842D6
:105650008C48020894480208CC480208BC4802085A
:105660009C480208C4480208D4480208DC480208E2
:105670001CA900203C460208F04802086CA000204B
:10568000ECA80020E0A80020B497002068A9002022
:10569000A0A80020AC97002098A00020A8A8002077
:1056A0000C980020FCA800200498002004A90020E9
:1056B00084A90020D0A800200C49204612F0CEF981
:1056C00075E60B49204612F0C9F970E609492046F3
:1056D00012F0C4F96BE60849204612F0BFF966E6FD
:1056E0000649204612F0BAF961E600BF74A900200D
:1056F00090A00020C0A800204CA0002020FB00208B
:10570000F0B585B004469DF828E00D4616461F46C4
:10571000BEF1000F39D0244811F0ECFD33462A4683
:1057200000972146214811F0E5FD214B01221A7214
:10573000204C2148677A267AE579A3796279217924
:105740008DE8E00011F0D6FD607C237CE27BA17B3C
:1057500000901A4811F0CEFD607B237BE27AA17A9B
:105760000090174811F0C6FD94F84C10154811F040
:10577000C1FD94F84D10144811F0BCFD1348FEF71C
:10578000BBFE012809D005B0F0BD009313460A46C0
:1057900001460F4811F0AEFDCAE70E4805B0BDE85E
:1057A000F04011F0EDBD00BF084902081849020899
:1057B000842D002058970020684902088C4902086F
:1057C000A4490208BC490208CC490208B0440208B6
:1057D00044490208E0490208014811F08BBD00BFAE
:1057E000304A0208014811F0CBBD00BF6C4A0208E4
:1057F000F0B504469BB022480D4611F07BFD012216
:10580000204921480BF0CEFD10B301461F4811F08E
:1058100071FD2A461E491F4D01A811F05FFE207C34
:1058200040F6280601A906FB005003220BF024FED7
:1058300001A9074680B1184811F05CFD39461748A8
:1058400011F058FD63691C888CB100201BB0F0BDBD
:10585000134811F04FFDDCE7124811F04BFD237C9B
:1058600006FB03550120EB6863601BB0F0BD01220D
:10587000044920460BF096FD20461BB0F0BD00BF4A
:105880007C4A02083453020818980020944A0208FF
:10589000B84A02088CA90020C04A0208D44A02086B
:1058A000A84A0208E44A0208F0B5614B0D468FB0E1
:1058B00060491D60044611F067FF00283AD05E4938
:1058C000204611F061FF002841D05C49204611F0CC
:1058D0005BFF002848D02046594911F055FF08B118
:1058E0000FB0F0BD2846574907F0BEFA044600281D
:1058F000F6D1554811F0FEFC524811F0FBFC53481C
:1059000011F0F8FC52494F4812F068FB0028E7D02C
:10591000C51D28462C2111F0BDFE4E4E471B2946C1
:105920003A46304612F0CAF93146BC554A4811F0A1
:10593000E1FCD5E74349284607F096FA0028BED196
:10594000464811F0D7FC3F4811F0D4FCC8E73D4968
:10595000284607F089FA0028B7D1414811F0CAFC5F
:10596000384811F0C7FCBBE73649284607F07CFAF7
:1059700006460028AFD13B4811F0BCFC314811F07D
:10598000B9FC324638492F4807F04CFA0646002841
:105990003ED1364C364811F0F3FC2168354811F001
:1059A000A9FC0EA8236840F8383D10F089FF054691
:1059B0000FCD05AC0FC40FCD0FC4099A0A9B2F68F9
:1059C0000598069927600132643B0B9D079F089C50
:1059D0008DF8040005A88DF80C208DF80D308DF899
:1059E00008108DF80A508DF809708DF80B40009C56
:1059F00010F030FF214602461F4811F07BFC314673
:105A000001A808F01BF978B91C4811F0B9FC67E748
:105A100001461B4811F06EFC304607F00DFA0146B6
:105A2000184811F067FC5BE7174811F0A9FC57E72D
:105A300018A90020B0460208144B0208B04402081E
:105A40001C460208A0A00020F04B0208104B0208E0
:105A50001C4C020888A00020244C0208F84A0208C6
:105A6000204B02083C4B0208804202081498002098
:105A7000504B02086C4B02087C4B0208884B020812
:105A8000B84B0208D44B0208A04B020870B504467C
:105A9000154682B000F11A020E460E48294611F052
:105AA00029FC237C0C4A40F6280000FB0320826876
:105AB000C3689A420BD04FF6FF72AA423146A8BF84
:105AC0002A4601AB0BF0F6FF019802B070BD4FF013
:105AD000FF30FAE7484C02088CA9002010B50C4BA7
