:020000040800F2
:1000000098C40120DD4F00084950000849500008FD
:1000100049500008495000084950000800000000FD
:10002000000000000000000000000000495000082F
:10003000495000080000000049500008B5AB000816
:10004000495000084950000849500008CD1C0108DB
:100050004950000849500008B11D010849500008E6
:10006000495000088DAA000849500008495000086E
:1000700049500008495000084950000849500008FC
:1000800049500008495000084950000849500008EC
:1000900049500008495000084950000849500008DC
:1000A00049500008495000084950000849500008CC
:1000B00049500008495000084950000849500008BC
:1000C00049500008495000084950000849500008AC
:1000D00049500008A9890008D9890008098A000840
:1000E00049500008FD1C010849500008495000080B
:1000F000495000084950000849500008495000087C
:1001000049500008E5D80008495000084950000847
:10011000398A0008698A00084950000849500008D7
:10012000495000084950000849500008F1D800081B
:10013000495000084950000849500008495000083B
:10014000495000084950000849500008495000082B
:10015000495000084950000849500008998A000891
:10016000495000084950000849500008495000080B
:1001700049500008495000084950000849500008FB
:1001800049500008495000084950000849500008EB
:1001900049500008495000084950000849500008DB
:1001A00049500008495000084950000880B483B005
:1001B00000AF0123FB71FB7918460C37BD465DF893
:1001C000047B704790B484B000AF03460A46FB71CD
:1001D0001346BB710023FB60BB7903F003039B0054
:1001E0000F2202FA03F3FB601649BB799B08DBB2CE
:1001F0001846144ABB799B08DBB2023352F823201D
:10020000FB68DB431A40831C41F823200D48BB796F
:100210009B08DBB21C460B4ABB799B08DBB202335E
:1002200052F82320F979BB7903F003039B0001FA0C
:1002300003F31A43A31C40F8232000BF1037BD4628
:1002400090BC70470038014080B483B000AF786044
:10025000044A7B68136000BF0C37BD465DF8047B21
:10026000704700BFDC00274280B485B000AF7860E3
:100270002A4B1B687A6812881344FB607A68FB6813
:100280009A421FD0FB681B79002B1BD1244B1B68A3
:10029000FA689A4216D0234B1A68FB689A4202D138
:1002A000204A7B681360FB681A887B681A801B4BA6
:1002B0001B68FA68128813447A6818490968521A48
:1002C00092B25A80154B1B687A6852881344BB60FF
:1002D000BA687B689A421AD0BB681B79002B16D18A
:1002E000104B1A687B689A4202D10E4ABB681360B1
:1002F0007B681A88BB681A80084B1B687A6812886A
:100300001344BA6805490968521A92B25A8000BF6C
:100310001437BD465DF8047B704700BF200C0020F9
:10032000240C0020280C002080B483B000AF194BAF
:10033000033323F003031A46174B1A60164B1B684E
:100340007B607B684FF420521A807B6800225A80C1
:100350007B6800221A71104B1B6803F520530F4A6B
:1003600013600E4B1B6801221A710C4B1B684FF473
:1003700020521A80094B1B684FF420525A80064BBA
:100380001B68074A136000BF0C37BD465DF8047B4D
:10039000704700BF003C0020200C0020240C0020EF
:1003A000280C002080B584B000AF78607B68002BFB
:1003B0001FD0134B1B687A689A42114B1B687A68EE
:1003C0009A4218D30F4B1B687A689A4213D27B6803
:1003D000083BFB60FB6800221A710B4B1B68FA6834
:1003E0009A4202D2084AFB681360F868FFF73CFFA4
:1003F00002E000BF00E000BF1037BD4680BD00BF77
:10040000200C0020240C0020280C002080B487B091
:1004100000AF78600B467B807B8803339BB223F070
:1004200003037B807B880B2B01D80C237B807B888C
:10043000B3F5205F01D9002399E0504B1B687A681F
:100440009A424E4B1B687A689A4204D34C4B1B6805
:100450007A689A4201D37B6889E07B68083B7B61BC
:100460007B69464A12689B1A7B827B691A887B8A61
:10047000D31A9BB2083B3B827A883B8A9A4201D9C5
:10048000002374E07A883B8A9A4201D17B686EE04F
:100490003A4B1B687A6912881344FB60FB681B792E
:1004A000002B31D1FB681B887B817A8A7B881344BF
:1004B0009BB208333B81334B1A68FB689A4205D1E3
:1004C0002E4B1A683B8913442E4A13602B4B1A6833
:1004D0003B891344FB60FB6800221A71FB687A8930
:1004E0001A80FB687A8A5A807B693A891A80FB688D
:1004F0001B88B3F5205F39D0204B1B68FA6812883F
:1005000013443A895A8031E07B8803F114023B8A14
:100510009A422BD87A8A7B8813449BB208333B815A
:10052000164B1A683B891344FB60164B1B68FA682C
:100530009A4202D2134AFB681360FB6800221A71C8
:100540007B691A88FB681A80FB687A8A5A807B6903
:100550003A891A80FB681B88B3F5205F06D0074BE9
:100560001B68FA68128813443A895A807B681846D7
:100570001C37BD465DF8047B704700BF200C00208F
:10058000240C0020280C002080B489B000AF034662
:10059000FB80FB88002B01D1002391E0FB88033313
:1005A0009BB223F00303FB80FB880B2B01D80C23A9
:1005B000FB80FB88B3F5205F01D9002380E0434B2B
:1005C0001B681A46424B1B68D31AFB8371E0404BF1
:1005D0001A68FB8B13447B617B691B79002B62D10A
:1005E0007B691B881A46FB8BD31AA3F10802FB8890
:1005F0009A4258D37B691B881A46FB8BD31AA3F106
:100600000802FB8814339A4227D3FA8BFB881344E1
:100610009BB208337B822E4B1A687B8A1344FB60A3
:10062000FB6800221A717B691A88FB681A80FB68D4
:10063000FA8B5A807B697A8A1A807B6901221A7147
:10064000FB681B88B3F5205F0AD0214B1B68FA6852
:10065000128813447A8A5A8002E07B6901221A7157
:100660001A4B1B687A699A421AD1184B1B68BB61F6
:1006700005E0174B1B68BA6912881344BB61BB695C
:100680001B79002B04D0134B1B68BA699A42F0D136
:100690000E4ABB6913600D4B1A680E4B1B689A42D9
:1006A0007B6908330CE00A4B1A68FB8B13441B88E8
:1006B000FB83FA8BFB88C3F520539A4287DB002328
:1006C00018462437BD465DF8047B7047280C00208F
:1006D000200C0020240C002080B582B000AF03461F
:1006E000FB80184B1B78DBB2082B02D1FB88DBB2F6
:1006F000FB8000BF0221144815F054FD0346002B77
:10070000F8D0FB881946104815F03CFD00BF0121C8
:100710000D4815F047FD0346002BF8D00A4815F0A8
:1007200023FD0346FB80074B1B78DBB2082B03D16C
:10073000FB88DBB29BB200E0FB8818460837BD4659
:1007400080BD00BF080000200038004080B588B0A0
:1007500000AF01214FF4804007F046FC0023BB812D
:100760004FF48273FB8100233B8200237B820023B2
:10077000BB824FF40073FB8208233B8300237B83FF
:1007800007F10C031946284815F08AFC01210620C0
:1007900007F00AFC0C237B6002233B7202237B726E
:1007A0000023BB720023FB723B1D19461F480FF04C
:1007B000CBFF4FF480637B6002233B7202237B728A
:1007C0000023BB720023FB723B1D194618480FF033
:1007D000BBFF01237B6001233B7202237B72012359
:1007E000FB720023BB723B1D194610480FF0ACFF93
:1007F00005220A210E4810F06FF8052202210B484D
:1008000010F06AF805220321084810F065F801216C
:10081000064810F041F80121034815F085FC00BF9F
:100820002037BD4680BD00BF0038004000080240B0
:100830000004024080B483B000AF03463960FB710E
:1008400097F90730002B0BDA0D49FB7903F00F0302
:10085000043B3A68D2B21201D2B20B441A7609E0D4
:10086000084997F907303A68D2B21201D2B20B4464
:1008700083F8002300BF0C37BD465DF8047B70474A
:1008800000ED00E000E100E080B582B000AF7860EC
:100890007B68013BB3F1807F01D301230FE00A4A5B
:1008A0007B68013B53600F214FF0FF30FFF7C2FF21
:1008B000054B00229A60044B07221A600023184659
:1008C0000837BD4680BD00BF10E000E080B500AF36
:1008D00000BF074B1B68074AA2FB03239B0C18466B
:1008E000FFF7D2FF0346002BF3D100BF80BD00BF4E
:1008F000F402002083DE1B4380B400AF064B1B686C
:10090000002B04D0044B1B68013B034A136000BF5B
:10091000BD465DF8047B7047300C002080B483B086
:1009200000AF7860064A7B68136000BF044B1B6809
:10093000002BFBD100BF0C37BD465DF8047B704730
:10094000300C002080B400AF064B4FF47A721A606E
:1009500000BF044B1B68002BFBD100BFBD465DF8F8
:10096000047B7047300C002080B582B000AF786007
:1009700001E0FFF7E7FF7B685A1E7A60002BF8D191
:1009800000BF0837BD4680BD80B483B000AF0023F0
:10099000FB7103E000BFFB790133FB71FB79072B8F
:1009A000F8D900BF0C37BD465DF8047B704700BF27
:1009B00080B500AF01214FF4006007F095FB0021E6
:1009C0004FF4006007F090FB00BF80BD80B485B09D
:1009D00000AF78600023FB60134B5B68FB60FB6833
:1009E00023F4FD4323F07F03FB607B681B7D1A46E5
:1009F0007B689B681A437B685B681A437B68DB688B
:100A00001A437B681B681A437B681B691343FA68A7
:100A10001343FB60044AFB68536000BF1437BD46B4
:100A20005DF8047B704700BF002C014080B483B0A8
:100A300000AF0346FB71044AFB79136000BF0C371B
:100A4000BD465DF8047B7047A080254280B483B02A
:100A500000AF7860044A7B68136000BF0C37BD4666
:100A60005DF8047B704700BF002C014080B400AFEC
:100A7000044B1B6803F003031846BD465DF8047B76
:100A8000704700BF002C014080B485B000AF786093
:100A90000023FB60114A7B681B6893600F4BDB6887
:100AA000FB60FB6823F4FF6323F00703FB607B68B4
:100AB0005A687B689B681A437B68DB681A437B68CB
:100AC0001B691343FA681343FB60044AFB68D36055
:100AD00000BF1437BD465DF8047B7047002C014011
:100AE00080B400AF034B1B69DBB21846BD465DF80E
:100AF000047B7047002C014080B485B000AF786063
:100B00000023FB607A68054B1344FB60FB681B689D
:100B100018461437BD465DF8047B7047142C01401D
:100B200080B485B000AF78600023FB60124A7B6818
:100B30001B685362104A7B685B6893620E4BDB6AEA
:100B4000FB60FB6823F0F703FB607B689A687B68B7
:100B5000DB681A437B681B691A437B685B69134334
:100B6000FA681343FB60044AFB68D36200BF143782
:100B7000BD465DF8047B7047002C014080B400AF97
:100B8000034BD3F880301846BD465DF8047B7047B0
:100B9000002C014080B483B000AF0346FB71044ACF
:100BA000FB79136000BF0C37BD465DF8047B7047CE
:100BB0008C85254280B485B000AF78600023FB733C
:100BC000084B5A6B7B681340002B02D00123FB7348
:100BD00001E00023FB73FB7B18461437BD465DF82C
:100BE000047B7047002C014080B485B000AF786072
:100BF0000023FB73084B5A6B7B681340002B02D019
:100C00000123FB7301E00023FB73FB7B18461437C1
:100C1000BD465DF8047B7047002C014080B483B072
:100C200000AF7860044A7B68936300BF0C37BD4611
:100C30005DF8047B704700BF002C014080B582B096
:100C400000AF786078680BF0DDFDCC2178680BF0A0
:100C500097FE442178680BF093FE00BF0837BD462D
:100C600080BD00BF90B58BB000AFF860B9607A600E
:100C7000002387F824300023FB77B86800F07CF964
:100C80000346002B01D10023E3E0F8680BF044FE9B
:100C90000346002B01D10023DBE0F8680BF0B2FD26
:100CA000B968F8680BF0A2FFBE21F8680BF068FE87
:100CB0000023FB770DE0FC7FF8680BF07FFE034616
:100CC0001A4607F12803234403F8142CFB7F013351
:100CD000FB77FB7F082BEED907F114030821184698
:100CE0000BF0BEFF0346BB773B7FBA7F9A4201D031
:100CF0000023AEE03B7D9AB27B7D1B029BB2134387
:100D00009BB2FB84F8680BF07DFDFB8C1BB2002BC3
:100D100005DAFB8C5B42FB84012387F824303B7EA1
:100D20005B11DBB203F00303DBB209337B77FB8C8F
:100D30001B099BB287F82530FB8C1B0A9BB21B0159
:100D4000DBB203F07003DBB21A4697F82530134389
:100D500087F825307B7F093B032B59D801A252F835
:100D600023F000BF750D00089D0D0008C50D00089B
:100D7000ED0D0008FB8CDB089BB203F0010307EECE
:100D8000903AF8EEE77AC7ED087AD7ED087AB6EE32
:100D9000007A67EE877AC7ED087A3EE0FB8C9B0805
:100DA0009BB203F0030307EE903AF8EEE77AC7ED43
:100DB000087AD7ED087AB5EE007A67EE877AC7ED44
:100DC000087A2AE0FB8C5B089BB203F0070307EE6E
:100DD000903AF8EEE77AC7ED087AD7ED087AB4EEE4
:100DE000007A67EE877AC7ED087A16E0FB8C03F08D
:100DF0000F0307EE903AF8EEE77AC7ED087AD7EDE1
:100E0000087A9FED167A67EE877AC7ED087A04E0D4
:100E1000134B3B62002387F8253097F9253007EE06
:100E2000903AF8EEE77A97ED087A77EE277AC7EDF1
:100E3000087A97F92430002B07D09FED0A7AD7ED76
:100E4000087A77EE677AC7ED087A7B683A6A1A60A3
:100E5000012318462C37BD4690BD00BF0000803DE1
:100E600000007F430000000080B586B000AFF8604E
:100E7000B9601346FB71B86800F07EF80346002B9A
:100E800001D1002374E0F8680BF0BCFCB968F86885
:100E90000BF0ACFEBE21F8680BF072FDF8680BF0A9
:100EA0008DFDF8680BF08AFDF8680BF087FD0346AE
:100EB000BB75F8680BF082FD03467B75F8680BF094
:100EC0007DFD0346FB75FB79092B08D1FB7D23F0E3
:100ED0004003FB75FB7D23F02003FB7522E0FB79CB
:100EE0000A2B08D1FB7D23F04003FB75FB7D43F00B
:100EF0002003FB7516E0FB790B2B08D1FB7D43F03B
:100F00004003FB75FB7D23F02003FB750AE0FB79B2
:100F10000C2B07D1FB7D43F04003FB75FB7D43F0B9
:100F20002003FB75F8680BF06DFCB968F8680BF0EE
:100F30005DFE4E21F8680BF023FDBB7D1946F86875
:100F40000BF01EFD7B7D1946F8680BF019FDFB7D4B
:100F50001946F8680BF014FDF8680BF053FCB968FB
:100F6000F8680BF043FE4821F8680BF009FD0123F7
:100F700018461837BD4680BD80B483B000AF786096
:100F80007B681B78282B01D1012300E00023184641
:100F90000C37BD465DF8047B704700BF80B582B05A
:100FA00000AF786078680BF0B7FC03461846083746
:100FB000BD4680BD80B500AF00F070FE074B1B78CA
:100FC0000133DAB2054B1A70044B1B7803F00103AE
:100FD000002B01D000F04CFC00BF80BD340C002081
:100FE000B0B586B002AF78600B46FB70FB78002B83
:100FF00067D07B681B7E042B03D07B681B7E072B8E
:101000005FD17B685B6F002B05D17B689B8D40F6C1
:101010006832934255D07B68186D7B68996A7C680A
:101020007B681D1D7B685B8B7A68928B01920093B5
:101030002B46224617F08AFF786801F0A3F8774B19
:101040001A687B689A4205D1744B1B68DB68734A47
:10105000136019E0714B1B68714A136010E0704B0C
:101060001B68DA687B689A4205D16D4B1B687A6809
:10107000D268DA6008E06A4B1B68DB68684A136074
:10108000674B1B68002BEAD17B680022DA60654B56
:1010900001221A707B681B7E042B0CD17B680A220C
:1010A0001A76614B1A687B68DA605F4A7B68136066
:1010B00007F0FAF903E07968022003F015F800233D
:1010C000A6E07B681B7E072B00F28D8001A252F800
:1010D00023F000BFF51000085F1100087911000827
:1010E00099110008B3110008E7110008E711000882
:1010F000CD1100080023FB737B685B8B002B27D08E
:101100004A4B1A687B689A4205D1484B1B68DB68DA
:10111000464A136019E0454B1B68414A136010E0D2
:101120003F4B1B68DA687B689A4205D13C4B1B68D1
:101130007A68D268DA6008E0394B1B68DB68384AA5
:101140001360374B1B68002BEAD17B680022DA6002
:101150007968022002F0C8FF00237B604DE0002385
:10116000FB737968324801F047F87968032002F090
:10117000BBFF00237B6040E00023FB7379682748B6
:1011800001F03AF8274B01221A707968022002F028
:10119000ABFF00237B6030E0786817F03DF8034632
:1011A000FB7397F90F30002B22D17B6805221A764A
:1011B0001EE0786817F030F80346FB7397F90F309C
:1011C000002B17D17B6805221A7613E0786817F098
:1011D00023F80346FB7397F90F30002B0CD17B6883
:1011E00009221A7608E00023FB7300237B6004E0E9
:1011F00000BF02E000BF00E000BF7B68002B06D00C
:1012000097F90F30002B02D1786817F0A1FCFB7B17
:101210005BB218461037BD46B0BD00BF1864002051
:1012200024640020146400202C6400202864002022
:101230002064002080B582B000AF78607B681B7EA0
:10124000012B06D07B689B7F43F01003DAB27B68EA
:101250009A7701217868FFF7C3FE034618460837DE
:10126000BD4680BD80B588B002AF786039607B68CC
:101270001B7E0A2B08D17968274800F0BDFF7968EA
:10128000022002F031FF43E07B681B6D7B617B68CD
:101290009B6A3B617B68D3F88830FB607B681B6985
:1012A000BB6079681D4800F0A7FF1D4B01221A7032
:1012B0007B681B6F002B04D07B681B6F184600F007
:1012C000A1FD7B68DB6E002B04D07B68DB6E1846CB
:1012D00000F098FD3B68002B0ED079687B68181DE4
:1012E0007B685B8B7A68928B0192009303460A4677
:1012F0003969786917F02AFE7968022002F0F4FE55
:10130000FB68002B04D0FB686FF00901B8689847B0
:1013100000BF1837BD4680BD2C6400201864002033
:101320001464002080B582B000AF78600121786835
:10133000FFF798FF00BF0837BD4680BD80B588B075
:1013400000AFF860B9601346FB8004237B61FB6843
:101350001B7E002B01D0FA2355E0FB88002B08D11F
:1013600000F066F90346FB80FB88002B01D1FE23C9
:1013700049E00023FB612AE0254AFB6952F823304B
:101380001B68BB611DE0BB695B8BFA889A4215D173
:10139000BB69002B10D0BB691B68002B0CD0BB684D
:1013A000002B09D0BB681B68002B05D0BB691A68ED
:1013B000BB681B689A4201D1F82324E0BB69DB6853
:1013C000BB61BB69002BDED1FB690133FB61FA69AC
:1013D0007B699A42D0DBBB68002B07D0BB681B68D7
:1013E000002B03D0FB68BA6812681A60FB68FA88A1
:1013F0005A83084B1A68FB68DA60064AFB68136078
:1014000007F052F800235BB218462037BD4680BD76
:10141000386202082864002080B485B000AFF8600C
:10142000B9601346FB71F6235BB218461437BD460C
:101430005DF8047B704700BF80B584B000AF786072
:101440000B46FB707B681B7E002B01D0002371E0F4
:101450007B681B7E012B01D17B686BE0032002F0CF
:1014600021FEF860FB68002B01D1002362E07B685D
:101470001A69FB681A617B685A8BFB685A83FB68A0
:1014800001221A767B685A7EFB685A767B681A7A44
:10149000FB681A72FB681B7A43F00203DAB2FB683E
:1014A0001A727B689A7AFB689A727B685A7AFB6830
:1014B0005A727B681A68FB681A607B685B8B002B2A
:1014C00027D01E4B1A687B689A4205D11B4B1B68BC
:1014D000DB681A4A136019E0184B1B68184A13603E
:1014E00010E0174B1B68DA687B689A4205D1144BF1
:1014F0001B687A68D268DA6008E0114B1B68DB6809
:101500000F4A13600E4B1B68002BEAD17B68002248
:10151000DA607968022002F0E7FDFB68094A5A6147
:10152000094B1A68FB68DA60074AFB68136006F02B
:10153000BBFFFB6818461037BD4680BD28640020FD
:1015400024640020191400082064002080B485B0B1
:1015500000AF78607B689B6A7A68928D1344FB6069
:101560007B681B6B7A68D28E40F2B4518A4202D8F3
:101570007A68D28E01E040F2B4521344FA68D31A6A
:10158000002B08DB7B689A8D7B68DA857B681B6B98
:10159000FA68D31A15E07B689A6A7B681B6BD31ACA
:1015A000002B03DD7B680022DA8509E07B681A6B7B
:1015B0007B689B6AD31ABB60BB689AB27B68DA858A
:1015C000002318461437BD465DF8047B704700BF02
:1015D00080B584B000AF78600B467B807B689A8DC5
:1015E0007B8813449AB27B689A857B689B8D40F612
:1015F0006832934203D97B6840F668329A857868EE
:10160000FFF7A4FF0346FB60FB6840F2D922934238
:1016100009DD7B689B7F43F00203DAB27B689A772F
:10162000786817F095FA00BF1037BD4680BD00BF3F
:1016300080B483B000AF0023BB801D4B1B885A1CB5
:1016400091B21B4A11804FF6FF72934203D1184B9F
:101650004FF440421A800023FB711EE0FB79154ACB
:1016600052F823301B683B6011E03B685A8B104BEB
:101670001B889A4208D1BB880133BB80BB88B3F575
:10168000804FDAD300230DE03B68DB683B603B68AA
:10169000002BEAD1FB790133FB71FB79032BDDD9F8
:1016A000034B1B8818460C37BD465DF8047B70471A
:1016B0000C0000203862020880B588B000AFF860E6
:1016C000B9603B601346FB80FB681B7E002B01D09A
:1016D000F723BFE0BB68002B0AD0FB68BA6812682A
:1016E0005A60FB68FA889A83FB68002B06D001E0F9
:1016F000FA23AFE0FB681B68002B0ED1FB680433B4
:10170000184614F0BDFAF861FB69002B01D1FC23E7
:10171000A0E0FB695A68FB681A60FB685B8B7B83FF
:10172000FB685B8B002B0BD1FFF782FF03461A4649
:10173000FB685A83FB685B8B002B01D1FE2389E099
:1017400000F0AEFD7861FB6800229A62FB687A695E
:101750001A657B695A1EFB689A647B695A1EFB688E
:10176000DA65FB6840F668329A85FB6840F66832B5
:10177000DA85FB689A6AFB681A63FB6840F6683290
:10178000A3F86020FB684FF40672DA86FB68DB8EF4
:10179000B968184600F098FD03461A46FB68DA86D9
:1017A000FB680122A3F84C20FB68DB8E1A469200EE
:1017B00013445B009AB2FB68A3F84E20FB683A68BA
:1017C000C3F880200221F86817F0C0F80346FB74C4
:1017D00097F91330002B3CD1FB6802221A767B8BE1
:1017E000002B27D01E4B1A68FB689A4205D11C4B70
:1017F0001B68DB681A4A136019E0194B1B68194A09
:10180000136010E0174B1B68DA68FB689A4205D139
:10181000144B1B68FA68D268DA6008E0114B1B6849
:10182000DB68104A13600F4B1B68002BEAD1FB6882
:101830000022DA600C4B1A68FB68DA600A4AFB681F
:10184000136006F031FE094B01221A70F86817F098
:101850007FF9FB7C5BB218462037BD4680BD00BFD8
:1018600028640020246400201864002014640020F0
:10187000B0B58AB002AF00237B75A74B1B6801335C
:10188000A54A1360A54B1B780133DAB2A34B1A703B
:101890000023BB61A24B1B68FB61B9E1FB6993F8B4
:1018A00021209E4B1B789A4203D1FB69DB68FB61C8
:1018B000AEE19A4B1A78FB6983F821200023FB756F
:1018C0000023BB75FB691B7E022B08D1FB6993F8D3
:1018D0004630062B03D1FB7D0133FB7595E0FB6998
:1018E00093F846300C2B03D1FB7D0133FB758CE064
:1018F000FB6993F89130002B27D0FB6993F8903067
:101900000133DAB2FB6983F89020FB6993F89020E9
:10191000FB6993F89130013B8249CB5C9A4274D3C6
:10192000FB69002283F89020FB6993F89130062B25
:1019300007D8FB6993F891300133DAB2FB6983F879
:101940009120F86917F05CFC5FE0FB699B8E1BB28D
:10195000002B07DBFB699B8E9BB201339BB29AB2D3
:10196000FB699A86FB691B6F002B4ED0FB699A8E30
:10197000FB69B3F8443012B21BB29A4245DBFB69F3
:101980001B7E022B16D0FB69B3F840301BB2DB1074
:101990009BB21AB2FB69B3F842301BB21344FA6926
:1019A00092F846201146604A525C93409AB2FB6915
:1019B000A3F84420FB6900229A86FB69B3F86020F3
:1019C000FB69B3F84C30934228BF13467B827B8A75
:1019D0005B089AB2FB69A3F84E20FB69B3F84E305E
:1019E0001A46FB69DB8E5B009A4206DAFB69DB8EE6
:1019F0005B009AB2FB69A3F84E20FB69DA8EFB69A3
:101A0000A3F84C20F86917F0FDFAFB691B7E062B42
:101A10000FD1FB699B7F03F01003002B09D03E4BD5
:101A20001A68FB695B6AD31A282B02D9FB7D013344
:101A3000FB75FB691B7A03F00803002B41D0FB699F
:101A40001B7E042B03D0FB691B7E072B39D1324B45
:101A50001A68FB695B6AD21AFB69D3F88C3003F50C
:101A6000242303F6B8433149A1FB03135B099A42CF
:101A700006D9FB7D0133FB75BB7D0133BB7520E0CF
:101A8000254B1A68FB695B6AD21AFB69D3F88C1084
:101A9000FB6993F892301846254B03FB00F30B4487
:101AA0002249A1FB03135B099A420AD9F86917F08E
:101AB0007BFBFB6993F892300133DAB2FB6983F860
:101AC0009220FB691B7E032B09D1134B1A68FB691B
:101AD0005B6AD31A282B02D9FB7D0133FB75FB69A6
:101AE0001B7E092B09D10C4B1A68FB695B6AD31A60
:101AF000F02B02D9FB7D0133FB75FB7D002B51D010
:101B0000F86900F03FFBBB69002B13D0FB69DA6872
:101B1000BB69DA6012E000BF1C640020350C0020B5
:101B2000186400203062020820620208D34D62105F
:101B3000F8240100FB69DB68544A1360BB7D002B6D
:101B400010D0FB69186DFB69996AFC69FB691D1D62
:101B5000FB695B8BFA69928B019200932B462246BC
:101B600017F0F4F9FB69D3F88830FB60FB691B6957
:101B7000BB60FB697B60FB69DB68FB617968022005
:101B800002F0B2FA424B00221A70FB68002B04D01C
:101B9000FB686FF00901B86898473D4B1B78002B34
:101BA00036D075E6FB69BB61FB69DB68FB61BB692D
:101BB000DB7F0133DAB2BB69DA77BB69DA7FBB69F5
:101BC00093F820309A4223D3BB690022DA77304B56
:101BD00000221A70BB69D3F88430002B0AD0BB698D
:101BE000D3F88430BA691269B96910469847034638
:101BF0007B7501E000237B75254B1B78002B00D003
:101C000046E697F91530002B02D1B86916F0A0FF0F
:101C1000FB69002B7FF442AE0023BB611D4B1B68A8
:101C2000FB612CE00023FB751B4B1A68FB695B6AA8
:101C3000D31AF02B02D9FB7D0133FB75FB7D002B02
:101C400018D0F86900F09EFABB69002B04D0FB693C
:101C5000DA68BB69DA6003E0FB69DB680D4A136090
:101C6000FB693B60FB69DB68FB613968022002F0BD
:101C70003BFA04E0FB69BB61FB69DB68FB61FB6964
:101C8000002BCFD100BF2037BD46B0BD1864002067
:101C9000146400202C6400201C64002080B582B0F5
:101CA00000AF244B1B780133DAB2224B1A70224B5F
:101CB0001B687B6036E07B6893F821201D4B1B7806
:101CC0009A422FD01B4B1A787B6883F821207B68BF
:101CD0009B7F03F00103002B10D07B689B7F43F0B8
:101CE0000203DAB27B689A77786816F031FF7B6876
:101CF0009B7F23F00303DAB27B689A777B68DB680B
:101D00003B607B685B6F002B0AD00C4B00221A7083
:101D1000786800F015F8094B1B78002B00D0C6E757
:101D20003B687B607B68002BC5D100BF0837BD4690
:101D300080BD00BF350C0020186400201464002012
:101D400090B585B000AF78607B685B6F5B7BBB73E1
:101D50007B685B6FBB607B6800225A677B68DB6FC8
:101D6000002B0AD07B68DC6F7B6818690023BA6897
:101D70007968A0470346FB7307E00023BA687968D7
:101D8000002000F07BF80346FB7397F90F30002B1F
:101D900028D1BB7B03F02003002B2DD07B689B8DCB
:101DA00040F66832934205D07B689B8D01339AB22E
:101DB0007B689A857B68DB6F002B0AD07B68DC6FC1
:101DC0007B681869002300227968A0470346FB73EB
:101DD00001E00023FB7397F90F3013F10A0F0BD1C9
:101DE000F6230AE097F90F3013F10A0F01D1F62319
:101DF00003E07B68BA685A6700235BB21846143761
:101E0000BD4690BD80B584B000AF786007E07B68C8
:101E10001B68FB60786800F009F8FB687B607B68F2
:101E2000002BF4D100BF1037BD4680BD80B582B015
:101E300000AF78607B68002B0CD07B685B68002B60
:101E400004D07B685B6818460BF082F9796804203F
:101E500002F04AF900BF0837BD4680BD80B483B0A8
:101E600000AF78600B46FB707B68FA785A7600BF4B
:101E70000C37BD465DF8047B704700BF80B584B069
:101E800000AFF860B9607A60FB707B68002B09D006
:101E90007B681B891946B868FFF79AFB78680BF0D6
:101EA00057F908E097F90330002B04D1B868FFF721
:101EB000C1F9034600E000235BB218461037BD4667
:101EC00080BD00BF80B586B000AF0346FB717F23A5
:101ED000FB720023FB6000233B61184B1B687B6196
:101EE0001FE07B695B7EFA799A4217D37B695B7E40
:101EF000FA7A9A4212D3124B1A687B695B6AD21A39
:101F0000FB689A420AD30E4B1A687B695B6AD31A44
:101F1000FB607B693B617B695B7EFB727B69DB6895
:101F20007B617B69002BDCD13B69002B02D03869D7
:101F3000FFF7F8F900BF1837BD4680BD18640020D0
:101F40001C64002080B584B000AF00237B600023B8
:101F5000BB60124B1B68FB6012E0114B1A68FB68F8
:101F60005B6AD21A7B689A4207D30D4B1A68FB68EA
:101F70005B6AD31A7B60FB68BB60FB68DB68FB6055
:101F8000FB68002BE9D1BB68002B02D0B868FFF7D3
:101F9000C9F900BF1037BD4680BD00BF2C640020CA
:101FA0001C64002080B584B000AF0346FB710220A2
:101FB00002F078F8F860FB68002B10D1FFF7C2FF41
:101FC000022002F06FF8F860FB68002B07D1FB7964
:101FD0001846FFF777FF022002F064F8F860FB680C
:101FE000002B5CD094220021F86818F0C7FAFB6837
:101FF000FA795A76FB6841F2D062A3F86620FB6852
:102000000022A3F86820FB6840F668329A85FB68D6
:1020100040F66832DA85FB6800225A72FB68FF22BC
:102020009A72FB684FF40672DA86FB680622A3F800
:102030004420FB680022A3F84020FB680622A3F896
:102040004220FB684FF6FF729A86FB680122A3F8D4
:102050004C2000F025F9B860FB68BA689A65FB6807
:10206000BA681A65FB68BA689A64FB68BA68DA6588
:102070000D4B1A68FB685A620C4B1A78FB6883F8A0
:102080002120FB680022DA77FB68094ADA67FB68DF
:10209000084AC3F88C20FB68002283F89220FB6872
:1020A00018461037BD4680BD1C640020350C00204A
:1020B0007D1E000800DD6D0080B500AF4020FFF7F9
:1020C00071FF0346184680BD80B483B000AF7860CE
:1020D00039607B683A681A6100BF0C37BD465DF80D
:1020E000047B704780B483B000AF786039607B6850
:1020F0003A68DA6700BF0C37BD465DF8047B70476D
:1021000080B483B000AF786039607B683A689A67C2
:1021100000BF0C37BD465DF8047B704780B483B0C8
:1021200000AF786039607B683A68C3F8882000BFE8
:102130000C37BD465DF8047B704700BF80B483B0A8
:1021400000AF786039607B683A685A6100BF0C372D
:10215000BD465DF8047B704780B485B000AFF86081
:10216000B9601346FB71FB68BA68C3F88420FB684A
:10217000FA7983F8202000BF1437BD465DF8047B50
:10218000704700BF80B582B000AF78607B681B7E6F
:10219000002B2CD07B681B7E0A2B28D07B681B7EF3
:1021A000012B24D07B685B6F002B07D07B685B6FB3
:1021B00018460AF0CDFF7B6800225A677B684FF60D
:1021C000FF729A867B68DB6E1846FFF71BFE7B6802
:1021D0001B6F1846FFF716FE7B680022DA667B68E5
:1021E000DA6E7B681A677B680022A3F86A2000BF5A
:1021F0000837BD4680BD00BF80B582B000AF7860B3
:1022000039607B681A683B689A4205D17B681B6815
:10221000DA687B681A6019E07B681B681F4A1360E4
:1022200010E01E4B1B68DA683B689A4205D11B4BD5
:102230001B683A68D268DA6008E0184B1B68DB68F4
:10224000164A1360154B1B68002BEAD13B6800222D
:10225000DA603868FFF796FF3B681B7E0A2B13D0C5
:102260003B681B7E012B0FD03B689B7F03F0010373
:10227000002B09D03B689B7F43F00203DAB23B6836
:102280009A77386816F064FC3B681B7E012B3B682C
:1022900000221A7600BF0837BD4680BD24640020A6
:1022A00080B400AF064B1A68064B1B681344044AFF
:1022B0001360034B1B681846BD465DF8047B7047EE
:1022C000100000201C64002080B584B000AF0346DD
:1022D0003960FB80386813F0D3FCF860FB68002B92
:1022E0000DD0FB689B8D002B09D0FB689B8D283B94
:1022F0007B817A89FB88934228BF1346FB80FB8849
:1023000018461037BD4680BD90B589B002AF7860E1
:1023100039607B685B688F4A13607B685B688D4AB5
:102320001268127802F00F02920013448A4A136076
:10233000884B1B681B789BB203F00F039BB29B007A
:102340009BB25B429BB29BB21BB2194678680AF003
:102350008FFE0346002B40F0B8827B681B89132B4D
:1023600040F2B3827D4B1B683968184603F078FD54
:102370000346002B40F0A982784B1B6803F0F00362
:10238000E02B00F0A282744B1B689B899BB218461D
:1023900006F0A8FE03461B0B9BB2BB72BB7A9BB236
:1023A0001A469203D31A9B009BB29BB21BB21946EA
:1023B00078680AF05DFE0346002B40F08582664B8C
:1023C0001C68654B1B681B889BB2184606F08AFE8A
:1023D00003462380604B1C685F4B1B685B889BB285
:1023E000184606F07FFE034663805B4B1C685A4B21
:1023F0001B685B68184606F09DFE034663606368D1
:10240000574A1360544B1C68534B1B689B68184613
:1024100006F090FE0346A360A368524A13604E4B39
:102420001C684D4B1B68DB899BB2184606F05AFEB0
:102430000346E381484B1B689B899BB2184606F014
:1024400051FE0346DBB203F03F03DAB2464B1A708B
:102450007B681A89444B1B7803F00303002B14BFDD
:1024600001230023DBB29BB213449AB23F4B1A8084
:1024700000233B613E4B1B687B612FE07B699A8B9D
:10248000354B1B681B889BB29A4222D17B695A8BC1
:10249000314B1B685B889BB29A421AD17B695A68A0
:1024A000344B1B689A4214D17B691A682B4B1B680A
:1024B0009A420ED13B69002B14D07B69DA683B69E4
:1024C000DA602B4B1A687B69DA60294A7B691360F2
:1024D00008E07B693B617B69DB687B617B69002B82
:1024E000CCD100E000BF7B69002B7ED1224B1B6862
:1024F0007B6125E07B699A8B174B1B681B889BB21D
:102500009A421AD17B695A8B134B1B685B889BB22A
:102510009A4212D17B695A68164B1B689A420CD1B9
:102520007B691A680D4B1B689A4206D1786900F0E6
:10253000B1FA78680AF00CFECCE17B69DB687B615C
:102540007B69002BD6D100233B610C4B1B68FB60E1
:1025500030E000BF4C0C0020480C00208804012013
:10256000500C0020540C0020580C00205A0C002065
:1025700018640020800401202C64002020640020C6
:10258000FB685A8BA04B1B685B889BB29A420CD1AC
:10259000FB681A689D4B1B689A420ED0FB68002BA3
:1025A0000BD0FB681B68002B07D0FB683B61FB6806
:1025B000DB68FB60FB68002BE2D1FB68002B14D0CA
:1025C0003B69002B0AD0FB68DA683B69DA60904B04
:1025D0001A68FB68DA608E4AFB681360F86800F0DE
:1025E0008FF978680AF0B4FD74E17B69002B00F084
:1025F0004581884B00221A607B681A89854B1A81B5
:10260000844A7B685360804B1B68824AD360824B4C
:1026100000221A60814B00221A70814B1B7803F054
:102620000803002B06D07B685B7B43F00103DAB222
:102630007B685A737B695B6F002B10D07869FFF75A
:102640007FFB034613F10A0F00F005817B695B6F86
:10265000002B04D0734B1B88002B40F0FC80724A87
:102660007B691360786900F081FA0346FB7297F981
:102670000B3013F10A0F00F0EE80684B1B7803F06B
:102680000803002B16D07B69D3F88830002B08D0C4
:102690007B69D3F888307A6912696FF00A011046B5
:1026A000984779696148FFF7A7FD7969022001F031
:1026B0001BFDD0E0594B1B7803F01003002B1CD0FE
:1026C0007B699B7F03F01003002B0DD17B69D3F84E
:1026D0008830002B08D07B69D3F888307A6912697A
:1026E0006FF00B011046984779695048FFF784FD59
:1026F0007969022001F0F8FCADE00023FB727B69F0
:10270000B3F86430002B17D07B699B6F002B0BD084
:102710007B699B6F7A6910697A69B2F8642079697C
:1027200098470346FB7201E00023FB7297F90B30D8
:1027300013F10A0F00F08A80374B1B68002B34D04E
:102740007B699B7F03F01003002B08D0324B1B6882
:1027500018460AF0FDFC7869FEF7E4FD7BE07B6932
:10276000DB6F002B0BD07B69DC6F7B6918692A4B10
:102770001A6800237969A0470346FB7208E0264BDC
:102780001A68002379690020FFF778FB0346FB7283
:1027900097F90B3013F10A0F5AD097F90B30002B31
:1027A00003D01D4B1A687B695A671C4B1B7803F0DA
:1027B0002003002B43D07B695B6F002B09D07B6922
:1027C0005B6F7A69526F527B42F02002D2B25A7329
:1027D00035E07B699B8D40F66832934205D07B697A
:1027E0009B8D01339AB27B699A857B69DB6F002BE5
:1027F0001ED07B69DC6F7B69186900230022796930
:10280000A0470346FB7215E0480C00208804012015
:1028100020640020380C0020600C00205C0C00209C
:10282000580C00205A0C002030640020186400204E
:102830000023FB7297F90B3013F10A0F0AD0274BD4
:1028400000221A60786916F083F904E000BF02E004
:1028500000BF00E000BF214B00221A60204B002285
:102860001A60204B5B68002B33D01E4B5B68184608
:102870000AF06EFC1B4B00225A602AE01A4B1B68C0
:102880009B899BB2184606F02DFC034603F0040317
:10289000002B15D1154B1868154B1B881A46154B84
:1028A0001B68D118104B1B685B889BB20E4A1268DC
:1028B000128892B2019200930F4B104A16F046FB19
:1028C00078680AF045FC04E000BF78680AF040FC34
:1028D00000E000BF1C37BD4690BD00BF3064002043
:1028E000600C0020380C0020480C0020540C002004
:1028F0005A0C0020500C0020800401208804012084
:1029000080B586B002AF7860594B1B7803F00403A2
:10291000002B01D00023A5E0554B1B7803F01003DA
:10292000002B16D0534B1868534B1B881A46534B39
:102930001B68D118524B1B685B889BB2504A1268C7
:10294000128892B2019200934E4B4F4A16F0FEFA53
:1029500087E0474B1B7803F00203002B00F08180D7
:102960007B685B7E1846FFF71DFBF860FB68002B59
:1029700001D1FF2376E0444B1A68FB681A607B683C
:102980005A8BFB685A833F4B1A68FB685A603C4B72
:102990001B681B889AB2FB689A83FB6803221A762D
:1029A000364B1B685A1CFB689A62FB689A6AFB6884
:1029B0001A63334B1B68DB899AB2FB68A3F860206B
:1029C0002F4B1B68DB899AB2FB68A3F86220FB6877
:1029D000B3F86020FB68A3F84E20284B1B685A1EF2
:1029E000FB685A657B681A69FB681A617B685A69DB
:1029F000FB685A617B681B7A23F07303DAB2FB68C9
:102A00001A72224B1A68FB68DA60204AFB6813606E
:102A100005F04AFD1E4B01221A70F86801F082F899
:102A2000FB68DA8EFB68043319461046FFF74CFC4E
:102A300003461A46FB68DA861221F86815F086FF0D
:102A40000346FB7297F90B30002B05D00021F86884
:102A5000FEF708FCFB7A05E0F86816F079F8034603
:102A600000E000235BB218461037BD4680BD00BFB2
:102A7000580C0020540C00205A0C0020500C002050
:102A8000480C0020800401208804012018640020E4
:102A90001464002080B584B002AF78602B4B1B78A3
:102AA00003F00403002B01D0002349E0274B1B78DF
:102AB00003F00203002B28D0254B1A687B689B6A21
:102AC000D31A002B2BDB224B1A687B689B6A796830
:102AD000898D0B44D31A002B21DC1E4B18681E4B2A
:102AE0001B881A461A4B1B68D1181C4B1B685B8845
:102AF0009BB21A4A1268128892B201920093184B44
:102B0000184A16F023FA00231AE0104B1B7803F042
:102B10000103002B03D0144B1A687B685A620E4BDA
:102B20001B88002B0BD07B689B7F43F00203DAB23B
:102B30007B689A77786816F00BF8034600E000236C
:102B40005BB218460837BD4680BD00BF580C002058
:102B5000500C0020540C00205A0C0020480C00207F
:102B600080040120880401201C64002080B588B006
:102B700002AF78600023FB750023BB75A44B1B7864
:102B800003F00403002B34D07B681B7E022B08D19A
:102B90007B681A6D9F4B1B689A4215D10123FB7508
:102BA00012E09D4B1A687B689B6AD31A002B0BDBE3
:102BB000994B1A687B689B6A7968898D0B44D31A94
:102BC000002B01DC0123FB75FB7D002B0FD0934B09
:102BD0001B7843F00803DAB2904B1A707B689B7F36
:102BE00023F00103DAB27B689A77F52314E300231C
:102BF00012E3874B1B7803F00203002B10D07B6895
:102C00001B7E022B0CD07B681B7E032B08D07B68BD
:102C10009B7F43F00203DAB27B689A770023FBE2E2
:102C20007B689B7F03F01003002B03D17C4B1A6859
:102C30007B685A627B68002283F89220786800F0F3
:102C400071FF7B681B7E023B072B00F2D58201A23D
:102C500052F823F0752C0008352E00085D2F00086F
:102C6000872F00086F3000085D2F000837310008FB
:102C7000CB310008664B1B7803F01003002B00F0EB
:102C8000A880634B1B7803F00203002B00F0A180A7
:102C90007B681B6FDB685B68184606F04BFA0346DF
:102CA0005A1C5C4B1B689A4240F093807B68B3F8D7
:102CB000663001339AB27B68A3F86620564B1B68D6
:102CC0005A1C7B689A627B689A6A7B681A63514BCC
:102CD0001A687B689A64534B1B68DB899AB27B68DD
:102CE000A3F860204F4B1B68DB899AB27B68A3F87E
:102CF0006220494B1B685A1E7B685A657B68042218
:102D00001A767B68DA8E7B68043319461046FFF723
:102D1000DBFA03461A467B68DA867B68DB8E1A4646
:102D2000920013445B009AB27B68A3F84E207B6844
:102D3000B3F84C30012B04D17B68DB8E5B009BB277
:102D400001E07B68DB8E7A68A2F84C307B68B3F8D0
:102D50006830013B9AB27B68A3F868207B681B6FE0
:102D60003B613B691A687B681A673869FFF75EF850
:102D70007B681B6F002B04D17B684FF6FF729A862D
:102D800006E07B6800229A867B68002283F8462052
:102D90007B68D3F88030002B0AD07B68D3F8803072
:102DA0007A6810690022796898470346BB7501E08C
:102DB0000023BB7597F9163013F10A0F01D1F623E2
:102DC0002AE27B689B7F43F00203DAB27B689A7742
:102DD00014E20F4B1B7803F01003002B00F00E825F
:102DE0000C4B1868104B1B881A460B4B1B68D118EC
:102DF0000C4B1B685B889BB20A4A1268128892B21D
:102E000001920093094B0A4A16F0A0F8F6E100BFC0
:102E1000580C0020540C0020500C00205C0C0020AA
:102E20001C640020480C00205A0C00208004012063
:102E3000880401209D4B1B7803F01003002B78D0F1
:102E40009B4B1A687B689B6CD31A013B002B59DBA8
:102E5000974B1A687B681B6DD31A002B52DC7B687A
:102E600004221A767B685B69002B09D07B685B695A
:102E70007A6810690022796898470346BB7501E0BB
:102E8000F223BB7597F91630002B09D097F916304D
:102E900013F10A0F02D07868FEF744FAF623BBE17B
:102EA0007B68B3F84C30FB81786800F0C9F97B6827
:102EB000B3F86430002B07D07B68B3F86430013B73
:102EC0009AB27B68A3F86420FB89012B04D17B684C
:102ED000DB8E5B009BB201E07B68DB8E7A68A2F838
:102EE0004C30744B1B7803F02003002B34D07B68EC
:102EF0009B7F43F00203DAB27B689A777B680722F4
:102F00001A7629E06A4B18686B4B1B881A466B4B84
:102F10001B68D1186A4B1B685B889BB2684A1268B1
:102F2000128892B201920093664B674A16F00EF82F
:102F300066E15E4B1B7803F00203002B00F060811A
:102F40007B689B6A5A1E5D4B1B689A4240F0588111
:102F5000786816F089F853E100BF51E1786800F015
:102F60006FF9544B1B7803F02003002B00F04A81CB
:102F70007B689B7F43F00203DAB27B689A777B68B9
:102F800007221A763EE1786800F05AF9494B1B781F
:102F900003F02003002B58D0444B1B7803F01003A0
:102FA000002B47D07B681A6D414B1B689A4241D178
:102FB0007B689B7F43F00203DAB27B689A7778687C
:102FC000FFF7E0F8414B1A687B689A4205D13F4B06
:102FD0001B68DB683D4A136019E03C4B1B683C4AA8
:102FE000136010E03A4B1B68DA687B689A4205D19F
:102FF000374B1B687A68D268DA6008E0344B1B688C
:10300000DB68334A1360324B1B68002BEAD17B68C4
:103010000022DA602F4B01221A707B680A221A768E
:103020002D4B1A687B68DA602B4A7B68136005F0C9
:103030003BFAE9E07B689B7F43F00203DAB27B68EE
:103040009A777B6808221A76DEE0184B1B7803F02B
:103050001003002B00F0D8807B681A6D144B1B689E
:103060009A4240F0D1807B6806221A76CCE07868DC
:1030700000F0E6F80F4B1B7803F02003002B00F064
:10308000C5807B689B7F43F00203DAB27B689A7746
:103090007868FFF777F80D4B1A687B689A421DD164
:1030A0000A4B1B68DB68094A136031E0580C0020AA
:1030B000540C00205C0C00205A0C0020500C002006
:1030C000480C00208004012088040120186400209E
:1030D00024640020146400202C640020514B1B68E1
:1030E000514A136010E0504B1B68DA687B689A42C3
:1030F00005D14D4B1B687A68D268DA6008E04A4B0C
:103100001B68DB68484A1360474B1B68002BEAD1F9
:103110007B680022DA60454B01221A707B680A2224
:103120001A76434B1A687B68DA60414A7B68136001
:1031300005F0BAF96AE0786800F082F83D4B1B7838
:1031400003F01003002B63D07B681A6D3A4B1B68A9
:103150009A425DD17868FFF715F8324B1A687B68A0
:103160009A4205D12F4B1B68DB682E4A136019E089
:103170002C4B1B682C4A136010E02B4B1B68DA6841
:103180007B689A4205D1284B1B687A68D268DA605E
:1031900008E0254B1B68DB68234A1360224B1B6841
:1031A000002BEAD17B680022DA60204B01221A70E2
:1031B0007B680A221A761E4B1A687B68DA601C4A02
:1031C0007B68136005F070F922E0786800F038F849
:1031D000184B1B7803F01003002B1BD07B681A6D73
:1031E000154B1B689A4215D1144B1B7843F0100302
:1031F000DAB2124B1A700DE000BF0CE000BF0AE01B
:1032000000BF08E000BF06E000BF04E000BF02E02E
:1032100000BF00E000BF00235BB218461837BD4670
:1032200080BD00BF186400202464002014640020C6
:103230002C640020580C0020540C00205C0C002052
:10324000F0B58BB000AF78600023BB61A54B1B7855
:1032500003F01003002B00F0BC827B68B3F86030F1
:103260001A467B689B6D13447B617B685A6D9E4B4D
:103270001B68D31A002B1BDB7B685A6D9A4B1B68AB
:103280009A4206D17B689A6D984B1B68D31A002B23
:103290000EDB7B689A6D954B1B689A4243D1944B29
:1032A0001B68DB899AB27B68B3F860309A423AD9DE
:1032B0008F4B1B68DB899AB27B68A3F860207B6820
:1032C000B3F862208A4B1B68DB899BB29A4206D214
:1032D000874B1B68DB899AB27B68A3F86220824B1C
:1032E0001A687B685A65814B1A687B689A657B68A7
:1032F000B3F86030002B0DD17B6893F89130002B30
:1033000011D17B68002283F890207B68012283F82A
:10331000912008E07B6893F89130002B03D07B6804
:10332000002283F89120714B1A687B689B6CD31A3A
:10333000002B5CDC7B680022A3F864206D4B1B88AB
:10334000002B4BD17B689B6D7A68B2F860201A44E1
:103350007B699A4242D17B689B8E1BB2002B3DDB7E
:103360007B689A6C614B1B689A4237D10123BB6121
:103370007B6893F847300133DAB27B6893F84730C3
:103380009A4207D97B6893F847300133DAB27B68F9
:1033900083F847207B6893F84730032B16D97B6866
:1033A000B3F84C207B68DB8E13449AB27B68B3F889
:1033B0004C309A4212D97B68B3F84C207B68DB8E84
:1033C00013449AB27B68A3F84C2007E07B6893F81B
:1033D0004730032B02D1786815F092FEBB69002BB1
:1033E00040F06D817B68002283F8472067E13F4B06
:1033F0001A687B689B6CD31A013B002BC0F21181C9
:103400003A4B1A687B681B6DD31A002B00F30981B5
:103410007B689B7F03F00403002B0CD07B689B7FB1
:1034200023F00403DAB27B689A777B68B3F84E2006
:103430007B68A3F84C207B68002283F846207B68D9
:10344000B3F840301BB2DB109BB29AB27B68B3F882
:1034500042309BB213449BB29AB27B68A3F84420DB
:10346000224B1B689AB27B689B6C9BB2D31A9AB2B0
:103470007B68A3F864207B68B3F866207B68B3F8A8
:10348000643013449AB27B68A3F866207B680022FC
:1034900083F84720154B1A687B689A647B681B7E0B
:1034A000032B40F287807B68B3F84C207B68B3F82D
:1034B0004E309A4220D27B68B3F84C207B68DB8E7A
:1034C00013449AB27B68B3F84C309A4272D97B6845
:1034D000B3F84C207B68DB8E13449AB27B68A3F868
:1034E0004C2067E0580C0020500C0020540C0020A9
:1034F000480C00205A0C00207B68B3F84C207B68F5
:10350000DB8E19467B68DB8E03FB01F37968B1F82B
:103510004C1093FBF1F39BB213447B827B68B3F8AE
:103520004C307A8A9A4245D97B687A8AA3F84C2033
:1035300040E07B681B6FFB607B681B6F1A687B68D1
:103540001A67FB685B68184609F05EFE7B68B3F893
:103550006430002B13D0FB68DB689B899BB2184654
:1035600005F0C0FD034603F00103002B07D07B6884
:10357000B3F86430013B9AB27B68A3F86420FB681F
:103580005B68184609F040FE034619467B68B3F8AD
:1035900068208BB2D31A9AB27B68A3F86820F868C7
:1035A000FEF744FC7B68B3F86830002B02D07B68E0
:1035B0001B6F002B7B681B6F002B22D07B681B6F5F
:1035C000DB685B68184605F0B5FD04467B681B6F39
:1035D0001B891D467B681B6FDB689B899BB2184665
:1035E00005F080FD034603F00303002B14BF012305
:1035F0000023DBB22B44E218914B1B68D31A002B3B
:1036000097DD7B681B6F002B04D17B684FF6FF7240
:103610009A8602E07B6800229A867B680022DA772D
:1036200003E07B680022A3F8642048E07B68DB6E3F
:10363000FB607B68DB6E1A687B68DA667B68DB6E32
:10364000002B03D17B680022A3F86A20FB685B682B
:10365000184609F0D9FD7B68B3F86430002B13D00D
:10366000FB68DB689B899BB2184605F03BFD03466F
:1036700003F00103002B07D07B68B3F86430013BF3
:103680009AB27B68A3F86420FB685B68184609F06F
:10369000BBFD034619467B68B3F868208BB2D31A8A
:1036A0009AB27B68A3F86820F868FEF7BFFB7B68D6
:1036B000B3F86830002B02D07B681B6F002B7B684F
:1036C000DB6E002B29D05E4B1C687B68DB6EDB68F1
:1036D0005B68184605F02EFD05467B68DB6E1B898E
:1036E0001E467B68DB6EDB689B899BB2184605F043
:1036F000F9FC034603F00303002B14BF012300234E
:10370000DBB233442B44E31A002B06DB4C4B1A6824
:103710007B681B6DD31A002B88DD7B689B6B002BAD
:1037200057D07B68DA6B464B1B68D31A002B50DAF4
:10373000444B1B689AB27B689B6B9BB2D31A9BB2BB
:10374000FB83FA8B7B68B3F840301BB2DB109BB273
:103750009BB2D31A9BB2FB837B68B3F840309AB21A
:10376000FB8B13449BB29AB27B68A3F84020B7F955
:103770001E30002B03DAFB8B5B429BB2FB83FA8B80
:103780007B68B3F842301BB29B109BB29BB2D31A3A
:103790009BB2FB837B68B3F842309AB2FB8B134435
:1037A0009BB29AB27B68A3F842207B68B3F84030A2
:1037B0001BB2DB109BB29AB27B68B3F842309BB26B
:1037C00013449BB29AB27B68A3F844207B68002222
:1037D0009A631D4B1B88002B00F07C817B681B7E4D
:1037E000062B00F277817B689A6A184B1B68D31A04
:1037F000013B002B72DB7B689A6A134B1B881946CE
:10380000124B1B680B44D31A0133002B66DC7B6818
:103810009A6A0E4B1B68D31A3B620D4B5B687B6246
:103820000B4B5B685B891A463B6A9A4232DA084B5B
:103830005B681A893B6A9BB2D31A7B8119E000BF8F
:10384000540C00201C6400205A0C0020500C002056
:10385000380C00207B6A5B891A463B6A9B1A3B62E4
:103860007B6A7A891A817B6A00225A817B6A1B688B
:103870007B627B6A5B891A463B6A9A42EADB3B6A57
:103880009BB25B429BB29BB21BB21946786A09F0AD
:10389000EFFB0BE09E4B5B683A6A92B2524292B2E7
:1038A00092B212B21146184609F0E2FB984B1A89FF
:1038B000984B1B6899B27B689B6A9BB2CB1A9BB2F0
:1038C00013449AB2924B1A81914BDB687A68926AE0
:1038D00090490A608F4A12685A600DE08D4B1A6851
:1038E0007B689B6AD31A002B06DA7B689B7F43F0C8
:1038F0000203DAB27B689A77864B1A687B689B6A08
:10390000D31A002BC0F2E180824B1A687B689B6A55
:103910007968898D0B44D31A0133002B00F3D580CD
:103920007B689A6A7B4B1B689A4240F0CA80784B4E
:103930001C89774BDB689B899BB2184605F0D2FB4C
:10394000034603F00303002B14BF01230023DBB263
:103950009BB223449AB2704B1A807B689A8D6E4B4F
:103960001B889A425ED26A4BDB689B899BB21846E1
:1039700005F0B8FB034603F00103002B1ED0644B97
:10398000DC68634BDB689B899BB29BB223F47C535E
:103990009DB25F4BDB689B899BB2184605F0A2FB8A
:1039A000034603F03E039BB2184605F085FB034631
:1039B0009BB22A4613439BB29BB2A3817B689A8D2C
:1039C000534B1A81524BDB689B899BB2184605F01A
:1039D00089FB034603F00203002B05D04C4B1B89E7
:1039E000013B9AB24A4B1A81494B5A68484B1B8992
:1039F0001946104609F0D8FA454B1C89444BDB6840
:103A00009B899BB2184605F06DFB034603F0030348
:103A1000002B14BF01230023DBB29BB223449AB2D4
:103A20003D4B1A803C4B1B881A463A4B1B681A4484
:103A30007B689A627B689A8D374B1B88D31A9AB23F
:103A40007B689A857868FDF781FD314B5B681B893F
:103A5000002B06D02E4B5B68304A13602C4B0022A3
:103A60005A602B4BDB689B899BB2184605F03AFBEA
:103A7000034603F00103002B06D0294B1B7843F0CB
:103A80002003DAB2264B1A707B689B7F03F0010398
:103A9000002B0ED07B689B7F23F00103DAB27B689A
:103AA0009A777B689B7F43F00203DAB27B689A7750
:103AB0000FE07B689B7F43F00103DAB27B689A7763
:103AC00007E0786815F008F803E0786815F004F866
:103AD0001AE019E00F4B1A687B689B6AD31A002B17
:103AE0000ADB0C4B1A687B689B6A7968898D0B44EA
:103AF000D31A0133002B07DD7B689B7F43F0020361
:103B0000DAB27B689A77FFE700BF2C37BD46F0BD7D
:103B1000380C0020500C00205A0C0020600C0020B3
:103B20005C0C002080B586B000AF78603E4B1B680F
:103B300014333B613C4B1B689B899BB2184605F0D4
:103B4000D1FA03461B0B9BB2052B6AD9364B1B6877
:103B50009B899BB2184605F0C5FA03461B0B9BB226
:103B6000053B9BB29B00FB810023FB824FE0FB8A5D
:103B70003A6913441B787B737B7B012B04D0022BA7
:103B800006D0002B48D032E0FB8A0133FB823EE0B6
:103B9000FB8A01333A6913441B78042B3ED1FB8A1C
:103BA0001A1DFB899A4239DCFB8A02333A691344B5
:103BB0001B781B0299B2FB8A03333A6913441B78C2
:103BC0009BB20A4613439BB27B817B8940F2B4527D
:103BD000934204D87B89002B01D07A8901E040F21E
:103BE000B4527B68DA86FB8A0433FB820FE0FB8ADF
:103BF00001333A6913441B78002B11D0FB8A01333F
:103C00003A6913441B789AB2FB8A1344FB82FA8AFE
:103C1000FB899A42ABD304E000BF02E000BF00E0A2
:103C200000BF1837BD4680BD480C002080B582B06B
:103C300000AF78607B683B4A934208D10121102095
:103C400004F052FA0021102004F04EFA65E07B687F
:103C5000354A93420AD101214FF4003004F024FA8E
:103C600000214FF4003004F01FFA56E07B682F4A21
:103C700093420AD101214FF4802004F015FA00216B
:103C80004FF4802004F010FA47E07B68284A934202
:103C90000AD101214FF4002004F006FA00214FF46C
:103CA000002004F001FA38E07B68224A93420AD1EE
:103CB00001214FF4801004F0F7F900214FF4801037
:103CC00004F0F2F929E07B681B4A934208D10121F4
:103CD000202004F009FA0021202004F005FA1CE05D
:103CE0007B68164A93420AD101214FF0804004F0CC
:103CF000DBF900214FF0804004F0D6F90DE07B683D
:103D00000F4A934209D101214FF0004004F0CCF951
:103D100000214FF0004004F0C7F900BF0837BD464E
:103D200080BD00BF0010014000440040004800403A
:103D3000004C00400050004000140140007800405A
:103D4000007C004080B58AB000AF78603960002305
:103D50007B6200233B620023FB610023BB617B6825
:103D60001B8A9BB27B627B6A23F440537B623B6875
:103D7000DB881A467B6A13437B627B6A9AB27B6854
:103D80001A827B689B899BB27B627B6A23F4B05367
:103D900023F00C037B623B689A883B681B891343C2
:103DA0009AB23B685B8913439BB21A467B6A134302
:103DB0007B627B6A9AB27B689A817B689B8A9BB2A2
:103DC0007B627B6A23F440737B623B689B891A4663
:103DD0007B6A13437B627B6A9AB27B689A8207F1A3
:103DE0000803184603F0F8FF7B68314A934203D07A
:103DF0007B68304A934202D17B693B6201E03B69B8
:103E00003B627B689B899BB29BB21BB2002B0CDA96
:103E10003A6A13469B0013449A001A443B681B6895
:103E20005B00B2FBF3F3FB610BE03A6A13469B00C5
:103E300013449A001A443B681B689B00B2FBF3F3DF
:103E4000FB61FB691C4AA2FB03235B091B017B622C
:103E50007B6A1B09642202FB03F3FA69D31ABB6174
:103E60007B689B899BB29BB21BB2002B0CDABB69AF
:103E7000DB003233104AA2FB03235B0903F0070384
:103E80007A6A13437B620BE0BB691B0132330A4A37
:103E9000A2FB03235B0903F00F037A6A13437B62DF
:103EA0007B6A9AB27B681A8100BF2837BD4680BD05
:103EB00000100140001401401F85EB5180B483B015
:103EC00000AF0346FB71044AFB79136000BF0C3757
:103ED000BD465DF8047B704720000E4280B485B07B
:103EE00000AF0346FB710023FB730023BB81444BEF
:103EF0005B6F03F00053002B07D00123FB73404A94
:103F00003F4B5B6F43F0807353673E4B45F2555216
:103F10001A60FB790A2B03D93A4B07225A6002E058
:103F2000384B03225A60FB79002B02D10523BB8159
:103F300053E0FB79012B02D10A23BB814DE0FB79D1
:103F4000022B02D10F23BB8147E0FB79032B02D167
:103F50001F23BB8141E0FB79042B02D13D23BB81B0
:103F60003BE0FB79052B02D17B23BB8135E0FB795C
:103F7000062B02D1FF23BB812FE0FB79072B03D156
:103F800040F2FF13BB8128E0FB79082B03D140F2FC
:103F9000FF33BB8121E0FB79092B03D140F2FF7392
:103FA000BB811AE0FB790A2B03D140F6FF73BB817A
:103FB00013E0FB790B2B03D140F2FF33BB810CE004
:103FC000FB790C2B03D140F2FF73BB8105E0FB7939
:103FD0000D2B02D140F6FF73BB810A4ABB89936067
:103FE000084B4AF6AA221A60064B4CF6CC421A60DD
:103FF000FB7B18461437BD465DF8047B704700BF55
:10400000003802400030004080B483B000AF00238D
:104010007B8002E07B8801337B807B88082BF9D989
:104020001C4B033323F003037B6000237B8027E0DA
:104030007B88194A002142F8231000233B8015E0B9
:104040007B88154A52F823207B681A607B881249C6
:104050007A6841F823207B88104A32F813301A46D8
:104060007B6813447B603B8801333B807B880C4A30
:1040700032F813303A889A42E2D37B8801337B804E
:104080007B88082BD4D900BF0C37BD465DF8047B74
:10409000704700BF880C0020640C002048620208B2
:1040A0005C62020880B485B000AF0346FB71FB7907
:1040B000082B01D900230EE0FB790A4A52F823307D
:1040C000FB60FB68002B05D0FB79FA681268054994
:1040D00041F82320FB6818461437BD465DF8047B81
:1040E000704700BF640C002080B485B000AF034669
:1040F0003960FB713B68002B0DD03B68FB60FB799E
:10410000084A52F82320FB681A60FB790549FA68CF
:1041100041F8232000E000BF1437BD465DF8047B62
:10412000704700BF640C002080B588B000AF786095
:1041300039600023FB833B68002B7B685B685B680E
:104140007B617B699B889BB2002B1FD17B685B687E
:10415000BB617B691A687B685A60BB6958687B6879
:1041600008331422194616F06FF90121B86912F0CC
:10417000CDF9B86909F048F80346FB74FB7C9AB2A4
:10418000FB8B1344FB83B86908F0E2FF7B685B6834
:10419000BB6114E0BB695B687B61BB69FB607B69E9
:1041A0001B68BB61F86809F02FF80346FB74FB7CC1
:1041B0009AB2FB8B1344FB83F86808F0C9FFBB6914
:1041C000002BE7D13968786800F0A4F8054B1A880D
:1041D000FB8BD31A9AB2034B1A80FB8B18462037FD
:1041E000BD4680BD402E002080B588B000AF78600D
:1041F000396000233B610023BB6100237B61002306
:10420000FB60264B1B68FB612CE0FB695A697B68ED
:10421000DB689A420CD1FB699A697B681B699A42F8
:1042200006D1FB699A897B689B889BB29A4210D021
:10423000FB680133FB60BB69002B02D1FB69BB61EA
:1042400007E0FB69DA7FBB69DB7F9A4201D8FB6933
:10425000BB61FB691B68002B01D0FB697B61FB69BB
:104260001B68FB61FB69002BCFD1BB69002B08D019
:104270007969B869FFF758FFB8603A69BB681344B9
:104280003B613A693B689A4202DAFB68012BB2DC77
:104290003B6918462037BD4680BD00BF3C2E00203C
:1042A00080B584B000AF786039600520FFF7FAFE72
:1042B000F860FB68002B10D139687868FFF794FF2D
:1042C00002463B689A4203DB0520FFF7EBFEF860ED
:1042D000FB68002B01D1002316E020220021F868A2
:1042E00016F04CF9FB680322DA77094B1A68FB6871
:1042F0001A60074AFB681360FB6808331422796868
:10430000184616F0A1F8FB6818461037BD4680BD68
:104310003C2E002080B582B000AF786039600B4B36
:104320001A687B689A4204D17B681B68074A13604D
:1043300003E07B681A683B681A6079680520FFF71C
:10434000D3FE00BF0837BD4680BD00BF3C2E002015
:1043500080B58AB000AF7860396000233B620123EA
:10436000BB613B685B687B617B695B889BB218467D
:1043700004F0B8FE03461A467B691B789BB203F033
:104380000F039BB29B009BB2D31A7B827B69DB88B5
:104390009BB2184604F0A6FE0346C3F30C039BB27F
:1043A000DB003B823B685B687B627B6A00221A70A1
:1043B00000225A7000229A700022DA707B6A3A8AD0
:1043C0009A803A8A7B8A13449AB27B6ADA807B6845
:1043D0005B68FB614CE0FB695B68FB607B6A9B8808
:1043E0009AB2FB689B889BB29A421FD27B6AFA6999
:1043F0001A603B6A002B15D07B6A9B889AB23B6A95
:10440000DB889BB29A42C0F08C807B6ADB889AB2D0
:10441000FB689B889BB29A4200F283803B6A3A68B1
:104420001A6028E07B683A685A6024E07B6A9B88BF
:104430009AB2FB689B889BB29A426FD07B6A9B883A
:104440009AB2FB68DB889BB29A4269D33B6A002B25
:1044500009D03B6ADB889AB2FB689B889BB29A4280
:1044600001D00023BB61FB681B68FB61FB683B62FA
:10447000FB69002BAFD1FB69002B17D13B6A002BE6
:1044800011D03B6ADB887B6A9B883B6A3A681A607A
:104490003B6ADB889AB27B6A9B889BB29A4205D0C2
:1044A0000023BB6102E07B683A685A607B689B7FAF
:1044B00003F00103002B2FD0BB69002B2AD07B68AF
:1044C0005B685B689B889BB2002B02D00023BB61BA
:1044D00020E07B6A3B627B6A1B68FB6112E0FB6940
:1044E0005B687B623B6ADB889AB27B6A9B889BB283
:1044F0009A4202D00023BB6107E07B6A3B627B6A81
:104500001B68FB61FB69002BE9D1BB69002B01D063
:104510007B6ADB88BB6914E0002312E000BF00E087
:1045200000BF386808F070FE03461946074B1A882A
:104530008BB2D31A9AB2054B1A80386808F008FE7D
:10454000002318462837BD4680BD00BF402E0020FE
:1045500080B58AB000AF78600023FB617B685B6840
:10456000BB61BB691B7803F00F039B00142B40F069
:104570000381BB69DB889BB2184604F0B3FD034698
:10458000C3F30C039BB2DB00FB82BB695B889BB26D
:10459000184604F0A7FD03461A46BB691B789BB278
:1045A00003F00F039BB29B009BB2D31ABB827868C7
:1045B00008F02AFE0346FB74744B1B881A46FB7CEA
:1045C00013440A2B10DDFB7C1946B869FFF70CFE7B
:1045D0000346002B00F0D1806C4B1B881A46FB7CF5
:1045E00013440A2B00F3C980694B1B683B6217E038
:1045F0003B6A5A69BB69DB689A420CD13B6A9A698B
:10460000BB691B699A4206D13B6A9A89BB699B8840
:104610009BB29A4208D03B6AFB613B6A1B683B62D3
:104620003B6A002BE4D100E000BF3B6A002B09D1BC
:10463000FB7C1946B869FFF733FE38623B6A002BF2
:104640001CD19AE0BB69DB889BB2184604F04AFD96
:104650000346C3F30C03002B10D13B6ADB891846D9
:1046600004F040FD0346C3F30C03002B06D03B6A65
:1046700008331422B969184615F0E6FEFB7C9AB29D
:10468000424B1B8813449AB2404B1A80BB69DB88AB
:104690009BB203F02003002B0CD13B6A9B7F43F0BD
:1046A0000103DAB23B6A9A77FA8ABB8A13449AB258
:1046B0003B6A9A837968386AFFF74AFE0346002B03
:1046C00058D03B6A9B8B14339AB23B6A9A833B6AFD
:1046D0005B685B681B687B623B6A5B685B68BB61AD
:1046E0003B6A083314221946B86915F0ADFE3B6ADF
:1046F0009B8B184604F0E0FC03461A46BB695A80BF
:10470000BB6900229A710022DA71BB6900229A7299
:104710000022DA721421B86902F0E2F903461A465F
:10472000BB695A813B6A5B687B600EE07B6A5B68B1
:10473000FB606FF01301786A08F09AFC796A786878
:1047400008F08EFDFB681B687B627B6A002BEDD155
:10475000F969386AFFF7DEFD786808F055FD034611
:1047600019460A4B1A888BB2D31A9AB2074B1A8091
:104770007B6806E0002304E000BF786808F0E8FCEE
:10478000002318462837BD4680BD00BF402E0020BC
:104790003C2E002080B500AF0620FFF783FC0346C7
:1047A000184680BD80B582B000AF78607968062079
:1047B000FFF79AFC00BF0837BD4680BD80B584B0C6
:1047C00000AF78607B68FB60FB685B69002B04D0FE
:1047D000FB685B69184608F0BBFCF868FFF7E2FF6E
:1047E00000BF1037BD4680BD80B592B002AFF86003
:1047F000B9607A60BB689B8D7B8614237B8700231E
:10480000FB86FB685B68FB62FB6ABB62BB6ADB889A
:104810009BB2184604F066FC03463B873B8FC3F30C
:104820000C03BB873B8F03F40053FB84FB681B899D
:10483000143BFB877B8E143B002B00DA0733DB1025
:10484000BB84C1E0FA8F7B8E143B9A42D4BF012314
:104850000023DBB27B84BB8FC3F30C039AB2FB8CC7
:1048600013433B877B8C002B03D13B8F43F40053D6
:104870003B877B8C002B03D1BB8CDB009BB200E021
:10488000FB8F3B8400221421022008F039FAF861E2
:10489000FB69002B01D1FF239BE0FB695B681422BD
:1048A000F96A184615F0D0FDFB695B68BB62FB68CE
:1048B0005A687B8F1A44FB685A60FB685A897B8F61
:1048C000D31A9AB2FB685A813B8CBB8647E0FB68DF
:1048D0005A89BB8E934228BF1346FB86FB8E002B62
:1048E00003D1FB681B68FB6039E0FFF753FFB86139
:1048F000BB69002B04D1F86908F02AFCFF2368E0AB
:10490000B869FB685B68F98EFA8E019200930346E2
:104910000222032008F0EEFA78617B69002B07D1B0
:10492000B869FFF73FFFF86908F012FCFF2350E079
:10493000F86808F081FCBB69FA685A61BB69274ACC
:104940001A617969F86908F08BFCBA8EFB8ED31A6C
:10495000BB86BB8E002B02D0FB681B68FB60BB8E46
:10496000002BB4D1FB8E7B873B8F184604F0A4FB51
:1049700003461A46BB6ADA803B8C14339BB2184656
:1049800004F09AFB03461A46BB6A5A80BB6A0022AF
:104990009A720022DA721421B86A02F0A1F8034672
:1049A0001A46BB6A5A81BB685B697A68F969B8685C
:1049B0009847F86908F0CCFBFA8F3B8CD31AFB8739
:1049C000BA8FBB8C1344BB87FB8F002B7FF43AAFAD
:1049D00000235BB218464037BD4680BDBD47000886
:1049E00080B582B002AF032301930023009300231C
:1049F00001224FF47041054812F060FE034B4FF462
:104A000070425A8300BFBD4680BD00BF000C02400B
:104A100080B582B002AF00230193022300930023EC
:104A200000220121024812F049FE00BFBD4680BDB0
:104A30000000024080B483B000AF00237B6035E00B
:104A40001F497A6813469B0013441B010B444C33E7
:104A50001B78002B27D11A497A6813469B00134410
:104A60001B010B444C3301221A707B68D8B21449E5
:104A70007A6813469B0013441B010B441033024613
:104A80001A700F497A6813469B0013441B010B44AC
:104A900014330C4A1A607A6813469B0013441B01B6
:104AA000074A134406E07B6801337B607B68092B6F
:104AB000C6DD002318460C37BD465DF8047B704701
:104AC00034640020422E002080B485B000AF7860AE
:104AD0000023FB6017E0FA6813469B0013441B0198
:104AE0000D4A1A447B689A420AD10B49FA68134668
:104AF0009B0013441B010B444C3300221A7005E049
:104B0000FB680133FB60FB68092BE4DD00BF143751
:104B1000BD465DF8047B70473464002080B584B0E6
:104B200000AF7860FFF786FFB860BB68002B01D14B
:104B300000235AE0786816F043F90346312B20D859
:104B40007968B86802F08CFF0346002B19D0BB6867
:104B500001225A76BB6800221A76BB6800229A604E
:104B6000BB680022DA60BB681A337968184616F011
:104B7000C5F8204B1B8801339AB21E4B1A80BB68C4
:104B800033E0BB6800225A761B4BFB6026E0FB68D3
:104B90005B681946786815F047FF0346002B1AD169
:104BA000FB689A68BB681A60FB68DA68BB685A6081
:104BB000FB68DA68BB689A60BB680022DA60FB6851
:104BC0001A7CBB681A760B4B1B8801339AB2094BCF
:104BD0001A80BB6809E0FB681B68FB60FB68002B60
:104BE000D5D1B868FFF770FF002318461037BD46CF
:104BF00080BD00BF422E00207075020880B582B0D3
:104C000000AF7860094B1B88013B9AB2074B1A80B2
:104C10007B685B7E002B02D0786802F0EBFF78683F
:104C2000FFF752FF00BF0837BD4680BD422E00206F
:104C300080B586B000AFF860B9607A60FB685B7ED3
:104C4000002B0DD07A68B968F86802F08BFF7861A4
:104C5000FB689A687B691A44FB689A607B6925E067
:104C6000FB689A68FB685B689A4202D14FF0FF3399
:104C70001CE0FB685A68FB689B68D31A7B617A6901
:104C80007B689A4201DD7B687B61FB681B68FA6880
:104C9000926813447A691946B86815F0D5FBFB6829
:104CA0009A687B691A44FB689A607B6918461837D2
:104CB000BD4680BD80B483B000AF78607B685A6821
:104CC0007B689B68D31A18460C37BD465DF8047B99
:104CD000704700BF80B582B000AF0346FB71FA7920
:104CE0000C4913469B0013449B000B441B68002B8C
:104CF0000AD0FA79074913469B0013449B000B44E2
:104D00001B689847034600E0042318460837BD4651
:104D100080BD00BF1400002080B582B000AF034604
:104D2000FB71FA790D4913469B0013449B000B4419
:104D300004331B68002B0BD0FA79084913469B00FB
:104D400013449B000B4404331B689847034600E060
:104D5000042318460837BD4680BD00BF140000205C
:104D600080B584B000AFB9607A603B600346FB73E6
:104D70003B68002B01D104231AE0FA7B0E4913464D
:104D80009B0013449B000B4410331B68002B0ED078
:104D9000FA7B094913469B0013449B000B441033D4
:104DA0001B683A687968B8689847034600E00423AE
:104DB00018461037BD4680BD1400002080B584B071
:104DC00000AFB9607A603B600346FB733B68002B21
:104DD00001D104231AE0FA7B0E4913469B001344C9
:104DE0009B000B440C331B68002B0ED0FA7B094947
:104DF00013469B0013449B000B440C331B683A681A
:104E00007968B8689847034600E0042318461037CD
:104E1000BD4680BD1400002080B582B000AF0346BF
:104E20003A60FB710B46BB71FA790F4913469B0040
:104E300013449B000B4408331B68002B0ED0FA79F7
:104E4000094913469B0013449B000B4408331B681D
:104E5000BA79396810469847034600E0042318469B
:104E60000837BD4680BD00BF1400002080B400AFED
:104E7000024B1846BD465DF8047B70470000FC42BB
:104E800080B400AF01231846BD465DF8047B70472F
:104E900080B400AF01231846BD465DF8047B70471F
:104EA00080B400AF01231846BD465DF8047B70470F
:104EB00080B400AF01231846BD465DF8047B7047FF
:104EC00080B400AF01231846BD465DF8047B7047EF
:104ED00080B400AF01231846BD465DF8047B7047DF
:104EE00080B483B000AF03463960FB7101231846DC
:104EF0000C37BD465DF8047B704700BF80B483B0BB
:104F000000AF03463960FB71012318460C37BD46DC
:104F10005DF8047B704700BF80B483B000AF0346E8
:104F20003960FB71012318460C37BD465DF8047BE0
:104F3000704700BF80B485B000AFF860B9607A6098
:104F4000012318461437BD465DF8047B704700BF47
:104F500080B485B000AFF860B9607A60012318466C
:104F60001437BD465DF8047B704700BF80B485B040
:104F700000AFF860B9607A60012318461437BD4667
:104F80005DF8047B704700BF80B485B000AFF86067
:104F9000B9607A60012318461437BD465DF8047B7A
:104FA000704700BF80B485B000AFF860B9607A6028
:104FB000012318461437BD465DF8047B704700BFD7
:104FC00080B485B000AFF860B9607A6001231846FC
:104FD0001437BD465DF8047B704700BF80B582B0D2
:104FE00000AF134B7B60134B3B6007E03B681A1D1F
:104FF0003A607A68111D796012681A603B680E4A3F
:105000009342F3D30D480E494FF000028842B8BFD7
:1050100040F8042BFADBDFF82C00016841F4700142
:10502000016001F0E1FD00BF0837BD4680BD00BF53
:10503000B4940208000000201C0C0020200C00206A
:105040009404012088ED00E080B400AFFEE700BFCB
:1050500080B485B000AF7860104B1A687B6802FBA3
:1050600003F3FB600E4B1B680E4A934204D00C4BBB
:105070001B680D4A934204D1084B1B68FA68D31A87
:10508000FB6000BFFB685A1EFA60002BFAD100BF1C
:105090001437BD465DF8047B704700BF64FD0020F7
:1050A000F40200200095BA0A00E1F50580B500AFD2
:1050B00001214FF0007002F0D7FF00214FF0007087
:1050C00002F0D2FF00BF80BD80B483B000AF786033
:1050D0007B6801221A607B6800225A607B6800228C
:1050E0009A607B680022DA607B6800221A617B6824
:1050F0004FF480425A617B6800229A617B680022EB
:10510000DA617B684FF400621A627B6800225A629F
:105110007B6800229A627B680022DA627B68002248
:105120001A637B6800225A637B6800229A637B685B
:105130000022DA637B6840221A647B6820225A646A
:105140007B6800229A647B680022DA647B68002214
:105150001A657B6800225A657B6800229A657B6825
:105160000022DA657B6800221A667B6880225A6614
:105170007B6800229A667B680022DA667B680022E0
:105180001A677B6800225A677B6800229A677B68EF
:105190000022DA677B684FF08062C3F880207B686A
:1051A0004FF00072C3F884207B680022C3F8882087
:1051B0007B684FF40012C3F88C207B680022C3F890
:1051C00090207B680022C3F894207B680022C3F8FB
:1051D00098207B680022C3F89C207B680022C3F8DB
:1051E000A0207B684FF00072C3F8A4207B684FF4C6
:1051F0008032C3F8A8207B684FF48002C3F8AC204B
:105200007B684FF40052C3F8B0207B680022C3F8DB
:10521000B4207B680022C3F8B82000BF0C37BD461D
:105220005DF8047B704700BF80B58CB000AF78603C
:105230000B467B800023FB6200237B62524BBB62E8
:1052400000233B610123FB60504B1B69FB62FB6A3F
:1052500023F01C03FB6207F11403184602F0BCFDA7
:10526000BB69BB62BB6A4A4A934208D9BB6A494AD6
:10527000934204D8FB6A43F00803FB6227E0BB6A51
:10528000444A934208D9BB6A434A934204D8FB6A12
:1052900043F00C03FB621AE0BB6A3F4A934203D916
:1052A000BB6A3E4A934211D9BB6A3C4A934208D931
:1052B000BB6A3B4A934204D8FB6A43F00403FB6297
:1052C00005E0FB6A43F01003FB6200E000BF2F4AD9
:1052D000FB6A13617B884FF400420021184600F0FE
:1052E0006DFD0346002B02D10023FB6077E0FF2019
:1052F000FFF7AEFE7B681B68002B57D03B6901337C
:105300003B617B880121184600F008FD034603F04D
:105310000403002B03D13B69224A9342EED93B6937
:10532000214A934202D10023FB6058E000233B61F5
:105330007B884FF480520021184600F03FFD034661
:10534000002B01D10023FB603B6901333B617B886B
:105350000121184600F0E2FC034603F02003002B75
:1053600003D13B690F4A9342EED93B690E4A9342FF
:1053700002D10023FB6032E000233B617B88796827
:10538000184603F053FE2AE0008793030080024092
:10539000FF2C3101BF0E1602FF869303FFE0F505D7
:1053A0007FD1F008FEFF0300FFFF03007B681B6A4C
:1053B000DB089AB27B685B695B089BB213439BB2C4
:1053C0009AB27B880021184600F0F8FC0346002BB7
:1053D00001D10023FB6040F6FF70FFF739FEFB6848
:1053E000002B07D17B684FF400621A627B684FF490
:1053F00080425A61974B1B68FB62FA6A964B1340D6
:10540000FB627B685A687B689B681A437B68DB6831
:105410001A437B681B691A437B685B691A437B6884
:105420009B691A437B68DB691A437B681B6A1A43D2
:105430007B685B6A1A437B689B6A1A437B68DB6AFA
:105440001A437B681B6B1A437B685B6B1343FA6AD6
:105450001343FB627F4AFB6A13607E4B1B68FB624F
:105460000120FFF7F5FD7B4AFB6A136079497B68F1
:105470009A6B7B68DB6B1A437B681B6C1A437B68F7
:105480005B6C1A437B689B6C1A437B68DB6C1A432A
:105490007B681B6D1A437B685B6D13434B606D4BE0
:1054A0005B68FB620120FFF7D3FD6A4AFB6A536029
:1054B000684A7B689B6D9360664A7B68DB6DD3604E
:1054C000644B9B69FB62FA6A4FF641731340FB62BF
:1054D0007B681B6E1A047B685B6E1A437B689B6E4D
:1054E0001A437B68DB6E1A437B681B6F1A437B6829
:1054F0005B6F1343FA6A1343FB62564AFB6A93617C
:10550000544B9B69FB620120FFF7A2FD514AFB6AE5
:10551000936150497B689A6F7B68DB6F1343CB6163
:105520004C4BDB69FB620120FFF792FD494AFB6AA5
:10553000D361484B03F5805318331B68FB62FA6A4A
:10554000464B1340FB627B68D3F880207B68D3F81E
:1055500084301A437B68D3F888301A437B68D3F8C9
:105560008C301A437B68D3F890301A437B68D3F8A9
:1055700094301A437B68D3F898301A437B68D3F889
:105580009C301A437B68D3F8A0301343FA6A134364
:10559000FB62304B03F580531833FA6A1A602D4BC7
:1055A00003F5805318331B68FB620120FFF750FDA1
:1055B000284B03F580531833FA6A1A6025497B6833
:1055C000D3F8A4207B68D3F8A8301A437B68D3F8BB
:1055D000AC301A437B68D3F8B0301A437B68D3F8F9
:1055E000B4309B001A437B68D3F8B830134343F4BC
:1055F000000201F580531A60164B03F580531B68B7
:10560000FB620120FFF724FD124B03F58053FA6A79
:105610001A6010490F4B03F580531B6843F080025A
:1056200001F580531A600B4B03F580531B68FB6236
:105630000120FFF70DFD074B03F58053FA6A1A604E
:10564000FB68012B01D1012300E00023184630370D
:10565000BD4680BD008002400F8120FF233FDEF861
:1056600080B500AF012000F01FF8012000F042F8E3
:1056700000F0DAFA012000F0FDFA012000F024FB2E
:1056800000BF80BD80B500AF002000F0F3FA00201D
:1056900000F01AFB002000F02DF800F0C5FA002001
:1056A00000F002F800BF80BD80B584B000AF0346B3
:1056B000FB710023FB60FB79002B06D00C4A0C4BDE
:1056C0001B6843F00803136005E0094A084B1B6898
:1056D00023F008031360064B1B68FB600120FFF7F3
:1056E000B7FC034AFB68136000BF1037BD4680BD9E
:1056F0000080024080B584B000AF0346FB710023F8
:10570000FB60FB79002B06D00C4A0C4B1B6843F066
:105710000403136005E0094A084B1B6823F00403E7
:105720001360064B1B68FB600120FFF791FC034AE6
:10573000FB68136000BF1037BD4680BD008002408B
:1057400080B485B000AF786039603B6805331B7862
:105750001B023A68043212781343FB607A68114BDB
:1057600013441A46FB6813603B6803331B781A0620
:105770003B6802331B781B041A433B6801331B78D8
:105780001B0213433A6812781343FB607A68064B96
:1057900013441A46FB68136000BF1437BD465DF81A
:1057A000047B7047408002404480024090B486B041
:1057B00000AF786000237B610023BB600023FB60A7
:1057C00000233B61124B1B681A68124B13401B0CE1
:1057D000043B7B617B69BB600F4B1B681B683B61B3
:1057E0000D4B1B681B689B68FB60094B1B68DB68E3
:1057F0001A46074B1A607B681C4607F1080393E8BA
:10580000070084E8070078681837BD4690BC7047E9
:10581000606700200000FF3FBC7F002080B487B09D
:1058200000AF0346FB8000237B610023BB600023A5
:105830003B614F4B1B681B68002B01DA002391E092
:105840004B4B1B68FB60FB8840F2F452934217D924
:10585000FB88484AA2FB03239B0A9BB27B61FB881F
:10586000444AA2FB0312920A40F2F45101FB02F2F5
:105870009B1A9BB2002B05D07B6901337B6101E051
:1058800001237B617B69012B14D1FB681B6843F00A
:105890004052FB681A60FB88C3F30C02FB685A6035
:1058A000FB681B6843F00042FB681A60FB68DB681A
:1058B000FB603EE000233B6137E0FB681B6823F0A0
:1058C0004052FB681A603B69002B05D1FB681B68DE
:1058D00043F08052FB681A60FB6840F2F4525A6051
:1058E0007B695A1E3B699A4213D1FB681B6843F0DF
:1058F0000052FB681A60FA887B691F4901FB03F3B9
:10590000134403F2F453BB60BB68C3F30C02FB689F
:105910005A60FB681B6843F00042FB681A60FB6832
:10592000DB68FB603B6901333B613A697B699A4202
:10593000C3D30F4AFB681360104B03F58053143335
:105940001B6803F00403002B0BD00C4B03F58053B2
:10595000143304221A60094B03F5805304330022E8
:105960001A60012318461C37BD465DF8047B70475A
:10597000646700200BB002AC0CFAFFFF008002400D
:1059800080B487B000AFF860B9607A6000237B61B3
:10599000214AFB68136000237B612AE07B695B017D
:1059A000FA6813443B613B694FF000421A603B695F
:1059B00044F2F4525A607B6940F2F45202FB03F362
:1059C000BA6813441A463B699A607B685A1E7B6921
:1059D0009A4208D97B6901335B01FA6813441A467D
:1059E0003B69DA6002E0FA683B69DA607B6901339F
:1059F0007B617A697B689A42D0D3084BFA6803F5D9
:105A000080530C331A60064B064A1A6000BF1C37DD
:105A1000BD465DF8047B704760670020008002404F
:105A2000BC7F00205467002080B400AF364B1B6859
:105A30001B68002B1CDB344B1B681B6803F4807352
:105A4000002B15D0314B1B689A6801329A602F4B9E
:105A50001B689B68012B04D12C4B1B682A4A1268D7
:105A60001A602A4B1B68284A12685A60012345E0D5
:105A7000254B1B681B68002B21DB234B1B681B6815
:105A800003F40073002B1AD01F4B1B681B6803F430
:105A90008073002B13D11D4B1B681B4A12681A60C0
:105AA0001A4B1B6800225A60184B1B6801229A602F
:105AB000154B1B68DB681A46134B1A601DE0124B2E
:105AC0001B681B68002B18DB0F4B1B681B6803F45B
:105AD0000073002B11D10C4B1B681B6803F48073FF
