:020000040800F2
:1000000050C20120E52E0008E12E0008E12E000874
:10001000E12E0008E12E0008E12E0008000000009B
:10002000000000000000000000000000E12E0008B9
:10003000E12E000800000000E12E00082163000806
:10004000E12E0008E12E0008E12E000859A9000861
:10005000E12E0008E12E0008A1AD0008E12E000805
:10006000E12E0008E12E0008E12E0008E12E000834
:10007000E12E0008E12E0008E12E0008E12E000824
:10008000E12E0008E12E0008E12E0008E12E000814
:10009000E12E0008E12E0008E12E0008E12E000804
:1000A000E12E0008E12E0008E12E0008E12E0008F4
:1000B000E12E0008E12E0008E12E0008E12E0008E4
:1000C000E12E0008E12E0008E12E0008E12E0008D4
:1000D000E12E0008595500087D550008A15500087B
:1000E000E12E000881A90008E12E0008E12E000899
:1000F000E12E0008E12E0008E12E0008E12E0008A4
:10010000E12E0008B58C0008E12E0008E12E000861
:10011000C5550008E9550008E12E0008E12E000849
:10012000E12E0008E12E0008E12E0008E98C00080D
:10013000E12E0008E12E0008E12E0008E12E000863
:10014000E12E0008E12E0008E12E0008E12E000853
:10015000E12E0008E12E0008E12E00080D560008EF
:10016000E12E0008E12E0008E12E0008E12E000833
:10017000E12E0008E12E0008E12E0008E12E000823
:10018000E12E0008E12E0008E12E0008E12E000813
:10019000E12E0008E12E0008E12E0008E12E000803
:1001A000E12E0008E12E0008E12E00080120704732
:1001B00010B401F003039B0001F0FC0101F1804148
:1001C00001F59C318C680F229A4024EA02028A6071
:1001D0008A689840104388605DF8044B704700BF00
:1001E000014B1860704700BFDC00274210B40A4B77
:1001F00023F0030309490B604FF4205018800022BC
:100200005A801A711A184A600124147110805080A3
:100210008B605DF8044B7047BF3A0020E00A002075
:1002200000283FD00346204A126890423AD31E4924
:100230004868834236D270B4A3F10801002403F861
:10024000044C194CA468A1423CBF174CA16033F880
:10025000085C5419A14210D0267976B9A0420CD07E
:1002600011488068844204BF0F488160505B23F8C6
:10027000080C505B10448C1A448033F8060C141898
:10028000A1420ED0257965B9074DAD68A94204BFDA
:1002900005498C6033F8081C115233F8083C1A44A5
:1002A000508070BC704700BFE00A002003314FF659
:1002B000FC730B400B2B03D9B3F5205F01D951E040
:1002C0000C232B4A1268824250D829494968884237
:1002D0004CD2F0B4A0F10804A41AA4B230F8085C1F
:1002E000A5F10801091B89B299423DD33DD05619A9
:1002F0003779CFB9555B04F108010B449BB21C4917
:1003000089688E4202D1D118194EB160D1180026E9
:100310000E71D5524C8020F8083CD15AB1F5205FBF
:1003200023D00A44538020E003F114058D421CD8E9
:1003300004F108010B449BB2D1180D4DAD68A942E0
:100340003CBF0B4DA96000250D7130F8085CD552FB
:100350004C8020F8083CD15AB1F5205F05D00A4402
:10036000538002E0002070470020F0BC704700BFBF
:10037000E00A0020002857D0F0B4034603334FF6BC
:10038000FC741C400B2C03D9B4F5205F01D94DE05F
:100390000C24294B19689B685B1A9BB2C4F5205545
:1003A000AB4245DA2646C8180279002A37D1CA5A24
:1003B000083AD21A3746A24231D31437BA4213D37D
:1003C00004F108021A4492B28C18002525710588A0
:1003D0008D5263800280012303718B5AB3F5205F35
:1003E00004D00B445A8001E001230371124B9B6837
:1003F000984212D11A795AB10F4A51688B420AD0E9
:1004000014681B8823441A7922B18B42F9D102E087
:10041000194600E01946084B9960083009E0038846
:10042000AB42C0DB002004E000207047002000E069
:100430000020F0BC704700BFE00A00200A4B1B6898
:100440000A4AA2FB03239B0C013BB3F1807FFCD241
:10045000074A5360F021074B83F823100023936071
:1004600007231360704700BFB801002083DE1B43E1
:1004700010E000E000ED00E0034B1B681BB1024AF6
:100480001368013B13607047EC0A00204FF47A7246
:10049000034B1A601A461368002BFCD1704700BF4B
:1004A000EC0A002010B5044618B1FFF7EFFF013C3D
:1004B000FBD110BD082300BF013B13F0FF03FAD1AD
:1004C000704700BF08B501214FF4006004F0F0FC54
:1004D00000214FF4006004F0EBFC08BD10B40B4C9D
:1004E0006268816843681943C36819430368194304
:1004F0000369194322F4FD4323F07F030B43027D7C
:10050000134363605DF8044B704700BF002C01404B
:10051000014B1860704700BFA0802542014B186056
:10052000704700BF002C0140024B186800F0030028
:10053000704700BF002C014010B40368094A936063
:10054000D36823F4FF6323F00703446881680C43F6
:10055000C1680C43016921430B43D3605DF8044B30
:10056000704700BF002C0140014B1869C0B27047B2
:10057000002C014082B000230193034B03440193FC
:10058000019B186802B07047142C014010B4036836
:1005900009494B6243688B62CB6A23F0F702846897
:1005A000C3681C4303692343406903431343CB627D
:1005B0005DF8044B704700BF002C0140014BD3F89D
:1005C00080007047002C0140014B1860704700BF4D
:1005D0008C852542034B5B6B034214BF0120002036
:1005E000704700BF002C0140034B5B6B034214BFFC
:1005F00001200020704700BF002C0140014B986390
:10060000704700BF002C014010B5044606F098FF6B
:10061000CC21204607F0C2F84421204607F0BEF85E
:1006200010BD00BF0B78282B7AD1F0B585B01746E6
:100630000C46054607F05AF80346002874D02846B1
:1006400006F07EFF2146284607F050F9BE212846D5
:1006500007F0A4F80DF1030403AE284607F0AEF846
:1006600004F8010FB442F8D1082101A807F05AF9A3
:100670009DF80C30834256D19DF805609DF80430FA
:1006800043EA0626B4B2284606F05AFF16F4004F95
:100690001DBF6442A4B201210021C4F30713220943
:1006A00002F0700213439DF80820C2F34112032A9E
:1006B00023D8DFE802F0020D141BC4F3C00207EEDA
:1006C000902AF8EEE77AB6EE007A67EE877A17E0BE
:1006D000C4F3810207EE902AFAEECF7A10E0C4F359
:1006E000420207EE902AFAEEEE7A09E004F00F02D9
:1006F00007EE902AFAEECE7A02E0DFED0D7A0023C3
:100700005BB207EE103AB8EEC77A77EE277A19B1E6
:100710009FED087A77EE677AC7ED007A012303E050
:100720000023184670470023184605B0F0BD00BFEF
:1007300000007F43000000002DE9F8430B78282BD0
:100740005BD115460E46044606F0FAFE31462046B9
:1007500007F0CCF8BE21204607F020F8204607F02D
:100760002DF8204607F02AF8204607F027F88146A2
:10077000204607F023F88046204607F01FF807467A
:10078000092D02D100F09F0712E00A2D04D100F0DC
:10079000BF0747F020070BE00B2D04D100F0DF0767
:1007A00047F0400704E00C2D04BF40F06007FFB2A3
:1007B000204606F0C5FE3146204607F097F84E2148
:1007C000204606F0EBFF4946204606F0E7FF41468B
:1007D000204606F0E3FF3946204606F0DFFF2046BC
:1007E00006F0AEFE3146204607F080F8482120464C
:1007F00006F0D4FF0120BDE8F8830020BDE8F883AF
:1008000008B506F073FF08BD6FF00900704700BF20
:10081000F0B4164B18884FF480444FF6FF764FF42F
:100820004047B0421ABF013080B23846104901F14A
:10083000100551F8043B1B688BB15A8B82420BD1D7
:1008400002E05A8B824207D1013CA4B2002CE8D1CD
:10085000064B1880204606E0DB68002BF1D18D4264
:10086000E7D1024B1880F0BC704700BF00000020A9
:10087000FCC40108F8B5037E53BB06460C461AB902
:10088000FFF7C6FF024628B3194D05F1100755F8CA
:10089000043B1B686BB1598B914207D1E3B11968D6
:1008A000E1B1ECB12068E8B181421DD0DB68002BDA
:1008B000F1D1BD42EBD114B1236803B1336072832F
:1008C0000C4B1A68F2601E6004F0B4FB00200CE0D0
:1008D000FA200AE0FE2008E0F82006E0F82004E014
:1008E000F82002E0F82000E0F82040B2F8BD00BF98
:1008F000FCC40108E462002038B5037E002B48D117
:100900000446032001F056FE0546002843D0236923
:100910000361638B438301230376637E4376237AEB
:1009200043F002030372A37A8372637A43722368EB
:100930000360638BFBB1194B1A68944202D1E268E1
:100940001A6016E0164B1A609AB1D3689C420BD11C
:1009500005E0DA68944206D1114A136000E01346BC
:10096000E268DA6005E01346002BF2D100220C4B5E
:100970001A600023E3602146022001F031FE094B9A
:100980006B61094B1A68EA601D6004F053FB28464E
:1009900038BD002038BD002038BD00BFE462002013
:1009A000E062002009080008DC620020F0B4014683
:1009B000866A858DAA19046BC38E40F2B4508342B7
:1009C00088BF0346101BC31A002B01DBCD8509E04D
:1009D000331B002B03DD0023CB85184602E0A41B4C
:1009E000CC850020F0BC704710B50446838D1944B7
:1009F00089B240F66833994292BF818540F66833E8
:100A00008385FFF7D3FF40F2D923984206DDA37F09
:100A100043F00203A37720460EF0E4FB10BD00BFB5
:100A200050B110B50446406808B107F00DF82146F2
:100A3000042001F0D5FD10BD704700BF034640B152
:100A400010B51C681846FFF7EBFF2346002CF8D1C1
:100A500010BD70474176704701617047C1677047AC
:100A600081677047C0F88810704700BF41617047C8
:100A7000C0F8841080F82020704700BF037E012B4F
:100A800018D90A2B16D010B50446406F18B106F0DD
:100A9000DBFF002363674FF6FF73A386E06EFFF76B
:100AA000CDFF206FFFF7CAFF0023E3662367A4F89A
:100AB0006A3010BD704700BF2DE9F04F83B0B44AD3
:100AC000136801331360B34A13780133137015466A
:100AD000B14FDFF8D8B2B14B1C68002C00F0448154
:100AE00000262B7894F821209A4201D1E46838E15D
:100AF00084F82130227E022A05D194F84630062B54
:100B000040F06681A9E094F846300C2B53D094F85D
:100B10009110C1B194F890300133DBB284F8903079
:100B20009F4A0A44D27B9A4248D8002384F89030E6
:100B300006299CBF013184F8911020460EF054FD27
:100B40004FF0000842E0A18E11F4004F04BF0131C4
:100B5000A186216FA9B3B4F93400B4F944108842D6
:100B600032DB022A0CD0B4F94010B4F9422002EB77
:100B7000E1028B490B441B7E02FA03F3A4F84430D4
:100B80000023A386B4F86020B4F84C30934228BF09
:100B900013465B08A4F84E30E28EB3EB420FBCBFA5
:100BA0005300A4F84E30A4F84C2020460EF090FCE0
:100BB0004FF000080AE04FF0010807E04FF000088E
:100BC00004E04FF0000801E04FF00008237E062B00
:100BD00010D1A37F13F0100F00F0FE806C4B1B6848
:100BE000626A9B1A282B40F2F78008F101085FFA2D
:100BF00088F8F1E0227A12F0080F33D0042B01D0EC
:100C0000072B32D1624B1A68636AD21AD4F88C006F
:100C100000F5242303F6B843ABFB0313B2EB531FD9
:100C200006D908F101085FFA88F84FF0010926E0BB
:100C300094F892105B4B03FB0103ABFB0313B2EB85
:100C4000531F15D920460EF0B1FC94F892300133B1
:100C500084F892304FF0000911E04FF000094FF096
:100C600001080CE04FF0000909E04FF0000906E030
:100C70004FF0000903E04FF000094FF00108237E18
:100C8000032B0AD1424B1B68626A9B1A282B10D98E
:100C900008F101085FFA88F80BE0092B09D13C4BF9
:100CA0001B68626A9B1AF02B84BF08F101085FFA87
:100CB00088F8B8F1000F2FD02046FFF7DFFE16B1FD
:100CC000E368F36002E0E368344A1360B9F1000FAF
:100CD00009D0A16A206DA38B0193638B0093231D20
:100CE00022460EF0B7FBD4F88880D4F810A0D4F8D0
:100CF0000C902146022001F073FC00233B70B8F1F8
:100D0000000F27D06FF009015046C0473B78002BF9
:100D10007FF4E1AE4C4624E0D4F80C80E37F01334D
:100D2000DBB2E37794F820209A4215D80023E377CA
:100D30003B70D4F884303BB12146206998473B781A
:100D4000002B7FF4C8AE50B920460EF04BFA264671
:100D5000444606E04C4604E02646444601E026466A
:100D60004446002C7FF4BDAE0F4B1C68002C36D0DF
:100D70000025074E02279846626A33689B1AF02BBB
:100D800021D92046FFF77AFE95B1E368EB6012E0C7
:100D9000D8620020F00A0020D0620020D462002037
:100DA000FCC40108F8240100E8620020D34D621061
:100DB000E368C8F80030D4F80C902146384601F0BA
:100DC0000FFC4C4601E02546E468002CD4D106E037
:100DD0000C2B7FF49CAE4EE74FF0000969E703B09F
:100DE000BDE8F08F10B50C4602688A4202D1D36884
:100DF000036016E0164B1A609AB1D36899420BD182
:100E000005E0DA68944206D1114A136000E0134607
:100E1000E268DA6005E01346002BF2D100220C4BA9
:100E20001A600023E3602046FFF728FE237E0A2B8A
:100E30000BD0012B09D0A37F13F0010F05D043F095
:100E40000203A37720460EF0CDF90023237610BDD0
:100E5000E062002010B582B00446002900F0AC80AA
:100E6000037E042B02D0072B40F0A680636F2BB9C2
:100E7000A28D40F668339A4200F09E80A38B0193C6
:100E8000638B0093231D2246A16A206D0EF0E2FAC7
:100E90002046FFF7F3FD584B1A68944202D1E268EE
:100EA0001A6016E0554B1A609AB1D3689C420BD178
:100EB00005E0DA68944206D1504A136000E0134618
:100EC000E268DA6005E01346002BF2D100224B4BBA
:100ED0001A600023E3600122494B1A70237E042B21
:100EE00009D10A232376474B1A68E2601C6004F09C
:100EF000A1F800207DE02146022001F071FB0020D6
:100F000077E0638BFBB1404B1A68944202D1E268F0
:100F10001A6016E0394B1A609AB1D3689C420BD123
:100F200005E0DA68944206D1344A136000E01346C3
:100F3000E268DA6005E01346002BF2D100222F4B65
:100F40001A600023E3602146022001F049FB49E0DA
:100F500021462E48FFF746FF2146032001F040FBC3
:100F600040E021462448FFF73DFF0122244B1A7040
:100F70002146022001F034FB34E020460EF0EAF86E
:100F80000346A8BB052323762EE020460EF0E2F8A8
:100F9000034668BB0523237626E020460EF0DAF8E8
:100FA000034628BB092323761EE020460EF01AF9DB
:100FB00000201EE000201CE0237E072BFAD801A2AF
:100FC00052F823F0030F0008510F0008630F0008C8
:100FD0007B0F00088B0F0008B50F0008B50F000845
:100FE0009B0F0008002004E0002CDED1002000E070
:100FF000184640B202B010BDD4620020E06200206A
:10100000D0620020E8620020E4620020DC62002060
:1010100008B5037E012B03D0837F43F01003837751
:101020000121FFF717FF08BD10B5084642B114466D
:101030001189FFF7D9FC204606F006FD002004E0E8
:1010400013B9FFF7E5FF00E0002040B210BD00BF7C
:10105000F8B50446456F6F7B00234367C66F26B122
:101060002A4601460069B04705E000232A460146AA
:101070001846FFF7D9FFB0B917F0200F1AD0A38D8B
:1010800040F6683293421CBF0133A385E56F9DB1E2
:1010900000231A4621462069A84710F10A0F0CBF09
:1010A000F62000200BE040B210F10A0F06D0656771
:1010B000002004E0002002E0002000E0F62040B222
:1010C000F8BD00BF2DE9F843184A137801331370B7
:1010D000174F1546174E4FF000083C681DE0FEE71D
:1010E00084F82130A37F13F0010F09D043F00203ED
:1010F000A37720460EF076F8A37F23F00303A377AF
:10110000D4F80C90636F3BB186F800802046FFF75F
:101110009FFF3378002BE0D14C462CB12B7894F80C
:1011200021209A42DCD1DAE7BDE8F883F00A0020FA
:10113000D4620020D062002008B5FFF7C3FF054A43
:1011400053780133DBB2537013F0010F01D0FFF776
:10115000B3FC08BDF00A00202DE9F04383B004463B
:10116000037E0A2B08D101461A48FFF73BFE2146B1
:10117000022001F035FA2AE00E46D0F85080D0F86F
:101180002890D0F88850076901461348FFF72AFED7
:101190000122124B1A70206F08B1FFF74FFCE06E6E
:1011A00008B1FFF74BFC4EB1A38B0193638B009307
:1011B000231D2246494640460EF04CF921460220A6
:1011C00001F00EFA1DB16FF009013846A84703B0CF
:1011D000BDE8F083E8620020D4620020D0620020E5
:1011E00008B50121FFF7B8FF08BD00BF034A5068EA
:1011F000034B1B6818445060704700BF000000207C
:10120000D8620020F8B50546022001F0D3F9044663
:10121000002835D1384B1B6873B1384A1468014631
:101220005A6AA21A8A4224BF11461846DB68002B6C
:10123000F6D108B1FFF7D4FF022001F0BBF9044654
:10124000F0B92F4B1B68ABB12C4A176806467F24B8
:101250005A7E954208D3A24206D8596A791AB142F9
:1012600002D314460E461846DB68002BF0D108B1B5
:10127000FFF7B6FF022001F09DF90446002838D0A0
:101280009422002120460FF021FB657641F2D063C5
:10129000A4F866300025A4F8685040F66833A385AA
:1012A000E3856572FF23A3724FF40673E38606237A
:1012B000A4F84430A4F84050A4F842304FF6FF732D
:1012C000A3860123A4F84C30FFF790FFA0652065AA
:1012D000A064E065094B1B6863620A4B1B7884F8C5
:1012E0002130E577084BE367084BC4F88C3084F86D
:1012F00092502046F8BD00BFE8620020D86200206E
:10130000D4620020F00A00202910000800DD6D00E2
:1013100008B54020FFF776FF08BD00BF10B50446B2
:1013200008460CF0F5F830B1838D23B1283B9BB211
:101330009C4228BF1C46204610BD00BFF8B5047E65
:10134000002C6DD100296DD01E460D4604460B6859
:101350004360828308B1036833B9201D0CF0D8F8CC
:10136000002861D043682360678B27B9FFF750FAE4
:10137000608300285AD0FFF739FF0022A26220655F
:101380000138A064E06540F66833A385E3852263F5
:10139000A4F860304FF40670E0862946FFF7BEFFE0
:1013A000E0860123A4F84C3000EB80009840A4F8BC
:1013B0004E00C4F88060022120460DF067FE002830
:1013C00036D102232376EFB11A4B1A68944202D128
:1013D000E2681A6016E0184B1A609AB1D3689C4212
:1013E0000BD105E0DA68944206D1134A136000E09D
:1013F0001346E268DA6005E01346002BF2D10022C2
:101400000D4B1A600D4B1A68E2601C6003F012FE6F
:1014100001220B4B1A7020460DF0E4FE002007E07D
:10142000F72005E0FA2003E0FC2001E0FE20FFE7C2
:1014300040B2F8BDE4620020E0620020D4620020E7
:10144000D0620020F8B50546214B1C68A08904F045
:101450008FFAC0F30F30052838D91D4B1B689889C7
:1014600004F086FA000B0538800080B270B304F1F6
:101470001402002340F2B35740F2B4561C46D15C2C
:10148000012903D011B3022903D018E001339BB224
:101490001AE0D1184978042918D1191D814215DCA8
:1014A000144494F802E0E17841EA0E214C1EA4B203
:1014B000BC4288BF3146E98604339BB204E0144441
:1014C000617819B10B449BB28342D7D3F8BD00BFFA
:1014D000F40A00202DE9F84304469B4B1B7913F0D6
:1014E000100F00F07C81B0F86050806D626D964BFB
:1014F0009B68D11A00290FDB9A4204D1924AD26824
:10150000821A002A08DB904AD268904226D18E4A7D
:101510001268D289AA4221D98B4A1268D1898EB227
:10152000A4F86010D28991B2B4F862708F4238BFCB
:10153000A4F862206365844BDB68A36546B994F820
:1015400091305BB984F89030012384F8913005E044
:1015500094F8913013B1002384F891307A4BDA6813
:10156000A36CD11A002937DC0021A4F86410764955
:10157000098A002940F00D822844B4F86050A16D1A
:101580002944884240F00582B4F934100029C0F2A1
:1015900000829A4240F0FD8194F84720531CDBB250
:1015A0009A4238BF84F8473094F84730032B09D962
:1015B000B4F84C20E38E13449BB29A4207D2A4F8AD
:1015C0004C3004E0032B02D120460DF0C3FFE36E44
:1015D000002B40F0BB80D7E0012900F18A80216D0B
:1015E000511A002900F38580A17F11F0040F06D065
:1015F00021F00401A177B4F84E10A4F84C1000209B
:1016000084F84600B4F94050B4F8421001EBE5010B
:10161000A4F84410D31A9BB2A4F86430B4F866104E
:101620000B44A4F8663084F84700A264237E032BA1
:1016300018D9B4F84C20B4F84E30934207D9E38E51
:1016400013449BB29A420DD2A4F84C300AE0E38EC8
:1016500003FB03F393FBF2F313449BB29A4238BFAC
:10166000A4F84C30236F1BBB3AE0256F2B6823672F
:10167000686806F0E5FAB4F864305BB1EB68988905
:1016800004F076F910F0010F04D0B4F86430013B97
:10169000A4F86430686806F0D3FAB4F86830181A11
:1016A000A4F868002846FFF7BBF9236F0BB917E0D1
:1016B000254FDB68586804F06DF90546236F1E89D5
:1016C000DB68988904F054F910F0030018BF01207A
:1016D0000644FB68ED1A3544002DC6DD236F1BB9A7
:1016E0004FF6FF73A38601E00023A3860023E37770
:1016F0006DE70023A4F8643069E7E56E2B68E366C4
:101700000BB9A4F86A80686806F09AFAB4F86430F5
:101710005BB1EB68988904F02BF910F0010F04D04D
:10172000B4F86430013BA4F86430686806F088FAC5
:10173000B4F86830181AA4F868002846FFF770F962
:10174000E36E33B920E000BFF40A0020944F4FF05D
:101750000008FD68DB68586804F01CF98146E36EF8
:101760001E89DB68988904F003F9C9EB050510F0C0
:10177000030018BF01200644AD1B002D04DBFB68ED
:10178000226D9B1A002BB8DDA36B43B3E26B844937
:10179000C968521A002A22DAB4F84020814909683F
:1017A000CB1A42F3CC01591A89B288B28B189BB27A
:1017B000A4F8403010F4004F1CBF494288B2B4F87E
:1017C000422042F38D01521A024492B2A4F8422000
:1017D00043F3CC031344A4F844300023A363704BB9
:1017E0001B8A002B00F0C380227E062A00F2BF80F5
:1017F000A16A6B4A92688D1A012D2DD4481C801A5B
:10180000C31A002B28DC2B46654A90694289954211
:101810000FDD0189491B89B200259B1A0181458191
:10182000006842899A42F8DB594209B206F0CEF8C4
:1018300003E0694209B206F0C9F8A26A584B9868F9
:10184000998B0144891A9983196A9A604A60A16A3E
:10185000531A002B08DA85E0531A002B04DAA37F11
:1018600043F00203A3777DE0A38DC3F1010313448A
:101870005B1A002B76DC8A426FD1494DAE8B2B6A06
:10188000988904F075F810F0030018BF0120331890
:101890009BB22B82A28D9A4232D22B6A988904F095
:1018A00067F810F0010F0CD02E6AB589284604F0B5
:1018B0005FF800F03E0004F055F825F47C5528430D
:1018C000B081374BA28D9A831B6A988904F050F837
:1018D00000F0020083B21BB1314A938B013B93832A
:1018E0002F4DA98BA86906F07FF9AE8B2B6A9889DA
:1018F00004F03EF810F0030018BF012030442882A5
:10190000274D298AAA680A44A262A38D5B1AA3857F
:101910002046FFF74BF8AB691A8912B16B620023BE
:10192000AB611F4B1B6A988904F022F810F0010F7D
:1019300006D01B4A92F8283043F0200382F8283062
:10194000A37F13F0010F1ABF23F0010343F002033A
:1019500043F00103A377BDE8F88320460DF01EFC99
:10196000BDE8F88320460DF019FCBDE8F8830C4B68
:101970009B68A26A991A002905DB01339B1AA28D84
:101980009B1A002B09DDA37F43F00203A377BDE878
:10199000F883002384F8473019E6BDE8F88300BFD8
:1019A000F40A0020D86200202DE9F04383B00446F9
:1019B0000D464368197801F00F0103EB8103834A58
:1019C00013608900494206F001F8002840F0428483
:1019D0002389132B40F23E8429467D4B186801F081
:1019E00099FF002840F03684794B1B6803F0F00320
:1019F000E02B00F02F84754B1B68988903F0B8FF2B
:101A0000000BC0EB8030810009B2204605F0DEFFFC
:101A1000002840F01F846D4D2E68308803F0A8FF29
:101A200030802E68708803F0A3FF70802E68706885
:101A300003F0B0FF7060A8602E68B06803F0AAFFE2
:101A4000B060E8602E68F08903F092FFF0812B68A7
:101A5000988903F08DFF5FFA80FE0EF03F032B7133
:101A60001EF0030118BF01212389194489B229827C
:101A7000584B186840B32F683E88574BD3F800C0C6
:101A8000534BD3F800800546002200E01D46AB8B87
:101A9000B34211D1B5F81A907B8899450CD16B6887
:101AA000634509D12B68434506D152B1EB68D36039
:101AB000E860484B1D6004E0EB682A46002BE5D146
:101AC00002E0002D40F0DF80444B1868002841D030
:101AD0003E4B1E683288404B1F683D4BD3F800C018
:101AE000838B934233D1438B75889D422FD14568B8
:101AF000BD422CD10568654529D11EF0040F22D1C5
:101B00001EF0020F12D0314DAE68856A751B13D4DA
:101B1000878DED1B002D0FDC019200932E4B2C4A7C
:101B200031442A48C0680DF095FC0CE01EF0010F0E
:101B300002D02B4B1B68436229B1837F43F0020321
:101B400083770DF04FFB204605F07EFFA4E3C068CD
:101B50000028C5D1234B1F68002F00F060831B4B6A
:101B6000D3F800C0BCF80200194B1E683D460022A5
:101B700000E01D466B8B834204D12B68B34206D034
:101B80002DB123B1EB682A46002BF2D147E3002D9B
:101B900000F0458322B1EB68D360EF60114B1D600C
:101BA0001EF0040F6BD11EF0100F1DD00748856882
:101BB000BCF800300193BCF802300093064B044A95
:101BC0002944C0680DF046FC59E000BFF40A00202B
:101BD00040020120D462002038020120E862002087
:101BE000D8620020DC6200201EF0020F47D0687E21
:101BF000FFF708FB0646002841D09D4B1B68036099
:101C00006B8B43839B4B1B6843609B4B1A6811880B
:101C10008183032101769B68591C81620163D1890C
:101C2000A0F86010D289A0F86220A0F84E10013B05
:101C300043652B6903616B6943612B7A23F073035E
:101C400003728E4B1A68C260186003F0F3F9012228
:101C50008B4B1A703046FFF7F5FB311DF08EFFF706
:101C60005DFBF086122130460DF010FA20B1002104
:101C70003046FFF771FA02E030460DF0B3FA204625
:101C800005F0E2FE08E37C4B00225A61218999832A
:101C90009C611F625A6283F828201EF0080F03D04F
:101CA000637B43F0010363736B6F6BB12846FFF7EF
:101CB000CFF910F10A0F00F0A4826B6F23B16E4BC5
:101CC0001B8A002B40F09D826E4B1D606A4B1B7976
:101CD00013F0040F25D02B7E022B07D12B6D664A03
:101CE000D268934214BF002301230BE0624B9B6830
:101CF000AA6A9B1A00F1F981AA8D9B1A002BCCBF0E
:101D000000230123002B00F0F0815B4A92F8283079
:101D100043F0080382F82830AB7F23F00103AB7750
:101D2000E3E113F0020F09D02B7E023BDBB2012B63
:101D300004D9AB7F43F00203AB77D6E1AB7F13F05E
:101D4000100F40F08B82504B1B686B6286E24A4B4F
:101D50001B7903F01203122B55D12B6FDB685868E7
:101D600003F018FE0130444BDB6898424BD1B5F8C4
:101D700066300133A5F866303F4A9368591CA96262
:101D80002963A8641268D189A5F86010D289A5F8E2
:101D90006220013B6B6504232B76E918E88EFFF780
:101DA000BDFAE88600EB80035B00A5F84E30B5F87D
:101DB0004C30012B04BF400080B2A5F84C00B5F8B0
:101DC0006830013BA5F86830286F03682B67FEF781
:101DD00027FE2B6F1BB94FF6FF73AB8603E0002382
:101DE000AB8685F84630D5F880303BB100222946D5
:101DF0002869984710F10A0F00F00382AB7F43F087
:101E00000203AB7771E11C4B1B7913F0100F00F04C
:101E10006C8119480368048A81681A8801925B887A
:101E20000093144B124A2144C0680DF013FB5CE18F
:101E3000114B1B7913F0100F56D00F4BD868AB6CB9
:101E4000DB43C34242D42B6DC31A002B3EDC042378
:101E50002B766B6943B10022294628699847A8B1BF
:101E600010F10A0F00F0CD812846FFF7B9F9C8E15B
:101E70004002012038020120F40A0020D462002030
:101E8000D0620020EC620020D8620020B5F84C40FF
:101E90002846FFF71FFBB5F8643013B1013BA5F8E6
:101EA0006430012CEB8E04BF5B009BB2A5F84C3074
:101EB000A44B93F8283013F0200F00F01681AB7F6D
:101EC00043F00203AB7707232B760EE19D4B1A6894
:101ED0001C8A996813880193538800939A4B9B4AF4
:101EE00021440DF0B7FA00E113F0020F00F0FD807D
:101EF000AB6A013B934A9268934240F0F6802846D1
:101F00000DF0FEFAF1E02846FFF7E4FA8D4B93F866
:101F1000283013F0200F00F0E880AB7F43F002037D
:101F2000AB7707232B76E0E02846FFF7D3FA854B03
:101F300093F8283013F0200F41D0824B1B7913F017
:101F4000100F35D02A6D7F4BDB689A4230D1AB7FC2
:101F500043F00203AB772846FEF790FD7C4B1B68ED
:101F60009D4203D1EA687A4B1A6015E0794A136002
:101F7000002201200AE0D9688D4205D10AB1754AD4
:101F80001360EA68DA6007E002460B46002BF2D1E4
:101F900012B100226F4B1A6001226F4B1A700A2394
:101FA0002B766E4B1A68EA601D6003F043F89CE0E4
:101FB000AB7F43F00203AB7708232B7695E0614BB0
:101FC0001B7913F0100F00F090802A6D5D4BDB68D9
:101FD0009A4240F08A8006232B7686E02846FFF757
:101FE00079FA584B93F8283013F0200F7DD0AB7F4F
:101FF00043F00203AB772846FEF740FD544B1B68C5
:102000009D4203D1EA68524B1A6014E0514A1360B2
:102010008BB1DA68AA420AD105E0D3689D4205D1A6
:102020004C4B1A601346EA68DA6004E01A46002A4C
:10203000F3D1484B1A600122474B1A700A232B76C2
:10204000464B1A68EA601D6002F0F4FF4DE0284636
:10205000FFF740FA3B4B1B7913F0100F45D02A6D68
:10206000384BDB689A4240D12846FEF707FD384BD3
:102070001B689D4203D1EA68354B1A6015E0354A6A
:102080001360002201200AE0D9688D4205D10AB10F
:10209000304A1360EA68DA6007E002460B46002B1C
:1020A000F2D112B100222B4B1A6001222A4B1A7076
:1020B0000A232B76294B1A68EA601D6002F0BAFFEA
:1020C00013E02846FFF706FA1E4B1B7913F0100F9A
:1020D0000BD02A6D1B4BDB689A4206D1194A92F845
:1020E000283043F0100382F82830164B93F828303C
:1020F00013F0080F0FD0D5F888301BB16FF00A012C
:102100002869984729461248FEF76CFE29460220A6
:1021100000F066FA75E013F0100F21D0AB7F13F0DA
:10212000100F06D1D5F888301BB16FF00B0128696C
:10213000984729460648FEF755FE2946022000F03A
:102140004FFA5EE0F40A002038020120400201202C
:10215000D4620020E0620020D0620020E86200200B
:10216000B5F864203AB1AB6F2BB12946286998477E
:1021700010F10A0F45D04A4B5A6AF2B1AB7F13F007
:10218000100F06D0104605F05FFC2846FFF728F830
:1021900037E0EC6F24B1002329462869A04704E00A
:1021A000002329461846FEF73FFF43B213F10A0FFA
:1021B00027D010B13A4B5B6A6B67394B93F82830E4
:1021C00013F0200F17D06B6F23B15A7B42F020021F
:1021D0005A7310E0AB8D40F6683293421CBF013356
:1021E000AB85EC6F3CB100231A4629462869A0470D
:1021F00010F10A0F05D000222A4B1A6028460CF075
:10220000F1FF0022274B1A60254B5A62986900287B
:1022100042D005F019FC0022214B9A613CE0204B92
:102220001B68988903F0A4FB00F0040083B26BB92B
:102230001B480368058A81681A8801925B880093AD
:10224000194B1A4A2944C0680DF004F9204605F0DC
:10225000FBFB21E0204605F0F7FB1DE0002385F89D
:1022600092302846FFF7EEF82B7E023B072B3FF615
:102270003CAF01A252F823F04F1D0008311E0008A8
:10228000071F0008291F0008DD1F0008071F00089E
:102290004F200008C320000803B0BDE8F08300BF52
:1022A000F40A0020EC6200203802012040020120E4
:1022B00008B5364B984208D10121102002F0F8FDF4
:1022C0000021102002F0F4FD08BD314B98420AD1E4
:1022D00001214FF4003002F0DDFD00214FF4003009
:1022E00002F0D8FD08BD2B4B98420AD101214FF4D2
:1022F000802002F0CFFD00214FF4802002F0CAFDC3
:1023000008BD254B98420AD101214FF4002002F06C
:10231000C1FD00214FF4002002F0BCFD08BD1F4BA1
:1023200098420AD101214FF4801002F0B3FD002140
:102330004FF4801002F0AEFD08BD194B984208D151
:102340000121202002F0B4FD0021202002F0B0FD88
:1023500008BD144B98420AD101214FF0804002F091
:1023600099FD00214FF0804002F094FD08BD0E4B16
:10237000984209D101214FF0004002F08BFD00216D
:102380004FF0004002F086FD08BD00BF0010014084
:102390000044004000480040004C00400050004015
:1023A0000014014000780040007C004030B585B04A
:1023B00004460D46038A9BB223F44053CA88134354
:1023C000038283899BB223F4B05323F00C028988E3
:1023D0002B890B4369890B439BB213438381838A07
:1023E0009BB223F44073AA8913438382684602F0A8
:1023F000A9FC1C4B9C4203D003F580639C4201D195
:10240000039B00E0029BA28912F4004F03EB8303BD
:1024100003EB8303296814BF49008900B3FBF1F182
:10242000114BA3FB012358090501642300FB13137F
:10243000A28912F4004F09D0D90032310A4AA2FB16
:102440000131C1F3421242EA050307E01B013233B6
:10245000054AA2FB0323C3F343132B439BB22381FF
:1024600005B030BD001001401F85EB51014B1860D5
:10247000704700BF20000E4203462F4A526F12F0F1
:10248000005F06D02C494A6F42F080724A670120F3
:1024900000E0002045F25551284A11600A2B8EBFFA
:1024A00007210321254A5160EBB1012B1DD0022BDE
:1024B0001DD0032B1DD0042B1DD0052B1DD0062BAA
:1024C0001DD0072B1DD0082B1ED0092B1FD00A2B87
:1024D00020D00B2B21D00C2B22D00D2B40F6FF72DD
:1024E00018BF00221EE005221CE00A221AE00F227B
:1024F00018E01F2216E03D2214E07B2212E0FF22AA
:1025000010E040F2FF120DE040F2FF320AE040F22C
:10251000FF7207E040F6FF7204E040F2FF3201E094
:1025200040F2FF72054B9A604AF6AA221A604CF6F6
:10253000CC421A60704700BF0038024000300040B3
:102540002DE9F047184D25F00305184BA3F1400481
:10255000174EB71E1436A3F11C0C4FF000080434BC
:10256000A646C4F8008037F8020FB8B1B6F800905C
:102570002B460022114600E05346196003EB090A7E
:102580000132194693B29842F6D8013880B200FB66
:10259000099309FB0050CEF800001D440236644543
:1025A000DDD1BDE8F08700BF230B0020102D0020F7
:1025B000C8C5010808280DD8084B03EB800353F861
:1025C0003C3C4BB11968054A02EB800040F83C1CCA
:1025D000184670470020704718467047102D00209D
:1025E00039B1044B03EB800050F83C3C0B6040F8E1
:1025F0003C1C7047102D00202DE9F041074688460D
:1026000045686B689A88D2B91B6843606A6803465C
:1026100053F8081F5E689C68D86811605660946023
:10262000D06019691161012128460BF01FFA284674
:1026300005F006FB84B2284605F006FA00E0002407
:102640007D6865B16B681E68284605F0F9FA20447C
:1026500084B2284605F0F8F93546002EF2D10B4B2E
:102660001B689F4203D13A68084B1A6002E03B683E
:10267000C8F8003039460520FFF7B2FF034A9388B7
:102680001B1B93802046BDE8F08100BFF82C002082
:102690002DE9F041054688460026184F3B684BB3AC
:1026A000D5F80CC000242146204601E01946134607
:1026B0005A69624509D1D5F810E09A69724504D18A
:1026C000B3F80CE0AA88964509D0013430B193F8EC
:1026D0001FE0C27F964598BF184600E018461A686A
:1026E000002AE3D110B1FFF787FF0644464501DA1F
:1026F000012CD3DC3046BDE8F08100BFF82C00206F
:1027000010B50446406908B105F09EF9214606203F
:10271000FFF766FF10BD00BF2DE9F04F83B00746FD
:102720004668337803F00F03052B40F04F81F088A3
:1027300003F01EF98346708803F01AF9019096F8A9
:1027400000A0384605F07CFA8046BE4B9B880344C7
:102750000A2B0CDD01463046FFF79AFF002800F0F7
:102760003581B84B9B8843440A2B00F32F81B54B2E
:102770001C68ACB1F268002500E01C466369934216
:1027800007D13369A169994203D1A189B3889942DC
:1027900004D023682546002BEFD101E0BCBB2C46BA
:1027A0000520FFF707FF814668B941463046FFF72D
:1027B0006FFF804500F30A810520FFF7FBFE81468D
:1027C000002800F003812022002148460EF07EF808
:1027D000032389F81F309B4B1A68C9F80020C3F8FF
:1027E000009032687568B068F168C9F80820C9F8C7
:1027F0000C50C9F81000C9F814103269C9F8182033
:10280000B9F1000F00F0E28025464C4617E0F08851
:1028100003F0AEF8C0F30C0088B9E08903F0A8F823
:10282000C0F30C0058B13268D6F804E0B068F16823
:10283000A260C4F80CE0206161613269A261814A42
:1028400093889844A2F80480F38803F020039BB295
:1028500063B9A37F43F00103A3770AF00F0A019B3A
:10286000A3EB8A0909EBCB0BA4F81CB0D7F80480C2
:10287000B8F8020003F07CF898F8006006F00F0644
:10288000A0EB860086B2B8F8060003F071F8C0F33A
:102890000C00C000D7F80480002388F8003088F8C6
:1028A000013088F8023088F80330A8F8040006EBFD
:1028B000000C1FFA8CFCA8F806C06268A2B353682B
:1028C00099888842C0F0878052D0DA8882424FD8F7
:1028D0004FF0010E1CE07268918888420CD2C8F853
:1028E0000060002B00F0A980D988814240D89288EE
:1028F00062453DD31F601AE0884239D0D6888642AF
:1029000036D823B1DB888B4218BF4FF0000E134638
:102910001E68002EDFD163E01F60DA88B8F804304B
:102920009A4240F0888002E04FF0010E6760A37F7A
:1029300013F0010F7FD0BEF1000F7CD060684368B8
:102940009B88002B77D1D8F80030002B4BD05B68E8
:10295000B8F806109A88914206D06CE05268D9887F
:102960009388994267D113461A68002AF6D13AE053
:10297000384605F065F9334A9388181A908038462E
:1029800005F062F857E077684946304605F01EF8D2
:102990003146404605F066F93E68002EF3D1294BDA
:1029A0001B689C4203D12268264B1A6001E0236811
:1029B0002B6021460520FFF713FE404605F040F945
:1029C000204A9388181A9080404638E0384605F02F
:1029D0003BF8002033E0C8F800204FF0010E2CE057
:1029E000002B99D1A2E7A38B1433A38347683E68D9
:1029F000234653F8082FD3F804E09868D9683A6062
:102A0000C7F804E0B860F9601A693A61A08B02F077
:102A1000A9FF78800023BB71FB71BB72FB7214218C
:102A2000384601F043FB7881D4F804806FF0130935
:102A3000002EA8D1B3E7002001E0676077E703B07C
:102A4000BDE8F08FF82C00202DE9F04F8DB0044642
:102A500009910A928D8DD0F80480B8F8060002F032
:102A600087FFC0F30C03039300F4005083B2079375
:102A7000B4F80890A9F114091FFA89F9A5F1140313
:102A80000693002BB8BF0733C3F3CF030893B9F104
:102A9000000F00F0A380DB009BB2002614250B93EF
:102AA00000E03546039BC3F30C03079A13430593D9
:102AB000069A4A4505DA43F4005305930B9B0493A9
:102AC00001E0CDF8109000221421022004F0EEFF66
:102AD0008246002800F084804368D8F80020D8F8A7
:102AE0000470D8F80800D8F80C101A605F6098607D
:102AF000D960D8F810201A61DAF804B063682B4462
:102B0000636063895D1B6581049B002B37D01D4684
:102B10006689AE4228BF2E46B6B21EB92468002D83
:102B2000F6D12CE00620FFF745FD074620B95046B8
:102B300004F08AFFFF2054E0019663680093034687
:102B400002223146032004F011FF029040B93946B9
:102B50000620FFF745FD504604F076FFFF2040E0D9
:102B6000204605F079F87C61204B3B610299504684
:102B700005F078F8AD1BADB20DB12468C8E7059833
:102B800002F0F0FEABF80600049D05F1140080B2DF
:102B900002F0E8FEABF8020000238BF80A308BF855
:102BA0000B301421584601F081FAABF80A0009985D
:102BB00043690A9A51469847504604F045FFC5EBD1
:102BC00009031FFA83F9039B089A13449BB20393EA
:102BD000B9F1000F7FF465AF002002E0002000E0B3
:102BE000FF2040B20DB0BDE8F08F00BF0127000804
:102BF00010B582B0074C03230193002300930122F8
:102C00004FF4704120460BF083FD4FF47043638313
:102C100002B010BD000C024000B583B0002201924A
:102C2000022300931346012102480BF071FD03B00B
:102C30005DF804FB000002402DE9F041404B93F8A1
:102C40004C302BB13E4B012593F89C209AB900E003
:102C50000025064605EB8507394B03EB07170123D3
:102C600087F84C303D74374B7B61B8460EF068FAFC
:102C7000312821D806E0013550330A2DE4D14FF038
:102C800000085AE03146384601F05EFFA0B12C4AF8
:102C9000A9004B1902EB0313012058760020187687
:102CA0009860D860184631461A300EF0D7F9254A98
:102CB00013880133138040E005EB8503204A02EBC3
:102CC000031300225A76204C616830460EF05CF8FF
:102CD000B0B9A0681A4BAE00721912019918985039
:102CE000E2684A60E2688A600022CA60227C354459
:102CF00003EB05152A76134A1388013313801CE071
:102D00002468002CE0D10E4B9F4205D003F1500205
:102D1000012390450BD100E0002303EB8303084A15
:102D200002EB03134FF0000883F84C8005E00133F9
:102D300050320A2BEDD14FF000084046BDE8F0813B
:102D4000F0620020FE2C002004C6010810B50446E5
:102D50000F4A1388013B1380437E0BB101F080FFC3
:102D60000C4B9C4205D003F15002012394420AD13E
:102D700000E0002303EB8303064A02EB0313002267
:102D800083F84C2010BD013350320A2BEED110BD18
:102D9000FE2C0020F062002038B5054608466B7E08
:102DA00033B1284601F02EFFAB680344AB6038BD59
:102DB000A9686B6899420DD05B1A9A42A8BF1A465F
:102DC00014462B6819440DF0E7FCAB682344AB6054
:102DD000204638BD4FF0FF3038BD00BF42688068E4
:102DE000101A70470120704701207047012070477A
:102DF0000120704701207047012070470120704773
:102E00000120704701207047012070470120704762
:102E10000120704701207047012070470120704752
:102E200008B500EB8000044B53F820300BB19847F5
:102E300008BD042008BD00BF0800002008B500EB55
:102E40008000044B03EB800043680BB1984708BD3A
:102E5000042008BD080000207BB138B51C4600EBFB
:102E60008000084B03EB8000056945B123461446FA
:102E700008461A462146A84738BD0420704704205A
:102E800038BD00BF080000207BB138B51C4600EB00
:102E90008000084B03EB8000C56845B1234614460B
:102EA00008461A462146A84738BD0420704704202A
:102EB00038BD00BF0800002008B500EB8000054BBE
:102EC00003EB80039B681BB108461146984708BD79
:102ED000042008BD08000020004870470000FC42A4
:102EE000FEE700BF08B5114B114A9A420CD2581E9A
:102EF000801A20F0030004300E4B184453F8041BD2
:102F000042F8041B8342F9D10B480C494FF00002F0
:102F10008842B8BF40F8042BFADBDFF824000168D0
:102F200041F47001016001F0F7F908BDDC0A0020EE
:102F30000000002044F80108E00A00204C020120B3
:102F400088ED00E008B501214FF0007001F094FF1A
:102F500000214FF0007001F08FFF08BD01230360D6
:102F6000002343608360C36003614FF48042426189
:102F70008361C3614FF40062026243628362C36291
:102F8000036343638363C363402202642022426479
:102F90008364C364036543658365C36503668022F8
:102FA00042668366C366036743678367C3674FF000
:102FB0008062C0F880204FF00072C0F88420C0F812
:102FC00088304FF40011C0F88C10C0F89030C0F871
:102FD0009430C0F89830C0F89C30C0F8A030C0F8E9
:102FE000A4204FF48032C0F8A8204FF48002C0F82B
:102FF000AC204FF40052C0F8B020C0F8B430C0F894
:10300000B830704782B00023019328B1114A136889
:1030100043F00803136004E00E4A136823F008032A
:1030200013600C4B1B6801930B4B1B680B4A126817
:103030000B498A4202D00B498A4202D1064A1268E1
:103040009B1A013BB3F1FF3FFBD1019A014B1A6080
:1030500002B070470080024020FB0020B801002031
:103060000095BA0A00E1F50582B00023019328B16A
:10307000114A136843F00403136004E00E4A136816
:1030800023F0040313600C4B1B6801930B4B1B686C
:103090000B4A12680B498A4202D00B498A4202D17C
:1030A000064A12689B1A013BB3F1FF3FFBD1019A1C
:1030B000014B1A6002B070470080024020FB0020E4
:1030C000B80100200095BA0A00E1F5054A790B79AC
:1030D00043EA0223074A8350CA788B781B0443EAE9
:1030E00002630A7813434A7843EA0223024A835070
:1030F000704700BF408002404480024070B40949DC
:103100000C682368084D2D682E682D68AD68E4684A
:103110000C60C3F30D43043B03604560866070BCE4
:10312000704700BF1C660020787E0020374B1B686C
:103130001A68002A5DDB70B440F2F45290420FD955
:10314000334AA2FB0012920A94B240F2F45101FBFE
:10315000120292B202B10134012C01D06CB934E0F8
:103160001A6842F040521A60C0F30C0058601A68A6
:1031700042F000421A60DB6827E000F2F450254E6E
:1031800006FB0400C0F30C06002240F2F455601E5A
:10319000196821F0405119603AB9196841F080511D
:1031A00019605D60824228D102E05D60904204D1E6
:1031B000196841F0005119605E60196841F00041E2
:1031C0001960DB6801329442E2D1104A136041F287
:1031D0001403114AD35813F0040F0CD013460421E2
:1031E00041F214029950002141F204029950012049
:1031F0000AE000207047012006E0196841F0004114
:103200001960DB680132C3E770BC7047206600209C
:103210000BB002AC0CFAFFFF00800240F0B5844610
:10322000124B1860C2B114468646034600224FF086
:10323000004744F2F456651E1F605E609960954237
:1032400086BF03F12000D860C3F80CE001322033C0
:1032500001F2F4519442EFD141F20C03044A42F8D6
:1032600003C0044A044B1A60F0BD00BF1C66002076
:103270000080024010660020787E0020244B1B68EE
:103280001A68002A13DB1A6812F4807F0FD0214AD3
:1032900012689168013191609168012908BF13603B
:1032A0001C4B1B681A4A12685A60012070471A6842
:1032B000002A14DB1A6812F4007F10D0186810F48A
:1032C00080700CD1134A11680B60136800225A6099
:1032D00001229A600E4B1A68D2681A6070471A6809
:1032E000002A11DB186810F400700FD11A6812F46C
:1032F00080720CD107490868816801318160D96802
:10330000034B19601046704700207047002070473B
:103310001C660020787E0020F0B586460E4B1860B3
:103320009AB11446034600224FF48016651E1E60B3
:103330009960954286BF03F12007DF60D8600132B3
:10334000203301F2F4519442F1D141F21003034AC7
:1033500042F803E0F0BD00BF20660020008002407C
:103360000368194301607047024A136843F0010380
:103370001360704700900240024B186800F0010093
:10338000704700BF0090024082B000230193104AB2
:1033900041F21803D15841F48011D150D358019310
:1033A0000C4B1B680C4A12680C498A4202D00C492B
:1033B0008A4202D1074A12689B1A013BB3F1FF3FD0
:1033C000FBD1019941F21803014AD15002B0704774
:1033D0000080024020FB0020B80100200095BA0ABE
:1033E00000E1F50538B1084941F218028B5843F461
:1033F00000538B507047044941F218028B5823F454
:1034000000538B50704700BF0080024038B108491C
:1034100041F218028B5843F002038B507047044965
:1034200041F218028B5823F002038B50704700BF03
:103430000080024008B50120FFF7E4FD0120FFF7FE
:1034400013FEFFF7A1FF0120FFF7CCFF0120FFF7DC
:10345000DDFF08BD08B50020FFF7C4FF0020FFF71F
:10346000D5FF0020FFF700FEFFF78EFF0020FFF7DB
:10347000C9FD08BD82B000230193114A1369890177
:1034800001F4F86103F01C030B43C00280B2034354
:1034900043F0010313610B49019B0133019313694D
:1034A00013F0010F02D0019B8B42F5D9019A064B14
:1034B0009A421DBF024B586980B2002002B070478B
:1034C00000800240FEFF0300FFFF030010B483B042
:1034D00000230193114C236903F01C0343F0030301
:1034E000890101F4F8611943C00280B201436261AD
:1034F000216122460A49019B01330193136913F0AC
:10350000010F02D0019B8B42F5D90198054BC01ADF
:1035100018BF012003B05DF8044B704700800240E3
:10352000FEFF0300FFFF0300F0B589B004460D461F
:1035300000230793029301230193434B1E6926F056
:103540001C0603A801F0FEFB049A404B13444049BB
:103550008B4202D846F0080615E03E4B13443E4924
:103560008B4202D846F00C060DE03C4B13443C491C
:103570008B4208D93B4B13443B4A934294BF46F0DD
:10358000040646F01006304B1E614FF40042002145
:103590002846FFF79BFF10B90023019392E0334BBD
:1035A0001B68C3EB0323324A126832498A4202D0B5
:1035B00031498A4202D12D4A12689B1A013BB3F16C
:1035C000FF3FFBD12368002B5CD001262B4F029BD1
:1035D0000133029331462846FFF74CFF00F0040008
:1035E00080B210B9029BBB42F1D9029A244B9A4295
:1035F00002D10023019365E0002102914FF4805233
:103600002846FFF763FF08B90023019301261B4FEB
:10361000029B0133029331462846FFF72BFF00F04F
:10362000200080B210B9029BBB42F1D9029A144B20
:103630009A4202D10023019344E0002302932146E1
:10364000284602F0C3F83DE00080024000D3CEFEE1
:10365000BFE1E40040F1E9FD3F787D0100796CFCB9
:10366000FF596202001F0AFA7FF0FA0220FB0020D5
:10367000B80100200095BA0A00E1F505FEFF03003D
:10368000FFFF0300226A63695B0843EAD20292B239
:1036900000212846FFF71AFF08B900230193954B34
:1036A0001B68C3EB0333944A126894498A4202D0E0
:1036B00093498A4202D18F4A12689B1A013BB3F1A7
:1036C000FF3FFBD1019B2BB94FF4006323624FF402
:1036D000804363618B4A11688B4B0B406068A16823
:1036E0000843E16808432169084361690843A16907
:1036F0000843E1690843216A0843616A0843A16AF3
:103700000843E16A0843216B0843616B01430B43A3
:1037100013601168774B1B68774A126877488242BA
:1037200002D07748824202D1724A12689B1A013B4A
:10373000B3F1FF3FFBD1734B1960A16BE26B1143F7
:10374000226C1143626C1143A26C1143E26C114371
:10375000226D1143626D0A435A605968654B1B68BC
:10376000654A12686548824202D06548824202D1A9
:10377000604800681B1A013BB3F1FF3FFBD1614871
:103780004160A36D8360E36DC3608169656EA36E64
:103790001D43E36E1D43236F1D43636F1D434FF6AF
:1037A00041730B402B43216E43EA014383618169DE
:1037B000504B1B685148824202D05148824202D18C
:1037C0004C4800681B1A013BB3F1FF3FFBD14D4B46
:1037D0009961A06FE16F0143D961D869454B1B68BE
:1037E00046498A4202D046498A4202D14149096883
:1037F0005B1A013BB3F1FF3FFBD14249C86141F283
:1038000018000D58414B2B40D4F88060D4F88450F8
:103810002E43D4F888502E43D4F88C502E43D4F83D
:1038200090502E43D4F894502E43D4F898502E4301
:10383000D4F89C502E43D4F8A05035432B430B5062
:1038400008582C4B1B682D498A4202D02C498A42C9
:1038500002D1284909685B1A013BB3F1FF3FFBD154
:10386000284B41F218015850D4F8A400D4F8A810FD
:10387000014341F40001D4F8AC000143D4F8B00096
:103880000843D4F8B8100143D4F8B40041EA8001E9
:1038900003F5805319601968164B1B68174882425C
:1038A00002D01748824202D1124800681B1A013B1D
:1038B000B3F1FF3FFBD1164B1960196841F080014D
:1038C000196019680B4B1B680C48824202D00C48E7
:1038D000824202D1074A12689B1A013BB3F1FF3FB3
:1038E000FBD10B4B19600198012814BF0020012067
:1038F00009B0F0BD20FB0020B80100200095BA0AF5
:1039000000E1F505008002400F8120FF233FDEF833
:10391000009002400246431E13F1030F14D891F8A1
:10392000353003F0020303F0FF0093B14B689A4275
:103930000CD0896853400B420AD1C94331EA0203D3
:103940000CBF012000207047012070470020704705
:10395000002070470378A3F13002D2B2092A00F2A6
:1039600087802DE9F04784B00D466F464FF00A0C72
:103970004FF010094FF008080DF10C0E302B0BD151
:10398000437803F0DF02582A02D00130464604E0B3
:10399000837802304E4600E06646411C002400E079
:1039A000013101F1FF3AA3F13002D2B2092A04D861
:1039B00004FB0634303C0B78F2E7102E12D123F0D2
:1039C0002002413AD2B2052A0CD803F10A02613B27
:1039D000DBB21A2B34BF61234123D31A43EA041408
:1039E0000B78DDE72E2B0DD1774543D047F8044BFC
:1039F0000AF101009AF80130A3F13002D2B2092A8B
:103A0000BCD939E013F0DF0F04D0A3F10902D2B220
:103A1000042A33D86846381A80100130042820D888
:103A2000DFE800F0351F030A1400B4F1807F27D2CD
:103A3000009B44EA036414E0B4F5803F22D2019B6A
:103A40001B04009A43EA02631C430AE0FF2C1BD8C4
:103A5000019B1B04009A43EA0263029A43EA022391
:103A60001C439DB1204601F089FF286001200EE033
:103A70000020704700200AE0002008E0002006E057
:103A8000002004E0002002E0002000E0012004B05B
:103A9000BDE8F08700B583B001A9FFF75BFF08B16F
:103AA000019801E04FF0FF3003B05DF804FB00BF68
:103AB000F8B507460E4615461C4602F065FC4FB1A8
:103AC0007B1E3A4A781D13F8011F02F8011F83423A
:103AD000F9D10CE0364B06221A7105225A710422E4
:103AE0009A710322DA7102221A7201225A724EB1BD
:103AF000731E2F4A033613F8011F02F8011BB3424D
:103B0000F9D108E02A4BC0221A70A8225A7002226A
:103B10009A707822DA704DB16B1E264A033513F87D
:103B2000011F02F8011FAB42F9D108E0204BC0226F
:103B30009A73A822DA7302221A7401225A744CB1C1
:103B4000621E1D4B033412F8011F03F8011FA2422D
:103B5000F9D106E0164BFF229A72DA721A7300222C
:103B60005A73134B0022DA7401241C7583F8482021
:103B700083F84C2083F84D2000200021C3E90A017E
:103B8000C3E90801C3E91001C3E90E011A63A3F8F0
:103B90004A2083F84E2001F04BFD054601F0AAF9BA
:103BA000064B1C70B5FA85F04009F8BDD39600208D
:103BB000D0960020DD960020D9960020002D002010
:103BC00008B5114B1B7813F0FF0F18D00F4B93F86B
:103BD0004830B3B90D4BB3F84A3043B918B10B4B69
:103BE000A3F84A0003E05022084BA3F84A2002F051
:103BF0009BFE0122054B83F84820002008BD0120D0
:103C000008BD002008BD00BF002D0020D096002078
:103C100008B501F0D9F908B101F0DAF9024B58689A
:103C200001F0DEF9002008BD002D0020024A536893
:103C30001844506000207047002D0020054BDB7CAD
:103C40002BB1044B187DB0FA80F040097047012079
:103C5000704700BFD096002008B5074B1B7A4BB9C0
:103C60000A460146054802F08FFE0122024B1A72F5
:103C7000002008BD012008BD002D00208547000858
:103C800008B5064B5B7A33B902F086FE0122034B7E
:103C90005A72002008BD012008BD00BF002D002081
:103CA000704700BF10B584B0164C247814F0FF0F95
:103CB0001ED0154C94F84E40E4B9134C247DDCB171
:103CC000114CE47CD4B1089C0294BDF81C400194D2
:103CD0009DF81840009406F0B3FB10F10B0F03D1D0
:103CE000FFF7DEFF04200AE0003018BF012006E0E5
:103CF000052004E0012002E0032000E0022004B0DF
:103D000010BD00BF002D0020D0960020F8B505465C
:103D10000C46436F23BB2C4E0FCE20606160A26027
:103D2000E360337823742B462246284920460CF062
:103D3000FDFE20460DF004FA07462618244D0FCD4F
:103D4000E0517160B260F3602868306120460DF088
:103D5000F7F922181F4B19889B78215293702EE097
:103D60001D4B186808609B888B80696F20460CF09B
:103D700073FF20460DF0E4F907462618174B07CBD2
:103D8000E0517160B2602B462246104920460CF08B
:103D9000CDFE20460DF0D4F9074626180C4D0FCD68
:103DA000E0517160B260F3602868306120460DF028
:103DB000C7F92218074B19889B7821529370204627
:103DC0000DF0BEF980B2F8BD28DB01083CDB01082C
:103DD0004CDB01084CE8010860DB010868DB0108E6
:103DE000704700BF704700BF704700BF704700BFFB
:103DF00030B58FB00C46384B196038490CF0C4FF11
:103E0000002863D13649204605F084FF00285DD1A3
:103E100034480CF0ADFD324C20460CF0A9FD0022D8
:103E20003149204605F054FF0446002842D12F486E
:103E30000CF0EEFD2E4C21682E480CF099FD236805
:103E40000EA840F8043D0CF079F804AC05460FCDFF
:103E50000FC40FCD0FC42B682360049B8DF8003076
:103E6000059B8DF80430069B8DF80530079B8DF877
:103E70000730089B01338DF80830099B643B8DF8AF
:103E800009300A9B8DF806300D9C04A80CF020F830
:103E90000246214618480CF06BFD0021684606F0EA
:103EA000A9FB18B915480CF0B3FD12E014480CF04A
:103EB000AFFD0EE0014613480CF05AFD204605F018
:103EC00011FF014610480CF053FD02E00F480CF0C2
:103ED0009FFD0FB030BD00BFA4A7002074DB010818
:103EE0002097002088DB010830D901089CDB0108FD
:103EF000389F0020B8DB0108C8DB0108D4DB0108CB
:103F0000ECDB010804DC010820DC01083CDC0108D2
:103F10000020704700207047704700BF704700BF07
:103F2000704700BF30B585B00546FFF787FE20BB60
:103F30000446154B9B7A13F0FF0F20D10023134A40
:103F400003A9284609F0E4FF10F1050F0CD078B959
:103F500003990B0E0093C1F30743C1F30722C9B2C3
:103F60002846FFF7DBFF0BE00122074B9A7207E0C0
:103F70002846FFF7D5FF012402E0012400E00124D8
:103F8000204605B030BD00BF002D0020913F000845
:103F900000B583B000220A4B9A7259B1096849B141
:103FA0000B0E0093C1F30743C1F30722C9B2FFF719
:103FB000B5FF01E0FFF7B4FF03B05DF804FB00BFFD
:103FC000002D0020704700BF0020704708B5FFF7A4
:103FD000F9FF08BD70B582B09DF8185015B10026E4
:103FE000074CA674064C20706170A270E370012625
:103FF000E6742675009500F049FD02B070BD00BF63
:10400000D096002008B5054B01221A750022DA74FB
:1040100006F00AFA00F090FD08BD00BFD09600201F
:1040200008B50022034B1A7506F000FA00F07CFD7B
:1040300008BD00BFD096002010B483B00023ADF8B7
:10404000063010F0010406D0994224DD03788DF883
:10405000073001390130012907DD002330F8022B38
:10406000134402390129F9DC00E000230029C4BF10
:1040700002788DF80620BDF80620134498B200EBB4
:1040800013439AB202EB134354B11A0292B2C3F330
:104090000723134304E00129DFDCBDF80630F4E711
:1040A00098B203B05DF8044B704700BF08B5FFF746
:1040B000C3FFC04380B208BD70B500B305460026FB
:1040C000344669896868FFF7B7FF204484B204EB7F
:1040D00010446B8913F0010F07D0C6F10106F6B248
:1040E00023029BB2C4F307241C432D68002DE8D1A2
:1040F00036B123029BB2C4F307241C4300E0002422
:10410000E04380B270BD00BF002875D1002973DD87
:104110002DE9F84F994690460F460024DFF8ECB0A1
:10412000364E4FEA840A58F82450594628460DF076
:1041300055FAE8B159F824301B78313B032B54D899
:10414000DFE803F002070C11736983F48053736195
:104150004BE0736983F40053736146E0736983F441
:104160008043736141E0736983F4004373613CE011
:10417000234928460DF032FAC8B159F80A301B78A5
:10418000313B032B31D8DFE803F002060A0E4FF46F
:104190008053338329E04FF40053338325E04FF4F9
:1041A0008043338321E048F2000333831DE0154947
:1041B00028460DF013FAC0B159F80A301B78313B8C
:1041C000032B12D8DFE803F002060A0E4FF48053E7
:1041D00073830AE04FF40053738306E04FF4804387
:1041E000738302E048F2000373830134E4B2BC42FB
:1041F00097DB0548BDE8F88F03487047000C024084
:10420000B0DC0108B8DC0108FCD80108A4DC010816
:10421000002875D1002973DD2DE9F84F99469046A5
:104220000F460024DFF8ECB0364E4FEA840A58F807
:104230002450594628460DF0D1F9E8B159F82430F8
:104240001B78313B032B54D8DFE803F002070C1135
:10425000736983F4805373614BE0736983F4005393
:10426000736146E0736983F48043736141E073696D
:1042700083F4004373613CE0234928460DF0AEF916
:10428000C8B159F80A301B78313B032B31D8DFE82D
:1042900003F002060A0E4FF48053338329E04FF4F3
:1042A0000053338325E04FF48043338321E048F209
:1042B000000333831DE0154928460DF08FF9C0B186
:1042C00059F80A301B78313B032B12D8DFE803F092
:1042D00002060A0E4FF4805373830AE04FF4005332
:1042E000738306E04FF48043738302E048F20003D7
:1042F00073830134E4B2BC4297DB0548BDE8F88F14
:1043000003487047000C0240B0DC0108B8DC01082B
:10431000F0D80108A4DC01082DE9F04FADF6341DFA
:10432000FCF78CF8BA480CF073FB06F0DBFD05F0E7
:1043300051FD4FF4E1320021B64801F0A3F80A2004
:10434000FEF79AF810B1B4480CF062FB02F01CF8CA
:104350000122B2490DF61C1003F0DEF80DF61C1018
:1043600003F0B4FA70B3002400E03C46671CFFB2CF
:10437000791E0DF6141303EBC1010DF61C1003F0AA
:10438000C5FA0DF61C1003F0ABFA0028EDD1D7B139
:104390003946A3480CF0ECFA0DF613150DF61B1870
:1043A000A04E15F8011F30460CF0E2FA4545F8D151
:1043B0000A200CF0F1FA0DF61415013405EBC404D3
:1043C0000C2604E0002798480CF022FB08E0324657
:1043D00029460DF61C10FCF7AFF90835A542F6D1B9
:1043E0000DF61C10FCF710F90DF61C10FCF708FA7E
:1043F0000028F9D06FB30DF614160DF511640025E1
:10440000DFF874A2DFF87492DFF874822246314636
:104410000DF61C10FCF706F990B120680BF0D2FAEB
:1044200002460B46294648460CF0A2FA20680BF0DB
:10443000C9FA02460B4641467C480CF077FB02E085
:1044400050460CF0E5FA013508360434EBB2BB42B5
:10445000DCD3FEF7CDFBFEF7DFFB75480CF0D8FA96
:10446000012006F0F7F9734B399303F109433893B0
:104470006FF07F43379337AB38AA39A90020FFF795
:1044800017FB20B94FF48052644B1A8303E04FF4BA
:104490008042624B1A83684D4AF6AA262E6050204D
:1044A000FFF78EFB654C19212046FFF7D5FB022153
:1044B00004F16400FFF7E4FB002006F0CBF9604C48
:1044C0000021204606F08AF92378227961795D4837
:1044D0000CF04EFA2E6005AC5B4D0FCD0FC40FCD26
:1044E0000FC40FCD0FC42B6823705848FFF71AFD77
:1044F000044657480CF08CFA0022564B1A605CB9FF
:1045000005AB029350230193D52300935823EB224C
:10451000A8214E48FFF7C6FB01224F494F4808F03B
:1045200017F813224E493AA808F050F844490B7A7C
:10453000CA79087803900879029048790190497AFD
:1045400001F5FA61009147493AA808F049FC3AA8F8
:1045500008F074FB01224449002007F0F9FF4AF6F5
:10456000AA22354B1A60DFF81C81DFF80CB1DFF8A6
:104570000CA1FFF74DFB98F8003013F0030F01D1A9
:1045800006F0A2FB98F8003013F0020F00F0CF8085
:10459000364806F0D3FB0138C0B2FC2800F2C780D1
:1045A00033480CF0E5F931480CF0E2F931480CF0F1
:1045B000DFF90DF61C10FCF727F80DF61C10FCF7C0
:1045C0001FF90028F9D0002F67D00DF614160DF54D
:1045D00011640025DFF8A890224631460DF61C1024
:1045E000FCF720F800284FD020680BF0EBF90246CA
:1045F0000B46294650460CF0BBF920680BF0E2F957
:1046000002460B46494609480CF090FA3FE000BFCD
:10461000C0DC010800140140CCDC0108000C0240A1
:10462000F4DC010814DD01081CDD0108C8A7002026
:1046300060DD0108C0A8007800300040BC00002008
:10464000A8A7002074DD010894DD010874DB0108CF
:10465000C8DD0108A4A70020E0DD01083C9F002080
:10466000E4DD0108F4DD010850E70108B8A70020E7
:1046700024DE010840DE010850DD010834DD0108B8
:1046800048DD01083002012058460CF0C1F901351F
:1046900008360434EBB2BB429ED3274A2749284848
:1046A00006F0CEF900283FD026480CF061F9264CE0
:1046B0000021204606F092F8237AE279234D2178F2
:1046C00003912179029161790191617A01F5FA6191
:1046D00000911F4928460CF029FA28460CF098F959
:1046E0001C480CF095F901221B491C4807F030FFCB
:1046F00013221B493AA807F069FF3D993AA808F030
:10470000B1FA0D4B0193174B00930C4B2A461649F7
:104710003AA808F065FB3AA808F090FA012213497C
:10472000002007F015FF02E011480CF021F94AF6CD
:10473000AA22104B1A601CE798A7002080A700202F
:10474000B8A7002044DE0108A8A70020249F00206D
:1047500060DE01084CE80108E0DD01083C9F002014
:1047600080DE0108C8A7002090DE010850E701089C
:10477000A0DE01080030004008B50120FFF756FA1E
:1047800008BD00BF30B585B00C46032834DC0328D3
:1047900000F24881DFE800F002070C11A44B5B69CE
:1047A000C3F300330DE0A24B5B69C3F3403308E071
:1047B0009F4B5B69C3F3803303E09D4B5B69C3F39D
:1047C000C03363B19B4D0FCD20606160A260E36098
:1047D00007CD20616161A2612B88A3831DE1964D05
:1047E0000FCD20606160A260E36007CD2061616150
:1047F000A2612B78237710E104280BD18F494B78E5
:104800000A78C8780190897800918D4920460CF08B
:104810008DF902E1052806D1884BDA6989492046DD
:104820000CF084F9F9E0062806D1844B9A69854991
:1048300020460CF07BF9F0E0072820D17F4BDB69A4
:104840001BB9814B18680860E7E07C4A92ED067A54
:10485000B8EE477A07EE903AF8EE677AC7EE276A25
:10486000DFED7A7A66EEA77A17EE900A0BF0AAF8D7
:1048700002460B46764920460CF058F9CDE0082850
:1048800007D16E4BD3E90823724920460CF04EF94C
:10489000C3E0092807D1694BD3E90A236D492046B3
:1048A0000CF044F9B9E00A2806D1644B1A6B65494B
:1048B00020460CF03BF9B0E00B2807D15F4BD3E961
:1048C0000E23644920460CF031F9A6E00C2807D1EC
:1048D0005A4BD3E910235F4920460CF027F99CE09E
:1048E0000D280FD155494B790A79487A0390087AF7
:1048F0000290C879019089790091574920460CF0BF
:1049000015F98AE00E280BD14C49CB7B8A7B487C79
:104910000190097C00914A4920460CF007F97CE09F
:104920000F280BD14549CB7A8A7A487B0190097BC5
:104930000091434920460CF0F9F86EE0102810D1A0
:104940003E4B93F84C3023B1444B03CB2060616065
:1049500063E0434B186808609A889B798A808B7162
:104960005BE011280FD1354B93F84D302BB13D4B07
:10497000186808601B790B714FE03B4B18680860A2
:104980001B790B7149E0122808D1384D0FCD2060FA
:104990006160A260E3602B8823823EE0132815D17A
:1049A000334D0021284605F019FF2B7A6A7A2978C1
:1049B00003912979029169790191E979009102F5D0
:1049C000FA622C4920460CF0B1F826E0142809D1EF
:1049D000294D0FCD20606160A260E36003CD2061AE
:1049E00061611AE0152804D1244920460CF036FBF9
:1049F00013E0162804D1224920460CF02FFB0CE0CE
:104A0000172804D11F4920460CF028FB05E0182880
:104A10000AD11D4920460CF021FB20460CF090FBEA
:104A200080B202E0002000E0002005B030BD00BFF1
:104A3000000C0240B0DE0108D0DE0108D096002054
:104A4000F0DE0108FCDE010800DF01080000C842BA
:104A500004DF01080CDF010814DF010834DF01085E
:104A60003CDF010844DF01084CDF010854DF010886
:104A7000A8A7002068DF010888DF010880A70020C0
:104A800098A70020249F0020C8A7002010B584B05C
:104A90009DF818403CB1009313460A4601461A4857
:104AA0000BF066FF06E0009313460A4601461748DE
:104AB0000BF05EFF164CA37962792179607A02903F
:104AC000207A0190E079009012480BF051FF237C8E
:104AD000E27BA17B607C00900F480BF049FF237BB9
:104AE000E27AA17A607B00900C480BF041FF94F8C9
:104AF0004C100B480BF03CFF94F84D1009480BF09C
:104B000037FF04B010BD00BFA0DF0108CCDF0108F3
:104B1000D0960020F0DF010814E001082CE0010825
:104B200044E0010854E0010808B502480BF020FFFA
:104B300008BD00BF8CE0010808B502480BF068FF13
:104B400008BD00BFC8E0010830B59BB004460D4663
:104B500022480BF00DFF01222149224807F0F8FC02
:104B600020B1014620480BF003FF02E01F480BF084
:104B7000FFFE2A461E4901A80BF0D8FF207C032225
:104B800001A91C4B40F6280505FB003007F01EFD6F
:104B9000054688B101A918480BF0EAFE29461748D6
:104BA0000BF0E6FE63691B88A3B901220C490020C3
:104BB00007F0CEFC00200EE001A911480BF0D8FE52
:104BC000227C40F628010B4B01FB0233DB6863605B
:104BD000012000E000201BB030BD00BFD8E001087C
:104BE00050E701083C9F0020F0E0010804E10108C3
:104BF00014E10108D4A700201CE1010830E10108FC
:104C000040E1010870B582B004460E46154600F139
:104C10001A02294610480BF0ABFE247C40F628030C
:104C20000E4A03FB04239A68DB689A420FD001AB5B
:104C30004FF6FF72AA42A8BF2A463146074840F6FF
:104C4000280505FB040007F0D3FD019801E04FF0B3
:104C5000FF3002B070BD00BF54E10108D4A70020AE
:104C600010B50446027C0A4B40F6280000FB0230D7
:104C700007F0E4FF04F11A0106480BF079FE6369BE
:104C80001B8823B901220449002007F061FC10BDF4
:104C9000D4A700207CE1010850E7010808B542686C
:104CA000064B9A4204D106480BF0B2FE002008BD24
:104CB00004480BF0ADFE012008BD00BF540C102EBF
:104CC00090E10108C4E1010808B502480BF0A0FE1C
:104CD00008BD00BFD8E10108C1B20C4B9B8903F4A9
:104CE00000539BB283B1094A138803F080039BB23F
:104CF000002BF9D089B2054B99801A46138803F02E
:104D000080039BB2002BF9D0704700BF0014014014
:104D1000084B00221A701A70012802D0042804D00F
:104D200070470122034B1A7070470522014B1A701D
:104D3000704700BF70380240014B1860704700BFD9
:104D4000800E474210B4244B9B6803F00C03042BE5
:104D500005D0082B06D00BBB204B036020E0204B76
:104D600003601DE01C4B5A685B6803F03F0312F4BC
:104D7000800F194A5268C2F3881214BF18491749A4
:104D8000B1FBF3F303FB02F2134B5B68C3F3014384
:104D900001335B00B2FBF3F3036001E00F4B0360F0
:104DA0000D4CA368C3F303130E49CB5CDAB203685E
:104DB000D3404360A268C2F382228A5CD2B223FA53
:104DC00002F28260A268C2F342328A5CD2B2D3405D
:104DD000C3605DF8044B7047003802400024F400C3
:104DE00000127A003001002000F44073B3F5407FD8
:104DF00009D108498B6823F4F81320F0704222F49B
:104E0000407213438B60034A136FC0F30B001843C7
:104E10001067704700380240014B1860704700BFB0
:104E20003C0E474221B1054B1A6B10431863704783
:104E3000024A136B23EA00001063704700380240F7
:104E400021B1054B1A6C104318647047024A136C69
:104E500023EA0000106470470038024021B1054B7E
:104E60005A6C104358647047024A536C23EA00009E
:104E7000506470470038024021B1054B1A69104355
:104E800018617047024A136923EA000010617047F5
:104E90000038024021B1054B1A6A1043186270476E
:104EA000024A136A23EA0000106270470038024089
:104EB00021B1054B5A6A104358627047024A536A3F
:104EC00023EA000050627047003802404309012B7A
:104ED00002D1074B1B6804E0022B054B0CBF1B6F74
:104EE0005B6F00F01F0023FA00F000F00100704734
:104EF0000038024010B588B0FBF778F9FDF720FBC9
:104F000008F0DAFF2A4BD9789A78120442EA016253
:104F100019780A43597842EA01220792597B1A7B91
:104F2000120442EA0162997A0A43D97A42EA0122DA
:104F30000692597C1A7C120442EA0162997B0A4368
:104F4000DB7B42EA032208AB43F80C2D194C1A4ACA
:104F500002921A4A01920022009206AA07A920464C
:104F600004F0ACF9204604F0CFF9154B1B68112B67
:104F700012D1204694F8353043F0100384F83530D0
:104F800004F0C8F90A48C378827841780078002490
:104F90000094FFF71FF804E0064804F0CDF9FFF78E
:104FA0003FF80849034804F005FA08B010BD00BFF7
:104FB000D096002068F9002015610008795B000890
:104FC000782D00203558000808B5FEF757F908BDC0
:104FD00008B5024800F056FD08BD00BF68F9002082
:104FE00000B583B00190019B114A12689B1AF92BFE
:104FF00004D9019A0E4B1A60FCF79EF8019B0C4AEB
:1050000052689B1A41F28732934204D9019A084BA5
:105010005A6000F0B5FE019B054A92689B1AB3F5F1
:105020007A7F02D3012000F0ABFB03B05DF804FBF4
:10503000682D0020704700BF8388C2889A420DD235
:1050400002899A4204BF0023038103890268D15474
:10505000038901330381C3880133C380704700BFD4
:10506000704700BF03460E4A904209D002F58062A5
:1050700090420AD002F5806290420DD0094800E0CB
:1050800009480A4A934201D108E00948094A934273
:10509000094B08BF184670470848704708487047D2
:1050A000004400404001002050010020005000401A
:1050B00060010020001401407001002090010020D8
:1050C000800100200D4B98420DD003F5806398427B
:1050D0000FD0A3F50063984214BF00230123084AB0
:1050E000904201D107E00223064A904208BF0623FE
:1050F00002E0042300E00523184670470048004002
:10510000005000400014014000B583B058B9072397
:10511000019303230093012300224FF4C0610D4843
:1051200009F00EFB12E001280AD1072301930323A3
:10513000009301230022C021074809F001FB05E08C
:10514000032803D107210548FFF78AFF03B05DF864
:1051500004FB00BF000002400004024000100140B8
:1051600000B583B050B907230193032300930123B3
:1051700000220C210C4809F0E3FA12E001280AD1C0
:105180000723019303230093012300226021074892
:1051900009F0D6FA05E0032803D107210448FFF7F8
:1051A0005FFF03B05DF804FB00000240000C02400A
:1051B0000044004010B582B0044670B90723019343
:1051C00003230093012300224FF4406100F180404B
:1051D00000F5013009F0B4FA1BE001280BD10723D8
:1051E000019303230093012300224FF440610D48F3
:1051F00009F0A6FA13E002280BD107230193032339
:105200000093012300224FF44071074809F098FAF7
:1052100005E0032C03D107210448FFF721FF02B06A
:1052200010BD00BF00080240000C024000480040D2
:1052300000B583B048B908230193032100910123ED
:1052400000220D4809F07CFA13E001280BD1082355
:10525000019303230093012300224FF44061074888
:1052600009F06EFA05E0032803D108210448FFF78E
:10527000F7FE03B05DF804FB0000024000080240A6
:10528000004C004030B583B0B0B908250195032427
:105290000094012300224FF4805100F1804000F57A
:1052A000023009F04DFA01950094012300220421F7
:1052B000054809F045FA05E0032803D10821034811
:1052C000FFF7CEFE03B030BD000C0240005000409E
:1052D00000B583B068B90823019303230093012329
:1052E0000022C02100F1804000F5023009F028FAC8
:1052F00013E001280BD1082301930323009301231A
:1053000000224FF48441064809F01AFA05E0032808
:1053100003D108210348FFF7A3FE03B05DF804FBA7
:1053200000180240001401402DE9F04186B0044607
:10533000884617461E46FFF795FE054602974A4BDC
:105340009C420BD1494A536C43F0100353644046CE
:10535000FFF7DAFE25238DF804301DE0444B9C4214
:105360000BD1424A136C43F4003313644046FFF7F9
:10537000F7FE26238DF804301DE03E4B9C420BD1F6
:105380003A4A136C43F4802313644046FFF712FF3C
:1053900027238DF804301DE0374B9C420BD1334A54
:1053A000136C43F4002313644046FFF741FF34239A
:1053B0008DF804301CE0314B9C420BD12B4A136C0E
:1053C00043F4801313644046FFF75CFF35238DF8E8
:1053D00004300DE02A4B9C420AD1244A536C43F01E
:1053E000200353644046FFF773FF47238DF80430D2
:1053F0002046FCF75DFF01238DF8073006238DF86A
:1054000005302046FFF75EFE8DF8060001A808F083
:1054100035FEADF814600C9BADF812300D9BADF865
:1054200010300E9BADF80E300F9BADF80C30002302
:105430002B7340F6FF730093009B5A1E0092002BC3
:10544000FAD102A92046FCF7B1FFA3899BB243F031
:105450002003A38101232B73A3899BB243F4005340
:10546000A38106B0BDE8F081001001400038024081
:105470000044004000480040004C00400050004004
:105480000014014070B584B004460D4616462C4BFE
:1054900098420AD100230393029301930C220092B5
:1054A00032462748FFF740FF1BE0264B98420AD1BF
:1054B00000230393029301930C2200923246214869
:1054C000FFF732FF1CE0204B98420AD100230393E0
:1054D000029301930C22009232461B48FFF724FFEF
:1054E0001DE01A4B9C420BD10023039302930193BE
:1054F0000C220092324629461448FFF715FF1CE0A3
:10550000134B9C420BD100230393029301930C2273
:105510000092324629460E48FFF706FF0DE00D4B7C
:105520009C420AD100230393029301930C22009220
:10553000324629460748FFF7F7FE04B070BD00BFAA
:10554000001001400044004000480040004C004072
:10555000005000400014014008B5064B1B8803F0C2
:1055600020039BB22BB1034B9988C9B20248FFF7C5
:1055700063FD08BD001001404001002008B5064B46
:105580001B8803F020039BB22BB1034B9988C9B24F
:105590000248FFF751FD08BD0044004050010020C3
:1055A00008B5064B1B8803F020039BB22BB1034BBD
:1055B0009988C9B20248FFF73FFD08BD0048004086
:1055C0006001002008B5064B1B8803F020039BB246
:1055D0002BB1034B9988C9B20248FFF72DFD08BDD6
:1055E000004C00409001002008B5064B1B8803F0DA
:1055F00020039BB22BB1034B9988C9B20248FFF735
:105600001BFD08BD005000408001002008B5064B7E
:105610001B8803F020039BB22BB1034B9988C9B2BE
:105620000248FFF709FD08BD001401407001002089
:1056300030B583B000F0A8FE4B4A536C43F480436E
:105640005364032301930023009302224FF48071DB
:10565000464809F05DF80120FAF7C2FDFEF7B4FCF8
:10566000D0B90B2501950324009400231A46862106
:105670003E4809F065F80195009400231A4632214E
:105680003B4809F05DF80195009400231A464FF459
:105690006051384809F054F8334B1A6B42F00072ED
:1056A0001A631A6B42F000621A631A6B42F080624E
:1056B0001A63FDF747FCFDF757FEFDF75DFE012875
:1056C000FBD02D4C2046FDF749FC01252560002329
:1056D000E3614FF40072A262E362A3636364E36474
:1056E000236563654FF480626262C4F880304FF0D6
:1056F0000072C4F884204FF40011C4F88C10C4F870
:105700009430C4F898300423C4F8A030C4F8A4201E
:105710004FF48033C4F8A8304FF48003C4F8AC30A1
:105720004FF40053C4F8B0304FF48043C4F8B8309D
:1057300029462046FDF7F8FE104B186029462846FA
:10574000FDF798FE00F0040080B220B10B4A136808
:1057500043F0100313600120FEF738FC074B186874
:10576000C0B203B030BD00BF0038024000000240AC
:10577000000802400004024064FA0020782D002056
:1057800010B501210846FDF775FE00F0040080B257
:1057900090B10C4B1B799BB90B4803F0DDFD012246
:1057A000084B1A7110BD074C01236371064803F0C2
:1057B000F3FD0023237110BD024B1B79002BF2D1A6
:1057C00010BD00BF782D002068F9002010B50C46F0
:1057D00010210120FDF74EFE00F004039BB21BB127
:1057E0004FF40063236201E00023236200F0020013
:1057F00080B210B10023636102E04FF48043636123
:105800000B4B002283F84C2083F84D206369B3F5DD
:10581000804F03D10122064B83F84C20236AB3F555
:10582000006F03D10122024B83F84D2010BD00BF51
:10583000D096002030B585B00023039390F8353022
:1058400013F0100F71D03D4B1B68002B38D0002196
:1058500003914FF480520120FDF738FE0124384DAA
:10586000039B0133039321462046FDF703FE00F01E
:10587000200080B210B9039BAB42F1D900230393FF
:105880002E4C21460120FFF7A1FF2E490A686369CB
:105890001A43236A13430B602B4B1B682B4A126875
:1058A0002B498A4202D02B498A4202D1264A1268E9
:1058B0009B1A013BB3F1FF3FFBD1224B1A681A60E0
:1058C000FDF7B8FD244BD87899780A0442EA0061C4
:1058D0001A780A43597842EA01220292587B197BCE
:1058E0000A0442EA00619A7A0A43D97A42EA01221A
:1058F0000192587C197C0A0442EA00619A7B0A43AF
:10590000DB7B42EA032204AB43F8102D134C01AABF
:1059100002A9204603F0C0FC204603F0FBFCFEF782
:1059200071FB00220E4B5A7106E0FDF793FD0B4808
:1059300003F002FDFEF774FB05B030BD64FA0020F1
:10594000FEFF03000080024020FB0020B801002081
:105950000095BA0A00E1F505D096002068F900200C
:10596000782D0020030A43EA002080B2704700BF70
:10597000030A43EA002080B2704700BF030E43EAE7
:105980000062030203F47F031343000A00F47F4024
:105990001843704708B5FFF7F1FF08BD2DE9F04F38
:1059A00083B0364B1D68AB680193002946D08B4607
:1059B0002B68002B49DB0024A24640F2F45702E09A
:1059C0002B68002B43DBBBF80A301E19BE421FD9DF
:1059D0004FF00008C4EB0709DBF804104A464144C5
:1059E000019B234418460AF0D7FEED682B68002B74
:1059F0002FDBAB680193A6F2F456C8444C465444DE
:105A00001FFA84FA0024BE42E4D83446002004E0A1
:105A1000204634461E464FF00008DBF8041032469C
:105A20004144019B18440AF0B7FE56441FFA86FA17
:105A3000DBF800B0BBF1000FC2D101E04FF0000A6B
:105A40005046FDF773FB002004E0FE2002E0FE203C
:105A500000E0F82041F21403094AD35813F0200F54
:105A600008D01346202141F214029950002141F23E
:105A70000402995040B203B0BDE8F08F20660020C8
:105A8000008002402DE9F04F87B0019003A8FDF798
:105A900035FBDDF814B0DDF810800322BDF80C10E2
:105AA000104602F003F8009068B382465E4600217B
:105AB00040F2F45900E02146BAF80A2054184C4547
:105AC00015D900254346C1EB0907DAF804003A4628
:105AD000194428440AF060FEF668B368A4F2F4544E
