:020000040800F2
:10000000388A0120F9340008F5340008F534000876
:10001000F5340008F5340008F5340008000000004D
:10002000000000000000000000000000F53400089F
:10003000F534000800000000F5340008398D000890
:10004000F5340008F5340008F53400088DE30008A5
:10005000F5340008F5340008F5E30008F53400082D
:10006000F5340008CD8B0008F5340008F53400089D
:10007000F5340008F5340008F5340008F5340008BC
:10008000F5340008F5340008F5340008F5340008AC
:10009000F5340008F5340008F5340008F53400089C
:1000A000F5340008F5340008F5340008F53400088C
:1000B000F5340008F5340008F5340008F53400087C
:1000C000F5340008F5340008F5340008F53400086C
:1000D000F53400082563000861630008AD6300087B
:1000E000F5340008B5E30008F5340008F5340008DD
:1000F000F5340008F5340008F5340008F53400083C
:10010000F534000815AD0008F5340008F534000892
:10011000F963000835640008F5340008F534000878
:10012000F5340008F5340008F5340008C5AD0008C2
:10013000F5340008F5340008F5340008F5340008FB
:10014000F5340008F5340008F5340008F5340008EB
:10015000F5340008F5340008F5340008716400082F
:10016000F5340008F5340008F5340008F5340008CB
:10017000F5340008F5340008F5340008F5340008BB
:10018000F5340008F5340008F5340008F5340008AB
:10019000F5340008F5340008F5340008F53400089B
:1001A000F5340008F5340008F534000801207047E4
:1001B00001F0FC0303F1804303F59C3301F00301DC
:1001C00010B489009C680F228A4024EA02029A60D7
:1001D0009A685DF8044B884010439860704700BFF0
:1001E000014B1860704700BFDC0027420A4B0B49E7
:1001F00030B423F0030303F520524FF420500024C1
:1002000001255C801C71188015714A601080508037
:100210000B608B6030BC7047473B0020500B0020C8
:1002200000283AD01D4A1368984236D3F0B5556875
:10023000A84231D2976830F8086CA0F10801002478
:10024000B94200F8044C03EB06043CBF91600F4632
:10025000A14210D094F804E0BEF1000F0BD1A542EA
:1002600009D0268820F8086CBC42248808BF916019
:100270001C44CD1A658030F8064C1D19A9420BD0DC
:100280002F794FB992681E53914230F8082C034FD2
:10029000134408BFBD605C80F0BD7047500B002068
:1002A00003314FF6FC730B400B2BF0B537D9B3F588
:1002B000205F32D8264D2C6884422FD86A6890423D
:1002C0002CD2A0F1080230F8087C121B92B2A7F1E0
:1002D0000801891A89B299421FD31FD004EB070E77
:1002E0009EF80460EEB103F114068E4216D802F1B6
:1002F00008010B449BB2AE68E118B14238BFA96057
:1003000000250D71E7524A8020F8083CE25AB2F508
:10031000205F03D014446380F0BD0020F0BD0C23A7
:10032000C8E702F10806A968E75B33449BB28E4533
:1003300004EB030108BFA96000250F804A800D71FE
:1003400020F8083C0A88B2F5205FE3D1E6E700BF59
:10035000500B0020002847D0F0B503304FF6FC7456
:1003600004400B2C1DD9B4F5205F18D8C4F52051DA
:10037000DFF89CE0DEF80870DEF800507B1B9BB2D3
:100380008B420CDAE81806797EB935F803C0ACF177
:100390000802D21AA2420AD263468B42F2DB002044
:1003A000F0BD42F2F4710C24E2E7EB5AE8E704F105
:1003B00014018A4205D201230371874215D0083007
:1003C000F0BD04F108021A4492B2A91801240E717A
:1003D00025F802C04B8002800471AB5AB3F5205F50
:1003E000EBD02B445A80E8E770473B796BB1DEF8DD
:1003F000042003E03F882F443B7923B19742F9D191
:10040000CEF80820DBE73A46FAE70246F8E700BFF5
:10041000500B002038B50F4C2379082B054608BF38
:10042000C5B202210C4812F09FFD0028F9D02946E0
:10043000094812F097FD0121074812F095FD0028A8
:10044000F9D0054812F08AFD2379082B08BFC0B205
:1004500038BD00BF00000020003800402DE9F04307
:10046000DFF8E080364FDFF8E09089B001214FF4EB
:10047000804005F0F1FB00244FF400720823404651
:1004800003A94FF48275ADF81620ADF81830ADF819
:100490000E50ADF80C40ADF81040ADF81240ADF87C
:1004A0001440ADF81A4012F02BFD0121062005F092
:1004B000C5FB0225384601A90C2301938DF80A409B
:1004C0008DF80B408DF808508DF809500CF0F2FCB7
:1004D0004FF4806301A94846019301268DF8085026
:1004E0008DF809508DF80A408DF80B400CF0E2FCB5
:1004F00001A938468DF80A408DF8095001968DF80B
:1005000008608DF80B600CF0D5FC484605220A21E6
:100510000CF02CFD2946384605220CF027FD05225B
:10052000384603210CF022FD314638460CF01AFD06
:100530003146404612F004FD09B0BDE8F08300BF2B
:100540000008024000380040000402400C4B0D4AF5
:100550001B68A2FB0323DB0A013BB3F1807F0DD2B2
:10056000094A0A4810B4F0245360002180F823405F
:10057000072391605DF8044B13607047FEE700BFEE
:1005800034020020C5B3A29110E000E000ED00E0CD
:10059000034B1A6812B11A68013A1A60704700BF1B
:1005A000600B002082B000230193019B80009842E1
:1005B00005D9019B01330193019B8342F9D302B01A
:1005C000704700BF10F1FF30054A4FF0010106D31C
:1005D00011601368002BFCD110F1FF30F8D2704786
:1005E000600B002000BF00BF00BF00BF00BF00BF06
:1005F00000BF00BF704700BF10B5114C82B0E522AC
:10060000204680210AF0CEF81420FFF7DBFF2046B9
:10061000032301AA80210AF04FF8BDF804309FEDB2
:10062000097A5BBA23F003031B041B0C07EE903A14
:10063000FAEEC87AB9EE080AA7EE870A02B010BD32
:10064000005400400000FA4210B51B4C82B0E32277
:10065000204680210AF0A6F81420FFF7B3FF01AA74
:100660002046032380210AF027F8BDF8040040BA91
:1006700020F003000004000C07EE900AFAEEC87A9E
:1006800017EE900A15F0FAFD07A3D3E9002315F041
:1006900049FE07A3D3E9002315F090FC16F074F887
:1006A00000EE100A02B010BDD7A3703D0AF76540F6
:1006B000CDCCCCCCCC6C47400054004008B50121D7
:1006C0004FF4006005F000FB00214FF40060BDE82E
:1006D000084005F0F9BA00BFF0B583680B4F4668D3
:1006E000C56804687A68016990F814E043EA060076
:1006F000284322F4FD43204340EA010223F07F0314
:1007000013434EEA03037B60F0BD00BF002C0140A1
:10071000014B1860704700BFA0802542014B186054
:10072000704700BF002C0140024B186800F0030026
:10073000704700BF002C01400A49036830B48B6049
:1007400083684468C568CA6800691C432C4322F466
:10075000FF6323F0070344EA00021343CB6030BC7D
:10076000704700BF002C0140014B1869C0B27047B0
:10077000002C0140044B82B00344002201920193FB
:10078000019B186802B07047142C0140094A0368A5
:1007900030B45362436893628568C1680469D36A60
:1007A000406929432143014323F0F7030B43D362FC
:1007B00030BC7047002C0140014BD3F880007047DB
:1007C000002C0140014B1860704700BF8C8525420A
:1007D000034B5B6B184214BF01200020704700BF21
:1007E000002C0140034B5B6B034214BF012000202F
:1007F000704700BF002C0140014B9863704700BF59
:10080000002C01406FF00900704700BFF8B5037E6F
:10081000002B58D1002A2DD02C4E06F1100756F887
:10082000043B1B687BB111B920E0DB685BB15C8BDA
:100830009442FAD11C681CB10D680DB1AC42F4D1E0
:10084000F82040B2F8BDBE42E9D111B10B6803B146
:1008500003601F4B42831A68C260186005F0DEFA1D
:10086000002040B2F8BDDB68002BECD05C8B9442DA
:10087000F9D1E5E7DFF85CE0BEF800304FF48046E0
:100880004FF6FF77BB42114D1ABF5A1C92B24FF47C
:10089000404205F1100C55F8043B1B6813B90DE0FC
:1008A000DB685BB15C8B9442FAD1013EB6B2134671
:1008B000002EE7D1AEF80020FE20C2E76545EAD160
:1008C000AEF80020A8E7FA20BBE700BFC42D02085D
:1008D0006C6300200C00002038B5037E002B3CD157
:1008E0000446032002F078F80546002835D0236935
:1008F000628B0361012342830376637E4376237A0E
:1009000043F002030372A37A8372637A4372638BA8
:10091000226802609BB1174B1A68944227D016498F
:100920000A6052B1D3689C421FD02BB1DA6894425E
:1009300015D01346002BF9D10B600023E36021464C
:10094000022002F059F80D4B0D4A1968E9606A61FE
:100950001D6005F063FA284638BD002038BD0B60E5
:10096000E268DA600023E360E9E71346F8E7E2684B
:100970001A60E2E76C630020686300206463002073
:1009800005080008F0B4858D046BC18E866A2B1BA8
:1009900040F2B457B942024603EB060094BF431A33
:1009A000C31B002B02DBD585F0BC7047331B002B2B
:1009B00004DD00231846D385F0BC7047A41BD48502
:1009C0000020F0BC704700BF838D194440F66832A8
:1009D00089B29142F0B420D881850B46866A046BB7
:1009E000C28E40F2B457351BBA422B4494BF9A1AB8
:1009F000DA1B002A0BDB40F2D9229342C1850ADDC3
:100A0000837F43F002038377F0BC14F0C1BF002D55
:100A100007DD0024C485F0BC70471346828511466B
:100A2000DCE7A41BA4B2F5E72DE9F843047E002C13
:100A300040F0A580002900F0A480994603680F4685
:100A400009684160054682833BB9043012F0E0F842
:100A5000002800F0988043682B60B5F81A804B4955
:100A6000B8F1000F23D108884FF480434FF6FF7C84
:100A70006045474E1ABF013080B24FF4404006F146
:100A8000100E56F8042B126812B90CE0D26852B15D
:100A9000548B8442FAD1013B9BB2002BE8D10880F1
:100AA0006B83FE2053E07645EBD108806883394B99
:100AB0004A681B6813445A1E0024AA64EA65AC62A3
:100AC00040F668322C634FF4067438462B65AA85CD
:100AD000EA85A5F86020EC864B6012F099F810B119
:100AE000838D002B36D1234641F2F0420121A5F837
:100AF0004C10EB86A5F84E20C5F8809002212846C0
:100B000014F054FE18BB02232B76B8F1000F11D05D
:100B1000214B1A6895422FD020490A6052B1D36800
:100B20009D4227D02BB1DA6895421FD01346002B87
:100B3000F9D10B601A4B1A68EA601D6005F06EF976
:100B4000184B012228461A7014F022FF002040B2F0
:100B5000BDE8F883283B9BB2B3F5067F28BF4FF46E
:100B6000067303EB8302520092B2BFE70B60EA68A0
:100B7000DA60DFE71346FAE7EA681A60DAE7F72097
:100B8000E5E7FA20E3E7FC20E1E700BF0C000020E6
:100B9000C42D0208606300206C630020686300209D
:100BA0005C630020586300202DE9F04FA04FA14E58
:100BB0003A683378DFF894920132013385B03A60B5
:100BC00033709D4B1C68002C79D04FF000083278B0
:100BD00094F82130934200F06781237E84F821202D
:100BE000022B94F8461000F09F810C2900F0B78189
:100BF00094F89100002800F05C81904994F89020CE
:100C000001440132C97BD2B2914284F8902000F2B3
:100C1000888106284FF0000398BF013084F8903097
:100C200098BF84F89100204615F012F9237E002524
:100C30000122062B00F00C81227A120740F1A580D8
:100C4000042B02D0072B40F0A080D4F88CE03A6847
:100C500003920EF524207A4A616A00F6B840A2FB9E
:100C60000020039A521AB2EB501F7AD9012B4FF091
:100C7000010A00F26381E368B8F1000F00F0C78059
:100C8000C8F80C30BAF1000F40F0C780D4F8885093
:100C9000D4F810B0D4F80CA02146022001F0ACFE2C
:100CA000002389F800303DB158466FF00901A8478C
:100CB00099F80030002B84D15446002C87D1614E26
:100CC0003468002C4AD000254FF6FF78A9463B68CF
:100CD000626A9B1AF02B40F23C81237E012B2ED9B5
:100CE0000A2B2CD0606F18B109F0B8FB00236367A2
:100CF000E56EA4F834806DB16B68D5F800A0184695
:100D00000BB109F0ABFB29460420554601F074FEF7
:100D1000002DF1D1256F6DB16B68D5F800A0184694
:100D20000BB109F09BFB29460420554601F064FEF7
:100D3000002DF1D10023E3662367A4F86A30B9F1EE
:100D4000000F00F02081E368C9F80C30E568214607
:100D500002202C4601F050FE002CB8D105B0BDE8B1
:100D6000F08F394894F8921000FB01E13448A0FB61
:100D70000101B2EB511F08D9204615F029F894F86B
:100D80009220237E013284F89220032B00F0DA8037
:100D9000092B40F0E7803B68626A9B1AF02B60D910
:100DA0004FF0000A606F18B109F058FB0023636729
:100DB000E56E4FF6FF73A386A3466DB16B682C6892
:100DC00018460BB109F04AFB2946042001F014FE35
:100DD0002546002CF2D15C46256FA3466DB16B68A9
:100DE0002C6818460BB109F039FB2946042001F0A4
:100DF00003FE2546002CF2D15C460023E366236700
:100E0000A4F86A30E368B8F1000F7FF439AF0A4AFA
:100E10001360BAF1000F3FF439AFA38BA16A206DC4
:100E20000193638B00932246231D14F0FFFE2DE7F0
:100E300060630020680B00205C630020C42D020862
:100E4000D34D621070630020F82401005863002025
:100E5000A37FD90605D53B68616A5B1A282B88BF3A
:100E60001546002D9CD1E37F94F82020E5680133DE
:100E7000DBB29A42E37711D8D4F884200023E377D9
:100E800089F80030002A73D021462069904799F8EC
:100E90000030002B7FF495AE002869D0A0462C4688
:100EA000002C7FF494AE0AE7E468002C7FF48FAE48
:100EB00005E7A28E100402D4013292B2A286256FF9
:100EC000002D5ED0B4F9440012B2904229DC022B0E
:100ED0000BD02E4BB4F942201944B4F94030097EAE
:100EE00002EBE3038B40A4F84430B4F84C30B4F880
:100EF0006010E28EA4F84C208B4228BF0B465B08A2
:100F000051008B424FF00000A4F84E30A086B8BFCD
:100F1000A4F84E10204614F0CFFE0025237E0122B7
:100F200087E60122002584E6062902D00C297FF4F9
:100F30005FAE4FF0000A012B7FF69DAE0A2B7FF4C7
:100F400031AF98E63B68626A9B1A282B3FF628AFC0
:100F500087E7A146E468002C7FF4B9AEFEE60222E2
:100F6000012566E6002D3FF47EAF4FF0000AE2E770
:100F70002046A0462C4614F00BFD002C7FF427AE33
:100F80009DE6012255E6E5683560E0E6C42D0208DD
:100F900078B138B504466368256818460BB109F086
:100FA0005DFA2146042001F027FD2C46002DF2D1E8
:100FB00038BD704758B110B50446406808B109F013
:100FC0004DFA21460420BDE8104001F015BD7047E0
:100FD0004176704701617047C1677047816770470C
:100FE000C0F88810704700BF41617047C0F8841096
:100FF00080F82020704700BF037E012B30D90A2BD8
:101000002ED070B50646406F18B109F027FA0023BC
:101010007367F46E4FF6FF73B38664B16368256837
:1010200018460BB109F01AFA2146042001F0E4FC3D
:101030002C46002DF2D1346F64B1636825681846E0
:101040000BB109F00BFA2146042001F0D5FC2C4627
:10105000002DF2D10023F3663367A6F86A3070BD25
:10106000704700BF02688A4270B50C4659D02F49BC
:101070000A6052B1D3689C4256D02BB1DA689442D0
:101080004BD01346002BF9D10B60237E0025E56081
:10109000002B33D00A2B34D0012B32D0606F10B12B
:1010A00009F0DCF96567E56E4FF6FF73A38665B15D
:1010B0006B682E6818460BB109F0D0F92946042058
:1010C00001F09AFC3546002EF2D1256F65B16B68B0
:1010D0002E6818460BB109F0C1F92946042001F029
:1010E0008BFC3546002EF2D1227E00230A2AE366CD
:1010F0002367A4F86A3004D0012A02D0A37FDA075C
:1011000002D40023237670BD43F00203A377204668
:1011100014F03EFC0023237670BD0B60E268DA60B9
:10112000B3E7CB680360B0E71346F7E768630020D6
:1011300070B5037E82B0044619B1042B1ED0072B74
:101140001CD0072B0ED8DFE803F0768A6A11110D48
:101150000D04204614F04AF828B9092323762046C6
:1011600014F016FC002040B202B070BD204614F00E
:101170003DF80028F7D105232376F0E7626F002AB7
:1011800076D0A28B638BA16A206D019200932246D8
:10119000231D14F04BFD217E01292ED90A292CD0C4
:1011A000606F18B109F05AF900236367E56E4FF6D6
:1011B000FF73A38665B16B682E6818460BB109F002
:1011C0004DF92946042001F017FC3546002EF2D1D6
:1011D000256F65B16B682E6818460BB109F03EF9B2
:1011E0002946042001F008FC3546002EF2D10023E8
:1011F000217EE3662367A4F86A303A4B1A6894426A
:1012000063D039480260002A3BD0D3689C425FD04B
:10121000002B4ED0DA68944230D01346F8E72146CE
:101220003048FFF71FFF314B0122214602201A7080
:1012300001F0E2FB96E7638B002B35D02C4B1A684C
:1012400094422DD02848026062B3D3689C4241D0BA
:10125000002B43D0DA68944242D01346F8E7214687
:101260002448FFF7FFFE2146032001F0C5FB79E784
:10127000A18D40F66832914283D162E70360E26853
:10128000DA601A4B0122002504291A70E56012D099
:101290002146022001F0B0FB284640B202B070BDEA
:1012A000E2681A600023E3602146022001F0A4FBFB
:1012B00058E70360E5E7104B0A221968E1602276DF
:1012C0001C6004F0ABFD28464DE7E2681A60D8E7E1
:1012D0001346D4E71346E268DA60E3E70360E1E728
:1012E0000360F8E75C630020686300205863002017
:1012F0006C6300206463002070630020F8B572B353
:1013000010898B8D03449BB240F66830834222D80B
:101310008B851C46D1F828E0CD8E16460A6BC2EBB1
:101320000E070846E11940F2B454A54294BF4C1B85
:101330000C1B002C22DB40F2D9229142C38505DD33
:10134000837F43F00203837714F022FB304609F0D9
:1013500085F80020F8BD044688850346DAE7002BAF
:10136000F7D10B7E012B03D08B7F43F010038B77DB
:101370000846BDE8F8400121FFF7DABE002F02DD84
:101380000022C285E2E7CEEB020292B2F9E700BF8B
:101390002DE9F041466FC76F96F80D800025044691
:1013A00045675FB101462B4632460069B84760B3D6
:1013B0000A3045D0666768B2BDE8F081828D338916
:1013C00013449BB240F668318B4235D883851A4668
:1013D000A76A206BE18E40F2B45E3D1A71452A4443
:1013E00094BF511ACEEB020100292BDB40F2D92128
:1013F0008A42E38506DDA37F43F00203A3772046FC
:1014000014F0C6FA304609F029F818F0200F0FD072
:10141000A38DE56F40F6683293421CBF0133A3856C
:1014200035B100231A4621462069A8470A3007D063
:10143000002568B2BDE8F0810A4681850B46C7E702
:10144000F625B8E7002D02DD0023E385DAE7C31BAC
:101450009BB2FAE72DE9F0411C4DDFF878802B783C
:101460001B4E01332B700027D8F800402CB12B788D
:1014700094F821209A4208D1FEE76B780133DBB261
:101480006B70DB0712D4BDE8F081A27F84F82130B5
:10149000D1070FD4636F2046E468002BE6D0377085
:1014A000FFF776FF3378002BE0D0DDE7BDE8F041B1
:1014B000FFF77ABB42F00202A277204614F068FAE6
:1014C000A37F23F00303A377E4E700BF680B0020AA
:1014D000586300205C6300202DE9F04F037E0A2B47
:1014E00083B0054650D00F4601462D48D5F85090A0
:1014F000D5F828A0D5F88860D5F81080FFF7B2FDA0
:10150000284B2C6F01221A706CB16368D4F800B0BC
:1015100018460BB108F0A2FF214604205C4601F0FA
:101520006BFA002CF1D1EC6E6CB16368D4F800B0AA
:1015300018460BB108F092FF214604205C4601F0EA
:101540005BFA002CF1D167B92946022001F054FA68
:10155000BEB140466FF00901334603B0BDE8F04F1D
:101560001847AA8B6B8B00930192514648462B1D5E
:101570002A4614F05BFB2946022001F03DFA002EBA
:10158000E7D103B0BDE8F08F01460748FFF76AFDD9
:101590002946022003B0BDE8F04F01F02DBA00BF8C
:1015A0005C63002058630020706300200121FFF776
:1015B00093BF00BFF8B50546022001F00DFA0446BE
:1015C00000283ED094220021204615F02BFE3A49F7
:1015D0003A4B3B481A684B6807786576134441F2EA
:1015E000D065626200224B60364E3748A36540F6F4
:1015F00068312365A364E3654FF0FF0E062384F88A
:101600002170A4F866504FF40677A4F8682062723F
:10161000A4F84020E27784F892204FF6FF7501226B
:10162000A185E18584F80AE0E786A4F84430A4F8AF
:101630004230A586A4F84C20E667C4F88C0020460A
:10164000F8BD224B186888B11C4B416A1C680346E0
:10165000611A05E05A6AA21A8A4224BF1146184646
:10166000DB68002BF6D10121FFF736FF022001F0E5
:10167000B3F904460028A5D1154B1B68ABB10F4A3E
:1016800017687F265A7E954208D3B24206D8596A17
:10169000791AA14202D316460C461846DB68002B85
:1016A000F0D110B10121FFF717FF022001F094F9EA
:1016B00004460028C3D085E70C00002060630020AA
:1016C000680B0020FD12000800DD6D007063002033
:1016D0005C630020F8B5022001F07EF90446002882
:1016E00040D094220021204615F09CFD3B4A3C4B03
:1016F0003C481968536890F800E03B4D3B486162F4
:101700000B44402741F2D0665360002240F6683116
:10171000A3652365A364E36584F821E006234FF005
:10172000FF0E6776A4F866604FF40677A4F8682089
:101730006272A4F84020E27784F892204FF6FF7698
:101740000122A185E18584F80AE0E786A4F8443007
:10175000A4F84230A686A4F84C20E567C4F88C00B3
:101760002046F8BD224B186888B11D4B416A1C68A1
:101770000346611A05E05A6AA21A8A4224BF11463A
:101780001846DB68002BF6D10121FFF7A5FE0220E9
:1017900001F022F904460028A3D1164B1B68ABB117
:1017A0000F4A16687F255A7E402A08D8AA4206D8D2
:1017B000596A711AA14202D315460C461846DB68D5
:1017C000002BF0D110B10121FFF786FE022001F0BD
:1017D00003F904460028C3D083E700BF0C000020B3
:1017E00060630020680B0020FD12000800DD6D0022
:1017F000706300205C63002070B5037E012B82B013
:10180000044600F0AF80827F042B42F01002827702
:1018100009D0072B07D0072B6FD8DFE803F0866EBF
:101820007265656E6E7E626F002A00F0A880A28BE2
:10183000638BA16A206D019200932246231D14F050
:10184000F5F9217E01292ED90A292CD0606F18B113
:1018500008F004FE00236367E56E4FF6FF73A3866E
:1018600065B16B682E6818460BB108F0F7FD294684
:10187000042001F0C1F83546002EF2D1256F65B184
:101880006B682E6818460BB108F0E8FD2946042065
:1018900001F0B2F83546002EF2D10023217EE36636
:1018A0002367A4F86A30454B1A6894427AD04448BA
:1018B000026052B1D3689C4277D02BB1DA6894426F
:1018C00059D01346002BF9D103603E4B012200256D
:1018D00004291A70E56059D02146022001F08CF8E5
:1018E000284640B202B070BD204613F07FFC28B9F4
:1018F00005232376204614F04BF8002040B202B0B6
:1019000070BD21462D48FFF7ADFB2E4B012221462D
:1019100002201A7001F070F8EFE7204613F066FC21
:101920000028EBD109232376E4E7638BABB1264B88
:101930001A6894423FD02248026062B1D3689C4248
:1019400006D0002B33D0DA68944232D01346F8E741
:101950001346E268DA600023E3602146022001F0CA
:101960004BF8CAE701461948FFF77CFB21460320E4
:1019700001F042F8C1E70360E268DA60A5E7A18DF3
:1019800040F6683291427FF452AF44E7104B0A228E
:101990001968E16022761C6004F040FA284640B2E3
:1019A00002B070BDE2681A608FE71346E4E7036097
:1019B000D1E70360CDE7E2681A60CCE75C63002002
:1019C00068630020586300206C630020646300207B
:1019D0007063002010B50446084611F019F930B1C3
:1019E000838D23B1283B9BB29C4228BF1C462046D6
:1019F00010BD00BF2DE9F843BC4F3B78DD0604461F
:101A000040F19080436D7A68B0F86050806D991A0B
:101A10000029C0F2BE809342BB6800F0608198420A
:101A200000F0688129468646A66C9A1B002A40F37E
:101A30003E81216D591A002940F3C7800023A4F884
:101A40006430E36E002B44D0DFF8A0820DE06868BC
:101A500008F032FDB4F86830181AA4F86800284677
:101A6000FFF7A8FAE36E002B33D0DB68BD68586837
:101A700004F032FFE36EDA681E898146908904F033
:101A800025FF10F0030018BF0120C9EB050506442F
:101A9000AD1B002D1DDBD8F80830226D9B1A002BE2
:101AA00017DCE56E2B68E366002B6FD0686808F0E2
:101AB00003FDB4F86430002BC9D0EB68988904F0BA
:101AC00005FFC307C3D5B4F86430013BA4F8643004
:101AD000BDE7A36B33B3E26BB968521A002A21DA6F
:101AE0008349B4F84020086842F3CC01C31A591A5C
:101AF00089B28B188AB2160444BF49428AB2B4F83C
:101B0000421041F38D00091A9BB20A4492B2A4F824
:101B1000403043F3CC0313440021A4F84430A4F82C
:101B20004220A1633B8A714A13B1217E062912D952
:101B30007B68A16A5A1A002A05DB5A1CA08D531A29
:101B40001B1A002B05DDA37F43F00203A377BDE83A
:101B5000F883BDE8F883A16A50680E1A012E05D4F7
:101B60004D1C2D1AEB1A002B40F3D780431A002B83
:101B70005FDBA38DC3F1010303445B1A002B40F329
:101B8000C8802046BDE8F84313F0BABEA4F86A3016
:101B90008CE7F968BB68C989B4F8626062658E42F7
:101BA000A4F8601038BFA4F86210A36594F89120DF
:101BB000002940F08D80002A40F08880012284F8BE
:101BC000901084F891209E462EE7A17F480706D505
:101BD00021F00401B4F84E00A177A4F84C00B4F849
:101BE0006600B4F84210B4F94060257EA36492B256
:101BF00001EBE60310440021032DA4F86420A4F8AF
:101C00006600A4F8443084F8461084F847102BD9B5
:101C1000B4F84C20B4F84E309342E38E9CBF5B4343
:101C200093FBF2F313449BB29A421DD2A4F84C30BA
:101C30001AE0A37F43F00203A377A2E7EB68988939
:101C400004F044FEC20704D5B4F86430013BA4F8A4
:101C50006430686808F030FCB4F86830181AA4F8EA
:101C600068002846FFF7A6F9236F002B49D0DB68F0
:101C7000586804F031FE236FDA681E8905469089A2
:101C800004F024FEBB6810F0030018BF01200644D6
:101C9000ED1A3544002D33DC256F2B682367686807
:101CA00008F00AFCB4F86430002BD2D0C6E73A8AB8
:101CB0004FF0000CA4F864C022B928447144884253
:101CC00000F08A80002384F84730BAE69E46ABE6EF
:101CD000002AFBD0002284F891209E46A4E6C11A77
:101CE0000029BFF69CAEF968C98955E76C0B002046
:101CF00060630020FB68D9898D4269D203464BE7B7
:101D0000236FB3FA83F35B095B420022A386E27779
:101D100097E681427FF435AF22E09069428996428E
:101D2000334677DD0189891B89B200254581018110
:101D300000689B1A42899A42F8DB594209B208F0BE
:101D400057FB7D68BB8BA28DA06A396A78602B44F3
:101D5000C2F101021B1A002ABB8348603FF711AF92
:101D60003B6ABD8B98894A4E04F0B0FD10F0030029
:101D700018BF01202B18A28D9BB293423B824ED8F4
:101D80007968434DD21A0B44A285A3622046FEF720
:101D9000F9FDBB691A8912B100226B62AA613B6A24
:101DA0003B4D988904F092FDC10705D595F8283080
:101DB00043F0200385F82830A37FDA0746BF23F0DD
:101DC000010343F0020343F00103A377BDE8F88366
:101DD00029468646034627E6B4F934206245FFF6D5
:101DE00071AF9E427FF46EAF94F84720531CDBB274
:101DF0009A423CBF1A4684F84730032A41D9B4F8C6
:101E00004C20E38E13449BB29A42BFF41AAEA4F85E
:101E10004C3016E6714209B208F0EAFA91E7336AEB
:101E2000988904F053FDC5071DD4A28D3B6ABA837F
:101E30009889174D04F04AFD8007A98B02D5013916
:101E400089B2A983B86908F089FA3B6ABD8B988981
:101E500004F03CFD10F0030018BF01202B189BB2CA
:101E6000A28D3B828CE7366AB589284604F02EFDA8
:101E700000F03E0004F026FD25F47C552843B08197
:101E8000D3E77FF4DEAD204613F058FFD9E500BF5D
:101E90006C0B0020F8B5224CE5680646A88904F0D2
:101EA00015FDC0F30F30052800D8F8BDE368988908
:101EB00004F00CFD000B0538800080B20028F4D03F
:101EC00005F11402002340F2B357D15C012940F21E
:101ED000B4551BD0E9D302291BD1D4186178042949
:101EE000E3D1D91C8142E0DA94F802E0E17841EADA
:101EF0000E214C1EA4B20433BC4288BF29469BB2BB
:101F000031809842D1D9D15C0129E3D101339BB210
:101F1000F7E7D11849780029C7D00B449BB2F0E706
:101F20006C0B00202DE9F04F4368A24D1A7802F0A7
:101F30000F02960087B0884603EB82037142044685
:101F4000EB6008F055FA10B92389132B05D8204609
:101F500007B0BDE8F04F08F081BA974F41463868A6
:101F600002F004F80028F2D13B6803F0F003E02B04
:101F7000EDD0EB68988904F0A9FC000BC0EB803031
:101F8000810009B2204608F033FA06460028DED167
:101F9000D5F80C80B8F8000004F098FCD5F80C9047
:101FA000A8F80000B9F8020004F090FCD5F80C8005
:101FB000A9F80200D8F8040004F08EFCD5F80C90C3
:101FC000C8F804006860D9F8080004F085FCD5F86A
:101FD0000C80C9F80800A860B8F80E0004F076FC80
:101FE000EB68A8F80E00988904F070FC5FFA80FE98
:101FF0001EF00303714AB4F80890D2F800C0EA68F2
:1020000018BF01234B449BB20EF03F0805932B826F
:1020100085F80080BCF1000F76D069491388D1F8AB
:1020200000A03968049130460394664604E0F168E4
:102030003046002967D00E46B18B9942F7D1B6F8E9
:102040001AB051888B45F2D171685145EFD134688F
:1020500004998C42EBD1039C28B15849F368C360C2
:102060000E60C6F80CC000231EF0080FA5F81C90E7
:10207000AC612A626B616B6285F8283003D0637BA8
:1020800043F001036373736F5BB13046FFF780F970
:102090000A3071D0736F13B12B8A002B6CD195F875
:1020A0000080484F18F0040F3E6067D0337E022B4B
:1020B00000F058826B68B26A9B1A04D4B28D9B1AE6
:1020C000002B40F3548295F828301C0740F107811B
:1020D000D6F888301BB16FF00A0130699847314655
:1020E0003648FEF7BFFF3146022000F085FCA869A4
:1020F000304E00243C606C6210B108F0AFF9B4615E
:1021000007B0BDE8F08F039C2F4B1868002843D020
:102110002B4B16881968D7F800C002E0C068002869
:102120003AD0838BB342F9D1438BB2F80280984501
:10213000F4D143688B42F1D103686345EED11EF0C0
:10214000040F7FF404AF1EF0020F00F06A8269688A
:10215000836A184ACB1A04D4858D5B1B002B40F38D
:102160006B82059B002B3FF4F2AE837F43F00203AA
:10217000837713F00DFCEAE6124FB8E718F0020F70
:1021800000F0BE80337E023B012B40F2B980B37F6A
:1021900043F00203B37796E7DFF830C0DCF8006065
:1021A000002E00F0CB815088D7F80090B046002177
:1021B00015E000BF6C0B0020680401205C63002068
:1021C00060040120746300207063002064630020B9
:1021D000D8F80C304146002B00F0B0819846B8F892
:1021E0001A308342F4D1D8F800304B4501D0002B8F
:1021F000EED131B1D8F80C30CB60CCF80080C8F803
:102200000C601EF0040F7FF4A2AE0EF0100303F07A
:10221000FF06002B40F0B6811EF0020F3FF497AE90
:1022200098F81900FFF7C6F9814600283FF48FAEF1
:10223000E8686B6890F801E005789F4A3968126891
:10224000C9F8001045EA0E21B8F81A50A9F81A503A
:10225000A9F81C105D1C0321C9F8042089F8181086
:10226000C9F82850C9F83050C089D8F81010D8F8EB
:102270001420C9F81420013BC9F81010A9F8600017
:10228000A9F86200A9F84E00C9F8543098F808304F
:102290008A4A23F07303126889F80830874BC9F81B
:1022A0000C20C3F8009003F0B9FD854B012209F121
:1022B00036001A70FFF7EEFD09F10401B9F8360097
:1022C000FFF788FB1221A9F83600484613F06EFA92
:1022D000002840F07181484613F05AFB37E6D806D3
:1022E00040F1FA80B37FD9063FF5F9AED6F88830D1
:1022F000002B3FF4F4AE6FF00B0130699847EEE627
:10230000B37FDC0602D46F4B1B687362002386F830
:10231000923006F13600FFF7BDFD337E023B072BFE
:102320003FF6D1AEDFE803F0AD9182693A8218043E
:102330003046FFF75FFB2A78634BD2067FF5C3AECA
:10234000316D9A6891427FF4BEAE93F8282042F036
:10235000100283F82820B6E63046FFF74BFB2A78B8
:10236000594BD1067FF5AFAE9B68326D9A427FF430
:10237000AAAE3046FEF740FE504B1A68B24200F05B
:102380005881524B00211A60002A00F0DA81D0688F
:10239000B04200F0408102460121F5E73046FFF7E8
:1023A00029FB95F8283098067FF58DAEB37F43F072
:1023B0000203B3773046FEF71FFE404B1A68B24265
:1023C00000F03781414B1A605AB1D168B14204D153
:1023D00022E1D168B14200F022810A460029F8D1F9
:1023E0001A603B4B364A1968F1600A2001213076A9
:1023F0001E60117003F012FD65E63046FFF7FAFA31
:1024000095F82820304B12F0200F1A7800F0F88051
:10241000D20604D59B68326D9A4200F07981B37F71
:10242000082243F00203B37732764CE63046FFF7DA
:10243000E1FA95F8283099067FF545AEB37F07227B
:1024400043F00203B37732763DE62B781E4AD90675
:1024500040F1C980B36C9068DB43C34204D4336D50
:10246000C31A002B40F34581EB68298A1A88019230
:102470006A685B88009311440F4B164A13F0D6FB31
:1024800021E62B78104C03F01203122B00F0E080B1
:102490002A780D4BD0067FF516AEDA68188A1188B7
:1024A000019159685288009201440A4A9868024B87
:1024B00013F0BCFB07E600BF600401205C63002052
:1024C00058630020606300206C0B002068630020CC
:1024D0007063002068040120B6F864203AB1B36F3D
:1024E0002BB13146306998470A303FF400AE6A6A32
:1024F0009AB1B17F01F0100101F0FF0300294ED124
:10250000F46F002C52D031463069A04743B20A33F1
:102510003FF4EDAD08B16B6A736795F828309A0601
:1025200006D5736F002B4CD05A7B42F020025A73B1
:10253000002330463B6013F02BFAD8E5908904F075
:10254000C5F943073FF503ADEB68298A1A88019264
:102550006A685B8800931144A868884B884A13F026
:1025600065FBF4E4326DAB689A427FF4ACAD95F84C
:102570002820B37F42F0080223F0010385F82820C9
:10258000B377A0E5138869687D4A8DE80900059B4B
:10259000A8680B441946794B13F048FBD7E4104662
:1025A00007F05CFF3046FFF701F8A0E52346204620
:1025B0003146FEF7A3FEA9E731464846FEF78CFFF9
:1025C000C5E4B38DF46F40F6683293421CBF01330B
:1025D000B385002CACD000231A4631463069A047A1
:1025E0000A30A5D183E598077FF56DADB36A5268CF
:1025F000013B93427FF467AD304613F075FB62E513
:10260000D4067FF560AD9B68326D9A427FF45BAD76
:102610000623337657E511B9F368D360E1E61A6013
:10262000FAE71EF0010F3FF49CAD564B1B68436266
:1026300097E5F2681A60D4E6059B0196CDF8008014
:102640000B44194690684D4B4D4A13F0EFFA7EE467
:10265000336FDB68586804F03FF9A3680130984293
:102660007FF416AF6368B6F86620E468B064591C5E
:102670000132B1623163A6F86620E289A6F86020D3
:10268000013B0421A6F8622073653176F08E711843
:10269000FFF7A0F9B6F84C10F08600EB8002012994
:1026A0004FEA42020346A6F84E2008BF4300B6F8A0
:1026B0006820306F08BF9BB2A6F84C30531E0268EA
:1026C0003267A6F86830FEF775FC336F002B35D003
:1026D000002386F84630D6F88040B386002C3FF4BD
:1026E00056AD002231463069A0470A307FF44FAD25
:1026F000FDE4736904223276002B3FF453AF0022CD
:1027000031463069984700B30A307FF44BAFEEE4AE
:10271000B37F43F00203B3773046FEF76DFC1A4BEC
:102720001A68B24285D0194B00211A604AB1D068AC
:10273000B0423FF470AF02460121F7E74FF6FF7356
:10274000C9E700293FF44DAE4AE63046B6F84C40A2
:10275000FFF750F9B6F8643013B1013BA6F86430C6
:10276000F38E95F82820012C04BF5B009BB29406E1
:10277000A6F84C307FF5A7AC60E600BF60040120EE
:1027800068040120606300205C630020686300200F
:1027900008B53A4B984221D0394B984228D0394B52
:1027A000984231D0384B98423AD0384B984243D077
:1027B000374B98424CD0374B984253D0364B9842C7
:1027C00000D008BD01214FF0004003F06FFA002156
:1027D0004FF00040BDE8084003F068BA0121102026
:1027E00003F072FA00211020BDE8084003F06CBA33
:1027F00001214FF4003003F059FA00214FF400306A
:10280000BDE8084003F052BA01214FF4802003F0E4
:102810004DFA00214FF48020BDE8084003F046BA8D
:1028200001214FF4002003F041FA00214FF4002071
:10283000BDE8084003F03ABA01214FF4801003F0DC
:1028400035FA00214FF48010BDE8084003F02EBA9D
:102850000121202003F038FA00212020BDE80840A3
:1028600003F032BA01214FF0804003F01FFA00213B
:102870004FF08040BDE8084003F018BA0010014056
:102880000044004000480040004C00400050004020
:102890000014014000780040007C0040028A0B894F
:1028A000F0B592B2CF888E88044622F440523A4363
:1028B00048890D4689892282A289334392B2034313
:1028C00022F4B05222F00C029BB21343A381A38ADC
:1028D0009BB223F440730B4385B0A382684603F098
:1028E00043F91D4B9C4228D003F580639C4224D0C1
:1028F000029AA389A18913F4004F2B6802EB82028C
:1029000014BF5B009B0002EB8202B2FBF3F0134AA0
:10291000A2FB00356D096423090405FB13034FEA8C
:1029200005150CD41B013233A2FB0323C3F343135D
:102930002B439BB2238105B0F0BD039AD9E7D900A0
:102940003231A2FB0131C1F3421242EA05039BB2CC
:10295000238105B0F0BD00BF001001401F85EB5181
:10296000014B1860704700BF20000E422DE9F04770
:10297000164E174DDFF85CE026F0030605F124083B
:102980000EF116074FF0000C3EF8024F45F804CF49
:10299000B4B100221146B7F80090334600E0534628
:1029A000013290B28442196003EB090A1946F6D845
:1029B000631E9CB204FB099309FB04642C601E4453
:1029C000454507F10207DFD1BDE8F0879B0B0020EA
:1029D000482D00208E2E0208082809D8054B03EB4D
:1029E000800353F83C0C20B1026843F83C2C70473C
:1029F00000207047882D002039B1044B03EB800084
:102A000050F83C3C0B6040F83C1C7047882D00207F
:102A100010B5204A8AB000230121904204468DF867
:102A200015300893079306938DF814308DF8241011
:102A300022D0194A904226D0184A904215D000233D
:102A40004FF440724FF48031684602930093019135
:102A5000039203F0D9FE04A9204603F0ADFEA3685B
:102A600043F00103A3600AB010BD0D494A6C42F463
:102A700080624A640493E2E709494A6C42F4807236
:102A80004A640493DBE706494A6C42F400724A64E4
:102A90000493D4E7002001400021014000220140BE
:102AA00000380240024A536843F480035360704781
:102AB0000023014010B5044605230122122103F032
:102AC000B7FEA36843F08043A36023689B07FCD54F
:102AD000E06C064B41F6C81202FB00F0A3FB00239A
:102AE000C01A03EB5000C0F3CF2010BD010110004D
:102AF00010B50446406908B107F0B0FC2146062035
:102B0000BDE81040FFF778BF2DE9F04F83B00023F8
:102B1000DFF804A1019181460093DAF80030002B20
:102B200055D00027B8463D46D9F80C000AE00137D9
:102B3000C5B1D97FEA7F914298BF1D461C68ACB1F0
:102B4000984623465A698242F1D1D9F810209969F2
:102B50009142ECD19989B9F804209142EED0013725
:102B6000002DE6D11C681D46002CE9D14DB36E68DE
:102B700073689A887AB373683046D3F800B007F068
:102B80009BFC044430465E46A4B207F067FC002E6E
:102B9000F1D1DAF800309D4208BF1F4A2B6818BFF8
:102BA000C8F8003029464FF0050008BF1360FFF752
:102BB00023FFBAF80430009A1B1B22440092AAF8A3
:102BC0000430009B019A934201DA012FA5DC0098A2
:102BD00003B0BDE8F08F1A686A602A46012152F8F6
:102BE000080F9468D2F804E0D2F80CC0C3F80CC007
:102BF0009C601860C3F804E010691861304610F05A
:102C000059FB304607F058FC84B2304607F026FCEA
:102C10006E68002EAFD1BCE7702D00202DE9F04F7B
:102C20004668337803F00F03052B83B0804640F0ED
:102C30004F81F088C34F03F049FE8246708803F04D
:102C400045FE337800938346404607F035FCBB8849
:102C500003440A2B814600F331813C68002C00F0CC
:102C6000EB80F268002505E023682546002B00F084
:102C7000E3801C4663699342F6D13369A1699942A6
:102C8000F2D1A189B3889942EED1F08803F01EFEFB
:102C9000C0F30C00002800F02281BB889944A7F8FB
:102CA0000490F388990640F1E880D8F804607088B1
:102CB00003F00CFE96F800A00AF00F0AA0EB8A0AB7
:102CC000F08803F003FED8F804900023C0F30C0052
:102CD000C0001FFA8AFA89F8003089F8013089F8B3
:102CE000023089F803306368A9F8040082441FFAAF
:102CF0008AFAA9F806A0002B00F01D815E68B28850
:102D00009042C0F0048100F0CC80B6F806E0704537
:102D1000C0F0C7804FF0010C10E0536899888842DA
:102D2000C0F0B98000F0BD80DA889042C0F0B98070
:102D3000714518BF4FF0000C1E4696463268002AB7
:102D4000EBD17045C6F8008040F0B480A37FDB076C
:102D500040F1B080BCF1000F00F0AC806368D3F8A4
:102D60000480B8F80430002B40F0A480D9F800307B
:102D700073B15B689A88524507D09BE05268D98846
:102D80009388994240F0968013461A68002AF5D13C
:102D9000A28BD8F8006023461432A28353F8082F80
:102DA00058689968D3F80CE0C8F80CE0C8F8081027
:102DB000C8F80400C8F800201A69C8F81020A08BD1
:102DC00003F080FD0023A8F8020088F8063088F898
:102DD000073088F80A3088F80B301421404601F09B
:102DE000C5FBD4F80490A8F80A0076B1D6F80480A0
:102DF0006FF01301304607F0FBFA3146484607F002
:102E00006BFBD8F80060002EF0D13B684D4A9C4225
:102E1000236818BF2B6021464FF0050008BF1360E0
:102E2000FFF7EAFD484607F047FBBB881B1A4846F8
:102E3000BB8003B0BDE8F08F0520FFF7CDFD034652
:102E400000286BD0202200211846019314F0EAF9E3
:102E5000019B3A681A600321D9773168B568D6F8C2
:102E600004E0F06858611D619960C3F80CE03169B5
:102E70003B60254699611C460FE7009BA27F03F04B
:102E80000F03ABEB830B0BEBCA0A42F00103A4F870
:102E90001CA0A37709E77045C9F8002001D38A4533
:102EA00032D9404607F008FBBB881B1A4046BB805E
:102EB00007F0D4FA002003B0BDE8F08F0146304699
:102EC000FFF722FE20B1BB884B440A2B7FF7C5AE2B
:102ED000404607F0C3FA002003B0BDE8F08FE08958
:102EE00003F0F4FCC0F30C0000283FF4D6AE3268C7
:102EF000D6F804E0B068F1686161A260C4F80CE043
:102F000020613269A261C8E6C6F800801EE7C9F8F0
:102F100000304FF0010CC4F8048017E749463046F2
:102F2000FFF7F2FD8145D3DC0520FFF755FD034691
:102F3000002887D1CCE7A37FC4F80480DA073FF5E7
:102F40000DAFB7E7702D00202DE9F04F8FB0D0F80E
:102F500004A00B910546BAF806008C8D0C9203F084
:102F6000B5FC00F400539BB2B5F808900993C0F388
:102F70000C03A9F114090493B4F114031FFA89F2A4
:102F800048BFA4F10D03C3F3CF0303920893039B3F
:102F9000002B00F0A780089BDFF84CB1DB00A4F108
:102FA00013029BB20A920D93002414261146049B2F
:102FB000099AC3F30C031343039A06938A42AABFE8
:102FC00043F40053134606934FF00002A8BF0D9B35
:102FD00005931421022007F0E9F8804600287FD0ED
:102FE0004368DAF80020DAF80810DAF80400DAF8B2
:102FF0000C70DF601A6058609960DAF810201A616E
:103000006A686B89D8F8041007919B1B1644059ACF
:103010006E609BB26B8152B316461C4601E02D6870
:103020006C89B44228BF3446A4B2002CF7D00620E5
:10303000FFF7D2FC0222074603462146002847D06C
:10304000019468680090032007F05EF9814600282B
:103050003AD02846361B07F039FAB6B27D61C7F878
:1030600010B04946404607F037FA002ED7D10698EF
:1030700003F028FC059F079E3B461433F08098B26E
:1030800003F020FC00237080B372F37230461421E9
:1030900001F06CFAB1460B9E0C9A7369A9F80A000C
:1030A000414630469847404607F0D8F9039A0899B8
:1030B000D31B9BB21A460393049B0B449BB204930D
:1030C00082B126460A9972E739460620FFF794FC3A
:1030D000404607F0C3F9FF2040B20FB0BDE8F08FC3
:1030E000FF20F9E70020F7E7F12A000810B5084CA7
:1030F00082B00023032201920093204601224FF464
:10310000704111F0A7F94FF47043638302B010BD12
:10311000000C024000B583B000230221009101930E
:103120001A460121024811F095F903B05DF804FB3D
:10313000000002402DE9F84F724D95F84C607EB3C7
:1031400095F89C30002B00F0B68095F8EC30002B01
:1031500000F0B38095F83C31002B00F0B08095F87A
:103160008C31002B00F0AD8095F8DC31002B00F0A5
:10317000AA8095F82C32002B00F0A78095F87C32BD
:10318000002B00F0A48095F8CC3243B195F81C33A5
:1031900009262BB14FF000084046BDE8F88F0826FD
:1031A0004FEA860A0AEB06094FEA091905EB0907F7
:1031B0004FF00103DFF854B13E7487F84C30C7F884
:1031C00014B0044614F09CFC3128B84659D90AEBD7
:1031D000060305EB03130022DFF834915A76D9F881
:1031E0000410204614F0B0FAA8B3D9F80090B9F151
:1031F000000FF4D1AF4223D0434B9F4269D003F17B
:103200005002974268D003F1A002974267D003F1C1
:10321000F002974266D003F5A072974265D003F59D
:10322000C872974264D003F5F0739F4263D0503365
:103230009F4263D050339F4208BF4FF00909A9D184
:1032400009EB890905EB09194FF0000889F84C8052
:103250004046BDE8F88F56443601D9F80830AB51E6
:103260003544D9F80C20BBF80030E8606A60AA60E9
:1032700099F810202A760133ABF800304046BDE8BB
:10328000F88F2146384602F04FFA00289FD01D4B98
:103290004FF0010203EB090000233B76BB60FB60AB
:1032A0001A307A76214614F0B9FBBBF800300133AE
:1032B000ABF8003070E7012672E7022670E70326BC
:1032C0006EE704266CE705266AE7062668E7072608
:1032D00066E74FF00109B3E74FF00209B0E74FF09E
:1032E0000309ADE74FF00409AAE74FF00509A7E786
:1032F0004FF00609A4E74FF00709A1E74FF00809CE
:103300009EE700BF78630020C8630020762D002070
:10331000CC2E0208264A417E1388013B10B5044694
:10332000138091BB234B9C4232D003F15002944254
:1033300030D003F1A00294422ED003F1F002944267
:103340002CD003F5A07294422AD003F5C87294429F
:1033500028D003F5F072944226D003F50C72944203
:1033600024D003F52072944206D003F534729442BF
:1033700008BF092201D010BD082202EB820203EB34
:103380000213002283F84C2010BD02F075FBC9E740
:103390000022F2E70122F0E70222EEE70322ECE747
:1033A0000422EAE70522E8E70622E6E70722E4E747
:1033B000762D00207863002070B5437E0546A3B9C2
:1033C00083684068834216D0C01A82420E4629683C
:1033D0001446A8BF044619443046224613F088FE1E
:1033E000AB682344AB60204670BD02F01DFBAB68A8
:1033F0000344AB6070BD4FF0FF3070BD4268806821
:10340000101A704701207047012070470120704753
:10341000012070470120704701207047012070474C
:10342000012070470120704701207047012070473C
:10343000012070470120704701207047012070472C
:1034400000EB8000034B53F8203003B118470420F1
:10345000704700BF14000020044B00EB800003EB1A
:1034600080035B6803B118470420704714000020F4
:103470000BB90420704730B40D461146074A00EBE3
:10348000800402EB8404246924B11A4628462346AA
:1034900030BC1847042030BC704700BF1400002027
:1034A0000BB90420704730B40D461146074A00EBB3
:1034B000800402EB8404E46824B11A4628462346BB
:1034C00030BC1847042030BC704700BF14000020F7
:1034D000054B00EB800003EB800308469B680BB1B3
:1034E0001146184704207047140000200048704718
:1034F0000000FC42FEE700BF08B50F480F4B9842A2
:1035000007D2C2431A4422F0030204320C4913F0DA
:10351000EFFD0C480C494FF000028842B8BF40F85C
:10352000042BFADBDFF82400016841F4700101602C
:10353000BDE8084001F0D8B9000000204C0B002085
:10354000A4640208500B00207404012088ED00E000
:1035500008B501214FF0007002F09AFB00214FF0F6
:103560000070BDE8084002F093BB00BFF0B420211A
:1035700001274FF480464FF4006540248022002349
:10358000076046614FF080674FF4001605620464DF
:103590004FF480354FF48004416442664FF400518B
:1035A0004FF0007243608360C36003618361C36155
:1035B00043628362C362036343638363C36383645D
:1035C000C364036543658365C36503668366C36639
:1035D000036743678367C367C0F88070C0F88C6077
:1035E000C0F8A850C0F8AC40C0F88830C0F890309F
:1035F000C0F89430C0F89830C0F89C30C0F8A030C3
:10360000C0F8B430C0F8B830C0F8B010C0F88420AA
:10361000C0F8A420F0BC70472DE9F0418CB0002325
:10362000634A0093012401930294044608A8166992
:103630000F4602F099FA099A5E4B5F4913448B4298
:1036400026F01C0600F2A58146F00806584D5B499D
:103650002E61002303932B69F80203F01C0343F04F
:10366000030380B24FF4004203436A612A462B6190
:1036700002E0039B8B4205D8039B0133039313693C
:10368000DD07F6D4039A4E4B9A4200F0A3804D4ECC
:103690004D4BD6F800E04D4D9E452A6800F09181D3
:1036A0004B4B9E4500F08D812368002B00F0B281CA
:1036B0003F4A4249DFF808814FF0000C019B01337B
:1036C0000193CDF810C0136903F01C03034343F0CA
:1036D0004103136102E0049B8B4205D8049B013334
:1036E00004931369DB07F6D4049B434502D0536966
:1036F0005B0702D4019B8B42E0D9314B019A9A427D
:103700004FF0000349D02A4A0193059313692B49CE
:1037100003F01C0343F0030303434FF4805CC2F83F
:1037200014C0136102E0059B8B4205D8059B013351
:1037300005931369DB07F6D4059A214B9A4201D110
:10374000002302931A4A1D49DFF874804FF0000CE1
:10375000019B01330193CDF818C0136903F01C03DA
:10376000034343F04103136102E0069B8B4205D8FB
:10377000069B013306931369DB07F6D4069B43458A
:1037800002D053699B0602D4019B8B42E0D9019A77
:103790000B4B9A4240F06A8100230293029B13BBB9
:1037A0004FF480434FF40067276263619C461DE03D
:1037B0000080024000D3CEFEBFE1E400FEFF030024
:1037C000FFFF0300340200200095BA0A48FD0020E4
:1037D00000E1F505AA4BAB4DD3F800E000230293BE
:1037E000029B002BDCD0D4F814C0276A6668A3695A
:1037F00004F1080007C83043014311431943E3694A
:10380000666AA06A226B19433143E36A9E4E0843FD
:10381000D6F80080616B18439C4B0243114308EAC1
:1038200003030B4343EA0C031F43994B37609E4548
:103830003268296800F0CD80964B9E4500F0C98023
:10384000914B934E1A60E26BA06B216C1043626C3B
:103850000843A16C1043E26C0843216D1043626D74
:1038600001430A435A60B6455A682B6800F0AF809E
:10387000884B9E4500F0AB80834B854E5A60A26D0D
:103880009A60E26DDA6004F1640007C80843216FB2
:103890009F691043626F014311434FF64172206EDE
:1038A0003A400A4342EA00429A61B6459A6975492C
:1038B000286800F09C807748864500F0A2809A61D5
:1038C000E06FA26F0243DA61DA690B686E4F724BE8
:1038D000FA6104F1840007C8D4F8806006430E43FF
:1038E0001643D4F89020D4F89800D4F89C101643CE
:1038F000D4F89420164341F21802304357F802C01E
:10390000D4F8A06001430E430CEA03033343BB50D9
:103910005F4BB8582A689E4567D05E4B9E4564D081
:1039200059495E4B5A4F41F21802BE458850D4F8AF
:10393000A410D4F8A820D4F8AC00D4F8B06042EABF
:10394000010242F4000141EA0002D4F8B810D4F8B0
:10395000B40042EA060242EA010242EA80021A6028
:103960001A684849286836D04A48864533D01A60D4
:103970001A6842F080021A601B680A68474A13609E
:103980000298A0F10100B0FA80F040090CB0BDE847
:10399000F081434B434913448B4202D846F00C0656
:1039A00054E6414B414913448B427FF64FAE404BA6
:1039B000404913448B4294BF46F0040646F010067B
:1039C00044E62B682368002B7FF472AE22E02B685C
:1039D00052E72B6834E708681A601A6842F08002E0
:1039E0001A601B680A682A68C8E72B6898E70868A5
:1039F0009A61A06FE26F0243DA61DA690B682B68A3
:103A000064E708689A61E06FA26F0243DA61DA69DD
:103A10000B68F4E71C4E079333696169226A490811
:103A200003F01C0341EAD20243F00303184393B2AC
:103A3000736121493061324602E0079B8B4205D811
:103A4000079B013307931369DB07F6D4079A1B4BD7
:103A50009A4201D1002302930D4B2A689E4503D060
:103A60000C4B9E457FF4BCAE2B68B9E6002338466C
:103A70002146019302F076FED6F800E0B0E600BFE2
:103A80003402002048FD0020008002400F8120FF0A
:103A90000095BA0A00E1F505233FDEF800900240E8
:103AA00040F1E9FD3F787D0100796CFCFF5962022D
:103AB000001F0AFA7FF0FA02FEFF0300FFFF030077
:103AC00070B485B0294B2A4E2A4C2B4A0020039013
:103AD000196841F00801196031681D680395A14219
:103AE000156828D0254CA14225D003991960029071
:103AF000196841F00401196019680291116802996E
:103B0000196041F218010190585840F48010585043
:103B10005B5801931368154A019941F21803D1507B
:103B2000D15841F40051D150D15841F00201D15047
:103B300005B070BC7047116803991960029019684C
:103B400041F0040119601968029111681168029925
:103B5000196041F218010190585840F480105850F3
:103B60005B58019313681368D5E700BF00800240DB
:103B7000340200200095BA0A48FD002000E1F50556
:103B8000284B294941F21802F0B49858274F284D84
:103B900020F400509850985884B020F002009850BB
:103BA00000240394186820F00400186038681E6828
:103BB0000396A8420E681CD01E4DA84219D0039847
:103BC00018600294985840F48010985098580290C9
:103BD00008680298985001941A6822F008021A6046
:103BE0001B6801930B680F4B019A1A6004B0F0BC7C
:103BF00070470868039818600294985840F4801041
:103C00009850985802900868086802989850019453
:103C10001A6822F008021A601B6801930B680B688F
:103C2000E1E700BF0080024048FD00203402002090
:103C30000095BA0A00E1F505034B8A88C2500433A7
:103C40000A68C250704700BF4080024009490A4BD1
:103C500070B41A680C682368156816688560B668C1
:103C6000E4680C60C3F30D43043B80E8480070BC7B
:103C7000704700BFA4660020007F0020F0B4304EE3
:103C800033681A68002A51DB40F2F45290422ED970
:103C90002C4CA4FB0014A40A02FB140292B2A4B29E
:103CA0001AB30134284F00F2F45007FB0400C0F3AC
:103CB0000C07002240F2F450651E07E0196801323B
:103CC00041F000411960A242DB681CD0196821F064
:103CD00040511960002A2CD095425860EED11968E5
:103CE00041F0005119605F60E8E7012CDAD11A68F1
:103CF000C0F30C0042F040521A6058601A6842F05B
:103D000000421A60DB68114A336041F21403D15853
:103D1000490708D541F2040104200024D0500120B5
:103D20005450F0BC70470120F0BC70470020F0BC3C
:103D30007047196841F0805119605860BEE700BFB4
:103D4000A86600200BB002AC0CFAFFFF0080024016
:103D5000124BF0B51860C2B102F1FF3C03460024DB
:103D60004FF0004E44F2F45703F12005644534BF90
:103D70002E4606460134A2429960C3F800E05F6017
:103D8000DE6001F2F4512B46EED1054C054B064A9C
:103D900041F20C0160501A60F0BD00BFA466002023
:103DA00000800240007F002098660020204A1368AF
:103DB0001968002910B410DB1968CC050DD51D4A0F
:103DC00012689168013191609168012908BF136000
:103DD000012053605DF8044B70471968002906DB29
:103DE0001968880503D5186810F4807017D0196811
:103DF000002910DB186810F400700CD11968C9058F
:103E0000E8D40C490C68A1680131A160DB6813603B
:103E10005DF8044B704700205DF8044B704705497E
:103E2000096801240B6048608C60DB681360D1E78F
:103E3000A4660020007F0020114B1860D2B1F0B5BD
:103E4000034602F1FF3E00244FF4801703F12005E2
:103E5000744534BF2E4606460134A24299601F6065
:103E6000DE6001F2F4512B46F0D1064A41F2100314
:103E7000D050F0BD034A41F21003D050704700BF4C
:103E8000A866002000800240036819430160704763
:103E9000024A136843F00103136070470090024028
:103EA000024B186800F00100704700BF009002400C
:103EB00030B482B00023134A01931369124C890174
:103EC00001F4F861C00203F01C0580B241EA050369
:103ED000034343F00103136102E0019BA34205D8B1
:103EE000019B013301931369DB07F6D4074B019A59
:103EF0009A421BBF034B5869002080B202B030BC0D
:103F0000704700BF00800240FEFF0300FFFF030078
:103F100030B482B0124D134C002301932B696A61B7
:103F2000890103F01C0301F4F861C00243F00303AC
:103F300080B2194301432A46296102E0019BA34252
:103F400005D8019B013301931369DB07F6D401986F
:103F5000054BC01A18BF012002B030BC704700BF2B
:103F600000800240FEFF0300FFFF0300431E0333F7
:103F7000024616D891F8353003F0020303F0FF0033
:103F800073B14B689A420AD0896853400B4206D1FC
:103F9000C94331EA02030CBF012000207047002012
:103FA00070470120704700BF2DE9F0430378A3F16B
:103FB0003002D4B2092C87B01BD80DF10808C446D2
:103FC0000DF11409302B20D00A250027D2B2092A7E
:103FD00007FB053412D92E2B46D1CC4509D04378A6
:103FE0004CF8047BA3F13002D4B2092C00F101009B
:103FF000E8D90023184607B0BDE8F08310F8013F68
:10400000A4F13007A3F13002E0E7437803F0DF02C8
:10401000582A04D001300825A3F13002D5E783786F
:10402000C61C00270BE0052CD5D81A2A34BF612303
:104030004123C3EB0E0E33784EEA07170136A3F186
:10404000300523F02004413CA3F16102092DE4B2C4
:1040500003F10A0E06F1FF3003EB0715D2B2E2D8E6
:10406000A5F130073378E9E713F0DF0F02D0093B01
:10407000042BBED8C8EB0C039B100133042B18D8BB
:1040800001A252F823F000BFF53F0008B34000083A
:10409000D9400008C54000089D400008FF2FA8D85F
:1040A000039B0298049A1B0443EA006343EA022339
:1040B0001F430191B9B1384602F00CFC019901236C
:1040C000086097E7B7F5803F93D2039B029A1B04E1
:1040D00043EA02631F43ECE7B7F1807F89D2029B7A
:1040E00047EA0367E5E7012384E700BF00B583B033
:1040F00001A9FFF759FF20B94FF0FF3003B05DF879
:1041000004FB019803B05DF804FB00BF2DE9F0410A
:1041100005460E4690461F4604F040FE002D00F076
:104120008C804D4AA2F10804A5428CBF00230123D4
:10413000954228BF43F00103002B52D0AA0750D16B
:104140002B6863602B7923726B796372002E56D0D3
:10415000424A331D111DB14288BFA34264D8B30740
:1041600062D133681360B8F1000F4DD098F8003079
:10417000A37398F80130E37398F80230237498F829
:1041800003306374002F49D03B78A3727B78E372CD
:10419000BB782373FB786373002300210020012583
:1041A000E37484F8483084F84C3084F84D3023634D
:1041B000A4F84A3084F84E30C4E90A01C4E9080181
:1041C000C4E91001C4E90E01257502F06FF9044637
:1041D00001F0A2FD224BB4FA84F01D704009BDE845
:1041E000F0812B7823716B786371AB78A371EB78D6
:1041F000E3712B7923726B796372002EA8D1194B6E
:104200002360B8F1000FB1D1C021A822012384F8A6
:104210001080A173E2736374002FB5D1FF2367731D
:10422000A372E3722373B7E73378237073786370F4
:10423000B378A370F378E37095E7084C0622052362
:10424000042003212271637102220123A071E17114
:10425000227263727AE700BF6097002058970020AF
:10426000782D0020C0A802780E4B1B789BB110B5AA
:104270000D4C94F8483063B9B4F84A3013B960B1C2
:10428000A4F84A0005F05CFD012384F848300020C2
:1042900010BD002010BD012070475023A4F84A3003
:1042A000F0E700BF782D00205897002008B501F0F6
:1042B00081FD08B101F080FD024B586801F082FDDC
:1042C000002008BD782D0020024A53681844506031
:1042D00000207047782D002038B5074D2C7A0CB19E
:1042E000012038BD0A460146044805F059FD012366
:1042F0002B72204638BD00BF782D0020E151000808
:1043000038B5054D6C7A0CB1012038BD05F050FD73
:1043100001236B72204638BD782D0020704700BF06
:10432000F0B5164C85B024789DF82850BDF82C6067
:1043300014B9052005B0F0BD114C94F84E7047B982
:10434000277D17B9032005B0F0BDE47C24B9022015
:10435000F0E7012005B0F0BD0C9C02948DE86000F0
:1043600009F048FB10F10B0F03D0003018BF0120FB
:10437000E0E7FFF7D3FF0420DCE700BF782D002043
:1043800058970020F8B5436F05460C4683B31E4B83
:1043900018689B8808608B80696F601D13F01EF998
:1043A0001A4B064607CB71601949B2602B46306044
:1043B0002246204613F07CF8204613F0A1FB154D51
:1043C000DFF858E006460FCDA719A05128683861DC
:1043D0001336A0197960BEF800509EF80210BA603A
:1043E000FB60A5538170204613F08AFB80B2F8BDB4
:1043F000094E0FCE36786160A260E36026742060BB
:1044000022462B460249D4E72C42020834420208D5
:104410000842020818420208F4410208A4540208A3
:10442000704700BF704700BF704700BF0020704753
:1044300000207047704700BF184BDA7C5AB11B7DD3
:104440004BB1F0B5164EB37A85B003F0FF0423B13B
:10445000012005B0F0BD012070472346114A03A991
:1044600005460FF023F9431D07460DD080B9039987
:104470000B0E28460093C1F30722C1F30743C9B2CC
:1044800000F06CFE3846E4E701232046B372E0E713
:10449000284600F09FFE0120DBE700BF5897002070
:1044A000782D0020A944000800B50D4B00229A7217
:1044B00083B0034609B1096829B9184600F08AFE9D
:1044C00003B05DF804FB0B0E0093C1F30722C1F3A8
:1044D0000743C9B200F042FE03B05DF804FB00BF21
:1044E000782D0020704700BF0020704708B5FFF707
:1044F000F9FF08BDF0B583B086469DF820C00D4C8D
:104500000D4617461E46BCF1000F01D00023A374D0
:1045100029466570CDF800C0012570463A463346FD
:1045200084F800E0A770E670E574257501F08EF858
:1045300003B0F0BD5897002008B5054B01210022BB
:104540001975DA7409F04CFA01F0E8F808BD00BFFB
:104550005897002008B5044B00221A7509F042FA5A
:1045600001F0D6F808BD00BF5897002070B483B0A2
:10457000002310F00106ADF8063005D029B303780A
:104580008DF8073001390130012928DD0B4604463A
:10459000002234F8025B023B012B2A44F9DC023989
:1045A0004B085C1CA1EB430100EB4400012904BF54
:1045B00003788DF80630BDF806301A4491B201EB4D
:1045C000124293B203EB124126B10A0292B2C1F336
:1045D00007211143C84380B203B070BC704700226A
:1045E000E4E700BF002871D02DE9F043002683B036
:1045F000B6463746D0F804904589ADF8067019F0F4
:10460000010CA84609D0002D56D099F800308DF83D
:10461000073009F1010905F1FF38B8F1010F4DDD4F
:1046200043464946002231F8024B023B012B22440B
:10463000F9DCA8F102084FEA5803591CA8EB43081B
:1046400009EB4109B8F1010F04BF99F800308DF86A
:104650000630BDF806301A4493B203EB124293B20F
:1046600003EB1243BCF1000F05D01A46130299B2B6
:10467000C2F307230B431EFA83F21FFA82FEEB07F5
:104680000EEB124E09D54FEA0E23C6F101069BB27E
:10469000CEF30722F6B243EA020E00680028A9D141
:1046A00076B14FEA0E20CEF3072280B21043C0430A
:1046B00080B203B0BDE8F0832A46D7E70022C1E705
:1046C0006FEA0E0290B203B0BDE8F0834FF6FF70C0
:1046D000704700BF002866DD2DE9F84F3A4D0746C8
:1046E00090460E464FF000094FF4004B0FFA89F444
:1046F000364956F824A0504613F050FC28B358F819
:1047000024301B78313B032B07D8DFE803F0190F67
:1047100014026B6983F400436B6109F101095FFACC
:1047200089F9B945E2DB0020BDE8F88F6B6983F4B5
:1047300000536B61F1E76B6983F480436B61ECE7D5
:104740006B6983F480536B61E7E72149504613F0AE
:1047500025FCC0B158F824301B78313B032BDCD842
:10476000DFE803F00D090502A5F818B0D5E74FF40E
:1047700080432B83D1E74FF400532B83CDE74FF4D5
:1047800080532B83C9E75046124913F007FC0028D9
:10479000C3D058F824301B78313B032BBDD8DFE859
:1047A00003F00F0B070400207047A5F81AB0B4E718
:1047B0004FF480436B83B0E74FF400536B83ACE757
:1047C0004FF480536B83A8E7000C02403844020882
:1047D000444402084C44020840B910B51446084647
:1047E0001A462146FFF776FF014810BD0048704782
:1047F000C441020840B910B5144608461A4621467D
:10480000FFF768FF014810BD00487047B841020833
:1048100030B5002383B01A4618460125072469469F
:104820008DF803308DF801308DF800308DF802508E
:104830008DF8044009F004FD03B030BD10B50948FF
:10484000094C84B012F086FD0848837842780178DC
:10485000C07800905020019002940548FFF760FD59
:1048600004B010BD5C4402088444020854A900202E
:1048700070440208164A174B116801311160116823
:10488000A3FB01039B0803EB4303B1EB430F04BFFE
:10489000012313711168104B0D4AA3FB01035B0840
:1048A00003EBC303C91A00D0704710B50B4C0123AA
:1048B0002046537109F0F2F923782279617908488A
:1048C00012F002FD0748BDE8104012F0FDBC00BF29
:1048D000842D0020ABAAAAAA398EE3381CA9002097
:1048E000B8440208D84402082DE9F04F2DED028BA0
:1048F000ADF61C1DFBF72AFE08F04EFB774A784800
:10490000784C794E002105F09FFFFBF775FE03F010
:10491000DFF903F0C5FB4FF4E1320021734801F0E9
:1049200067FC734812F016FD04F038FA7148FEF780
:104930006FF8FEF7B7F86F48FEF7BCF807EE100AFD
:10494000DFED6D7AB8EE477AC7EE276A16EE900A69
:1049500011F094FC02460B466848694912F0A8FD24
:104960006421562003F0F4F91021664803F0B6FBE9
:1049700004F00AF90A2003F043FC012003F08AFB4B
:1049800003F020FCFEF7B2FBFEF7C4FB5E4812F01A
:10499000E1FC012009F0B4FA042009F0CFFBFFF795
:1049A00037FF5A4B5A491D782570013B59485A4ADE
:1049B0001B780078367812780F78584D6370002392
:1049C000A070E6702271564967711A462046062685
:1049D0002E70FFF79BFB534B002840F07E834FF473
:1049E00080521A83504DDFF8BCB14AF6AA242C60DD
:1049F0005020FFF739FC2D214C48FFF76DFC0221B8
:104A00004B48FFF77DFC002009F07AFA4948002165
:104A100009F044F9474B474A46491B7812794979CE
:104A2000454812F051FC454B2C6000211960402292
:104A30002C6013A812F0F6FB4149424B086818603D
:104A4000414B424A1860424B10601860414B424A49
:104A50001860424B10601860414B424A1860424B4C
:104A600010601860414BCBF800001860404B186094
:104A7000404B1860404B1860404B1860404B18602A
:104A8000404B18602C604048404C12F063FCA37906
:104A9000002BFCD03E4812F05DFC3E48FFF7CCFCFA
:104AA000012800F016833C4812F054FCE3792BB93E
:104AB0006420FBF787FDE379002BF9D0374812F02B
:104AC00049FC3748FFF7B8FC012800F0FE829FED53
:104AD0000A8A154E0DF18C0872E000BFA086010015
:104AE0000054004064A00020187AFF1F0014014009
:104AF000044502080020014000007A4490A00020F4
:104B0000544402080C450208204502081B7AFF1F86
:104B1000167AFF1F197AFF1F177AFF1FCDA80020F2
:104B2000C8000020000C024000300040CC000020F3
:104B3000800100201CA90020B844020818A9002008
:104B400034450208C0A80020D8A8002020FB00207F
:104B500088A00020ECA80020C8A800206CA000209D
:104B6000AC970020E4970020A0A8002098A0002087
:104B7000FCA800200C9800200498002074A90020B4
:104B800084A90020D0A8002038450208842D0020E8
:104B90005045020870440208884502089C450208F6
:104BA000B8450208E0A800206379002B48D11921FC
:104BB00013A803F007FC102871DC4AF6AA2333601F
:104BC000FFF774FB2379AA4D002BEDD0FBF714FD02
:104BD0008DED0B0AFBF738FD0B988DED0A0A11F0ED
:104BE0004DFB02460B46A348A34912F061FC9DED24
:104BF0000A0A10EE100A11F041FB02460B469F48CC
:104C00009D4912F055FC9E48FDF754FF07EE900AAF
:104C1000F8EE677A87EE887A17EE100A11F02EFB0D
:104C20000B4602469749984812F042FC914A934934
:104C3000964812F049FB00232B716379002BB6D004
:104C40004AF6AA2333605A229149404612F050FA9C
:104C50005022052301920093CDF8088014238B2263
:104C600025218C48FFF75CFB002840F082808A48B1
:104C700012F070FB894B8A4A8A49CDF800B00DA822
:104C800012F016FC072214210DA803F017FC0023D4
:104C9000192113A8637103F095FB10288DDD824F55
:104CA0000021384608F0FAFF9DF84E50012D00F023
:104CB0008780022D61D0032D77D0042D7FF47DAF46
:104CC0007A4812F001FB9DF85030542B7FF475AFF9
:104CD000202114A812F0C8FC0DF15203C31A074694
:104CE0001A460DF1520172480A9312F0C7FF0A9B4F
:104CF0006F4A4FF0000907F1010A02F8039050468D
:104D0000202112F0B1FCF91C421A0A90694812F0F5
:104D1000B5FF0A9B6848CAEB030AD91C654B2A46B3
:104D200003F80A9012F0AAFF5F485F4B5E4A597A77
:104D300005791B7AD2790778407902955E4D01900A
:104D400001F5FA61009103975C4985F804905C488D
:104D500012F0AEFB5B4812F0B7FA14A812F0B4FAE6
:104D6000594812F0B1FA4946402213A812F05AFAF3
:104D700023E7564812F0EEFA7CE7554812F0A4FA01
:104D80009DF85030542B26D03F4B00933B4A394B73
:104D90004449504812F08CFB052214214D4803F081
:104DA0008DFB9DF84E50032D87D14B4812F08CFAA5
:104DB0009DF85030542B00F09D809DF84E507CE7BC
:104DC000464812F081FA9DF85030542B00F0E180F3
:104DD0009DF84E506DE7202114A812F045FC0DF10E
:104DE0005203C3EB000A0546524619463C4812F0EE
:104DF00045FF3B4B002705F1010903F80A704846BF
:104E0000202112F031FCE91C8246421A354812F08A
:104E100035FFC9EB0A09334B334803F809700AF12F
:104E20000301042212F02AFF1F481F4B1E4A597A21
:104E3000057990F800E01B7AD279407902952A4DE5
:104E4000CDF80CE001F5FA61009101901B492F713A
:104E5000264812F02DFB264812F036FA14A812F05C
:104E600033FA3946402213A812F0DCF98CE700BF70
:104E7000842D002020FB0020F8450208C0A8002057
:104E8000002001405444020890A00020004602087F
:104E900018460208B845020874460208E497002044
:104EA00088A00020E04602081CA9002088470208CC
:104EB00084A9002074A90020D0A80020F846020888
:104EC0004CA000209047020880470208A84602082C
:104ED00058470208EC9700206C470208F046020889
:104EE000A0A80020AC97002098A00020A8A800202F
:104EF00060470208202114A812F0B6FB0DF15203FE
:104F0000C3EB000A054652461946764812F0B6FE33
:104F1000744B002705F1010903F80A704846202167
:104F200012F0A2FBE91C8246421A6F4812F0A6FE5C
:104F3000C9EB0A096C4B6D4803F809700AF10301CB
:104F4000042212F09BFE6A48694B694A597A057936
:104F500090F800E01B7AD27940790295634DCDF844
:104F60000CE001F5FA610091019062492F716248ED
:104F700012F09EFA614812F0A7F914A812F0A4F9F1
:104F80005F4812F0A1F93946402213A812F04AF9FD
:104F900013E6202114A812F067FB0DF1520382469C
:104FA000C31A1A460B930DF152010AF10103554839
:104FB0000A9312F063FE0B9B524A0A984FF00009C5
:104FC00002F80390202112F04FFB0AF10301421A6C
:104FD0000B904D4812F052FE0A9B4C481A460B9B10
:104FE000C2EB030AD91C484B042203F80A9012F0C2
:104FF00045FE797A97F800C097F804E078793B7A13
:10500000FA79CDF80CC001F5FA61CDF808E000910D
:10501000019038493E488BF8049012F049FA3A4B17
:10502000CDF800B0374A3B490DA812F041FA0722EB
:1050300014210DA803F042FA374812F045F914A8DC
:1050400012F042F9354812F03FF92A463449354802
:105050000CF092F9132234493CA80CF0F7F93F996F
:105060003CA80CF003FE204B08931E4B0793224BE9
:1050700006932E4B05932E4B04932E4B03932E4BEE
:105080000193214B0093224A1E4B2C49CDF808B0C6
:105090003CA80CF0B3FE3CA80CF022FD2A46484682
:1050A00027490CF069F91A49264812F097FA264B5D
:1050B0001B88038006221421224803F0FFF9494689
:1050C000402213A812F0AEF877E5204812F042F91A
:1050D000FDE41F4812F03EF9E5E44FF480421A83E4
:1050E00080E400BF0C980020FCA800200498002059
:1050F0001CA90020F846020804A9002074470208F1
:10510000804702086CA00020ECA80020E0A8002046
:10511000B4970020E046020818470208AC4A02088B
:10512000204702081898002024470208AC97002066
:10513000A0A80020A8A8002068A9002034470208E1
:10514000A8530208CC97002034520208D045020828
:10515000644502080120FFF7B7B800BF2DE9F04110
:1051600084B0164C164F9DF8286001904FF001084E
:105170000096054621701348E6706270A37087F8A8
:10518000088012F0A1F829460F4812F0DDFA88B91C
:10519000E078A3786278217800900C4C029450203B
:1051A00001900948FFF7BCF82946094812F08CF82D
:1051B00087F8078004B0BDE8F08100BF54A9002043
:1051C000842D00209C470208704402088444020891
:1051D000D4470208014B01221A727047842D002027
:1051E000F0B5032885B00C4605DC032872D8DFE84B
:1051F00000F0738A9DA2042800F0A280052800F028
:10520000B280062800F0B680072800F0A5800828A4
:1052100000F0D080092800F0E0800A2800F0E58046
:105220000B2800F0E9800C2800F0F8800D2800F031
:10523000FD800E2800F008810F2800F01181102851
:1052400000F0E280112800F0BD80122800F02281D9
:10525000132800F02881142800F03B81152800F065
:105260004281162800F04481172800F04681182852
:1052700000F04881192800F04A811A2800F04C817A
:105280001B2800F04E811C2800F050811D2800F0E2
:1052900052811E2800F054811F2800F056812028DA
:1052A00000F05881212800F05A81222800F05C810A
:1052B000232800F0A781242800F05B81252800F036
:1052C000B0812A2800F0A8812B2800F0AF812C287B
:1052D00000F09D81002014E0A84B5B69C3F300330C
:1052E000BBB1A74D0FCD20606160A26007CD2D88B6
:1052F000E360A58320616161A261204612F000FC99
:1053000080B205B0F0BD9D4B5B69C3F34033002B09
:10531000E7D19C4D0FCD20606160A26007CD2D7854
:10532000E360257720616161A261E6E7934B5B69E9
:10533000C3F38033D4E7914B5B69C3F3C033CFE74A
:105340009148924943780278C57880788DE82100A9
:10535000204612F0ADF8D0E78B4AD3698BB98C4B5D
:1053600018680860C9E7884B8A49DA69204612F054
:105370009FF8C2E7844B87499A69204612F098F853
:10538000BBE792ED067ADFED846A07EE903AB8EE5D
:10539000477AF8EE677A87EE276A66EE267A17EE86
:1053A000900A10F06BFF02460B4620467B4912F034
:1053B0007FF8A2E7744B7A49D3E90823204612F01C
:1053C00077F89AE7704B93F84D30002B5CD0754B13
:1053D00018681B7908600B718FE76B4B7049D3E934
:1053E0000A23204612F064F887E7674B69491A6B75
:1053F000204612F05DF880E7634B6949D3E90E233C
:10540000204612F055F878E75F4B93F84C30002BAC
:1054100032D0654B03CB206061606EE75A4B604928
:10542000D3E91023204612F043F866E756485F4957
:1054300043790279477A067AC57980798DE8E10067
:10544000204612F035F858E74F485049C37B827B1D
:10545000457C007C8DE82100204612F029F84CE7BD
:1054600049484A49C37A827A457B007B8DE821000E
:10547000204612F01DF840E74D4B18689A889B793A
:1054800008608A808B7138E74A4B18681B7908607E
:105490000B7132E7484D0FCD2D8825822060616069
:1054A000A260E36029E7454D0021284608F0F6FB9D
:1054B000697A68792F782E792B7AEA79019001F54B
:1054C000FA610091039702963D49204611F0F0FFE2
:1054D00013E73C4D0FCD2060616003CDA260E36017
:1054E0002061616109E73849204612F097FA04E724
:1054F0003649204612F092FAFFE63549204612F06E
:105500008DFAFAE63349204612F088FAF5E6324978
:10551000204612F083FAF0E63049204612F07EFA77
:10552000EBE62F49204612F079FAE6E62D492046AF
:1055300012F074FAE1E62C49204612F06FFADCE62C
:105540002A49204612F06AFAD7E62949204612F085
:1055500065FAD2E62749204612F060FACDE62649E0
:10556000204612F05BFAC8E62449204612F056FAAB
:10557000C3E62349204612F051FABEE6000C024071
:10558000EC4702080C480208589700202C480208F3
:105590003C480208384802080000C8424048020857
:1055A000484802088048020870480208504802082B
:1055B0007848020888480208904802081CA9002080
:1055C000F8460208A44802086CA00020ECA80020BD
:1055D000E0A80020B497002068A90020A0A800201F
:1055E000AC97002098A00020A8A800200C980020CC
:1055F000FCA800200498002004A9002084A9002011
:10560000D0A800200C49204612F008FA75E60B4994
:10561000204612F003FA70E60949204612F0FEF91E
:105620006BE60849204612F0F9F966E6064920467D
:1056300012F0F4F961E600BF74A9002090A00020E8
:10564000C0A800204CA0002020FB00202DE9F04144
:1056500084B004469DF828500E4617469846002D03
:1056600033D1009313460A4601461F481F4D11F0DF
:105670002BFE1F4C1F48667AA37962792179277A1D
:105680000296E6798DE8C00011F01EFE607C237C56
:10569000E27BA17B0090184811F016FE607B237B13
:1056A000E27AA17A0090154811F00EFE94F84C10A1
:1056B000134811F009FE94F84D10124811F004FE41
:1056C0000123AB7104B0BDE8F0810F48074D11F024
:1056D000FBFD3B46CDF80080324621460B4811F0D9
:1056E000F3FD01236B72C4E7F8480208842D002003
:1056F000589700201C4902084049020858490208EE
:105700007049020880490208BC480208CC480208D7
:10571000014811F0D9BD00BFC0490208014811F08D
:1057200019BE00BFFC490208F0B504469BB02248F0
:105730000D4611F0C9FD0122204921480BF01CFE45
:1057400010B301461F4811F0BFFD2A461E491F4DE8
:1057500001A811F0ADFE207C40F6280601A906FB49
:10576000005003220BF072FE01A9074680B11848D1
:1057700011F0AAFD3946174811F0A6FD63691C888F
:105780008CB100201BB0F0BD134811F09DFDDCE78B
:10579000124811F099FD237C06FB03550120EB68AC
:1057A00063601BB0F0BD0122044920460BF0E4FD0C
:1057B00020461BB0F0BD00BF0C4A0208A8530208E7
:1057C00018980020244A0208484A02088CA90020A0
:1057D000504A0208644A0208384A0208744A020819
:1057E0002DE9F041754B0C468EB075491C6016468C
:1057F000054611F0A9FF00285DD07249284611F036
:10580000A3FF002864D07049284611F09DFF0028AE
:105810006BD028466D4911F097FF10B10EB0BDE86E
:10582000F081A0556A49204607F0FEFA0446002898
:10583000F4D1684811F048FD654811F045FD66480F
:1058400011F042FD6549624812F0A8FB0028E5D03E
:10585000C51D2C21284611F007FF614F461B294624
:105860003246384612F00AFA5E495948F45512F0A9
:1058700095FB0028D2D000F10B0528467D2111F0C0
:10588000F3FE594EC5EB000829464246304612F059
:10589000F5F908F80640304612F032F9534A03464B
:1058A00011889953334494789C7039463246504855
:1058B00011F00AFDB2E74649204607F0B5FA002884
:1058C0009BD14C4811F000FD414811F0FDFCA5E7CB
:1058D0003F49204607F0A8FA002894D1464811F025
:1058E000F3FC3B4811F0F0FC98E7A055434811F059
:1058F000EBFC2046364907F097FA044600288DD184
:105900003F4811F0E1FC324811F0DEFC22463D49EF
:105910002F4807F067FA064600283ED13A4C3B482C
:1059200011F018FD21683A4811F0CEFC0EA823684A
:1059300040F8383D10F0AEFF05460FCD05AC0FC462
:105940000FCD0FC4099A0A9B2F6805980699276006
:105950000132643B0B9D079F089C8DF8040005A84D
:105960008DF80C208DF80D308DF808108DF80A5048
:105970008DF809708DF80B40009C10F055FF214602
:105980000246244811F0A0FC314601A808F040F975
:1059900078B9214811F0DEFC40E701461F4811F0BC
:1059A00093FC304607F028FA01461D4811F08CFCA4
:1059B00034E71C4811F0CEFC30E700BF18A90020E6
:1059C000884A0208B04A020870440208B845020832
:1059D000A0A00020B04B0208AC4A0208DC4B020831
:1059E00088A00020E44B0208E4970020F04B020856
:1059F000F44B0208944A0208BC4A0208D84A02083A
:105A0000FC4A02084042020814980020104B020889
:105A10002C4B02083C4B0208484B0208784B02080A
:105A2000944B0208604B020870B50446154682B0DC
:105A300000F11A020E460E48294611F045FC237C5F
:105A40000C4A40F6280000FB03208268C3689A4293
:105A50000BD04FF6FF72AA423146A8BF2A4601ABCF
:105A60000CF012F8019802B070BD4FF0FF30FAE769
:105A7000204C02088CA9002010B50C4B027C044677
:105A800040F6280000FB02300CF02AF804F11A015D
:105A9000074811F019FC6369188800B110BD012294
:105AA0000449BDE810400BF067BC00BF8CA9002082
:105AB000484C0208A853020808B54268064B9A42AF
:105AC00004D0064811F046FC012008BD044811F03E
:105AD00041FC002008BD00BF540C102E904C020861
